:100000000C942A010C9455010C9455010C94550143
:100010000C9455010C9455010C9455010C94550108
:100020000C9455010C9455010C9455010C945501F8
:100030000C9455010C9455010C9455010C945501E8
:100040000C9455010C9455010C9455010C945501D8
:100050000C9455010C9455010C9455010C94BC035F
:100060000C9455010C94DA050C9455010C9455012F
:100070000C9455010C9455010C9455010C945501A8
:100080000C9455010C9455010C9455010C94550198
:100090000C941B060C9455010C9455010C945501BD
:1000A0000C9455010C9455010C9455010C94550178
:1000B0000C9455010C9455010C9455010C94550168
:1000C0000C9455010C9455010C9455010C945C064C
:1000D0000C9455010C9455010C949D060C945501FB
:1000E0000C945501084AD73B3BCE016E84BCBFFD42
:1000F000C12F3D6C74319ABD56833DDA3D00C77FF8
:1001000011BED9E4BB4C3E916BAAAABE0000008090
:100110003F05A84CCDB2D44EB93836A9020C50B91F
:10012000918688083CA6AAAA2ABE000000803F004B
:10013000002100240027002A002D00300033000198
:10014000010000040107010A010000220025002827
:10015000002B002E003100340002010000050108D0
:10016000010B01000020002300260029002C002F95
:100170000032000001000003010601090105050528
:1001800005070508080808020202020A0A0808040E
:10019000040404010101010101010103030303033C
:1001A000030303040707070C0C0C0C0C0C0C0C02CB
:1001B00002020206060606060606060B0B0B0B0BD2
:1001C0000B0B0B01021020200808102040102040CB
:1001D000800201020108040201010204081020400B
:1001E0008080402010080402018004020180402029
:1001F0001008040201080402010102040810204052
:100200008001020408102040800000090A02080B47
:100210000C0D0706030401000000000000000000B0
:1002200000000000000000000000000000000000CE
:100230000000000000100F0E000000000000000091
:1002400000000000000000000000000000000000AE
:100250006D014C0711241FBECFEFD1E2DEBFCDBF31
:1002600012E0A0E0B2E0EEE9FAE100E00BBF02C06C
:1002700007900D92AE30B107D9F71BBE14E0AEE087
:10028000B2E001C01D92A439B107E1F712E0C4E564
:10029000D2E004C02297FE010E94490DC035D1076B
:1002A000C9F70E94B5030C944D0D0C94000084E333
:1002B00061E00E94A30483E361E00E94A30482E35F
:1002C00060E00E94A30485E361E00E94A3041CBCDB
:1002D00080E58CBD8DB58EB508958EE092E00E94CC
:1002E0005701089588E494E040E052EC61E070E04A
:1002F0000E94DE068DE061E00E94A3048DE061E0D3
:100300000E94C30480E360E00E94A30481E361E0F3
:100310000E94A30481E360E00E94C30486E160E0E0
:100320000E94C30487E160E00E94C30408951F9304
:10033000182F81E361E00E94C30483E090E00E94F3
:10034000040481E360E00E94C304113059F01130CD
:1003500018F0123099F40CC081E68EBD0DB407FE82
:10036000FDCF0BC082E68EBD0DB407FEFDCF05C0EC
:1003700083E68EBD0DB407FEFDCF8EB580E30E94EF
:100380004E05892BD9F38FEF8EBD0DB407FEFDCF3F
:100390003EB58FEF8EBD0DB407FEFDCF2EB5932F6A
:1003A00080E030E0282B392BC9011F9108952F924E
:1003B0003F924F925F926F927F928F929F92AF92F5
:1003C000BF92CF92DF92EF92FF920F931F93DF9332
:1003D000CF93CDB7DEB72C970FB6F894DEBF0FBE24
:1003E000CDBF80E00E9497019093100280930F028E
:1003F00081E00E949701909312028093110282E0A3
:100400000E949701909314028093130280E00E944F
:10041000730403E611E09801281B390B3093160290
:100420002093150281E00E947304081B190B10939E
:1004300018020093170282E00E94730483569140D1
:1004400090931A0280931902AA2797FDA095BA2FBC
:10045000BC01CD010E94340B7B018C01609115021F
:1004600070911602882777FD8095982F0E94340B93
:10047000A80197010E943F0A5B016C0160931F0273
:1004800070932002809321029093220260911702C0
:1004900070911802882777FD8095982F0E94340B61
:1004A000A80197010E943F0A7B018C0160932302FF
:1004B0007093240280932502909326020E94960A4C
:1004C0001B012C016091110270911202882777FDA7
:1004D0008095982F0E94340B69877A878B879C8739
:1004E000C601B5010E94B90C6D837E838F83988706
:1004F000C801B7010E94B90C3B014C016091130285
:1005000070911402882777FD8095982F0E94340BF4
:1005100069837A838B839C83C601B5010E94960A06
:100520005B016C0160910F0270911002882777FDCA
:100530008095982F0E94340BA20191010E94560CC5
:100540007B018C0169857A858B859C852D813E8117
:100550004F8158850E94560CA40193010E94560CAD
:100560009B01AC01C801B7010E94CC097B018C0141
:1005700069817A818B819C81A60195010E94560C2C
:10058000A40193010E94560C9B01AC01C801B70164
:100590000E94CB091B012C01609327027093280253
:1005A0008093290290932A0269857A858B859C85A0
:1005B000A60195010E94560C7B018C0169817A810C
:1005C0008B819C812D813E814F8158850E94560CE4
:1005D0009B01AC01C801B7010E94CC093B014C0151
:1005E00060932B0270932C0280932D0290932E0225
:1005F000A20191010E94990A0E946A0A5B016C01A2
:1006000021EE3EE245E652E40E94560C7B018C014D
:1006100020E030E040E050E00E944B0C181654F00F
:10062000C601B50121EE3EE245E652EC0E94560CB1
:100630007B018C01E0921B02F0921C0200931D02D0
:1006400010931E02C201B10120E030E040E050E012
:100650000E944B0C8823D4F1C401B30120E030E0A8
:1006600040E050E00E944B0C882384F060E070E092
:1006700084E393E4A80197010E94CB0960931B02D5
:1006800070931C0280931D0290931E02C401B3015B
:1006900020E030E040E050E00E94920A8823B4F469
:1006A00060911B0270911C0280911D0290911E02AC
:1006B00020E030E044E353E40E94CC0960931B0245
:1006C00070931C0280931D0290931E02C201B1011F
:1006D00020E030E040E050E00E94920A882304F5D8
:1006E000C401B30120E030E040E050E00E94920AF3
:1006F0008823B4F460E070E084EB93E420911B0263
:1007000030911C0240911D0250911E020E94CB09A3
:1007100060931B0270931C0280931D0290931E0233
:1007200040911B0250911C0260911D0270911E02AB
:1007300088E494E00E94C0092C960FB6F894DEBFBE
:100740000FBECDBFCF91DF911F910F91FF90EF9022
:10075000DF90CF90BF90AF909F908F907F906F90E1
:100760005F904F903F902F9008950E9412040E9436
:1007700072010E94D701FDCF1F920F920FB60F9208
:1007800011242F933F938F939F93AF93BF938091A7
:10079000330290913402A0913502B091360230912B
:1007A00037020196A11DB11D232F2D5F2D3720F09B
:1007B0002D570196A11DB11D20933702809333025E
:1007C00090933402A0933502B093360280912F02A9
:1007D00090913002A0913102B09132020196A11D98
:1007E000B11D80932F0290933002A0933102B093F9
:1007F0003202BF91AF919F918F913F912F910F90B6
:100800000FBE0F901F901895019759F0FC01EE0F45
:10081000FF1FEE0FFF1F32978FB7F8943197F1F754
:100820008FBF0895789484B5826084BD84B581605B
:1008300084BD85B5826085BD85B5816085BDEEE6E8
:10084000F0E0808181608083E1E8F0E08081826077
:100850008083808181608083E0E8F0E08081816036
:100860008083E1EBF0E0808184608083E0EBF0E066
:10087000808181608083E1E9F0E080818260808313
:10088000808181608083E1EAF0E080818260808302
:10089000808181608083E1E2F1E0808182608083F9
:1008A000808181608083E0E9F0E0808181608083E5
:1008B000E0EAF0E0808181608083E0E2F1E0808125
:1008C00081608083EAE7F0E08081846080838081BA
:1008D0008260808380818160808380818068808362
:1008E0001092C1000895382F37702091020222958E
:1008F000220F220F207C232B20937C0020917B0051
:1009000086958695869590E08170907033E0880F8B
:10091000991F3A95E1F7277F282B20937B00809140
:100920007A00806480937A0080917A0086FDFCCF03
:100930002091780040917900942F80E030E0282BBE
:10094000392BC9010895282F30E0C9018D539E4FDE
:10095000FC01949123583E4FF9018491882391F032
:10096000E82FF0E0EE0FFF1FE15DFE4FA591B4917F
:10097000662329F48C91909589238C9308958C910A
:10098000892B8C930895482F50E0CA01875F9D4FB3
:10099000FC012491CA018D539E4FFC019491435850
:1009A0005E4FFA013491332309F477C0222309F40E
:1009B00062C0233021F4809180008F7705C02430FD
:1009C00031F4809180008F7D8093800054C021306D
:1009D00019F484B58F7704C0223021F484B58F7D5B
:1009E00084BD49C0263021F48091B0008F7705C0C6
:1009F000273031F48091B0008F7D8093B0003BC0F0
:100A0000283021F4809190008F7705C0293031F48F
:100A1000809190008F7D809390002DC02A3021F42A
:100A200080919000877FF7CF2B3021F48091A00038
:100A30008F770BC02C3021F48091A0008F7D05C0F2
:100A40002D3031F48091A000877F8093A00013C0E7
:100A50002E3021F4809120018F770BC02F3021F4AC
:100A6000809120018F7D05C0203129F480912001E3
:100A7000877F80932001E32FF0E0EE0FFF1FE75BFD
:100A8000FE4FA591B491662329F48C91909589230A
:100A90008C9308958C91892B8C930895682F70E026
:100AA000CB01875F9D4FFC012491CB018D539E4F5D
:100AB000FC01449163587E4FFB019491992319F4F2
:100AC00020E030E075C0222309F462C0233021F415
:100AD000809180008F7705C0243031F480918000B0
:100AE0008F7D8093800054C0213019F484B58F77B6
:100AF00004C0223021F484B58F7D84BD49C02630E6
:100B000021F48091B0008F7705C0273031F48091B7
:100B1000B0008F7D8093B0003BC0283021F48091DD
:100B200090008F7705C0293031F4809190008F7D3F
:100B3000809390002DC02A3021F480919000877F0F
:100B4000F7CF2B3021F48091A0008F770BC02C3091
:100B500021F48091A0008F7D05C02D3031F480916B
:100B6000A000877F8093A00013C02E3021F48091D5
:100B700020018F770BC02F3021F4809120018F7DD1
:100B800005C0203129F480912001877F80932001C6
:100B9000892F90E0880F991F8D599E4FFC01A591D8
:100BA000B4918C9120E030E0842311F021E030E01A
:100BB000C90108951F920F920FB60F920BB60F92B4
:100BC00011242F933F934F935F936F937F938F9352
:100BD0009F93AF93BF93EF93FF934091C600E09133
:100BE000B802F091B902CF01019660E870E00E946E
:100BF000E30C9C018091BA029091BB02281739073F
:100C000039F0E85CFD4F40833093B9022093B8027D
:100C1000FF91EF91BF91AF919F918F917F916F91D4
:100C20005F914F913F912F910F900BBE0F900FBE90
:100C30000F901F9018951F920F920FB60F920BB640
:100C40000F9211242F933F934F935F936F937F9352
:100C50008F939F93AF93BF93EF93FF934091CE00F9
:100C6000E0913C03F0913D03CF01019660E870E014
:100C70000E94E30C9C0180913E0390913F03281752
:100C8000390739F0E454FD4F408330933D032093FE
:100C90003C03FF91EF91BF91AF919F918F917F9115
:100CA0006F915F914F913F912F910F900BBE0F90DD
:100CB0000FBE0F901F9018951F920F920FB60F92B4
:100CC0000BB60F9211242F933F934F935F936F9323
:100CD0007F938F939F93AF93BF93EF93FF93409135
:100CE000D600E091C003F091C103CF01019660E806
:100CF00070E00E94E30C9C018091C2039091C303B9
:100D00002817390739F0E05CFC4F40833093C1036A
:100D10002093C003FF91EF91BF91AF919F918F916D
:100D20007F916F915F914F913F912F910F900BBEEB
:100D30000F900FBE0F901F9018951F920F920FB635
:100D40000F920BB60F9211242F933F934F935F9303
:100D50006F937F938F939F93AF93BF93EF93FF9383
:100D600040913601E0914404F0914504CF01019691
:100D700060E870E00E94E30C9C0180914604909131
:100D800047042817390739F0EC53FC4F4083309360
:100D9000450420934404FF91EF91BF91AF919F913F
:100DA0008F917F916F915F914F913F912F910F9014
:100DB0000BBE0F900FBE0F901F9018950F931F93AF
:100DC0008C019A01AB01DC011896ED91FC91199709
:100DD000108260E874E88EE190E00E94180D2150C6
:100DE000304040405040CA01B90122E030E040E0CC
:100DF00050E00E94180DD8011496ED91FC911597C2
:100E000030831696ED91FC91179720831A96ED91F9
:100E1000FC911B97208141E050E0CA011E960C9086
:100E20001E9702C0880F991F0A94E2F7282B20838F
:100E30001A96ED91FC911B972081CA011F960C9088
:100E40001F9702C0880F991F0A94E2F7282B20836E
:100E50001A96ED91FC911B97808150960C9002C0E0
:100E6000440F551F0A94E2F7842B80831F910F9142
:100E70000895FC01A085B18521898C9190E0022E16
:100E800002C0959587950A94E2F780FFF6CF048417
:100E9000F585E02D6083089527E032E03093490422
:100EA0002093480488E392E090934B0480934A0493
:100EB00085EC90E090934D0480934C0484EC90E09A
:100EC00090934F0480934E0480EC90E090935104F3
:100ED0008093500481EC90E09093530480935204EB
:100EE00086EC90E09093550480935404E4E0E09302
:100EF000560473E07093570467E06093580455E01C
:100F00005093590441E040935A0430935C04209379
:100F10005B048CEB92E090935E0480935D048DEC17
:100F200090E09093600480935F048CEC90E0909349
:100F300062048093610488EC90E090936404809351
:100F4000630489EC90E090936604809365048EECD2
:100F500090E09093680480936704E0936904709331
:100F60006A0460936B0450936C0440936D04309357
:100F70006F0420936E0480E493E090937104809357
:100F8000700485ED90E0909373048093720484ED77
:100F900090E0909375048093740480ED90E09093BA
:100FA00077048093760481ED90E0909379048093A8
:100FB000780486ED90E090937B0480937A04E0932C
:100FC0007C0470937D0460937E0450937F0440936F
:100FD0008004309382042093810484EC93E0909306
:100FE00084048093830485E391E090938604809346
:100FF000850484E391E0909388048093870480E3E0
:1010000091E090938A048093890481E391E0909326
:101010008C0480938B0486E391E090938E048093FC
:101020008D04E0938F047093900460939104509327
:1010300092044093930408950F931F93CF93DF93EB
:101040008C01EB0109C02196D801ED91FC91019032
:10105000F081E02DC801099568816623A1F7DF9131
:10106000CF911F910F910895EF92FF920F931F93CD
:10107000CF93DF938C017B01EA010CC0D7016D9106
:101080007D01D801ED91FC910190F081E02DC80126
:1010900009952197209791F7DF91CF911F910F919B
:1010A000FF90EF900895DC01ED91FC910280F381B7
:1010B000E02D099508950F931F938C01DC01ED91AC
:1010C000FC910190F081E02D6DE00995D801ED9142
:1010D000FC910190F081E02DC8016AE009951F9113
:1010E0000F9108952F923F924F925F926F927F924D
:1010F0008F929F92AF92BF92CF92DF92EF92FF9228
:101100000F931F93DF93CF93CDB7DEB7A0970FB6A2
:10111000F894DEBF0FBECDBF1C016A017B014115F3
:1011200051056105710549F4DC01ED91FC910190D7
:10113000F081E02D60E3099554C08824992454017E
:10114000422E55246624772401E010E00C0F1D1F69
:10115000080D191DC701B601A30192010E94F60CEA
:10116000F80160830894811C911CA11CB11CC7016B
:10117000B601A30192010E94F60CC901DA016C01CB
:101180007D01C114D104E104F104F1F681E0E82EFF
:10119000F12CEC0EFD1EE80CF91C3E010894611CBC
:1011A000711CD501C4010197A109B1096C01C818CE
:1011B000D90814C0F601EE0DFF1D60816A3010F4ED
:1011C000605D01C0695CD101ED91FC910190F081FD
:1011D000E02DC10109950894E108F1086E147F041F
:1011E00049F7A0960FB6F894DEBF0FBECDBFCF91E2
:1011F000DF911F910F91FF90EF90DF90CF90BF9004
:10120000AF909F908F907F906F905F904F903F90A6
:101210002F9008952AE00E9472080895EF92FF929D
:101220000F931F93CF93DF93EC017A018B0177FF2C
:101230000FC0E881F9810190F081E02D6DE2099500
:1012400010950095F094E094E11CF11C011D111D16
:10125000CE01B801A7012AE00E947208DF91CF9168
:101260001F910F91FF90EF9008959F92AF92BF92C0
:10127000CF92DF92EF92FF920F931F93CF93DF9362
:10128000EC017A018B01922ECB01BA0120E030E013
:1012900040E050E00E94920A882364F4E881F981DA
:1012A0000190F081E02DCE016DE2099517FB1095BC
:1012B00017F9109520E030E040E05FE3AA240BC06E
:1012C000CA01B90120E030E040E251E40E94990AED
:1012D0009B01AC01A394A91498F3C801B7010E9423
:1012E000CC095B016C010E94060B7B018C01CE01D5
:1012F000B801A7010E940A09992029F0CE0160E0F7
:1013000072E00E945308C801B7010E94320B9B0192
:10131000AC01C601B5010E94CB0920C020E030E03D
:1013200040E251E40E94560C7B018C010E94010BAB
:101330005B016C01CC24B7FCC094DC2CCE01B6015F
:10134000A5010E940E09C601B5010E94340B9B0144
:10135000AC01C801B7010E94CB099A949920F1F61B
:10136000DF91CF911F910F91FF90EF90DF90CF9081
:10137000BF90AF909F90089522E00E943509089594
:101380000F931F938C010E94BC09C8010E945B0847
:101390001F910F9108955058BB27AA270ED030C235
:1013A000F0D130F0F5D120F031F49F3F11F41EF46C
:1013B000C0C10EF4E095E7FBB6C1E92F43D280F33C
:1013C000BA17620773078407950718F071F49EF542
:1013D0005BC20EF4E0950B2EBA2FA02D0B01B901C4
:1013E00090010C01CA01A0011124FF27591B99F09B
:1013F000593F50F4503E68F11A16F040A22F232FA7
:10140000342F4427585FF3CF469537952795A795F6
:10141000F0405395C9F77EF41F16BA0B620B730B9D
:10142000840BBAF09150A1F0FF0FBB1F661F771F0E
:10143000881FC2F70EC0BA0F621F731F841F48F4C3
:10144000879577956795B795F7959E3F08F0B3CF49
:101450009395880F08F09927EE0F97958795089533
:1014600090D158F080E891E009F49EEF91D128F0F6
:1014700040E851E059F45EEF09C05BC105C2E92FB5
:10148000E078E0D168F3092E052AC1F32617370763
:101490004807590738F00E2E07F8E02569F0E025D7
:1014A000E0640AC0EF6307F8009407FADB01B901B2
:1014B0009D01DC01CA01AD01EF934AD0A1D10AD050
:1014C0005F91552331F02BED3FE049E450FD49ECAD
:1014D00063CF0895DF93DD27B92FBF7740E85FE33F
:1014E0001616170648075B0710F4D92FD8D19F931B
:1014F0008F937F936F9343D2E4EEF0E01DD180D1C0
:101500002F913F914F915F91DDD1DD2349F09058AC
:10151000A2EA2AED3FE049EC5FE3D0785D274DDF9A
:10152000DF916EC1DCD008F481E0089539D1E395F4
:1015300078C10CD065C12CD140F023D130F021F41A
:101540005F3F19F0F0C05111A0C1F3C07BD198F3F7
:101550009923C9F35523B1F3951B550BBB27AA2734
:1015600062177307840738F09F5F5F4F220F331FA6
:10157000441FAA1FA9F333D00E2E3AF0E0E830D072
:1015800091505040E695001CCAF729D0FE2F27D075
:10159000660F771F881FBB1F261737074807AB0743
:1015A000B0E809F0BB0B802DBF01FF2793585F4FB8
:1015B0002AF09E3F510568F0B6C067C15F3FECF36B
:1015C000983EDCF3869577956795B795F7959F5F7D
:1015D000C9F7880F911D9695879597F90895E1E0D1
:1015E000660F771F881FBB1F621773078407BA0730
:1015F00020F0621B730B840BBA0BEE1F88F7E0958B
:10160000089504D06894B11140C1089523D188F0A1
:101610009F5790F0B92F9927B751A0F0D1F0660FDE
:10162000771F881F991F1AF0BA95C9F712C0B130F9
:1016300081F02AD1B1E0089527C1672F782F88273C
:10164000B85F39F0B93FCCF3869577956795B39538
:10165000D9F73EF490958095709561957F4F8F4FA7
:101660009F4F0895E89409C097FB3EF490958095AC
:10167000709561957F4F8F4F9F4F9923A9F0F92F58
:1016800096E9BB279395F695879577956795B795D6
:10169000F111F8CFFAF4BB0F11F460FF1BC06F5FBC
:1016A0007F4F8F4F9F4F16C0882311F096E911C0CE
:1016B000772321F09EE8872F762F05C0662371F0EF
:1016C00096E8862F70E060E02AF09A95660F771F03
:1016D000881FDAF7880F9695879597F90895990FDF
:1016E0000008550FAA0BE0E8FEEF16161706E807EC
:1016F000F907C0F012161306E407F50798F0621B0D
:10170000730B840B950B39F40A2661F0232B242BE1
:10171000252B21F408950A2609F4A140A6958FEF00
:10172000811D811D089597F99F6780E870E060E052
:1017300008959FEF80EC0895DF93CF931F930F934D
:10174000FF92EF92DF927B018C01689405C0DA2E44
:10175000EF01B8D0FE01E894A5912591359145910E
:101760005591AEF3EF0129DEFE019701A801DA944D
:1017700079F7DF90EF90FF900F911F91CF91DF915C
:10178000089500240A9416161706180609060895E7
:1017900000240A9412161306140605060895C9CFEC
:1017A00059D0E8F3E894EFEFBB273FE048EC5FE760
:1017B0006B3D73078407950708F1FF279F57B25ABF
:1017C0006A4D7F40894CF04032F4BE556542704FFF
:1017D0008643FF4F0894EE1F915030F0BB0F661FF9
:1017E000771F881FFF1FEBCF9EE7882332F0BB0FC8
:1017F000661F771F881F9A95C1F79395E095C2C021
:10180000092E0394000C11F4882352F0BB0F40F40E
:10181000BF2B11F460FF04C06F5F7F4F8F4F9F4F4E
:101820000895EF93E0FF06C0A2EA2AED3FE049ECFD
:101830005FEBC3DDE5DF0F90039401FC9058E1E11D
:10184000F1E0B0C057FD9058440F551F59F05F3F6D
:1018500071F04795880F97FB991F61F09F3F79F0D2
:1018600087950895121613061406551FF2CF469554
:10187000F1DF08C0161617061806991FF1CF8695D6
:101880007105610508940895E894BB2766277727BA
:10189000CB0197F9089523DF08F48FEF08959B019A
:1018A000AC0160E070E080E89FE343CE0BD0A8CFAE
:1018B00068DF28F06DDF18F0952309F034CF39CFB9
:1018C0001124E3CFBFDFA0F3959FD1F3950F50E034
:1018D000551F629FF001729FBB27F00DB11D639FE2
:1018E000AA27F00DB11DAA1F649F6627B00DA11D88
:1018F000661F829F2227B00DA11D621F739FB00D2E
:10190000A11D621F839FA00D611D221F749F33279D
:10191000A00D611D231F849F600D211D822F762F36
:101920006A2F11249F5750408AF0E1F088234AF033
:10193000EE0FFF1FBB1F661F771F881F915050407F
:10194000A9F79E3F510570F0EECE9FCF5F3FECF3BD
:10195000983EDCF3869577956795B795F795E7956B
:101960009F5FC1F7FE2B880F911D9695879597F97C
:1019700008959F9315DF0F9007FCEE5F52CF9B01F8
:10198000AC0194CF9F3F49F0915028F4869577950C
:101990006795B7959F5F80389F4F880F969587957D
:1019A00097F908959F938F937F936F93FF93EF938E
:1019B0009B01AC017BDFEF91FF91BEDE2F913F9148
:1019C0004F915F9173CF97FB092E07260AD077FDC1
:1019D00004D049D006D000201AF4709561957F4F4D
:1019E0000895F6F7909581959F4F0895A1E21A2EDC
:1019F000AA1BBB1BFD010DC0AA1FBB1FEE1FFF1FB3
:101A0000A217B307E407F50720F0A21BB30BE40B02
:101A1000F50B661F771F881F991F1A9469F7609549
:101A20007095809590959B01AC01BD01CF01089503
:101A300097FB092E05260ED057FD04D0D7DF0AD01C
:101A4000001C38F450954095309521953F4F4F4FED
:101A50005F4F0895F6F790958095709561957F4F4B
:101A60008F4F9F4F0895AA1BBB1B51E107C0AA1FB0
:101A7000BB1FA617B70710F0A61BB70B881F991F2F
:101A80005A95A9F780959095BC01CD010895EE0F68
:0E1A9000FF1F0590F491E02D0994F894FFCF0C
:0E1A9E002E00010000000039071C083408006B
:00000001FF
