:100000000C9404010C942F010C942F010C942F01DB
:100010000C942F010C942F010C942F010C942F01A0
:100020000C942F010C942F010C942F010C942F0190
:100030000C942F010C942F010C942F010C942F0180
:100040000C942F010C942F010C942F010C942F0170
:100050000C942F010C942F010C942F010C94C705C4
:100060000C942F010C9445070C942F010C942F0134
:100070000C942F010C942F010C942F010C942F0140
:100080000C942F010C942F010C942F010C942F0130
:100090000C9486070C942F010C942F010C947F0371
:1000A0000C942F010C942F010C942F010C942F0110
:1000B0000C942F010C942F010C942F010C942F0100
:1000C0000C942F010C942F010C942F010C94C70752
:1000D0000C942F010C942F010C9408080C942F0100
:1000E0000C942F0100002100240027002A002D007D
:1000F0003000330001010000040107010A01000083
:100100002200250028002B002E00310034000201BF
:100110000000050108010B0100002000230026005B
:1001200029002C002F00320000010000030106010D
:10013000090105050505070508080808020202026D
:100140000A0A080804040404010101010101010173
:100150000303030303030303040707070C0C0C0C3E
:100160000C0C0C0C02020202060606060606060627
:100170000B0B0B0B0B0B0B0B0102102020080810B4
:100180002040102040800201020108040201010207
:1001900004081020408080402010080402018004E0
:1001A000020180402010080402010804020101023B
:1001B0000408102040800102040810204080000044
:1001C000090A02080B0C0D070603040100000000D9
:1001D000000000000000000000000000000000001F
:1001E00000000000000000000000100F0E000000E2
:1001F00000000000000000000000000000000000FF
:10020000000000007902B70811241FBECFEFD1E231
:10021000DEBFCDBF12E0A0E0B2E0E6EDF5E100E028
:100220000BBF02C007900D92A231B107D9F71BBED8
:1002300014E0A2E1B2E001C01D92AD3AB107E1F7CE
:1002400012E0C8E0D2E004C02297FE010E94E50A55
:10025000C430D107C9F70E94C0050C94E90A0C9478
:1002600000000F931F93CF93DF93689F8001699FD6
:10027000100D789F100D1124C8010E944D01EC0152
:10028000009729F060E070E0A8010E944F02CE01C3
:10029000DF91CF911F910F910895CF93DF93BC0110
:1002A0008230910510F462E070E0A091AB04B0914F
:1002B000AC04ED01E0E0F0E040E050E021C08881D6
:1002C00099818617970769F48A819B81309719F085
:1002D0009383828304C09093AC048093AB04FE01AB
:1002E00034C06817790738F44115510519F084179F
:1002F000950708F4AC01FE018A819B819C01E9010C
:100300002097E9F641155105A9F1CA01861B970B03
:10031000049708F4BA01E0E0F0E02AC08D919C91C6
:10032000119784179507F9F46417750781F41296ED
:100330008D919C911397309719F09383828304C019
:100340009093AC048093AB04FD0132964CC0CA017B
:10035000861B970BFD01E80FF91F619371930297BC
:100360008D939C9340C0FD01828193819C01D901B2
:100370001097A1F68091A9049091AA04892B41F4C9
:1003800080910202909103029093AA048093A904A1
:1003900040910402509105024115510541F44DB7B9
:1003A0005EB78091000290910102481B590B209189
:1003B000A9043091AA04CA01821B930B86179707E0
:1003C00080F0AB014E5F5F4F8417950750F0420FEE
:1003D000531F5093AA044093A904F90161937193A8
:1003E00002C0E0E0F0E0CF01DF91CF910895CF931C
:1003F000DF93009709F450C0EC0122971B821A8208
:10040000A091AB04B091AC04109709F140E050E02A
:10041000AC17BD0708F1BB83AA83FE01219131917E
:10042000E20FF31FAE17BF0779F48D919C911197DE
:10043000280F391F2E5F3F4F3983288312968D91E5
:100440009C9113979B838A834115510571F4D09336
:10045000AC04C093AB0420C012968D919C9113976D
:10046000AD01009711F0DC01D3CFFA01D383C28331
:1004700021913191E20FF31FCE17DF0769F48881D4
:100480009981280F391F2E5F3F4FFA013183208356
:100490008A819B8193838283DF91CF910895DC01D0
:1004A00001C06D9341505040E0F7089581E0809382
:1004B0001B02609316021092190210921A020895FC
:1004C0008091150290911402891B08959091140255
:1004D00080911502981710F080E00895E0911202C3
:1004E000F0911302E90FF11D80819F5F9093140238
:1004F00008950895DF93CF930F92CDB7DEB7698348
:1005000080911B028823A9F080911A028032B0F4F6
:1005100080911902E0911702F0911802E80FF11D85
:100520006083809119028F5F8093190280931A0271
:1005300005C0CE01019661E00E9462030F90CF9149
:10054000DF91089560911702709118028091160250
:1005500040911A0221E00E941D031092190210928C
:100560001A0210921B020895862F60911202709158
:100570001302413208F040E20E94E5021092140298
:100580008093150208950E94B402089580E290E0DD
:1005900061E070E00E943101809312029093130297
:1005A000109214021092150280E290E061E070E077
:1005B0000E94310180931702909318021092190241
:1005C00010921A020E9405050895982F413210F0EA
:1005D00040E031C080911D028823E1F781E08093E3
:1005E0001D028FEF80932E021092250241504093FE
:1005F00026024F5F990F916090931E0285EE8093C3
:10060000BC0080911D028130E1F3809125028417A6
:1006100010F440912502A0912302B091240220E021
:1006200030E007C0FB01E20FF31F8D9180832F5F45
:100630003F4F2417B8F3842F08951F93582F122F7C
:10064000413210F081E03CC080911D028823E1F727
:1006500082E080931D028FEF80932E02109225027C
:1006600040932602A0912302B0912402FB0102C014
:1006700081918D938E2F861B8417D0F3852F90E068
:10068000880F991F80931E0285EE8093BC00112372
:1006900021F080911D028230E1F380912E028F3F84
:1006A00011F480E00DC080912E02803211F482E0BE
:1006B00007C080912E02803311F084E001C083E0F6
:1006C0001F910895482F613210F081E008958091C4
:1006D0001D02843011F082E0089560932A02A091F7
:1006E0002702B0912802842F9C01F90102C0819158
:1006F0008D938E2F841B8617D0F380E008951F9270
:100700000F920FB60F920BB60F9211242F933F93B7
:100710004F935F936F937F938F939F93AF93BF9309
:10072000EF93FF938091B90090E0887F90708036BE
:10073000910509F4E2C081369105CCF58832910526
:1007400009F47BC089329105B4F48031910509F434
:100750006FC0813191053CF4009709F438C10897C6
:1007600009F040C165C08831910509F466C08097E1
:1007700009F038C17FC08034910509F4A3C08134E9
:10078000910544F48033910509F47FC0C89709F0BE
:1007900029C186C08035910509F486C08835910548
:1007A00009F495C08834910509F01CC19EC08839B0
:1007B000910509F404C189399105ECF48837910554
:1007C00009F49BC0893791054CF48836910509F4EA
:1007D00094C08037910509F005C18FC08838910514
:1007E00009F4EDC08039910509F48DC08038910578
:1007F00009F0F8C088C0803B910509F4B2C0813B84
:1008000091054CF4803A910509F491C0883A91051C
:1008100009F0E8C0A6C0803C910509F4D4C0883C2A
:10082000910509F4D0C0883B910509F0DBC0B1C047
:1008300080911E028093BB00C0C0909125028091E0
:100840002602981778F490912502E0912302F09106
:100850002402E90FF11D80818093BB009F5F90937C
:100860002502ABC085ED8093BC008091BC0084FD67
:10087000FCCFB6C080E280932E0285ED8093BC0051
:100880008091BC0084FDFCCFABC080E380932E023E
:1008900085ED8093BC008091BC0084FDFCCFA0C09E
:1008A00088E380932E028FC0809125029091BB0037
:1008B000E0912302F0912402E80FF11D90838F5FF5
:1008C00080932502909125028091260274C0809128
:1008D00025029091BB00E0912302F0912402E80FE1
:1008E000F11D90838F5F8093250285ED8093BC007E
:1008F0008091BC0084FDFCCF73C083E080931D0217
:1009000010922D025AC080912D02803208F057C0FB
:1009100080912D029091BB00E0912B02F0912C026E
:10092000E80FF11D90838F5F80932D0246C0809168
:100930002D02803248F480912D02E0912B02F0913B
:100940002C02E80FF11D108260912D02E09121022E
:10095000F091220280912B0290912C0270E0099577
:1009600032C084E080931D021092290210922A0264
:10097000E0911F02F0912002099580912A028823BC
:1009800041F481E080932A02E0912702F09128024D
:10099000108290912902E0912702F0912802E90F3C
:1009A000F11D80818093BB009F5F909329029091FD
:1009B000290280912A02981710F485EC01C085E87D
:1009C0008093BC000FC085EC8093BC0009C01092DE
:1009D0002E0285ED8093BC008091BC0084FDFCCF8D
:1009E00010921D02FF91EF91BF91AF919F918F9156
:1009F0007F916F915F914F913F912F910F900BBE1F
:100A00000F900FBE0F901F90189510921D02589ACC
:100A1000599AE9EBF0E080818E7F808380818D7F21
:100A2000808388E48093B80085E48093BC0080E2F2
:100A300090E061E070E00E94310180932302909386
:100A4000240280E290E061E070E00E943101809336
:100A500027029093280280E290E061E070E00E941B
:100A6000310180932B0290932C0208950F931F93D2
:100A7000CF93DF938CE192E06DE170E00E9456022B
:100A800060912F026F5F60932F0261508CE192E0C2
:100A90000E947A028CE192E00E94A20280912F02D1
:100AA0008A3009F480E080932F028CE192E06DE1BE
:100AB00070E042E050E00E94C3028CE192E00E94AC
:100AC0006002823088F180912F02C82FD0E08CE143
:100AD00092E00E946602FE01EE0FFF1FE05DFD4FF7
:100AE0008083118200912F02C02FD0E0CC0FDD1F38
:100AF000C05DDD4F188100E0198308838CE192E02E
:100B00000E94660290E0802B912B99838883E0916C
:100B10002F02F0E0EE0FFF1FE05DFD4F608171815D
:100B20008DE594E00E94710A80910602813011F4F3
:100B300060E001C061E0609306028DE00E94BA06A9
:100B400064E670E080E090E00E940F06DF91CF91B4
:100B50001F910F9108958CE192E00E94C6028DE5ED
:100B600094E040E052EC61E070E00E9449088DE0C2
:100B700061E00E949A068DE061E00E94BA06089545
:100B80000E9439060E94AB050E943605FDCF1F92D8
:100B90000F920FB60F9211242F933F938F939F9331
:100BA000AF93BF938091480290914902A0914A026D
:100BB000B0914B0230914C020196A11DB11D232F23
:100BC0002D5F2D3720F02D570196A11DB11D2093CB
:100BD0004C028093480290934902A0934A02B0933A
:100BE0004B028091440290914502A0914602B0913F
:100BF00047020196A11DB11D8093440290934502C6
:100C0000A0934602B0934702BF91AF919F918F91FD
:100C10003F912F910F900FBE0F901F901895EF925C
:100C2000FF920F931F937B018C018FB7F894409133
:100C300048025091490260914A0270914B028FBF65
:100C40002FB7F8948091480290914902A0914A02EE
:100C5000B0914B022FBF841B950BA60BB70BE81668
:100C6000F9060A071B0760F71F910F91FF90EF909D
:100C70000895789484B5826084BD84B5816084BD14
:100C800085B5826085BD85B5816085BDEEE6F0E005
:100C9000808181608083E1E8F0E0808182608083F0
:100CA000808181608083E0E8F0E0808181608083E2
:100CB000E1EBF0E0808184608083E0EBF0E0808114
:100CC00081608083E1E9F0E08081826080838081BF
:100CD00081608083E1EAF0E08081826080838081AE
:100CE00081608083E1E2F1E08081826080838081A5
:100CF00081608083E0E9F0E0808181608083E0EAC8
:100D0000F0E0808181608083E0E2F1E080818160B9
:100D10008083EAE7F0E08081846080838081826064
:100D2000808380818160808380818068808310924D
:100D3000C1000895282F30E0C90188589E4FFC015A
:100D400094912E5C3E4FF9018491882391F0E82F15
:100D5000F0E0EE0FFF1FEC51FF4FA591B491662319
:100D600029F48C91909589238C9308958C91892BEB
:100D70008C930895482F50E0CA0182549E4FFC0185
:100D80002491CA0188589E4FFC0194914E5C5E4F9D
:100D9000FA013491332309F477C0222309F462C0A5
:100DA000233021F4809180008F7705C0243031F406
:100DB000809180008F7D8093800054C0213019F491
:100DC00084B58F7704C0223021F484B58F7D84BD33
:100DD00049C0263021F48091B0008F7705C02730BC
:100DE00031F48091B0008F7D8093B0003BC02830FB
:100DF00021F4809190008F7705C0293031F48091E3
:100E000090008F7D809390002DC02A3021F4809136
:100E10009000877FF7CF2B3021F48091A0008F774F
:100E20000BC02C3021F48091A0008F7D05C02D30A7
:100E300031F48091A000877F8093A00013C02E30F2
:100E400021F4809120018F770BC02F3021F4809105
:100E500020018F7D05C0203129F480912001877FFA
:100E600080932001E32FF0E0EE0FFF1FE250FF4FD1
:100E7000A591B491662329F48C91909589238C9344
:100E800008958C91892B8C9308951F920F920FB621
:100E90000F920BB60F9211242F933F934F935F93B2
:100EA0006F937F938F939F93AF93BF93EF93FF9332
:100EB0004091C600E091CD02F091CE02CF010196A3
:100EC00060E870E00E947F0A9C018091CF029091BF
:100ED000D0022817390739F0E35BFD4F4083309388
:100EE000CE022093CD02FF91EF91BF91AF919F91E0
:100EF0008F917F916F915F914F913F912F910F90C3
:100F00000BBE0F900FBE0F901F9018951F920F925F
:100F10000FB60F920BB60F9211242F933F934F935E
:100F20005F936F937F938F939F93AF93BF93EF9351
:100F3000FF934091CE00E0915103F0915203CF0115
:100F4000019660E870E00E947F0A9C018091530343
:100F5000909154032817390739F0EF52FD4F408321
:100F60003093520320935103FF91EF91BF91AF91C2
:100F70009F918F917F916F915F914F913F912F91B1
:100F80000F900BBE0F900FBE0F901F9018951F92E1
:100F90000F920FB60F920BB60F9211242F933F931F
:100FA0004F935F936F937F938F939F93AF93BF9371
:100FB000EF93FF934091D600E091D503F091D603D3
:100FC000CF01019660E870E00E947F0A9C01809149
:100FD000D7039091D8032817390739F0EB5AFC4F03
:100FE00040833093D6032093D503FF91EF91BF91B7
:100FF000AF919F918F917F916F915F914F913F91B1
:101000002F910F900BBE0F900FBE0F901F90189551
:101010001F920F920FB60F920BB60F9211242F93BF
:101020003F934F935F936F937F938F939F93AF9370
:10103000BF93EF93FF9340913601E0915904F091F3
:101040005A04CF01019660E870E00E947F0A9C017B
:1010500080915B0490915C042817390739F0E752BE
:10106000FC4F408330935A0420935904FF91EF9131
:10107000BF91AF919F918F917F916F915F914F91B0
:101080003F912F910F900BBE0F900FBE0F901F90AE
:1010900018950F931F938C019A01AB01DC011896F0
:1010A000ED91FC911997108260E874E88EE190E070
:1010B0000E94B40A2150304040405040CA01B9015A
:1010C00022E030E040E050E00E94B40AD8011496DB
:1010D000ED91FC91159730831696ED91FC91179741
:1010E00020831A96ED91FC911B97208141E050E0FE
:1010F000CA011E960C901E9702C0880F991F0A9471
:10110000E2F7282B20831A96ED91FC911B97208102
:10111000CA011F960C901F9702C0880F991F0A944E
:10112000E2F7282B20831A96ED91FC911B97808182
:1011300050960C9002C0440F551F0A94E2F7842B7E
:1011400080831F910F910895FC01A085B1852189AD
:101150008C9190E0022E02C0959587950A94E2F753
:1011600080FFF6CF0484F585E02D608308952BE0A1
:1011700032E030935E0420935D048DE492E090931E
:10118000600480935F0485EC90E090936204809308
:10119000610484EC90E0909364048093630480EC99
:1011A00090E0909366048093650481EC90E09093C6
:1011B00068048093670486EC90E090936A048093BF
:1011C0006904E4E0E0936B0473E070936C0467E0FF
:1011D00060936D0455E050936E0441E040936F04BA
:1011E000309371042093700481ED92E09093730426
:1011F000809372048DEC90E0909375048093740456
:101200008CEC90E0909377048093760488EC90E0E7
:10121000909379048093780489EC90E090937B0418
:1012200080937A048EEC90E090937D0480937C040C
:10123000E0937E0470937F04609380045093810454
:1012400040938204309384042093830485E593E0E3
:10125000909386048093850485ED90E090938804B4
:101260008093870484ED90E090938A0480938904AE
:1012700080ED90E090938C0480938B0481ED90E05E
:1012800090938E0480938D0486ED90E0909390046B
:1012900080938F04E093910470939204609393047D
:1012A00050939404409395043093970420939604AC
:1012B00089ED93E0909399048093980485E391E0FD
:1012C00090939B0480939A0484E391E090939D040F
:1012D00080939C0480E391E090939F0480939E040C
:1012E00081E391E09093A1048093A00486E391E0D0
:1012F0009093A3048093A204E093A4047093A504A4
:101300006093A6045093A7044093A80408950F93F4
:101310001F93CF93DF938C01EB0109C02196D80175
:10132000ED91FC910190F081E02DC8010995688153
:101330006623A1F7DF91CF911F910F910895EF924E
:10134000FF920F931F93CF93DF938C017B01EA01F0
:101350000CC0D7016D917D01D801ED91FC910190F8
:10136000F081E02DC80109952197209791F7DF9131
:10137000CF911F910F91FF90EF9008950F931F93BE
:101380008C01DC01ED91FC910190F081E02D6DE08C
:101390000995D801ED91FC910190F081E02DC801F3
:1013A0006AE009951F910F9108952F923F924F92F5
:1013B0005F926F927F928F929F92AF92BF92CF92E5
:1013C000DF92EF92FF920F931F93DF93CF93CDB7EE
:1013D000DEB7A0970FB6F894DEBF0FBECDBF1C01DD
:1013E0006A017B01411551056105710549F4DC0174
:1013F000ED91FC910190F081E02D60E3099554C0DE
:10140000882499245401422E55246624772401E02F
:1014100010E00C0F1D1F080D191DC701B601A30117
:1014200092010E94920AF80160830894811C911C29
:10143000A11CB11CC701B601A30192010E94920A2E
:10144000C901DA016C017D01C114D104E104F10488
:10145000F1F681E0E82EF12CEC0EFD1EE80CF91CF3
:101460003E010894611C711CD501C4010197A109BA
:10147000B1096C01C818D90814C0F601EE0DFF1DA2
:1014800060816A3010F4605D01C0695CD101ED914A
:10149000FC910190F081E02DC10109950894E108CB
:1014A000F1086E147F0449F7A0960FB6F894DEBFDA
:1014B0000FBECDBFCF91DF911F910F91FF90EF90A5
:1014C000DF90CF90BF90AF909F908F907F906F9064
:1014D0005F904F903F902F9008952AE00E94D50989
:1014E00008950F931F938C01AB0160E070E00E94A0
:1014F0006D0AC8010E94BE091F910F91089597FBC4
:10150000092E07260AD077FD04D049D006D0002046
:101510001AF4709561957F4F0895F6F7909581952F
:101520009F4F0895A1E21A2EAA1BBB1BFD010DC0FF
:10153000AA1FBB1FEE1FFF1FA217B307E407F50783
:1015400020F0A21BB30BE40BF50B661F771F881F5F
:10155000991F1A9469F760957095809590959B01F5
:10156000AC01BD01CF01089597FB092E05260ED0D1
:1015700057FD04D0D7DF0AD0001C38F450954095B1
:10158000309521953F4F4F4F5F4F0895F6F7909557
:101590008095709561957F4F8F4F9F4F0895AA1B3F
:1015A000BB1B51E107C0AA1FBB1FA617B70710F04E
:1015B000A61BB70B881F991F5A95A9F78095909580
:1015C000BC01CD010895EE0FFF1F0590F491E02DB1
:0615D0000994F894FFCF1E
:1015D6002000AD0400000100000000A40887099F58
:0215E6000900FA
:00000001FF
