:100000000C9403010C942E010C942E010C942E01DF
:100010000C942E010C942E010C942E010C942E01A4
:100020000C942E010C942E010C942E010C942E0194
:100030000C942E010C942E010C942E010C942E0184
:100040000C942E010C942E010C942E010C942E0174
:100050000C942E010C942E010C942E010C9451033F
:100060000C942E010C945B050C942E010C942E0123
:100070000C942E010C942E010C942E010C942E0144
:100080000C942E010C942E010C942E010C942E0134
:100090000C949C050C942E010C942E010C942E01B2
:1000A0000C942E010C942E010C942E010C942E0114
:1000B0000C942E010C942E010C942E010C942E0104
:1000C0000C942E010C942E010C942E010C94DD0541
:1000D0000C942E010C942E010C941E060C942E01EF
:1000E0000C942E0100002100240027002A002D007E
:1000F0003000330001010000040107010A01000083
:100100002200250028002B002E00310034000201BF
:100110000000050108010B0100002000230026005B
:1001200029002C002F00320000010000030106010D
:10013000090105050505070508080808020202026D
:100140000A0A080804040404010101010101010173
:100150000303030303030303040707070C0C0C0C3E
:100160000C0C0C0C02020202060606060606060627
:100170000B0B0B0B0B0B0B0B0102102020080810B4
:100180002040102040800201020108040201010207
:1001900004081020408080402010080402018004E0
:1001A000020180402010080402010804020101023B
:1001B0000408102040800102040810204080000044
:1001C000090A02080B0C0D070603040100000000D9
:1001D000000000000000000000000000000000001F
:1001E00000000000000000000000100F0E000000E2
:1001F00000000000000000000000000000000000FF
:1002000000000000CD0611241FBECFEFD1E2DEBFFB
:10021000CDBF12E0A0E0B2E0E4E8F8E100E00BBFFF
:1002200002C007900D92AE33B107D9F71BBE14E0A0
:10023000AEE3B2E001C01D92AC3CB107E1F712E0C1
:10024000C6E0D2E004C02297FE010E943C0CC430FC
:10025000D107C9F70E944A030C94400C0C9400008B
:100260000F931F93062F182F110F110F12608FE29B
:1002700060E00E9444041EBD0DB407FEFDCF8EB5A4
:100280000EBD0DB407FEFDCF8EB58FE261E00E947A
:1002900044041F910F9108950F931F93182F110F6E
:1002A000110F8FE260E00E9444041EBD0DB407FEF2
:1002B000FDCF8EB51EBC0DB407FEFDCF1EB51EBC16
:1002C0000DB407FEFDCF0EB58FE261E00E9444043D
:1002D000712F60E010E0602B712B882777FD8095EF
:1002E000982F0E94A40A1F910F9108951F93182F11
:1002F000110F110F8FE260E00E9444041EBD0DB487
:1003000007FEFDCF8EB51EBC0DB407FEFDCF1EB59A
:100310008FE261E00E9444046AE070E080E090E0D7
:100320000E949903812F1F910895AF92BF92CF929F
:10033000DF92EF92FF920F931F938EE20E94CF0401
:10034000892BD9F381E20E944C010E94710A7093BB
:100350005A02609359028FE10E947601992787FD26
:100360009095A92FB92F87709070A070B07080936E
:100370005F0290936002A0936102B093620280E2F8
:100380000E944C010E94760A60935B0270935C02AB
:1003900080935D0290935E0220915F023091600233
:1003A00040916102509162028901FF24EE24E62A05
:1003B000F72A082B192BE0926302F0926402009353
:1003C0006502109366028091520290915302892B2C
:1003D00091F4C801B7010E94A20A6093460270938B
:1003E0004702809348029093490281E090E0909305
:1003F000530280935202A0904202B0904302C090F8
:100400004402D0904502B701882777FD8095982F48
:100410000E94A40A7B018C0160E070E080E89FE309
:10042000A60195010E94A0099B01AC01C801B7017A
:100430000E94540B7B018C01C601B501209146023C
:100440003091470240914802509149020E94540B5A
:100450009B01AC01C801B7010E94A1099B01AC013D
:10046000CB01DA018093460290934702A0934802A1
:10047000B093490280E894E0A901BD010E944809B7
:1004800080E894E060E072E00E94D407609163022B
:100490007091640280916502909166020E94A20AA6
:1004A00020E030E040E85EE30E94540B60933E029F
:1004B00070933F02809340029093410200D000D09D
:1004C0000DB71EB70F5F1F4F0E94710A24E333E080
:1004D00040E050E0F801208331834283538320EDD4
:1004E0003DE841E050E0E6EFEE2EE1E8FE2EE1E0EF
:1004F0000E2F112DAA24BB2465010E9457090E94CA
:10050000A40A60934E0270934F028093500290931E
:100510005102A0904202B0904302C0904402D09099
:1005200045020E94710A882777FD8095982F0E94C6
:10053000A40A7B018C0160E070E080E89FE3A601E3
:1005400095010E94A0099B01AC01C801B7010E945E
:10055000540B7B018C01C601B50120914A023091F8
:100560004B0240914C0250914D020E94540B9B0152
:10057000AC01C801B7010E94A109609354027093B5
:10058000550280935602909357020F900F900F9050
:100590000F9040913E0250913F0260914002709155
:1005A000410280E894E00E94480980E894E060E01D
:1005B00072E00E94D407409154025091550260911C
:1005C00056027091570280E894E00E944C091F91F6
:1005D0000F91FF90EF90DF90CF90BF90AF90089574
:1005E0000F931F9383E361E00E94240482E360E0A1
:1005F0000E94240484E361E00E9424048FE261E00D
:100600000E9424048EE260E00E9424048FE261E0F4
:100610000E94440485E361E00E94440483E58CBDAC
:100620008DB58EB568EE73E080E090E00E9499038E
:1006300000E814E0C80140E052EC61E070E00E9484
:100640005F06C80166E072E00E94F30783E06AE09B
:100650000E94300180E090E0A0E0BFE3809342027E
:1006600090934302A0934402B09345021092630218
:1006700010926402109265021092660280E00E945D
:1006800076018093580210925302109252021F91E9
:100690000F9108950E94C3030E94F0020E949501E9
:1006A000FDCF1F920F920FB60F9211242F933F93FD
:1006B0008F939F93AF93BF9380916B0290916C0245
:1006C000A0916D02B0916E0230916F020196A11D52
:1006D000B11D232F2D5F2D3720F02D570196A11D21
:1006E000B11D20936F0280936B0290936C02A093D4
:1006F0006D02B0936E028091670290916802A091A2
:100700006902B0916A020196A11DB11D8093670232
:1007100090936802A0936902B0936A02BF91AF916F
:100720009F918F913F912F910F900FBE0F901F902F
:100730001895EF92FF920F931F937B018C018FB757
:10074000F89440916B0250916C0260916D0270912F
:100750006E028FBF2FB7F89480916B0290916C025C
:10076000A0916D02B0916E022FBF841B950BA60B5A
:10077000B70BE816F9060A071B0760F71F910F91E0
:10078000FF90EF900895789484B5826084BD84B51D
:10079000816084BD85B5826085BD85B5816085BD7C
:1007A000EEE6F0E0808181608083E1E8F0E0808126
:1007B00082608083808181608083E0E8F0E08081D6
:1007C00081608083E1EBF0E0808184608083E0EBF6
:1007D000F0E0808181608083E1E9F0E080818260E7
:1007E0008083808181608083E1EAF0E080818260A3
:1007F0008083808181608083E1E2F1E0808182609A
:100800008083808181608083E0E9F0E08081816085
:100810008083E0EAF0E0808181608083E0E2F1E0C3
:10082000808181608083EAE7F0E08081846080835A
:100830008081826080838081816080838081806804
:1008400080831092C1000895282F30E0C901885894
:100850009E4FFC0194912E5C3E4FF90184918823B8
:1008600091F0E82FF0E0EE0FFF1FEC51FF4FA59144
:10087000B491662329F48C91909589238C930895E3
:100880008C91892B8C930895482F50E0CA01825493
:100890009E4FFC012491CA0188589E4FFC019491FF
:1008A0004E5C5E4FFA013491332309F477C0222362
:1008B00009F462C0233021F4809180008F7705C055
:1008C000243031F4809180008F7D8093800054C06B
:1008D000213019F484B58F7704C0223021F484B517
:1008E0008F7D84BD49C0263021F48091B0008F7780
:1008F00005C0273031F48091B0008F7D8093B00027
:100900003BC0283021F4809190008F7705C02930BA
:1009100031F4809190008F7D809390002DC02A301B
:1009200021F480919000877FF7CF2B3021F48091C4
:10093000A0008F770BC02C3021F48091A0008F7D18
:1009400005C02D3031F48091A000877F8093A000F6
:1009500013C02E3021F4809120018F770BC02F30EF
:1009600021F4809120018F7D05C0203129F48091F0
:100970002001877F80932001E32FF0E0EE0FFF1F1F
:10098000E250FF4FA591B491662329F48C91909584
:1009900089238C9308958C91892B8C930895682FCB
:1009A00070E0CB0182549E4FFC012491CB0188580A
:1009B0009E4FFC0144916E5C7E4FFB019491992304
:1009C00019F420E030E075C0222309F462C023301E
:1009D00021F4809180008F7705C0243031F480911C
:1009E00080008F7D8093800054C0213019F484B53D
:1009F0008F7704C0223021F484B58F7D84BD49C037
:100A0000263021F48091B0008F7705C0273031F473
:100A10008091B0008F7D8093B0003BC0283021F4DE
:100A2000809190008F7705C0293031F4809190003B
:100A30008F7D809390002DC02A3021F4809190000A
:100A4000877FF7CF2B3021F48091A0008F770BC0E8
:100A50002C3021F48091A0008F7D05C02D3031F421
:100A60008091A000877F8093A00013C02E3021F4D6
:100A7000809120018F770BC02F3021F480912001CD
:100A80008F7D05C0203129F480912001877F8093DC
:100A90002001892F90E0880F991F885E9E4FFC01EE
:100AA000A591B4918C9120E030E0842311F021E0F5
:100AB00030E0C90108951F920F920FB60F920BB646
:100AC0000F9211242F933F934F935F936F937F93D4
:100AD0008F939F93AF93BF93EF93FF934091C60083
:100AE000E091F002F091F102CF01019660E870E030
:100AF0000E94D60B9C018091F2029091F30228177C
:100B0000390739F0E059FD4F40833093F1022093CB
:100B1000F002FF91EF91BF91AF919F918F917F91E3
:100B20006F915F914F913F912F910F900BBE0F905E
:100B30000FBE0F901F9018951F920F920FB60F9235
:100B40000BB60F9211242F933F934F935F936F93A4
:100B50007F938F939F93AF93BF93EF93FF934091B6
:100B6000CE00E0917403F0917503CF01019660E827
:100B700070E00E94D60B9C018091760390917703E0
:100B80002817390739F0EC50FD4F40833093750337
:100B900020937403FF91EF91BF91AF919F918F913B
:100BA0007F916F915F914F913F912F910F900BBE6D
:100BB0000F900FBE0F901F9018951F920F920FB6B7
:100BC0000F920BB60F9211242F933F934F935F9385
:100BD0006F937F938F939F93AF93BF93EF93FF9305
:100BE0004091D600E091F803F091F903CF0101960E
:100BF00060E870E00E94D60B9C018091FA0390910E
:100C0000FB032817390739F0E858FC4F408330932D
:100C1000F9032093F803FF91EF91BF91AF919F915A
:100C20008F917F916F915F914F913F912F910F9095
:100C30000BBE0F900FBE0F901F9018951F920F9232
:100C40000FB60F920BB60F9211242F933F934F9331
:100C50005F936F937F938F939F93AF93BF93EF9324
:100C6000FF9340913601E0917C04F0917D04CF0127
:100C7000019660E870E00E94D60B9C0180917E0492
:100C800090917F042817390739F0E450FC4F4083D6
:100C900030937D0420937C04FF91EF91BF91AF913D
:100CA0009F918F917F916F915F914F913F912F9184
:100CB0000F900BBE0F900FBE0F901F9018950F93C3
:100CC0001F938C019A01AB01DC011896ED91FC9108
:100CD0001997108260E874E88EE190E00E940B0C96
:100CE0002150304040405040CA01B90122E030E07C
:100CF00040E050E00E940B0CD8011496ED91FC915D
:100D0000159730831696ED91FC91179720831A96CC
:100D1000ED91FC911B97208141E050E0CA011E96A5
:100D20000C901E9702C0880F991F0A94E2F7282B97
:100D300020831A96ED91FC911B972081CA011F9682
:100D40000C901F9702C0880F991F0A94E2F7282B76
:100D500020831A96ED91FC911B97808150960C9000
:100D600002C0440F551F0A94E2F7842B80831F9121
:100D70000F910895FC01A085B18521898C9190E0A7
:100D8000022E02C0959587950A94E2F780FFF6CF70
:100D90000484F585E02D6083089528E332E03093E4
:100DA00081042093800480E792E0909383048093F1
:100DB000820485EC90E0909385048093840484EC15
:100DC00090E0909387048093860480EC90E0909369
:100DD00089048093880481EC90E090938B04809345
:100DE0008A0486EC90E090938D0480938C04E4E078
:100DF000E0938E0473E070938F0467E06093900437
:100E000055E05093910441E0409392043093940450
:100E10002093930484EF92E090939604809395043A
:100E20008DEC90E090939804809397048CEC90E084
:100E300090939A048093990488EC90E090939C049A
:100E400080939B0489EC90E090939E0480939D0492
:100E50008EEC90E09093A00480939F04E093A10413
:100E60007093A2046093A3045093A4044093A50438
:100E70003093A7042093A60488E793E09093A904F5
:100E80008093A80485ED90E09093AB048093AA042E
:100E900084ED90E09093AD048093AC0480ED90E0FD
:100EA0009093AF048093AE0481ED90E09093B104F1
:100EB0008093B00486ED90E09093B3048093B204E5
:100EC000E093B4047093B5046093B6045093B704F0
:100ED0004093B8043093BA042093B9048CEF93E0A4
:100EE0009093BC048093BB0485E391E09093BE048F
:100EF0008093BD0484E391E09093C0048093BF0489
:100F000080E391E09093C2048093C10481E391E077
:100F10009093C4048093C30486E391E09093C60445
:100F20008093C504E093C7047093C8046093C90418
:100F30005093CA044093CB0408950F931F93CF930B
:100F4000DF938C01EB0109C02196D801ED91FC9152
:100F50000190F081E02DC801099568816623A1F711
:100F6000DF91CF911F910F910895EF92FF920F9310
:100F70001F93CF93DF938C017B01EA010CC0D70153
:100F80006D917D01D801ED91FC910190F081E02DF2
:100F9000C80109952197209791F7DF91CF911F9173
:100FA0000F91FF90EF900895DC01ED91FC9102808C
:100FB000F381E02D099508950F931F938C01DC01B7
:100FC000ED91FC910190F081E02D6DE00995D80143
:100FD000ED91FC910190F081E02DC8016AE0099546
:100FE0001F910F9108950F931F938C010E94D407B6
:100FF000C8010E94DC071F910F9108952F923F9224
:101000004F925F926F927F928F929F92AF92BF9218
:10101000CF92DF92EF92FF920F931F93DF93CF93C4
:10102000CDB7DEB7A0970FB6F894DEBF0FBECDBF29
:101030001C016A017B01411551056105710549F4E7
:10104000DC01ED91FC910190F081E02D60E30995C8
:1010500054C0882499245401422E552466247724B0
:1010600001E010E00C0F1D1F080D191DC701B6018E
:10107000A30192010E94E90BF80160830894811C8E
:10108000911CA11CB11CC701B601A30192010E94D1
:10109000E90BC901DA016C017D01C114D104E1043D
:1010A000F104F1F681E0E82EF12CEC0EFD1EE80CC7
:1010B000F91C3E010894611C711CD501C401019703
:1010C000A109B1096C01C818D90814C0F601EE0DC8
:1010D000FF1D60816A3010F4605D01C0695CD10160
:1010E000ED91FC910190F081E02DC10109950894EA
:1010F000E108F1086E147F0449F7A0960FB6F89442
:10110000DEBF0FBECDBFCF91DF911F910F91FF903A
:10111000EF90DF90CF90BF90AF909F908F907F9097
:101120006F905F904F903F902F9008952AE00E941B
:10113000FE070895EF92FF920F931F93CF93DF93D3
:10114000EC017A018B0177FF0FC0E881F9810190F2
:10115000F081E02D6DE2099510950095F094E094F2
:10116000E11CF11C011D111DCE01B801A7012AE0EF
:101170000E94FE07DF91CF911F910F91FF90EF909A
:1011800008959F92AF92BF92CF92DF92EF92FF921B
:101190000F931F93CF93DF93EC017A018B01922E73
:1011A000CB01BA0120E030E040E050E00E94050AA7
:1011B000882364F4E881F9810190F081E02DCE016B
:1011C0006DE2099517FB109517F9109520E030E0B6
:1011D00040E05FE3AA240BC0CA01B90120E030E07F
:1011E00040E251E40E94090A9B01AC01A394A914B6
:1011F00098F3C801B7010E94A1095B016C010E942C
:10120000760A7B018C01CE01B801A7010E949608E5
:10121000992029F0CE0162E372E00E94D407C80150
:10122000B7010E94A20A9B01AC01C601B5010E9450
:10123000A00920C020E030E040E251E40E94540BBD
:101240007B018C010E94710A5B016C01CC24B7FC0C
:10125000C094DC2CCE01B601A5010E949A08C601FB
:10126000B5010E94A40A9B01AC01C801B7010E940C
:10127000A0099A949920F1F6DF91CF911F910F91D7
:10128000FF90EF90DF90CF90BF90AF909F90089528
:1012900022E00E94C10808950F931F938C010E94C1
:1012A0004809C8010E94DC071F910F9108952F92F1
:1012B0003F924F925F926F927F928F929F92AF92E6
:1012C000BF92CF92DF92EF92FF920F931F93DF9323
:1012D000CF93CDB7DEB73B014C0119012A016D89CF
:1012E0007E898F89988D6A197B098C099D09621AFC
:1012F000730A840A950AA40193010E94B70BE218AD
:10130000F30804091509A80197010E940B0C2A0D86
:101310003B1D4C1D5D1DB901CA01CF91DF911F918D
:101320000F91FF90EF90DF90CF90BF90AF909F9084
:101330008F907F906F905F904F903F902F90089587
:101340005058BB27AA270ED075C166D130F06BD19B
:1013500020F031F49F3F11F41EF45BC10EF4E095D0
:10136000E7FB51C1E92F77D180F3BA176207730702
:101370008407950718F071F49EF58FC10EF4E0957F
:101380000B2EBA2FA02D0B01B90190010C01CA013F
:10139000A0011124FF27591B99F0593F50F4503EEA
:1013A00068F11A16F040A22F232F342F4427585FDC
:1013B000F3CF469537952795A795F0405395C9F7F4
:1013C0007EF41F16BA0B620B730B840BBAF09150AC
:1013D000A1F0FF0FBB1F661F771F881FC2F70EC04B
:1013E000BA0F621F731F841F48F48795779567951E
:1013F000B795F7959E3F08F0B3CF9395880F08F007
:101400009927EE0F979587950895D9D008F481E034
:1014100008950CD00FC107D140F0FED030F021F478
:101420005F3F19F0F0C0511139C1F3C014D198F3E6
:101430009923C9F35523B1F3951B550BBB27AA2755
:1014400062177307840738F09F5F5F4F220F331FC7
:10145000441FAA1FA9F333D00E2E3AF0E0E830D093
:1014600091505040E695001CCAF729D0FE2F27D096
:10147000660F771F881FBB1F261737074807AB0764
:10148000B0E809F0BB0B802DBF01FF2793585F4FD9
:101490002AF09E3F510568F0B6C000C15F3FECF3F3
:1014A000983EDCF3869577956795B795F7959F5F9E
:1014B000C9F7880F911D9695879597F90895E1E0F2
:1014C000660F771F881FBB1F621773078407BA0751
:1014D00020F0621B730B840BBA0BEE1F88F7E095AC
:1014E000089504D06894B111D9C00895BCD088F093
:1014F0009F5790F0B92F9927B751A0F0D1F0660F00
:10150000771F881F991F1AF0BA95C9F712C0B1301A
:1015100081F0C3D0B1E00895C0C0672F782F88272D
:10152000B85F39F0B93FCCF3869577956795B39559
:10153000D9F73EF490958095709561957F4F8F4FC8
:101540009F4F0895E89409C097FB3EF490958095CD
:10155000709561957F4F8F4F9F4F9923A9F0F92F79
:1015600096E9BB279395F695879577956795B795F7
:10157000F111F8CFFAF4BB0F11F460FF1BC06F5FDD
:101580007F4F8F4F9F4F16C0882311F096E911C0EF
:10159000772321F09EE8872F762F05C0662371F010
:1015A00096E8862F70E060E02AF09A95660F771F24
:1015B000881FDAF7880F9695879597F90895990F00
:1015C0000008550FAA0BE0E8FEEF16161706E8070D
:1015D000F907C0F012161306E407F50798F0621B2E
:1015E000730B840B950B39F40A2661F0232B242B03
:1015F000252B21F408950A2609F4A140A6958FEF22
:10160000811D811D089597F99F6780E870E060E073
:1016100008959FEF80EC089500240A94161617068B
:1016200018060906089500240A94121613061406D3
:1016300005060895092E0394000C11F4882352F036
:10164000BB0F40F4BF2B11F460FF04C06F5F7F4FEE
:101650008F4F9F4F089557FD9058440F551F59F0D5
:101660005F3F71F04795880F97FB991F61F09F3F8F
:1016700079F087950895121613061406551FF2CFB8
:101680004695F1DF08C0161617061806991FF1CF08
:1016900086957105610508940895E894BB2766272F
:1016A0007727CB0197F908950BD0C4CFB5DF28F089
:1016B000BADF18F0952309F0A6CFABCF1124EECFF7
:1016C000CADFA0F3959FD1F3950F50E0551F629F9D
:1016D000F001729FBB27F00DB11D639FAA27F00D8B
:1016E000B11DAA1F649F6627B00DA11D661F829FB2
:1016F0002227B00DA11D621F739FB00DA11D621F97
:10170000839FA00D611D221F749F3327A00D611DB3
:10171000231F849F600D211D822F762F6A2F112495
:101720009F5750408AF0E1F088234AF0EE0FFF1FE8
:10173000BB1F661F771F881F91505040A9F79E3F1F
:10174000510570F060CFAACF5F3FECF3983EDCF319
:10175000869577956795B795F795E7959F5FC1F75C
:10176000FE2B880F911D9695879597F90895629F96
:10177000D001739FF001829FE00DF11D649FE00D89
:10178000F11D929FF00D839FF00D749FF00D659FEA
:10179000F00D9927729FB00DE11DF91F639FB00DE9
:1017A000E11DF91FBD01CF011124089597FB092EFA
:1017B00007260AD077FD04D049D006D000201AF4BD
:1017C000709561957F4F0895F6F7909581959F4F9D
:1017D0000895A1E21A2EAA1BBB1BFD010DC0AA1F72
:1017E000BB1FEE1FFF1FA217B307E407F50720F08A
:1017F000A21BB30BE40BF50B661F771F881F991F05
:101800001A9469F760957095809590959B01AC014D
:10181000BD01CF01089597FB092E05260ED057FD77
:1018200004D0D7DF0AD0001C38F45095409530958D
:1018300021953F4F4F4F5F4F0895F6F79095809554
:10184000709561957F4F8F4F9F4F0895AA1BBB1BCB
:1018500051E107C0AA1FBB1FA617B70710F0A61BB0
:10186000B70B881F991F5A95A9F780959095BC01D1
:10187000CD010895EE0FFF1F0590F491E02D09941E
:04188000F894FFCF0A
:10188400202020202000496E697469616C697A65A2
:10189400204869676820537065656420436F6E73E0
:1018A40074616E742052656164696E67204D6F6463
:0E18B40065002E0000000000BA069D07B50773
:00000001FF
