:100000000C943F000C9467000C9467000C946700FC
:100010000C9467000C9467000C9467000C946700C4
:100020000C9467000C9467000C9467000C946700B4
:100030000C9467000C9467000C9467000C946700A4
:100040000C9467000C9467000C941B020C946700DE
:100050000C94D8030C9467000C9467000C94670010
:100060000C9467000C9467000C948F000C9467004C
:100070000C9415040C9467000C946700EF02112493
:100080001FBECFEFD0E1DEBFCDBF11E0A0E0B1E0F9
:10009000ECE7F9E002C005900D92AA36B107D9F756
:1000A00012E0AAE6B1E001C01D92AD3BB107E1F755
:1000B00010E0CEE7D0E004C02297FE010E94B80411
:1000C000CC37D107C9F70E9414020C94BC040C94DD
:1000D00000004CEB50E084E9DA018C9310926A0145
:1000E0002BEB30E0F90180811092710180E88C9354
:1000F0001092BD001092BA001082E9EBF0E010827D
:10010000A8EBB0E01C92108280E28C9385EADA01C1
:100110008C931082F901108285E88C9308951F92C8
:100120000F920FB60F9211242F933F934F935F932B
:100130006F937F938F939F93AF93BF93EF93FF93AF
:100140008FEA91E060E071E00E94110380916A0102
:100150008F5F80936A018150823009F453C08330ED
:1001600030F4882371F0813009F0C0C035C084308C
:1001700009F49DC0843008F471C0853009F0B6C020
:10018000A2C0809171018630A9F41092710183E0C0
:1001900080936A0180917301880F8D5A1092B90083
:1001A0008093BB0085E88093BC008FEA91E069E012
:1001B00071E00FC01092B90090E08996880F991FE6
:1001C0008093BB0085E88093BC008FEA91E066E1F4
:1001D00071E00E9411038CC080917101E82FF0E062
:1001E000E559FE4F90818F5F809371011092B900A5
:1001F0009093BB0085E88093BC008FEA91E06FE1AB
:1002000071E0E7CF8091B9008033A9F48091A20119
:10021000882321F4809171018093A2018091710162
:10022000E82FF0E0E656FE4F80818F5F80838823C1
:1002300011F48FEF808384E98093BC008FEA91E012
:100240006DE271E00E9411038AE090E090936101F9
:100250008093600110926A0185EA32C08091B900F2
:1002600090917301803499F0E92FF0E0EB56FE4F46
:100270001082892F8F5F80937301863010F0109267
:10028000730184E98093BC0010926A0109C0E92FD0
:10029000F0E0EB56FE4F9C5F908385EC8093BC00B2
:1002A0008091A201809374011092A20121C08091DB
:1002B000BB00E0917301F0E0EB58FE4F808385E8CE
:1002C0008093BC0015C0809173019091BB00E82F12
:1002D000F0E0EB57FE4F90838F5F80937301863081
:1002E00010F01092730184E98093BC0010926A01AF
:1002F0008091BC0080688093BC00FF91EF91BF911A
:10030000AF919F918F917F916F915F914F913F91AD
:100310002F910F900FBE0F901F9018951F938FEA8B
:1003200091E066E371E00E9411038FEA91E0609131
:1003300071010E9409031092A10115EA29C0ECE69F
:10034000F1E081E090E002C02193019687309105B1
:10035000DCF390936301809362018FEA91E067E49C
:1003600071E00E94110310926A01109271011093C2
:10037000BC008FEA91E00E94290364E670E080E00F
:1003800090E00E948B028091A1018F5F8093A10178
:100390002091A101263E98F21F91089514B815B836
:1003A000189B06C0199B02C08DE007C08BE005C0FA
:1003B000199B02C084E101C08AE08093720181E848
:1003C00087B93E9A9FEF98B98BE184B981E085B9EE
:1003D0008EE38AB987E48BB984B7877F84BF809125
:1003E0006000886180936000109260009BB98FEA82
:1003F00091E040E052EC61E070E00E9404038FEA7B
:1004000091E060E571E00E9411038FEA91E00E94A3
:1004100029030E9469001092B90080E28093B8001D
:1004200078941092710108950E94B5020E94CE0145
:100430000E948E01FDCF1F920F920FB60F921124D2
:100440002F938F939F93AF93BF938091A30190912C
:10045000A401A091A501B091A6010196A11DB11D15
:100460008093A3019093A401A093A501B093A6014A
:100470008091A7019091A801A091A901B091AA0132
:100480008050904CAF4FBF4F8093A7019093A8012D
:10049000A093A901B093AA0127C08091A7019091D0
:1004A000A801A091A901B091AA0180589E43A04043
:1004B000B0408093A7019093A801A093A901B093A5
:1004C000AA018091AB019091AC01A091AD01B091D6
:1004D000AE010196A11DB11D8093AB019093AC01BB
:1004E000A093AD01B093AE018091A7019091A801B6
:1004F000A091A901B091AA0181589E43A040B040AB
:1005000060F6BF91AF919F918F912F910F900FBE89
:100510000F901F901895EF92FF920F931F937B01FE
:100520008C018FB7F8944091AB015091AC01609170
:10053000AD017091AE018FBF2FB7F8948091AB01E0
:100540009091AC01A091AD01B091AE012FBF841B81
:10055000950BA60BB70BE816F9060A071B0760F701
:100560001F910F91FF90EF900895789484B5826069
:1005700084BD84B5816084BD85B5826085BD85B547
:10058000816085BDEEE6F0E0808181608083E1E8F6
:10059000F0E0808182608083808181608083E0E8F8
:1005A000F0E0808181608083E1EBF0E08081846015
:1005B0008083E0EBF0E0808181608083EAE7F0E017
:1005C000808184608083808182608083808181607B
:1005D00080838081806880831092C100089588E6BE
:1005E00091E09093B0018093AF011092B10190938C
:1005F000B3018093B20181E08093B4010895FC01BE
:1006000082810E94C8030895FC0182810E944003F8
:100610000895DC01ED91FC910190F081E02D0995A8
:1006200008950F931F93CF93DF938C01EB0109C0C3
:100630002196D801ED91FC910190F081E02DC80147
:10064000099568816623A1F7DF91CF911F910F91E2
:1006500008950F931F938C01DC01ED91FC910190A3
:10066000F081E02D6DE00995D801ED91FC910190AC
:10067000F081E02DC8016AE009951F910F9108955E
:10068000EF92FF920F931F937A018B018823F1F56C
:10069000CB01BA0122E030E040E050E00E94870444
:1006A000205C3D4B404F5F4FCA01B901A801970143
:1006B0000E948704C901DA010197A109B109292F14
:1006C0003A2F4B2F552747FD5A950196A11DB11D75
:1006D0002093C50081508093C4001092C0001092F6
:1006E000C1001092C2008091C10080618093C1005E
:1006F0008091C10088608093C1008091C1008068B2
:100700008093C10086E08093C2003DC0CB01BA0156
:1007100022E030E040E050E00E948704205C3D4B46
:10072000404F5F4FCA01B901A80197010E94870499
:10073000C901DA010197A109B109292F3A2F4B2FDD
:10074000552747FD5A950196A11DB11D2093CD0057
:1007500081508093CC001092C8001092C900109272
:10076000CA008091C90080618093C9008091C9004E
:1007700088608093C9008091C90080688093C90017
:1007800086E08093CA001F910F91FF90EF9008952B
:10079000882339F48091C00085FFFCCF6093C600A8
:1007A00008958091C80085FFFCCF6093CE00089526
:1007B0001F920F920FB60F9211242F933F934F93D6
:1007C0005F936F937F938F939F93AF93BF93EF93B9
:1007D000FF934091C600E091B501F091B601CF01C1
:1007E000019660E870E00E9452049C018091B9017A
:1007F0009091BA012817390739F0E354FE4F40832E
:100800003093B6012093B501FF91EF91BF91AF9165
:100810009F918F917F916F915F914F913F912F9118
:100820000F900FBE0F901F9018951F920F920FB64A
:100830000F9211242F933F934F935F936F937F9366
:100840008F939F93AF93BF93EF93FF934091CE000D
:10085000E091B701F091B801CF01019660E870E036
:100860000E9452049C018091BB019091BC01281709
:10087000390739F0E35CFD4F40833093B801209392
:10088000B701FF91EF91BF91AF919F918F917F91B0
:100890006F915F914F913F912F910F900FBE0F90ED
:1008A0001F90189597FB092E07260AD077FD04D0D4
:1008B00049D006D000201AF4709561957F4F0895B5
:1008C000F6F7909581959F4F0895A1E21A2EAA1BE5
:1008D000BB1BFD010DC0AA1FBB1FEE1FFF1FA217F0
:1008E000B307E407F50720F0A21BB30BE40BF50BED
:1008F000661F771F881F991F1A9469F76095709576
:10090000809590959B01AC01BD01CF01089597FBA7
:10091000092E05260ED057FD04D0D7DF0AD0001CC3
:1009200038F450954095309521953F4F4F4F5F4F8C
:100930000895F6F790958095709561957F4F8F4F4C
:100940009F4F0895AA1BBB1B51E107C0AA1FBB1FE5
:10095000A617B70710F0A61BB70B881F991F5A954B
:10096000A9F780959095BC01CD010895EE0FFF1F6A
:0C0970000590F491E02D0994F894FFCF5D
:10097C005457495F5645435400493243204144443F
:10098C0052204D41580049324320414444520049C1
:10099C00324320505752204C4556454C0049324367
:1009AC002053544F5000416363656E646F2069207F
:1009BC006D6F746F726900493243537461727400C5
:1009CC0054657374204D6F746F7269204932430003
:0A09DC006400060000000000FF02A6
:00000001FF
