:100000000C94E0000C9408010C9408010C94080175
:100010000C9408010C9408010C9408010C9408013C
:100020000C9408010C9408010C9408010C949E0295
:100030000C9413040C9408010C9408010C94F7031D
:100040000C9408010C9408010C94C5200C94080130
:100050000C9406250C9408010C9408010C940801DA
:100060000C9408010C9408010C94F3050C940801FD
:100070000C9443250C9408010C940801D215D61554
:10008000DC15E815F315331633163316331633160D
:10009000331633163316331633163316E80F33166A
:1000A0004F103316B6103316291133163A11331682
:1000B0004F1133166E113316AB1133163316331638
:1000C00033163316331633162412331659143316D7
:1000D00033163316331633163316331618162C16FA
:1000E0003116084AD73B3BCE016E84BCBFFDC12F01
:1000F0003D6C74319ABD56833DDA3D00C77F11BE19
:10010000D9E4BB4C3E916BAAAABE000000803F0020
:100110002124272A002225282B0020232629020219
:10012000020202020202040404040404040403039D
:1001300003030303030301010101010101010102A2
:1001400004081020408001020408102040800102B1
:1001500004081020408080402010080402010000A4
:100160000001020000000000000004030706000078
:100170000000000000000000000000000000494EE8
:1001800046494E4954594E414ECDCCCC3D0AD72319
:100190003C17B7D13877CC2B329595E6241FB14F59
:1001A0000A000020410000C84200401C4620BCBE9E
:1001B0004CCA1B0E5AAEC59D74000C051D083F228B
:1001C00011241FBECFEFD0E1DEBFCDBF11E0A0E014
:1001D000B1E0E4EBF1E502C005900D92A63DB10758
:1001E000D9F716E0A6EDB1E001C01D92A83BB1071A
:1001F000E1F711E0C0ECD1E004C02297FE010E94BB
:100200009228CA3BD107C9F70E94BE200C94D82877
:100210000C940000662777270C940E01A0E0B0E054
:10022000E4E1F1E00C94A728EC015B016115710594
:1002300019F0FB0191838083F9908F2D90E00E944B
:100240009628892BC9F7FDE2FF1621F4F990EE24D8
:10025000E39405C02BE2F21609F4F990EE248E0126
:1002600001501040C8016EE771E043E050E00E9489
:100270006E02892B01F58E010E5F1F4FC80161E8E8
:1002800071E045E050E00E946E02892B19F48E0166
:10029000095F1F4FA114B10419F0F5011183008308
:1002A000E0FC04C070E090E080E814C070E090E0F2
:1002B00080E86FEF08C1C80166E871E043E050E0F4
:1002C0000E946E02892B69F4A114B10429F470E034
:1002D00090E080EC6FE7F7C02296F501D183C083F0
:1002E000F6CF8824992440E050E060E070E0EF2DE4
:1002F000E053EA30A0F5F2E0EF2A8E2D90E09C0169
:1003000028703070E2FE06C0232B79F50894811C1A
:10031000911C2BC0232B19F0089481089108DB0154
:10032000CA0112E0880F991FAA1FBB1F1A95D1F7A7
:10033000480F591F6A1F7B1F440F551F661F771FE9
:100340004E0F511D611D711D483929E9520729E9D8
:10035000620729E1720748F084E0E82A06C0EE3F10
:1003600031F4E3FC39C098E0E92AF990C0CFE533D5
:1003700011F0E53189F529912D3219F4E0E1EE2AE9
:1003800005C02B3219F081E090E003C0299182E092
:1003900090E0E22FE053EA3018F0C81BD90B1CC0E4
:1003A00020E030E0FCE020383F075CF4C901880F12
:1003B000991F880F991F280F391F220F331F2E0FE7
:1003C000311DE991E053EA3068F3E4FE03C0309553
:1003D00021953F4F820E931ECE2CDD24E1FE07C0F7
:1003E000A114B10421F02197F501D183C083CB0181
:1003F000BA010E94E4267B018C01F3E0CF22DD24C8
:1004000023E0C216D10421F417FB109517F91095BB
:1004100057016801C801B70120E030E040E050E03A
:100420000E944726882309F44AC097FE0DC02DE993
:10043000E22E21E0F22E9094819491089394C0E2F0
:10044000D0E000E010E012C095EBE92E91E0F92E2B
:10045000F6CFF7012591359145915491C601B5012B
:100460000E94C6275B016C018C1A9D0A8C169D06A2
:1004700084F7D595C7950F5F1F4F0630110529F0FA
:100480008CEF9FEFE80EF91EF1CFC501D6017C017C
:100490008D018C2D880F8D2D881F8F3F51F0C60147
:1004A000B50120E030E040E050E00E94472688237C
:1004B00031F482E290E09093B7068093B6067E2DE9
:1004C0009F2D802F612F272F392F482F562FB901AD
:1004D000CA01CDB7DEB7ECE00C94C328FB01DC0108
:1004E0004150504088F08D9181341CF08B350CF4D4
:1004F000805E659161341CF06B350CF4605E861B88
:10050000611171F3990B0895881BFCCFF999FECF07
:1005100072BD61BDF89A80B50895F999FECF1FBAF2
:1005200072BD61BD40BD0FB6F894FA9AF99A0FBE3C
:100530000895FC0110828FEF818308951F920F921E
:100540000FB60F9211242F933F938F939F93AF93E6
:10055000BF93EF93FF9380910702909108024A9610
:1005600090930802809307022091070230910802BD
:10057000E091FF01F09100028081918128173907F5
:1005800050F15F9A1092080210920702A0910302A4
:10059000B09104028D919C91119720813181821B31
:1005A000930B11969C938E9381E0E73EF80769F0D8
:1005B00060F087ED91E0909300028093FF0184E466
:1005C00098E411969C938E9305C03296F0930002A6
:1005D000E093FF015F988091090290910A024A9688
:1005E00090930A02809309022091090230910A0235
:1005F000E0910102F0910202808191812817390770
:1006000050F1289A10920A0210920902A091050254
:10061000B09106028D919C91119720813181821BAE
:10062000930B11969C938E9381E0EB3FF80769F052
:1006300060F08BEE91E0909302028093010284E4DB
:1006400098E411969C938E9305C03296F093020223
:10065000E0930102289880EB8093B200FF91EF9124
:10066000BF91AF919F918F913F912F910F900FBEAE
:100670000F901F901895DB01AA0FBB1FFD01E55DD0
:10068000FD4F8081918148175907F8F0FD01E55F22
:10069000FD4F8081918184179507B8F0693071050D
:1006A00030F4A952BE4F11965C934E930BC0FB01E0
:1006B0003997E730F10548F4EE0FFF1FE551FE4F83
:1006C0005183408320E030E002C021E030E0C901E6
:1006D0000895603171051CF021E030E00EC0FB018F
:1006E000EE0FFF1FDF01A55FBD4F2D933C93E55D2E
:1006F000FD4F5183408320E030E0C901089586E139
:1007000061E00E94F42189E061E00E94F4211092EE
:1007100008021092070210920A021092090287ED55
:1007200091E0909300028093FF012BEE31E0309333
:1007300002022093010242969093040280930302E6
:100740002E5E3F4F309306022093050284E498E426
:100750009093EA018093E9019093FE018093FD015B
:1007600081E08093B1008093700080EB8093B200B1
:1007700086E160E00E94F42189E060E00E94F421BB
:1007800008950F931F93CF93DF932BE032E0CBE2DA
:10079000D2E080E090E04CED55E000ED17E068EE2F
:1007A00073E0FC01EE0FFF1FDF01A952BE4F11964F
:1007B0005C934E93E551FE4F51834083F9010193C1
:1007C00011939F016993799301968A30910549F7B6
:1007D00086E161E00E94D62189E061E00E94D62195
:1007E000579A209ADF91CF911F910F9108951F92F0
:1007F0000F920FB60F9211248F939F9380914D0209
:1008000090914E02029741F483E090E090934E0263
:1008100080934D02109274029F918F910F900FBEA2
:100820000F901F9018951F920F920FB60F921124E0
:100830002F933F938F939F93EF93FF93809181002A
:1008400020914B0290E08074907030E08217930703
:1008500009F093C010928500109284008091860068
:10086000909187008057974108F451C0809186008D
:10087000909187009695879590936202809361028C
:1008800080914D0290914E02029741F49091740232
:1008900080917302981709F061C066C080914D0283
:1008A00090914E02892B49F481E090E090934E02A2
:1008B00080934D021092750257C080914D02909125
:1008C0004E020197A9F4809175028F5F80937502A3
:1008D00080917502893008F447C082E090E09093DF
:1008E0004E0280934D0280917402809373023CC04B
:1008F00080914D0290914E020397B1F59091740250
:1009000080917302981781F582E090E029C0809170
:100910007402883090F580918600909187008C5DFC
:10092000954028F1809186009091870085599141EA
:10093000F0F4809174028F5F80937402E0917402EE
:10094000F0E0809186009091870096958795EE0F54
:10095000FF1FEF59FD4F918380830FC083E090E02C
:1009600090934E0280934D021092740206C08091C3
:100970004D0290914E02029789F3FF91EF919F9162
:100980008F913F912F910F900FBE0F901F90189550
:1009900020914D0230914E02C9010895862F815059
:1009A000883040F4E62FF0E0EE0FFF1FE15BFD4FD3
:1009B000518340830895693020F580914D029091D4
:1009C0004E02039711F5E62FF0E0EE0FFF1FE15BFB
:1009D000FD4F80819181892BC1F06081718113C0AD
:1009E00080914D0290914E02039759F4F894E62FAE
:1009F000F0E0EE0FFF1FEF59FD4F60817181789499
:100A000002C060E070E0CB01089580914D029091AA
:100A10004E02029729F7EACF08958EE060E00E9427
:100A2000D6211092740210924E0210924D02109232
:100A3000800082E08093810081E280936F0021E05A
:100A400030E04CED55E0F901EE0FFF1FDF01AF592B
:100A5000BD4F11965C934E938D919C91E15BFD4F40
:100A6000918380832F5F3F4F2930310561F70895CF
:100A70004F925F926F927F928F929F92AF92BF92AE
:100A8000CF92DF92EF92FF920F931F93DF93CF935A
:100A9000CDB7DEB728970FB6F894DEBF0FBECDBF37
:100AA00069837A838B839C83CA01380149012701BA
:100AB00060E074E00E942C28882777FD8095982FAD
:100AC0000E94E6262091B0013091B1014091B2011F
:100AD0005091B3010E94C6272FE632E143E05BE369
:100AE0000E944B266D837E838F839887C401B30158
:100AF00021EE3EE245E652E40E94C62729813A8172
:100B00004B815C810E9480253B014C01E090A20258
:100B1000F090A3020091A4021091A502A8019701F0
:100B20000E94C627A80197010E94C6279B01AC011D
:100B3000F2016083718382839383C601B5010E94B1
:100B4000C627F20120853185428553850E94812583
:100B50007B018C01F2016087718782879387C401D2
:100B6000B301A40193010E9481252091A20230913A
:100B7000A3024091A4025091A5020E94C6279B01A6
:100B8000AC01C801B7010E9481252D813E814F81B2
:100B900058850E9481259B01AC01F2016483758315
:100BA00086839783C601B5010E94C62729813A81B1
:100BB0004B815C810E94812528960FB6F894DEBF98
:100BC0000FBECDBFCF91DF911F910F91FF90EF909E
:100BD000DF90CF90BF90AF909F908F907F906F905D
:100BE0005F904F9008951F920F920FB60F921124AD
:100BF0008F939F9380915B048F5F80935B04815000
:100C0000813021F1813020F0823009F051C03EC0A6
:100C100080916204813049F0813028F0823041F0C7
:100C2000833059F407C085E006C010929B0505C0CB
:100C300083E001C082E080939B051092B90080910F
:100C40009B0590E08996880F991F1CC080916204D3
:100C50008F5F809362048150813051F0813028F0A1
:100C6000823049F0833031F509C080915D0408C0BD
:100C700080915E0405C080915F0402C08091600491
:100C80001092B9008093BB0085E80AC084E9809384
:100C9000BC0080916204843030F410925B0485EAD9
:100CA0008093BC0007C0109218041092170402C071
:100CB00010925B048091BC0080688093BC009F917F
:100CC0008F910F900FBE0F901F901895AF92BF920B
:100CD000CF92DF92EF92FF920F931F93E0909801D3
:100CE000F090990100919A0110919B01A0909C01B4
:100CF000B0909D01C0909E01D0909F016091A00195
:100D00007091A101882777FD8095982F0E94E62693
:100D1000A80197010E94C627A60195010E9481257E
:100D20000E94B82660935D046091A2017091A301B6
:100D3000882777FD8095982F0E94E626A8019701C5
:100D40000E94C627A60195010E9481250E94B8260F
:100D500060935E046091A4017091A501882777FDDE
:100D60008095982F0E94E626A80197010E94C62729
:100D7000A60195010E9481250E94B82660935F0418
:100D80006091A6017091A701882777FD8095982F23
:100D90000E94E626A80197010E94C627A601950198
:100DA0000E9481250E94B8266093600410925B0423
:100DB0001092620485EA8093BC001F910F91FF900E
:100DC000EF90DF90CF90BF90AF900895AA2797FD46
:100DD000A095BA2FBC01CD010E94E6262091980172
:100DE0003091990140919A0150919B010E94C62730
:100DF00020919C0130919D0140919E0150919F0155
:100E00000E9481250E94B82660935D0460935E0471
:100E100060935F046093600410925B04109262041C
:100E200085EA8093BC0008952F923F924F925F9283
:100E30006F927F928F929F92AF92BF92CF92DF92EA
:100E4000EF92FF920F931F93DF93CF9300D000D0C8
:100E500000D0CDB7DEB719012A011E830D830E9491
:100E6000802569837A838B839C83F801208931896B
:100E7000428953890E9481257B018C01ED81FE818D
:100E8000608B718B828B938BA0903E03B0903F035D
:100E9000C0904003D09041033501460197FA9094E9
:100EA00097F89094A40193010E94472688233CF46C
:100EB000ED81FE81608A718A828A938A0EC0C801A0
:100EC000B701A60195010E94BB27181634F4ED81E5
:100ED000FE81A08AB18AC28AD38AC201B101ED81A2
:100EE000FE8124853585468557850E948025ED81C4
:100EF000FE8120853185428553850E94C6275B018E
:100F00006C01ED81FE81248635864686578669818F
:100F10007A818B819C8120813181428153810E9421
:100F2000C6277B018C01ED81FE81648175818681FC
:100F3000978120893189428953890E94C6279B0164
:100F4000AC01C801B7010E948125A60195010E944C
:100F5000812526960FB6F894DEBF0FBECDBFCF9188
:100F6000DF911F910F91FF90EF90DF90CF90BF9096
:100F7000AF909F908F907F906F905F904F903F9039
:100F80002F900895FF920F931F93CF93DF93EC015F
:100F90008B016150704028C0D901AA0FBB1FAC0F54
:100FA000BD1F4D915C911197F9013196EE0FFF1F16
:100FB000EC0FFD1F20813181241735072CF451835C
:100FC00040832D933C9390E08F5F282F30E02617CD
:100FD000370714F3913041F480E0A0E0B0E040E046
:100FE00050E060E070E01CC091E080E0EECFEE0FDA
:100FF000FF1FEC0FFD1F20813181A217B30724F4DE
:10100000D90141E050E005C02A173B0711F44F5FBA
:101010005F4F641775071CF4922FF32EBA018F5F90
:10102000E82FF0E0E017F10714F3892F9F2DDF91EF
:10103000CF911F910F91FF9008956091B001709131
:10104000B1018091B2019091B30120E030E040E81D
:101050005AE30E94C6272FE632E143E05BE30E9499
:101060004B262BED3FE049EC5FE30E94C6276093DF
:10107000210470932204809323049093240481E339
:1010800094E00E94990285E394E00E9499028AE527
:1010900094E00E94C1030895CF92DF92EF92FF92F5
:1010A0000F931F937C0168EAC62E65E0D62E492F68
:1010B000552747FD5A9550E060E070E0C60120E0FA
:1010C00030E00E948023FF2400E010E0C601B80158
:1010D000A70120E030E00E9480231F910F91FF9034
:1010E000EF90DF90CF90089588EA95E06CE20E943F
:1010F0006322089510923C048091BE018E3409F45D
:1011000088C18F34F4F4863409F4D5C087347CF474
:10111000823499F183343CF4813209F447C4863334
:1011200009F04DC419C4843409F049C475C08A3427
:1011300009F433C18C3409F447C1883409F03FC441
:1011400019C1833509F4A3C2843554F4813509F4F7
:10115000E5C182350CF064C2803509F030C487C126
:10116000853509F48AC385350CF41EC3863509F428
:10117000A2C38A3509F023C4BCC34091C602509172
:10118000C7026091C8027091C90288EA95E00E9486
:101190001C240E9474084091CA025091CB026091B5
:1011A000CC027091CD0288EA95E00E941C240E9436
:1011B00074084091CE025091CF026091D00270919C
:1011C000D10288EA95E00E941C240E947408409194
:1011D000DA025091DB026091DC027091DD0288EA54
:1011E00095E00E941C240E9474084091DE025091F8
:1011F000DF026091E0027091E10288EA95E00E94CE
:101200001C240E9474084091E2025091E302609114
:10121000E4027091E5027AC14091EE025091EF0232
:101220006091F0027091F10288EA95E00E941C241E
:101230000E9474084091F2025091F3026091F4020E
:101240007091F50288EA95E00E941C240E947408BF
:101250004091F6025091F7026091F8027091F90204
:1012600088EA95E00E941C240E94740840912A0399
:1012700050912B0360912C0370912D0388EA95E027
:101280000E941C240E94740840912E0350912F0349
:10129000609130037091310388EA95E00E941C242C
:1012A0000E947408409132035091330360913403DB
:1012B000709135032BC1409102035091030360915B
:1012C00004037091050388EA95E00E941C240E94A3
:1012D0007408609106037091070380910803909150
:1012E000090320E030E048EC52E40E94C627AB013D
:1012F000BC0188EA95E00E941C240E947408409179
:101300000A0350910B0360910C0370910D0388EA5E
:1013100095E00E941C240E9474084091160350918D
:101320001703609118037091190388EA95E00E94F1
:101330001C240E94740860911A0370911B03809111
:101340001C0390911D0320E030E048EC52E40E9421
:10135000C627AB01BC0188EA95E00E941C240E94CC
:10136000740840911E0350911F03609120037091F7
:101370002103CCC060911D0470911E0488EA95E0A1
:101380000E9468230E94740860911F0470912004D9
:1013900088EA95E00E947023BDC040913E035091C1
:1013A0003F03609140037091410388EA95E00E94F9
:1013B0001C240E947408409163035091640360915F
:1013C000650370916603A2C0409176025091770246
:1013D000609178027091790288EA95E00E941C245D
:1013E0000E94740840917A0250917B0260917C02C5
:1013F00070917D0288EA95E00E941C240E94740886
:101400004091A2025091A3026091A4027091A502A2
:101410007DC0109288031092870319C0EE0FFF1F42
:10142000EE0FFF1FE258FD4F4081518162817381B1
:1014300088EA95E00E941C240E947408809187032A
:101440009091880301969093880380938703E0919D
:101450008703F0918803E530F10504F3409192028F
:101460005091930260919402709195024FC0109236
:101470008803109287032DC0EE0FFF1FEE0FFF1F92
:10148000E659FE4F408151816281738188EA95E07F
:101490000E941C240E947408E0918703F091880345
:1014A000EE0FFF1FEE0FFF1FE959FC4F40815181E6
:1014B0006281738188EA95E00E941C240E9474086E
:1014C000809187039091880301969093880380937D
:1014D0008703E0918703F0918803E530F10564F21A
:1014E00040917E0150917F01609180017091810156
:1014F00088EA95E00E941C240E94740840917B03B6
:1015000050917C0360917D0370917E0388EA95E0A1
:101510000E94202488E58093BE01089510928803DC
:101520001092870315C0EE0FFF1FE955FC4F608135
:10153000718188EA95E00E9468230E947408809176
:101540008703909188030196909388038093870383
:10155000E0918703F0918803E330F10524F31092C2
:1015600088031092870315C0EE0FFF1FEB56FC4F48
:101570006081718188EA95E00E9468230E94740866
:1015800080918703909188030196909388038093BC
:101590008703E0918703F0918803E330F10524F39A
:1015A000109288031092870315C0EE0FFF1FE75EAD
:1015B000FB4F6081718188EA95E00E9468230E9458
:1015C0007408809187039091880301969093880313
:1015D00080938703E0918703F0918803E230F1055F
:1015E00024F340919A0250919B0260919C02709169
:1015F0009D0288EA95E00E941C240E947408409194
:101600009E0250919F026091A0027091A10288EA0F
:1016100095E00E941C2488EA95E00E9483220895A8
:1016200081E00E94B821BC0188EA95E00E9468230D
:101630000E94740882E00E94B821BC0188EA95E00B
:101640000E9468230E94740880E00E94B821BC01B7
:1016500088EA95E00E9468230E94740886E00E9450
:10166000B821BC0188EA95E00E9468230E947408B2
:1016700087E00E94B821BC0188EA95E00E946823B7
:101680000E94740885E00E94B821BC018AC1409183
:10169000460450914704609148047091490488EAD7
:1016A00095E00E943D230E947408109288031092D6
:1016B000870315C0EE0FFF1FE556FC4F6081718157
:1016C00088EA95E00E9468230E947408809187034D
:1016D0009091880301969093880380938703E0910B
:1016E0008703F0918803E330F10524F360915401FE
:1016F0007091550188EA95E00E9468230E94740861
:10170000109288031092870315C0EE0FFF1FEF5E43
:10171000FB4F6081718188EA95E00E9468230E94F6
:1017200074088091870390918803019690938803B1
:1017300080938703E0918703F0918803E330F105FC
:1017400024F3109218041092170415C0EE0FFF1F17
:10175000E056FE4F6081718188EA95E00E9468231F
:101760000E94740880911704909118040196909338
:10177000180480931704E0911704F0911804E430E2
:10178000F10524F340913A0450E060E070E088EA0B
:1017900095E022E030E00E9480230E94740888EAED
:1017A00095E068EE73E0FFC04091630350916403DD
:1017B000609165037091660388EA95E00E941C249D
:1017C0000E947408109288031092870315C0EE0FD0
:1017D000FF1FE25BFE4F6081718188EA95E00E9405
:1017E00068230E9474088091870390918803019672
:1017F0009093880380938703E0918703F091880397
:10180000E330F10524F3109288031092870315C08A
:10181000EE0FFF1FE75EFB4F6081718188EA95E064
:101820000E9468230E947408809187039091880326
:1018300001969093880380938703E0918703F0914A
:101840008803E230F10524F36091110470911204D1
:1018500088EA95E00E9468230E947408609113044E
:101860007091140488EA95E00E9468230E9474082D
:10187000609115047091160494C01092620312C016
:10188000F0E0EE0FFF1FEE5AFC4F6081718188EA95
:1018900095E00E9468230E947408809162038F5F24
:1018A00080936203E0916203E53050F360915C0342
:1018B00070915D0376C01092620312C0F0E0EE0FEB
:1018C000FF1FEE5BFC4F6081718188EA95E00E940A
:1018D00068230E947408809162038F5F8093620383
:1018E000E0916203E53050F360914C0370914D0339
:1018F00058C0609152017091530188EA95E00E94AE
:1019000068230E9474084091290450912A04609130
:101910002B0470912C0488EA95E00E941C240E94FC
:101920007408409125045091260460912704709119
:10193000280488EA95E00E941C240E9474084091C3
:101940002D0450912E0460912F047091300488EA88
:1019500095E00E9420240895109218041092170414
:1019600015C0EE0FFF1FEA54FE4F6081718188EAB7
:1019700095E00E9468230E9474088091170490915A
:10198000180401969093180480931704E0911704AB
:10199000F0911804E330F10524F36091BC017091DB
:1019A000BD0188EA95E00E947023089588EA95E0D9
:1019B00060E071E00E949A2288E58093BE0108955C
:1019C0000F931F93082F10E015C08CE494E00E9441
:1019D000E6066AEF70E080E090E00E94432188EE26
:1019E00093E00E94E6066AEF70E080E090E00E94DB
:1019F00043211F5F101748F31F910F910895EF9235
:101A0000FF920F931F93DF93CF93CDB7DEB7C058EC
:101A1000D0400FB6F894DEBF0FBECDBF19821A8238
:101A20001B821C82FE0135968CE7DF011D928A9590
:101A3000E9F700E010E07E010894E11CF11C88EA5F
:101A400095E00E945922882341F46AE070E080E02A
:101A500090E00E9443211F5F0AC088EA95E00E943F
:101A60005422F701E00FF11D80830F5F10E0802FFB
:101A700090E00197BFEF8F3F9B0719F4E0E0F0E0A3
:101A800006C0FC018138910514F0E0E8F0E0EE0DAD
:101A9000FF1D80818B3321F0153010F407FFCFCF6D
:101AA000CE0101960E940A01C058DF4F0FB6F8948C
:101AB000DEBF0FBECDBFCF91DF911F910F91FF9081
:101AC000EF9008958CE061E00E94F4218EEE92E0A8
:101AD0000E946D218CE060E00E94F42168E070E0DB
:101AE00080E090E00E94432108951F93CF93DF93FD
:101AF000182F8CE492E00E94C804029729F01092FB
:101B00003B04C8E8D3E124C08CE492E0612F0E943A
:101B1000DB04EC01612F70E09C0140E050E08DE0BF
:101B200090E0689FF001699FF00D789FF00D1124FF
:101B3000ED59FB4F218732874387548781E08083AB
:101B40008CE060E00E94F4218DE060E00E94F421CE
:101B5000CE01DF91CF911F9108950F931F938CE0D9
:101B600061E00E94D6218DE061E00E94D6210CE464
:101B700012E0C8010E940D05C80163E042ED54E087
:101B80000E94CE041F910F9108950E94AD0D20E098
:101B90004DE050E013C0E22FF0E0EE0FFF1FE25CDB
:101BA000FE4F80819181849FF001859FF00D949F6D
:101BB000F00D1124ED59FB4FE0812F5F283058F3D1
:101BC000209362030895EF92FF920F931F938091E9
:101BD00092010E94B82120918F0330919003821BC3
:101BE000930BAA2797FDA095BA2FBC01CD010E94A7
:101BF000E6267B018C01809196010E94B8212091FC
:101C0000930330919403821B930BAA2797FDA09511
:101C1000BA2FBC01CD010E94E6269B01AC01C80190
:101C2000B7010E94F42521EE3EE245E652E40E940F
:101C3000C62760939A0270939B0280939C029093B4
:101C40009D02809194010E94B821209191033091CE
:101C50009203821B930BAA2797FDA095BA2FBC0174
:101C6000CD010E94E6267B018C01809196010E94A5
:101C7000B8212091930330919403821B930BAA27E0
:101C800097FDA095BA2FBC01CD010E94E6269B01CD
:101C9000AC01C801B7010E94F42521EE3EE245E601
:101CA00052E40E94C62760939E0270939F02809325
:101CB000A0029093A102E090A103F090A203809172
:101CC0008C010E94B821E81AF90A0027F7FC009558
:101CD000102FC801B7010E94E62626E933E446EE3C
:101CE00056E40E944B2621EE3EE245E652E40E9475
:101CF000C6276093AE027093AF028093B0029093B8
:101D0000B102E090A303F090A40380918E010E94A1
:101D1000B821E81AF90A0027F7FC0095102FC8012E
:101D2000B7010E94E62626E933E446EE56E40E9417
:101D30004B2621EE3EE245E652E40E94C627609320
:101D4000BE027093BF028093C0029093C1021F91A4
:101D50000F91FF90EF900895CF92DF92EF92FF9254
:101D60000F931F93DF93CF9300D000D0CDB7DEB792
:101D70007A0169837A838B839C8300E010E06E0193
:101D80000894C11CD11CB8016E0D7F1DF601E00F37
:101D9000F11F86ED91E040810E948D020F5F1F4F81
:101DA0000430110581F70F900F900F900F90CF9195
:101DB000DF911F910F91FF90EF90DF90CF900895EA
:101DC0000F931F93CF93DF93109288031092870392
:101DD0002BC0E0918703F0918803EE0FFF1FEE56B2
:101DE000FE4F80810E94B8218993999384E0C1318C
:101DF000D80779F700918703109188038DEA93E063
:101E000062E370E00E94C207000F111F01571C4FD0
:101E1000F8019183808380918703909188030196D4
:101E20009093880380938703809187039091880320
:101E300002971CF4CDEAD3E0CCCF8BE392E09093F1
:101E400094038093930360918F037091900388278C
:101E500077FD8095982F0E94E62640E450E00E948E
:101E6000AC0E6091910370919203882777FD809565
:101E7000982F0E94E6264CE350E00E94AC0E609141
:101E8000930370919403882777FD8095982F0E9483
:101E9000E62644E450E00E94AC0EDF91CF911F9102
:101EA0000F9108950F931F93CF93DF9310928803A0
:101EB000109287032BC0E0918703F0918803EE0F07
:101EC000FF1FE457FE4F80810E94B82189939993A8
:101ED00084E0C131D80779F7009187031091880316
:101EE0008DEA93E062E370E00E94C207000F111FC9
:101EF0000F551C4FF8019183808380918703909147
:101F000088030196909388038093870380918703C9
:101F10009091880303971CF4CDEAD3E0CCCF609175
:101F2000A1037091A203882777FD8095982F0E94C6
:101F3000E62640E650E00E94AC0E6091A30370914B
:101F4000A403882777FD8095982F0E94E62644E613
:101F500050E00E94AC0E6091A5037091A603882703
:101F600077FD8095982F0E94E62648E650E00E9473
:101F7000AC0EDF91CF911F910F910895EF92FF92D8
:101F80000F931F93CF93DF9388EA95E00E94592225
:101F9000882309F46CC68DE060E00E94F42188EA91
:101FA00095E00E9454228093BE01992787FD909569
:101FB000A92FB92FFC01F197E333F10508F053C6BF
:101FC000E25CFF4FEE0FFF1F0590F491E02D0994A6
:101FD0000E94FF0C6093C6027093C7028093C802F0
:101FE0009093C9020E94FF0C6093CA027093CB02C7
:101FF0008093CC029093CD020E94FF0C6093CE029E
:102000007093CF028093D0029093D1020F2EF0E014
:10201000EF2EF0E0FF2EF0E00F2FF0E01F2FF02D5D
:10202000E092D202F092D3020093D4021093D50230
:10203000E092D602F092D7020093D8021093D90210
:102040000E94FF0C6093DA027093DB028093DC0243
:102050009093DD020E94FF0C6093DE027093DF021A
:102060008093E0029093E1020E94FF0C6093E202F1
:102070007093E3028093E4029093E502E092E6021B
:10208000F092E7020093E8021093E902E092EA027C
:10209000F092EB020093EC021093ED02E4C50E9473
:1020A000FF0C6093EE027093EF028093F002909326
:1020B000F1020E94FF0C6093F2027093F30280938E
:1020C000F4029093F5020E94FF0C6093F602709365
:1020D000F7028093F8029093F9020F2EF0E0EF2EB2
:1020E000F0E0FF2EF0E00F2FF0E01F2FF02DE09238
:1020F000FA02F092FB020093FC021093FD02E092C0
:10210000FE02F092FF0200930003109301030E946D
:10211000FF0C60932A0370932B0380932C039093FE
:102120002D030E94FF0C60932E0370932F03809366
:102130003003909331030E94FF0C6093320370933D
:1021400033038093340390933503E0923603F09287
:1021500037030093380310933903E0923A03F09267
:102160003B0300933C0310933D037DC50E94FF0C8D
:102170006093020370930303809304039093050319
:102180000E94FF0C20E030E048EC52E40E944B2615
:1021900060930603709307038093080390930903E9
:1021A0000E94FF0C60930A0370930B0380930C034F
:1021B00090930D030F2EF0E0EF2EF0E0FF2EF0E0F5
:1021C0000F2FF0E01F2FF02DE0920E03F0920F037F
:1021D0000093100310931103E0921203F092130383
:1021E00000931403109315030E94FF0C60931603D1
:1021F0007093170380931803909319030E94FF0CA8
:1022000020E030E048EC52E40E944B2660931A0331
:1022100070931B0380931C0390931D030E94FF0C7B
:1022200060931E0370931F038093200390932103F8
:10223000E0922203F09223030093240310932503DA
:10224000E0922603F09227030093280310932903BA
:102250000AC50E94FF0C0E94B32670931E0460936F
:102260001D040E94FF0C0E94B3267093200460930B
:102270001F04F9C40E94FF0C60933E0370933F0358
:1022800080934003909341030E94FF0C609363038B
:10229000709364038093650390936603E4C40E9483
:1022A000FF0C60937602709377028093780290938C
:1022B00079020E94FF0C60937A0270937B028093F4
:1022C0007C0290937D020E94FF0C6093A2027093A7
:1022D000A3028093A4029093A502C5C40E94FF0CA0
:1022E00060937E0270937F028093800290938102BC
:1022F0000E94FF0C60938202709383028093840299
:10230000909385020E94FF0C60938602709387026F
:1023100080938802909389020E94FF0C60938A0246
:1023200070938B0280938C0290938D020E94FF0C1D
:1023300060938E0270938F0280939002909391022B
:102340000E94FF0C60939202709393028093940218
:102350009093950288C40E94FF0C60936A01709369
:102360006B0180936C0190936D010E94FF0C609350
:102370006703709368038093690390936A030E94D4
:10238000FF0C60936E0170936F01809370019093C6
:1023900071010E94FF0C60936B0370936C03809338
:1023A0006D0390936E030E94FF0C60937201709313
:1023B000730180937401909375010E94FF0C6093E8
:1023C0006F037093700380937103909372030E9464
:1023D000FF0C60937601709377018093780190935E
:1023E00079010E94FF0C60937303709374038093D0
:1023F0007503909376030E94FF0C60937A017093AB
:102400007B0180937C0190937D010E94FF0C60937F
:102410007703709378038093790390937A030E94F3
:10242000FF0C60937E0170937F01809380019093F5
:1024300081010E94FF0C60937B0370937C03809367
:102440007D0390937E030FC46091C6027091C70212
:102450008091C8029091C90240E050E00E94AC0E09
:102460006091CA027091CB028091CC029091CD0212
:1024700044E050E00E94AC0E6091CE027091CF0219
:102480008091D0029091D10248E050E00E94AC0EC1
:102490006091DA027091DB028091DC029091DD02A2
:1024A0004CE750E00E94AC0E6091DE027091DF02BA
:1024B0008091E0029091E10240E850E00E94AC0E71
:1024C0006091E2027091E3028091E4029091E50252
:1024D00044E850E00E94AC0E609102037091030347
:1024E00080910403909105034CE050E00E94AC0EF3
:1024F000609106037091070380910803909109038E
:1025000040E150E00E94AC0E60910A0370910B0311
:1025100080910C0390910D0344E150E00E94AC0EB9
:10252000609116037091170380911803909119031D
:1025300048E850E00E94AC0E60911A0370911B03B2
:1025400080911C0390911D034CE850E00E94AC0E5A
:1025500060911E0370911F038091200390912103CD
:1025600040E950E00E94AC0E6091EE027091EF02E3
:102570008091F0029091F10248E150E00E94AC0E8F
:102580006091F2027091F3028091F4029091F50251
:102590004CE150E00E94AC0E6091F6027091F7029F
:1025A0008091F8029091F90240E250E00E94AC0E56
:1025B00060912A0370912B0380912C0390912D033D
:1025C0004CEC50E00E94AC0E60912E0370912F03F2
:1025D000809130039091310340ED50E00E94AC0EA9
:1025E00060913203709133038091340390913503ED
:1025F00044ED50E00E94AC0E60913E0370913F03A9
:10260000809140039091410344E250E00E94AC0E5F
:1026100060911D0470911E04882777FD8095982F86
:102620000E94E62648E250E00E94AC0E60911F0432
:1026300070912004882777FD8095982F0E94E626C8
:102640004CE250E00E94AC0E609163037091640311
:10265000809165039091660340E350E00E94AC0EC8
:102660006091760270917702809178029091790260
:1026700044E350E00E94AC0E60917A0270917B02BC
:1026800080917C0290917D0248E350E00E94AC0E64
:1026900060918A0270918B0280918C0290918D02E0
:1026A0004CE550E00E94AC0E60917E0270917F027A
:1026B000809180029091810240E550E00E94AC0E32
:1026C00060918202709183028091840290918502D0
:1026D00044E550E00E94AC0E609186027091870242
:1026E000809188029091890248E550E00E94AC0EEA
:1026F00060918E0270918F02809190029091910270
:102700004CE450E00E94AC0E6091920270919302F2
:10271000809194029091950244EC50E00E94AC0E9E
:102720006091A2027091A3028091A4029091A502EF
:1027300048E450E00E94AC0E609176017091770100
:10274000809178019091790144E950E00E94AC0EAB
:102750006091730370917403809175039091760377
:1027600048E950E00E94AC0E60916A0170916B01E3
:1027700080916C0190916D014CE950E00E94AC0E8B
:1027800060916703709168038091690390916A0377
:1027900040EA50E00E94AC0E60916E0170916F01B2
:1027A000809170019091710144EA50E00E94AC0E5A
:1027B00060916B0370916C0380916D0390916E0337
:1027C00048EA50E00E94AC0E609172017091730172
:1027D00080917401909175014CEA50E00E94AC0E1A
:1027E00060916F03709170038091710390917203F7
:1027F00040EB50E00E94AC0E60917A0170917B0139
:1028000080917C0190917D0144EB50E00E94AC0EE0
:1028100060917703709178038091790390917A03A6
:1028200048EB50E00E94AC0E60917E0170917F01F8
:1028300080918001909181014CEB50E00E94AC0EA0
:1028400060917B0370917C0380917D0390917E0366
:1028500040EC50E00E94AC0E60919602709197029D
:10286000809198029091990248EC50E00E94AC0E41
:10287000E6EDF2E080E090E020E030E040E050E083
:1028800006C020833183428353830196749685303A
:102890009105BCF390938803809387036091A20213
:1028A0007091A3028091A4029091A5020E94E30D71
:1028B000DAC10F2EF0E0EF2EF0E0FF2EF0E70F2F41
:1028C000F0E41F2FF02DE092C602F092C7020093B1
:1028D000C8021093C90220E030E040E050E02093AD
:1028E000CA023093CB024093CC025093CD0280E0D9
:1028F00090E0A0E2B1EC8093CE029093CF02A0933F
:10290000D002B093D102E092DA02F092DB0200939F
:10291000DC021093DD022093DE023093DF0240934D
:10292000E0025093E1028093E2029093E302A093CD
:10293000E402B093E50280E090E0A0E4B1E480938B
:10294000EE029093EF02A093F002B093F102209375
:10295000F2023093F3024093F4025093F502209375
:10296000F6023093F7024093F8025093F90280E0A8
:1029700090E0A0E0B0E48093020390930303A0935F
:102980000403B09305032093060330930703409399
:1029900008035093090320930A0330930B034093D9
:1029A0000C0350930D038093160390931703A09389
:1029B0001803B093190320931A0330931B03409319
:1029C0001C0350931D0320931E0330931F03409359
:1029D0002003509321030F2EF0E0EF2EF0E0FF2EA6
:1029E000F0E40F2FF0E41F2FF02DE0922A03F09275
:1029F0002B0300932C0310932D0320932E0330936D
:102A00002F034093300350933103209332033093CC
:102A10003303409334035093350380E090E0AAEFF2
:102A2000B4E480933E0390933F03A0934003B0939C
:102A300041038DEC9CECACE4BEE380936303909384
:102A40006403A0936503B093660320ED37E03093F1
:102A50001E0420931D0422E330E0309320042093D1
:102A60001F048093760290937702A0937802B0932C
:102A7000790280937A0290937B02A0937C02B093B8
:102A80007D02E092A202F092A3020093A4021093AE
:102A9000A502109262030F2EF0E0EF2EF0E0FF2E61
:102AA000F0E80F2FFFE31F2FF02D20E030E040E093
:102AB00050E017C0E82FF0E0EE0FFF1FEE0FFF1FF2
:102AC000DF01A659BE4FED92FD920D931C93139713
:102AD000E959FC4F20833183428353838F5F809376
:102AE000620380916203883028F320E030E040E800
:102AF0005FE320938A0230938B0240938C025093C1
:102B00008D0220937E0230937F0240938002509387
:102B10008102209382023093830240938402509377
:102B2000850280E090E0A0E0BFE38093860290936E
:102B30008702A0938802B093890220938E0230937B
:102B40008F0240939002509391022093920230930F
:102B500093024093940250939502209396023093EF
:102B6000970240939802509399020E94620D0E942E
:102B7000520F0E94E00EE6EDF2E080E090E020E0EF
:102B800030E040E050E006C020833183428353832D
:102B90000196749685309105BCF3909388038093D9
:102BA000870361C010923A0481E003C010923A0496
:102BB00082E08093390457C010923A040E94FF0CBF
:102BC0000E94B3267093B5016093B40183E0F1CF06
:102BD00010923A041092390488EE93E09093B50174
:102BE0008093B40140C010923A0485E08093390488
:102BF000109218041092170413C00E94FF0CCC0FFF
:102C0000DD1FCA54DE4F0E94B3267983688380910A
:102C10001704909118040196909318048093170458
:102C2000C0911704D0911804C430D10534F31BC0EF
:102C300088E58093BE010E94FF0C20E030E040E870
:102C40005FE30E944726882321F481E080933D04BE
:102C50000AC010923D0407C00E94620D0E94520FEC
:102C600002C00E94E00E8DE061E00E94F421DF913D
:102C7000CF911F910F91FF90EF900895CF92DF9227
:102C8000EF92FF920F931F93DF93CF9300D000D06A
:102C9000CDB7DEB77C0100E010E06E010894C11CE6
:102CA000D11CB8016E0D7F1D86ED91E00E94860259
:102CB000F601E00FF11F80830F5F1F4F04301105F5
:102CC00081F729813A814B815C81B901CA010F905A
:102CD0000F900F900F90CF91DF911F910F91FF9068
:102CE000EF90DF90CF900895EF92FF920F931F9394
:102CF00080E090E00E943E166093C6027093C70287
:102D00008093C8029093C90284E090E00E943E162E
:102D10006093CA027093CB028093CC029093CD0251
:102D200088E090E00E943E166093CE027093CF023E
:102D30008093D0029093D1020F2EF0E0EF2EF0E0BE
:102D4000FF2EF0E00F2FF0E01F2FF02DE092D202C7
:102D5000F092D3020093D4021093D502E092D602EF
:102D6000F092D7020093D8021093D9028CE790E03A
:102D70000E943E166093DA027093DB028093DC02BD
:102D80009093DD0280E890E00E943E166093DE02A0
:102D90007093DF028093E0029093E10284E890E078
:102DA0000E943E166093E2027093E3028093E40275
:102DB0009093E502E092E602F092E7020093E802C7
:102DC0001093E902E092EA02F092EB020093EC0227
:102DD0001093ED0288E190E00E943E166093EE02AF
:102DE0007093EF028093F0029093F1028CE190E0F7
:102DF0000E943E166093F2027093F3028093F402F5
:102E00009093F50280E290E00E943E166093F602F5
:102E10007093F7028093F8029093F902E092FA021D
:102E2000F092FB020093FC021093FD02E092FE027E
:102E3000F092FF0200930003109301038CE090E0F6
:102E40000E943E1660930203709303038093040371
:102E50009093050380E190E00E943E166093060384
:102E600070930703809308039093090384E190E033
:102E70000E943E1660930A0370930B0380930C0329
:102E800090930D03E0920E03F0920F030093100352
:102E900010931103E0921203F092130300931403B2
:102EA0001093150388E890E00E943E166093160385
:102EB0007093170380931803909319038CE890E0A4
:102EC0000E943E1660931A0370931B0380931C03A9
:102ED00090931D0380E990E00E943E1660931E03CC
:102EE00070931F038093200390932103E0922203A9
:102EF000F09223030093240310932503E09226030A
:102F0000F092270300932803109329038CEC90E0A0
:102F10000E943E1660932A0370932B0380932C0328
:102F200090932D0380ED90E00E943E1660932E0357
:102F300070932F03809330039093310384ED90E0DE
:102F40000E943E16609332037093330380933403E0
:102F500090933503E0923603F092370300933803E1
:102F600010933903E0923A03F0923B0300933C0341
:102F700010933D0384E990E00E943E166093760131
:102F800070937701809378019093790188E990E0BC
:102F90000E943E16609373037093740380937503CD
:102FA000909376038CE990E00E943E1660936A014C
:102FB00070936B0180936C0190936D0180EA90E0B7
:102FC0000E943E16609367037093680380936903C1
:102FD00090936A0384EA90E00E943E1660936E012B
:102FE00070936F01809370019093710188EA90E073
:102FF0000E943E1660936B0370936C0380936D0385
:1030000090936E038CEA90E00E943E1660937201EA
:1030100070937301809374019093750180EB90E03D
:103020000E943E1660936F03709370038093710348
:103030009093720384EB90E00E943E1660937A01B5
:1030400070937B0180937C0190937D0188EB90E0ED
:103050000E943E1660937703709378038093790300
:1030600090937A038CEB90E00E943E1660937E0171
:1030700070937F01809380019093810180EC90E0B8
:103080000E943E1660937B0370937C0380937D03C4
:1030900090937E0384E290E00E943E1660933E038C
:1030A00070933F03809340039093410388E290E044
:1030B0000E943E160E94B32670931E0460931D0466
:1030C0008CE290E00E943E160E94B326709320048A
:1030D00060931F0480E390E00E943E1660936303B8
:1030E00070936403809365039093660384E390E098
:1030F0000E943E1660937602709377028093780266
:103100009093790288E390E00E943E1660937A02E1
:1031100070937B0280937C0290937D028CE590E01B
:103120000E943E1660938A0270938B0280938C02F9
:1031300090938D0280E590E00E943E1660937E029F
:1031400070937F02809380029093810284E590E0E7
:103150000E943E16609382027093830280938402E1
:103160009093850288E590E00E943E166093860267
:103170007093870280938802909389028CE490E098
:103180000E943E1660938E0270938F02809390028D
:103190009093910284EC90E00E943E16609392021C
:1031A00070939302809394029093950280E490E050
:1031B0000E943E160E94B3267093900360938F0383
:1031C0008CE390E00E943E160E94B3267093920317
:1031D0006093910384E490E00E943E160E94B3261F
:1031E000709394036093930380E690E00E943E16F0
:1031F0000E94B3267093A2036093A10384E690E03B
:103200000E943E160E94B3267093A4036093A3030A
:1032100088E690E00E943E160E94B3267093A603B3
:103220006093A50388E490E00E943E166093A2029A
:103230007093A3028093A4029093A50288EC90E07F
:103240000E943E16609396027093970280939802B4
:10325000909399021F910F91FF90EF9008952F92F4
:103260003F924F925F926F927F928F929F92AF9216
:10327000BF92CF92DF92EF92FF920F931F93DF9353
:10328000CF9300D000D0CDB7DEB70E943521609338
:103290004204709343048093440490934504209126
:1032A0003E0430913F0440914004509141047B0121
:1032B0008C01E21AF30A040B150BE0924604F0921B
:1032C0004704009348041093490460933E047093AC
:1032D0003F04809340049093410420914A0430912C
:1032E0004B0440914C0450914D042C593F4F4F4F8B
:1032F0005F4F261737074807590708F0BBC1809171
:10330000C301813009F0B6C1109262033AC0B0E047
:10331000FD01EE0FFF1FEE0FFF1FE659FE4FC080AD
:10332000D180E280F380AA0FBB1FA25DBE4F8C91BB
:103330000E94750DB09062030B2D10E0000F111F5D
:10334000A0E0B0E0BC01CD010E94E4269B01AC01ED
:10335000C701B6010E94C627F801EE0FFF1FE95909
:10336000FC4F20813181428153810E9481250E943E
:10337000B3260E5B1C4FD8016D937C93B394B0922F
:103380006203A0916203A83010F255244BC0052DB2
:1033900010E0F801EE0FFF1FEE0FFF1FE258FD4F88
:1033A00080809180A280B380000F111FE2E56E2E15
:1033B000E3E07E2E600E711EF3016081718188272B
:1033C00077FD8095982F0E94E6266B017C0160E0D6
:1033D00070E080E89FE3A50194010E9480259B0195
:1033E000AC01C701B6010E94C6276B017C010E5BD0
:1033F0001C4FD8016D917C91882777FD8095982F7F
:103400000E94E626A50194010E94C6279B01AC01FB
:10341000C701B6010E9481250E94B326F301718382
:1034200060835394F7E0F51508F0B1CF2090630363
:10343000309064034090650350906603662435C065
:10344000E62DF0E0EE0FFF1FDF01A25ABE4FED9018
:10345000FC906EE4862E61E0962E8E0E9F1EEE5A34
:10346000FC4F608171816E197F09882777FD8095F7
:10347000982F0E94E626A20191010E94C6275B01B7
:103480006C010027F7FC0095102FC801B7010E94BE
:10349000E6269B01AC01C601B5010E9481250E9470
:1034A000B326D4016D937C936394B2E0B61540F6D5
:1034B00023E00EC0E22FF0E0EE0FFF1FDF01AE5A57
:1034C000BC4F8D919C91E25BFE4F918380832F5F77
:1034D000283080F320936203809148039091490340
:1034E0008C5494400CF0A2C006ED12E0F80180E08C
:1034F00090E020E030E040E050E006C020833183DF
:10350000428353830196749685309105BCF3909362
:1035100088038093870380914603909147038C54DE
:10352000944054F480913A04813031F410923A047A
:1035300088EE93E00E94E60680914603909147034F
:103540008C5494406CF580914203909143038D56C6
:10355000974034F180914403909145038C549440FA
:10356000FCF40E94620D0E94520F0E94E00EE6EDF4
:10357000F2E080E090E020E030E040E050E006C083
:10358000208331834283538301967496853091055D
:10359000BCF3909388038093870383E00E94E00C40
:1035A0008091460390914703E7E08D369E07C4F172
:1035B00080913A048823B9F580913B04813099F5D4
:1035C00080933A0480E090E020E030E040E050E07A
:1035D00009C0D8012D933D934D935C9313970196A9
:1035E0000C5E1F4F85309105A4F390938803809360
:1035F00087038CE494E090938B0180938A018091FF
:1036000044039091450390936701809366018091F4
:10361000420390914303909365018093640103C03A
:103620008D5494401CF081E080933B0480914803CA
:1036300090914903E5E085319E071CF0885C90403D
:1036400005C08C54944034F48CE494E090938B0146
:1036500080938A018091420490914304A091440494
:10366000B091450480934A0490934B04A0934C047A
:10367000B0934D0480914E0490914F04A09150045A
:10368000B09151040296A11DB11D209142043091C8
:103690004304409144045091450482179307A407C2
:1036A000B50708F084C18091C501813009F07FC160
:1036B000109288031092870337C0EE0FFF1FE45764
:1036C000FE4F80810E94B821E0918703F09188032A
:1036D000EE0FFF1FAF0149555C4FDF01AF55BC4FE7
:1036E0002D913C91821B930BDA018D939C93EE56A6
:1036F000FE4F80810E94B82140918703509188033A
:10370000FA01EE0FFF1FDF01A157BC4F2D913C9135
:10371000821B930BEB56FC4F918380834F5F5F4F6F
:103720005093880340938703E0918703F0918803C7
:10373000E330F10514F2E091A703F091A803FA83B6
:10374000E9838091A9039091AA03909581959F4F59
:103750009093AA038093A90307EA602E03E0702EDA
:103760001BE9212E13E0312EB5E98B2EB3E09B2E01
:10377000A9E84A2EA3E05A2E1C821B8280C0A0908A
:103780007602B0907702C0907802D0907902D10191
:103790006D917C91882777FD8095982F0E94E62671
:1037A0007B018C0160E070E080E89FE3A601950159
:1037B0000E9480259B01AC01C801B7010E94C62769
:1037C0007B018C01F301619171913F01882777FDA5
:1037D0008095982F0E94E626A60195010E94C62793
:1037E0009B01AC01C801B7010E9481250E94B3264C
:1037F000D1016D937D931D01A0907A02B0907B0260
:10380000C0907C02D0907D02F20160817181882796
:1038100077FD8095982F0E94E6267B018C0160E061
:1038200070E080E89FE3A60195010E9480259B013E
:10383000AC01C801B7010E94C6277B018C01D401ED
:103840006D917D914D01882777FD8095982F0E947D
:10385000E626A60195010E94C6279B01AC01C8017E
:10386000B7010E9481250E94B326F20161937193F2
:103870002F010B811C810F5F1F4F1C830B838B81DA
:103880009C81833091050CF47ACF909388038093C8
:1038900087036091950370919603882777FD809543
:1038A000982F0E94E6267B018C016091990370910C
:1038B0009A03882777FD8095982F0E94E6269B0122
:1038C000AC01C801B7010E94F4258B019C016091F5
:1038D0009A0270919B0280919C0290919D02A0900F
:1038E000BF01B090C001C090C101D090C201498118
:1038F0005A81F6EAEF2EF2E0FF2E0E94380560931F
:103900009A0270939B0280939C0290939D02609117
:10391000970370919803882777FD8095982F0E94D0
:10392000E6267B018C016091990370919A038827A8
:1039300077FD8095982F0E94E6269B01AC01C80177
:10394000B7010E94F4258B019C0160919E02709149
:103950009F028091A0029091A1024091A9035091F1
:10396000AA03A090BF01B090C001C090C101D09047
:10397000C201E6EBEE2EE2E0FE2E0E9438056093D7
:103980009E0270939F028093A0029093A102809167
:10399000420490914304A0914404B0914504809363
:1039A0004E0490934F04A0935004B093510480911F
:1039B000CB019091CC01A091CD01B091CE010296A6
:1039C000A11DB11D20914204309143044091440453
:1039D0005091450482179307A407B50708F018C251
:1039E0008091C601813009F013C260911904709171
:1039F0001A0420914E0130914F01620F731F8827E6
:103A000077FD8095982F0E94E6267B018C016091BE
:103A10009B0370919C03882777FD8095982F0E94C7
:103A2000E6262091A8013091A9014091AA01509168
:103A3000AB010E94C6272091AC013091AD014091AD
:103A4000AE015091AF010E9481259B01AC01C801DC
:103A5000B70106EC12E00E9414070E94B32670938F
:103A600012046093110460915001709151012091F2
:103A70001B0430911C04621B730B882777FD809513
:103A8000982F0E94E6267B018C0160919D03709126
:103A90009E03882777FD8095982F0E94E626209127
:103AA000A8013091A9014091AA015091AB010E9457
:103AB000C6272091AC013091AD014091AE015091EB
:103AC000AF010E9481259B01AC01C801B7010AED3D
:103AD00012E00E9414070E94B326709314046093AE
:103AE00013046091520170915301882777FD8095EE
:103AF000982F0E94E6267B018C0160919F037091B4
:103B0000A003882777FD8095982F0E94E6262091B4
:103B1000A8013091A9014091AA015091AB010E94E6
:103B2000C6272091AC013091AD014091AE0150917A
:103B3000AF010E9481259B01AC01C801B7010EEEC7
:103B400012E00E9414070E94B326FB017093160432
:103B50006093150480913A04882309F47EC0809113
:103B60003B04882309F479C04091540150915501D8
:103B700080911304909114049A01281B390B2E1B79
:103B80003F0B80918A0190918B01281739073CF0F7
:103B9000C901A7E0213D3A0714F080ED97E090932A
:103BA000A1018093A0012091130430911404240FEB
:103BB000351F8091150490911604281B390B8091B4
:103BC0008A0190918B01281739073CF0C901B7E0B1
:103BD000213D3B0714F080ED97E09093A301809383
:103BE000A2012091150430911604240F351F8091F5
:103BF000110490911204281B390B80918A01909135
:103C00008B01281739073CF0C901E7E0213D3E0749
:103C100014F080ED97E09093A5018093A40120918A
:103C2000110430911204240F351F809115049091D6
:103C30001604280F391F80918A0190918B01281753
:103C400039073CF0C901F7E0213D3F0714F080ED52
:103C500097E09093A7018093A601809154019091E1
:103C600055018C549440ECF41092180410921704EF
:103C700011C0F901EE0FFF1FE056FE4F80918A013F
:103C800090918B01918380832F5F3F4F3093180475
:103C90002093170420911704309118042430310523
:103CA00044F380913A04882309F0A0C0809139043C
:103CB000833009F1853009F44BC0813009F07CC0B4
:103CC000109218041092170420ED37E00CC0FC018C
:103CD000EE0FFF1FE056FE4F318320830196909335
:103CE000180480931704809117049091180484306D
:103CF00091056CF37BC0109218041092170420C039
:103D00008091B4019091B50113E0883E91071CF4B5
:103D100088EE93E006C024E0813B920714F080EB2C
:103D200094E0EE0FFF1FE056FE4F91838083809159
:103D30001704909118040196909318048093170427
:103D4000E0911704F0911804E430F105CCF24EC074
:103D5000109218041092170424C0FD01EE0FFF1FEB
:103D6000EA54FE4F0190F081E02D83E0E83EF80731
:103D70001CF4E8EEF3E006C094E0E13BF90714F030
:103D8000E0EBF4E0AA0FBB1FA056BE4FED93FC93EF
:103D900080911704909118040196909318048093D1
:103DA0001704A0911704B0911804A430B105ACF227
:103DB00081E080933B041AC01092180410921704FB
:103DC00028EE33E00CC0FC01EE0FFF1FE056FE4F63
:103DD0003183208301969093180480931704809177
:103DE000170490911804843091056CF30E946606C4
:103DF0008091420490914304A0914404B091450401
:103E00008093CB019093CC01A093CD01B093CE01D0
:103E10008091C7019091C801A091C901B091CA01D8
:103E20008C599F4FAF4FBF4F2091420430914304B4
:103E3000409144045091450482179307A407B507A5
:103E4000C0F48091C4018130A1F40E94BE0F0E9491
:103E50007A088091420490914304A0914404B09167
:103E600045048093C7019093C801A093C901B09302
:103E7000CA018091520490915304A0915404B091CE
:103E800055048C599F4FAF4FBF4F20914204309142
:103E90004304409144045091450482179307A407BA
:103EA000B50708F066C060914E0370914F038827F4
:103EB00077FD8095982F0E94E6267B018C0160910A
:103EC0009E0270919F028091A0029091A10220E039
:103ED00030E040EA51EC0E94C6279B01AC01C801CA
:103EE000B7010E9481250E94B3269B01AC018AE59F
:103EF00094E061E070E0A9010E943B0360919A02A6
:103F000070919B0280919C0290919D0220E030E094
:103F100040E251E40E94C6277B018C01609150036E
:103F200070915103882777FD8095982F0E94E6268F
:103F30009B01AC01C801B7010E9481250E94B326F4
:103F40009B01AC018AE594E064E070E0A9010E9465
:103F50003B038091420490914304A0914404B091AA
:103F600045048093520490935304A0935404B09357
:103F700055048091560490915704A0915804B09133
:103F800059040A96A11DB11D2091420430914304A9
:103F9000409144045091450482179307A407B50744
:103FA00008F057C080913D04813009F052C085E58A
:103FB00095E50E944C08109288031092870311C067
:103FC000EE0FFF1FE955FC4F808191810E944C0844
:103FD0008091870390918803019690938803809342
:103FE0008703E0918703F0918803E330F10544F300
:103FF000109288031092870311C0EE0FFF1FEB563B
:10400000FC4F808191810E944C08809187039091A0
:10401000880301969093880380938703E091870338
:10402000F0918803E330F10544F38FEF9FE70E949E
:104030004C088091420490914304A0914404B091B3
:1040400045048093560490935704A0935804B0936A
:1040500059040F900F900F900F90CF91DF911F9107
:104060000F91FF90EF90DF90CF90BF90AF909F9017
:104070008F907F906F905F904F903F902F9008951A
:1040800088EA95E040E052EC61E070E00E945E2238
:1040900080E00E94B5218DE061E00E94D6218CE095
:1040A00061E00E94D6218CE060E00E94F42161E092
:1040B00070E080E090E00E9443211092B90080E21D
:1040C0008093B80085E18093B800109262040E944A
:1040D00074168091C301813011F40E94C50D0E94B5
:1040E000620D0E94520F10921A041092190410923D
:1040F0001C0410921B048AE594E060E070E048EE36
:1041000053E020ED37E00E9469038AE594E060E027
:1041100070E04CED55E00E943B038AE594E061E0DD
:1041200070E048EE53E020ED37E00E9469038AE535
:1041300094E061E070E04CED55E00E943B038AE5BD
:1041400094E00E947F036091A2027091A30280918B
:10415000A4029091A5020E94E30D0E943521609374
:104160003E0470933F0480934004909341048DE09B
:1041700061E00E94F42110923B0408950E947B218B
:104180000E9440200E942F19FDCF1F920F920FB660
:104190000F9211242F938F939F93AF93BF9380918E
:1041A0009C0590919D05A0919E05B0919F0501965B
:1041B000A11DB11D80939C0590939D05A0939E0524
:1041C000B0939F058091A0059091A105A091A205B3
:1041D000B091A3058050904CAF4FBF4F8093A00586
:1041E0009093A105A093A205B093A30527C0809149
:1041F000A0059091A105A091A205B091A3058058BA
:104200009E43A040B0408093A0059093A105A09349
:10421000A205B093A3058091A4059091A505A09156
:10422000A605B091A7050196A11DB11D8093A40517
:104230009093A505A093A605B093A7058091A0052E
:104240009091A105A091A205B091A30581589E432C
:10425000A040B04060F6BF91AF919F918F912F9198
:104260000F900FBE0F901F9018958FB7F894209164
:10427000A4053091A5054091A6055091A7058FBFD3
:10428000B901CA010895EF92FF920F931F937B012A
:104290008C018FB7F8944091A4055091A5056091C9
:1042A000A6057091A7058FBF2FB7F8948091A4053C
:1042B0009091A505A091A605B091A7052FBF841BDD
:1042C000950BA60BB70BE816F9060A071B0760F754
:1042D0001F910F91FF90EF900895019759F0FC0105
:1042E000EE0FFF1FEE0FFF1F32978FB7F894319735
:1042F000F1F78FBF0895789484B5826084BD84B54A
:10430000816084BD85B5826085BD85B5816085BDD0
:10431000EEE6F0E0808181608083E1E8F0E080817A
:1043200082608083808181608083E0E8F0E080812A
:1043300081608083E1EBF0E0808184608083E0EB4A
:10434000F0E0808181608083EAE7F0E08081846032
:10435000808380818260808380818160808380818E
:10436000806880831092C10008958093CF010895E2
:104370009091CF019295990F990F907C8770892B1E
:1043800080937C0080917A00806480937A00809191
:104390007A0086FDFCCF2091780040917900942F1F
:1043A00080E030E0282B392BC9010895282F30E018
:1043B000C901825C9E4FFC019491225E3E4FF9013F
:1043C0008491882381F0E82FF0E0E15FFE4FE491D3
:1043D000F0E0662329F480819095892380830895F5
:1043E0008081892B80830895482F50E0CA01825A2A
:1043F0009E4FFC012491CA01825C9E4FFC01949166
:10440000425E5E4FFA0134913323C1F1222331F130
:10441000213019F484B58F7704C0223021F484B59B
:104420008F7D84BD1BC0233021F4809180008F7765
:1044300005C0243031F4809180008F7D809380000E
:104440000DC0263021F48091B0008F7705C0273051
:1044500029F48091B0008F7D8093B000E32FF0E0CD
:10446000EC5EFE4FE491F0E0662329F480819095A4
:104470008923808308958081892B8083089584ED2A
:1044800091E09093A9058093A8051092AA059093B6
:10449000AC058093AB0581E08093AD050895FC01E8
:1044A00082810E94B3240895FC0182810E94D92454
:1044B0000895FC0182810E94C3240895FC01828139
:1044C0000E942B240895DC01ED91FC910190F08174
:1044D000E02D099508950F931F93CF93DF938C01DF
:1044E000EB0109C02196D801ED91FC910190F0817A
:1044F000E02DC801099568816623A1F7DF91CF916E
:104500001F910F9108950F931F938C01DC01ED9182
:10451000FC910190F081E02D6DE00995D801ED91BD
:10452000FC910190F081E02DC8016AE009951F918E
:104530000F9108950F931F938C010E946B22C80165
:104540000E9483221F910F9108952F923F924F92C4
:104550005F926F927F928F929F92AF92BF92CF9213
:10456000DF92EF92FF920F931F93DF93CF93CDB71C
:10457000DEB7A0970FB6F894DEBF0FBECDBF1C010B
:104580006A017B01411551056105710549F4DC01A2
:10459000ED91FC910190F081E02D60E3099554C00C
:1045A000882499245401422E55246624772401E05E
:1045B00010E00C0F1D1F080D191DC701B601A30146
:1045C00092010E943F28F80160830894811C911C8D
:1045D000A11CB11CC701B601A30192010E943F2892
:1045E000C901DA016C017D01C114D104E104F104B7
:1045F000F1F681E0E82EF12CEC0EFD1EE80CF91C22
:104600003E010894611C711CD501C4010197A109E8
:10461000B1096C01C818D90814C0F601EE0DFF1DD0
:1046200060816A3010F4605D01C0695CD101ED9178
:10463000FC910190F081E02DC10109950894E108F9
:10464000F1086E147F0449F7A0960FB6F894DEBF08
:104650000FBECDBFCF91DF911F910F91FF90EF90D3
:10466000DF90CF90BF90AF909F908F907F906F9092
:104670005F904F903F902F9008952AE00E94A522CE
:104680000895EF92FF920F931F93CF93DF93EC0166
:104690007A018B0177FF0FC0E881F9810190F081E9
:1046A000E02D6DE2099510950095F094E094E11CE1
:1046B000F11C011D111DCE01B801A7012AE00E94C5
:1046C000A522DF91CF911F910F91FF90EF90089558
:1046D000AB01662757FD6095762F0E944123089510
:1046E0000F931F938C01AB01662757FD6095762FC2
:1046F0000E944123C8010E9483221F910F910895B7
:10470000DC012115310541F4ED91FC910190F0811E
:10471000E02D642F099508952A30310519F40E947F
:10472000412308950E94A52208959F92AF92BF92BF
:10473000CF92DF92EF92FF920F931F93CF93DF936D
:10474000EC017A018B01922ECB01BA0120E030E01E
:1047500040E050E00E944726882364F4E881F98114
:104760000190F081E02DCE016DE2099517FB1095C7
:1047700017F9109520E030E040E05FE3AA240BC079
:10478000CA01B90120E030E040E251E40E944B262A
:104790009B01AC01A394A91498F3C801B7010E942E
:1047A00081255B016C010E94B8267B018C01CE0142
:1047B000B801A7010E943D23992029F0CE016CE2A7
:1047C00071E00E946B22C801B7010E94E4269B01A0
:1047D000AC01C601B5010E94802520C020E030E078
:1047E00040E251E40E94C6277B018C010E94B3265F
:1047F0005B016C01CC24B7FCC094DC2CCE01B6016B
:10480000A5010E944123C601B5010E94E6269B0135
:10481000AC01C801B7010E9480259A949920F1F655
:10482000DF91CF911F910F91FF90EF90DF90CF908C
:10483000BF90AF909F90089522E00E949523089525
:104840000F931F938C010E941C24C8010E94832295
:104850001F910F910895EF92FF920F931F937A018A
:104860008B018823F1F5CB01BA0122E030E040E072
:1048700050E00E946128205C3D4B404F5F4FCA01D1
:10488000B901A80197010E946128C901DA010197C5
:10489000A109B109292F3A2F4B2F552747FD5A95CA
:1048A0000196A11DB11D2093C50081508093C400C5
:1048B0001092C0001092C1001092C2008091C100FD
:1048C00080618093C1008091C10088608093C100A5
:1048D0008091C10080688093C10086E08093C2000F
:1048E0003DC0CB01BA0122E030E040E050E00E9440
:1048F0006128205C3D4B404F5F4FCA01B901A801C0
:1049000097010E946128C901DA010197A109B10943
:10491000292F3A2F4B2F552747FD5A950196A11D58
:10492000B11D2093CD0081508093CC001092C8001F
:104930001092C9001092CA008091C90080618093D2
:10494000C9008091C90088608093C9008091C90026
:1049500080688093C90086E08093CA001F910F9100
:10496000FF90EF900895882339F48091C00085FF6F
:10497000FCCF6093C60008958091C80085FFFCCFEE
:104980006093CE000895E82FF0E0EE0FFF1FDF01E7
:10499000A255BA4F8D919C9180589F4FEE54FA4F7B
:1049A00020813181821B930B60E870E00E942C28EB
:1049B0000895CF93DF93A82FB0E0FD01EE0FFF1F06
:1049C000EF01CE54DA4F48815981E255FA4F808188
:1049D00091818417950719F42FEF3FEF13C0B69517
:1049E000BA2FAA27B795A795A40FB51FAA54BA4FF7
:1049F0002C91CA01019660E870E00E942C289983EE
:104A0000888330E0C901DF91CF9108951F920F9202
:104A10000FB60F9211242F933F934F935F936F9391
:104A20007F938F939F93AF93BF93EF93FF934091A7
:104A3000C600E091AE05F091AF05CF01019660E8A8
:104A400070E00E942C289C018091B2059091B305E2
:104A50002817390739F0EA54FA4F40833093AF05ED
:104A60002093AE05FF91EF91BF91AF919F918F91F0
:104A70007F916F915F914F913F912F910F900FBE5A
:104A80000F901F9018951F920F920FB60F9211243E
:104A90002F933F934F935F936F937F938F939F9346
:104AA000AF93BF93EF93FF934091CE00E091B00599
:104AB000F091B105CF01019660E870E00E942C28CA
:104AC0009C018091B4059091B5052817390739F0FC
:104AD000EA5CF94F40833093B1052093B005FF9114
:104AE000EF91BF91AF919F918F917F916F915F9166
:104AF0004F913F912F910F900FBE0F901F901895DF
:104B00005058BB27AA270ED0FCC1EDD130F0F2D10E
:104B100020F031F49F3F11F41EF4BDC10EF4E09576
:104B2000E7FBB3C1E92FFED180F3BA176207730721
:104B30008407950718F071F49EF516C20EF4E095FF
:104B40000B2EBA2FA02D0B01B90190010C01CA0147
:104B5000A0011124FF27591B99F0593F50F4503EF2
:104B600068F11A16F040A22F232F342F4427585FE4
:104B7000F3CF469537952795A795F0405395C9F7FC
:104B80007EF41F16BA0B620B730B840BBAF09150B4
:104B9000A1F0FF0FBB1F661F771F881FC2F70EC053
:104BA000BA0F621F731F841F48F487957795679526
:104BB000B795F7959E3F08F0B3CF9395880F08F00F
:104BC0009927EE0F9795879508958DD158F080E835
:104BD00091E009F49EEF8ED128F040E851E059F4BD
:104BE0005EEF09C058C1C0C1E92FE0789BD168F3DE
:104BF000092E052AC1F3261737074807590738F049
:104C00000E2E07F8E02569F0E025E0640AC0EF63A6
:104C100007F8009407FADB01B9019D01DC01CA0124
:104C2000AD01EF9347D06DD10AD05F91552331F09C
:104C30002BED3FE049E450FD49EC63CF0895DF934D
:104C4000DD27B92FBF7740E85FE316161706480740
:104C50005B0710F4D92F93D19F938F937F936F931A
:104C6000F8D1E2EEF0E01AD14CD12F913F914F9163
:104C70005F9198D1DD2349F09058A2EA2AED3FE0F8
:104C800049EC5FE3D0785D274DDFDF913AC1D9D0A1
:104C900008F481E008950CD034C12CD140F023D128
:104CA00030F021F45F3F19F0F0C051115EC1F3C044
:104CB00039D198F39923C9F35523B1F3951B550BBB
:104CC000BB27AA2762177307840738F09F5F5F4FDF
:104CD000220F331F441FAA1FA9F333D00E2E3AF020
:104CE000E0E830D091505040E695001CCAF729D03A
:104CF000FE2F27D0660F771F881FBB1F2617370789
:104D00004807AB07B0E809F0BB0B802DBF01FF27B8
:104D100093585F4F2AF09E3F510568F0B6C025C1F9
:104D20005F3FECF3983EDCF3869577956795B795F2
:104D3000F7959F5FC9F7880F911D9695879597F90D
:104D40000895E1E0660F771F881FBB1F6217730786
:104D50008407BA0720F0621B730B840BBA0BEE1F9B
:104D600088F7E095089504D06894B111FEC00895C5
:104D7000E1D088F09F5790F0B92F9927B751A0F054
:104D8000D1F0660F771F881F991F1AF0BA95C9F7DF
:104D900012C0B13081F0E8D0B1E00895E5C0672FCE
:104DA000782F8827B85F39F0B93FCCF3869577958F
:104DB0006795B395D9F73EF4909580957095619578
:104DC0007F4F8F4F9F4F0895E89409C097FB3EF4A3
:104DD00090958095709561957F4F8F4F9F4F992348
:104DE000A9F0F92F96E9BB279395F69587957795C6
:104DF0006795B795F111F8CFFAF4BB0F11F460FF86
:104E00001BC06F5F7F4F8F4F9F4F16C0882311F0DD
:104E100096E911C0772321F09EE8872F762F05C0F1
:104E2000662371F096E8862F70E060E02AF09A958C
:104E3000660F771F881FDAF7880F9695879597F981
:104E40000895990F0008550FAA0BE0E8FEEF16161B
:104E50001706E807F907C0F012161306E407F5076E
:104E600098F0621B730B840B950B39F40A2661F0E2
:104E7000232B242B252B21F408950A2609F4A14085
:104E8000A6958FEF811D811D089597F99F6780E892
:104E900070E060E008959FEF80EC0895DF93CF937A
:104EA0001F930F93FF92EF92DF927B018C01689426
:104EB00005C0DA2EEF0176D0FE01E894A591259188
:104EC000359145915591AEF3EF012CDEFE0197012E
:104ED000A801DA9479F7DF90EF90FF900F911F917E
:104EE000CF91DF91089500240A941616170618062C
:104EF0000906089500240A941216130614060506DE
:104F00000895092E0394000C11F4882352F0BB0F6E
:104F100040F4BF2B11F460FF04C06F5F7F4F8F4FD1
:104F20009F4F089557FD9058440F551F59F05F3F0C
:104F300071F04795880F97FB991F61F09F3F79F0BB
:104F400087950895121613061406551FF2CF46953D
:104F5000F1DF08C0161617061806991FF1CF8695BF
:104F60007105610508940895E894BB2766277727A3
:104F7000CB0197F9089565DF08F48FEF08959B0141
:104F8000AC0160E070E080E89FE385CE0BD0B9CF44
:104F9000AADF28F0AFDF18F0952309F076CF7BCF9A
:104FA0001124E3CFBFDFA0F3959FD1F3950F50E01D
:104FB000551F629FF001729FBB27F00DB11D639FCB
:104FC000AA27F00DB11DAA1F649F6627B00DA11D71
:104FD000661F829F2227B00DA11D621F739FB00D17
:104FE000A11D621F839FA00D611D221F749F332787
:104FF000A00D611D231F849F600D211D822F762F20
:105000006A2F11249F5750408AF0E1F088234AF01C
:10501000EE0FFF1FBB1F661F771F881F9150504068
:10502000A9F79E3F510570F030CF9FCF5F3FECF363
:10503000983EDCF3869577956795B795F795E79554
:105040009F5FC1F7FE2B880F911D9695879597F965
:1050500008959B01AC019ACF97FB092E07260AD031
:1050600077FD04D049D006D000201AF470956195E0
:105070007F4F0895F6F7909581959F4F0895A1E28F
:105080001A2EAA1BBB1BFD010DC0AA1FBB1FEE1FC2
:10509000FF1FA217B307E407F50720F0A21BB30B0D
:1050A000E40BF50B661F771F881F991F1A9469F789
:1050B00060957095809590959B01AC01BD01CF01E5
:1050C000089597FB092E05260ED057FD04D0D7DF93
:1050D0000AD0001C38F450954095309521953F4FEB
:1050E0004F4F5F4F0895F6F79095809570956195B5
:1050F0007F4F8F4F9F4F0895AA1BBB1B51E107C0E5
:10510000AA1FBB1FA617B70710F0A61BB70B881F57
:10511000991F5A95A9F780959095BC01CD010895E6
:10512000EE0FFF1F0590F491E02D0994911106C038
:10513000803219F089508550D0F708959927882733
:1051400008952F923F924F925F926F927F928F922B
:105150009F92AF92BF92CF92DF92EF92FF920F9306
:105160001F93CF93DF93CDB7DEB7CA1BDB0B0FB610
:10517000F894DEBF0FBECDBF09942A8839884888CD
:105180005F846E847D848C849B84AA84B984C88463
:10519000DF80EE80FD800C811B81AA81B981CE0F5A
:1051A000D11D0FB6F894DEBF0FBECDBFED0108953F
:0451B000F894FFCFA1
:1051B400312E35004E4F545F53594E4348454400F9
:1051C400414351554952494E4700524541445900C3
:1051D400696E204661696C73616665002E00040087
:1051E4000300010002000800070005000600040097
:1051F4000300010002000800070005000600DC05AA
:10520400DC05DC05E803E803E803E803E803DC0560
:10521400DC05DC05DC05DC05DC050000803F000066
:10522400803F0000803F0000803F0000803F00007E
:10523400803F0000803F0000803FE803010002003F
:1052440000000600070005005C8F823E00007FC35B
:10525400E803E803E803E8036EA3893F0080BB4446
:1052640087163940E803E803E803E803E803586FC6
:1052740012033B01010101320000000100000001A2
:06528400000000004F22B3
:00000001FF
