:100000000C94E0000C9408010C9408010C94080175
:100010000C9408010C9408010C9408010C9408013C
:100020000C9408010C9408010C9408010C9408012C
:100030000C94B5020C9408010C9408010C949902DC
:100040000C9408010C9408010C944E1F0C940801A8
:100050000C948F230C9408010C9408010C94080153
:100060000C9408010C9408010C9495040C9408015C
:100070000C94CC230C9408010C940801F214F6148F
:10008000FC14081513155315531553155315531513
:10009000531553155315531553155315080F531571
:1000A0006F0F5315D60F5315491053155A1053158A
:1000B0006F1053158E105315CB1053155315531540
:1000C00053155315531553154411531579135315DF
:1000D00053155315531553155315531538154C1502
:1000E0005115084AD73B3BCE016E84BCBFFDC12FE2
:1000F0003D6C74319ABD56833DDA3D00C77F11BE19
:10010000D9E4BB4C3E916BAAAABE000000803F0020
:100110002124272A002225282B0020232629020219
:10012000020202020202040404040404040403039D
:1001300003030303030301010101010101010102A2
:1001400004081020408001020408102040800102B1
:1001500004081020408080402010080402010000A4
:100160000001020000000000000004030706000078
:100170000000000000000000000000000000494EE8
:1001800046494E4954594E414ECDCCCC3D0AD72319
:100190003C17B7D13877CC2B329595E6241FB14F59
:1001A0000A000020410000C84200401C4620BCBE9E
:1001B0004CCA1B0E5AAEC59D7400AE032906C8205A
:1001C00011241FBECFEFD0E1DEBFCDBF11E0A0E014
:1001D000B1E0E6ECFEE402C005900D92A63CB1074A
:1001E000D9F716E0A6ECB1E001C01D92A631B10727
:1001F000E1F711E0C0ECD1E004C02297FE010E94BB
:100200001B27CA3BD107C9F70E94471F0C946127DF
:100210000C940000662777270C940E01A0E0B0E054
:10022000E4E1F1E00C943027EC015B01611571050C
:1002300019F0FB0191838083F9908F2D90E00E944B
:100240001F27892BC9F7FDE2FF1621F4F990EE2450
:10025000E39405C02BE2F21609F4F990EE248E0126
:1002600001501040C8016EE771E043E050E00E9489
:100270006E02892B01F58E010E5F1F4FC80161E8E8
:1002800071E045E050E00E946E02892B19F48E0166
:10029000095F1F4FA114B10419F0F5011183008308
:1002A000E0FC04C070E090E080E814C070E090E0F2
:1002B00080E86FEF08C1C80166E871E043E050E0F4
:1002C0000E946E02892B69F4A114B10429F470E034
:1002D00090E080EC6FE7F7C02296F501D183C083F0
:1002E000F6CF8824992440E050E060E070E0EF2DE4
:1002F000E053EA30A0F5F2E0EF2A8E2D90E09C0169
:1003000028703070E2FE06C0232B79F50894811C1A
:10031000911C2BC0232B19F0089481089108DB0154
:10032000CA0112E0880F991FAA1FBB1F1A95D1F7A7
:10033000480F591F6A1F7B1F440F551F661F771FE9
:100340004E0F511D611D711D483929E9520729E9D8
:10035000620729E1720748F084E0E82A06C0EE3F10
:1003600031F4E3FC39C098E0E92AF990C0CFE533D5
:1003700011F0E53189F529912D3219F4E0E1EE2AE9
:1003800005C02B3219F081E090E003C0299182E092
:1003900090E0E22FE053EA3018F0C81BD90B1CC0E4
:1003A00020E030E0FCE020383F075CF4C901880F12
:1003B000991F880F991F280F391F220F331F2E0FE7
:1003C000311DE991E053EA3068F3E4FE03C0309553
:1003D00021953F4F820E931ECE2CDD24E1FE07C0F7
:1003E000A114B10421F02197F501D183C083CB0181
:1003F000BA010E946D257B018C01F3E0CF22DD2440
:1004000023E0C216D10421F417FB109517F91095BB
:1004100057016801C801B70120E030E040E050E03A
:100420000E94D024882309F44AC097FE0DC02DE90C
:10043000E22E21E0F22E9094819491089394C0E2F0
:10044000D0E000E010E012C095EBE92E91E0F92E2B
:10045000F6CFF7012591359145915491C601B5012B
:100460000E944F265B016C018C1A9D0A8C169D061A
:1004700084F7D595C7950F5F1F4F0630110529F0FA
:100480008CEF9FEFE80EF91EF1CFC501D6017C017C
:100490008D018C2D880F8D2D881F8F3F51F0C60147
:1004A000B50120E030E040E050E00E94D0248823F5
:1004B00031F482E290E090931506809314067E2D2D
:1004C0009F2D802F612F272F392F482F562FB901AD
:1004D000CA01CDB7DEB7ECE00C944C27FB01DC0180
:1004E0004150504088F08D9181341CF08B350CF4D4
:1004F000805E659161341CF06B350CF4605E861B88
:10050000611171F3990B0895881BFCCFF999FECF07
:1005100072BD61BDF89A80B50895F999FECF1FBAF2
:1005200072BD61BD40BD0FB6F894FA9AF99A0FBE3C
:1005300008951F920F920FB60F9211248F939F93DD
:100540008091C9019091CA01029741F483E090E043
:100550009093CA018093C9011092F0019F918F91ED
:100560000F900FBE0F901F9018951F920F920FB60D
:100570000F9211242F933F938F939F93EF93FF93A9
:10058000809181002091C70190E08074907030E0EC
:100590008217930709F093C010928500109284008F
:1005A00080918600909187008057974108F451C050
:1005B0008091860090918700969587959093DE01B3
:1005C0008093DD018091C9019091CA01029741F4A5
:1005D0009091F0018091EF01981709F061C066C019
:1005E0008091C9019091CA01892B49F481E090E082
:1005F0009093CA018093C9011092F10157C0809174
:10060000C9019091CA010197A9F48091F1018F5F0E
:100610008093F1018091F101893008F447C082E0B4
:1006200090E09093CA018093C9018091F00180937A
:10063000EF013CC08091C9019091CA010397B1F5C7
:100640009091F0018091EF01981781F582E090E0A0
:1006500029C08091F001883090F5809186009091BA
:1006600087008C5D954028F18091860090918700ED
:1006700085599141F0F48091F0018F5F8093F001F2
:10068000E091F001F0E080918600909187009695CE
:100690008795EE0FFF1FE352FE4F918380830FC0BB
:1006A00083E090E09093CA018093C9011092F00119
:1006B00006C08091C9019091CA01029789F3FF9108
:1006C000EF919F918F913F912F910F900FBE0F90BF
:1006D0001F9018952091C9013091CA01C901089550
:1006E000862F8150883040F4E62FF0E0EE0FFF1F98
:1006F000E553FE4F518340830895693020F5809182
:10070000C9019091CA01039711F5E62FF0E0EE0FB1
:10071000FF1FE553FE4F80819181892BC1F06081DD
:10072000718113C08091C9019091CA01039759F456
:10073000F894E62FF0E0EE0FFF1FE352FE4F6081CA
:100740007181789402C060E070E0CB0108958091DF
:10075000C9019091CA01029729F7EACF08958EE066
:1007600060E00E945F201092F0011092CA01109286
:10077000C9011092800082E08093810081E2809321
:100780006F0021E030E04CED55E0F901EE0FFF1F66
:10079000DF01A352BE4F11965C934E938D919C91B5
:1007A000E553FE4F918380832F5F3F4F2930310502
:1007B00061F708954F925F926F927F928F929F920E
:1007C000AF92BF92CF92DF92EF92FF920F931F935F
:1007D000DF93CF93CDB7DEB728970FB6F894DEBF7F
:1007E0000FBECDBF69837A838B839C83CA01380196
:1007F0004901270160E074E00E94B526882777FD53
:100800008095982F0E946F2520919E0130919F0125
:100810004091A0015091A1010E944F262FE632E1A4
:1008200043E05BE30E94D4246D837E838F839887AB
:10083000C401B30121EE3EE245E652E40E944F2698
:1008400029813A814B815C810E9409243B014C0142
:10085000E0901E02F0901F020091200210912102F0
:10086000A80197010E944F26A80197010E944F26D8
:100870009B01AC01F2016083718382839383C60183
:10088000B5010E944F26F2012085318542855385AE
:100890000E940A247B018C01F201608771878287A4
:1008A0009387C401B301A40193010E940A242091FB
:1008B0001E0230911F0240912002509121020E949D
:1008C0004F269B01AC01C801B7010E940A242D816B
:1008D0003E814F8158850E940A249B01AC01F201A0
:1008E0006483758386839783C601B5010E944F2672
:1008F00029813A814B815C810E940A2428960FB697
:10090000F894DEBF0FBECDBFCF91DF911F910F9145
:10091000FF90EF90DF90CF90BF90AF909F908F901F
:100920007F906F905F904F9008951F920F920FB637
:100930000F9211248F939F938091BA038F5F8093BE
:10094000BA038150813079F0813020F0823009F093
:1009500042C02BC01092B9008091C10390E08996EB
:10096000880F991F1CC08091C1038F5F8093C103C2
:100970008150813051F0813028F0823049F083304D
:1009800061F509C08091BC0308C08091BD0305C01A
:100990008091BE0302C08091BF031092B900809382
:1009A000BB0085E88093BC0018C084E98093BC003C
:1009B0008091C103843018F41092BA0304C01092DD
:1009C0008403109283038AE090E09093BE018093A9
:1009D000BD0185EAE7CF1092BA038091BC00806820
:1009E0008093BC009F918F910F900FBE0F901F902E
:1009F0001895AA2797FDA095BA2FBC01CD010E949A
:100A00006F25209186013091870140918801509196
:100A100089010E944F2620918A0130918B014091DB
:100A20008C0150918D010E940A240E9441256093FF
:100A3000BC036093BD036093BE036093BF0308953E
:100A40002F923F924F925F926F927F928F929F92DE
:100A5000AF92BF92CF92DF92EF92FF920F931F93CC
:100A6000DF93CF9300D000D000D0CDB7DEB719010F
:100A70002A011E830D830E94092469837A838B8354
:100A80009C83F80120893189428953890E940A2474
:100A90007B018C01ED81FE81608B718B828B938B4E
:100AA000A090BA02B090BB02C090BC02D090BD0230
:100AB0003501460197FA909497F89094A401930118
:100AC0000E94D02488233CF4ED81FE81608A718AE3
:100AD000828A938A0EC0C801B701A60195010E94BF
:100AE0004426181634F4ED81FE81A08AB18AC28AA8
:100AF000D38AC201B101ED81FE8124853585468509
:100B000057850E940924ED81FE812085318542852B
:100B100053850E944F265B016C01ED81FE81248686
:100B200035864686578669817A818B819C812081B2
:100B30003181428153810E944F267B018C01ED81DE
:100B4000FE816481758186819781208931894289FE
:100B500053890E944F269B01AC01C801B7010E9436
:100B60000A24A60195010E940A2426960FB6F8943D
:100B7000DEBF0FBECDBFCF91DF911F910F91FF90D0
:100B8000EF90DF90CF90BF90AF909F908F907F902D
:100B90006F905F904F903F902F900895FF920F932A
:100BA0001F93CF93DF93EC018B016150704028C0FD
:100BB000D901AA0FBB1FAC0FBD1F4D915C911197BE
:100BC000F9013196EE0FFF1FEC0FFD1F20813181DF
:100BD000241735072CF4518340832D933C9390E0E8
:100BE0008F5F282F30E02617370714F3913041F438
:100BF00080E0A0E0B0E040E050E060E070E01CC0C9
:100C000091E080E0EECFEE0FFF1FEC0FFD1F208183
:100C10003181A217B30724F4D90141E050E005C0A7
:100C20002A173B0711F44F5F5F4F641775071CF4D9
:100C3000922FF32EBA018F5FE82FF0E0E017F10753
:100C400014F3892F9F2DDF91CF911F910F91FF906A
:100C5000089560919E0170919F018091A0019091F3
:100C6000A10120E030E040E85AE30E944F262FE641
:100C700032E143E05BE30E94D4242BED3FE049ECFA
:100C80005FE30E944F2660938D0370938E038093E1
:100C90008F03909390030895CF92DF92EF92FF928B
:100CA0000F931F937C0166E0C62E65E0D62E492F78
:100CB000552747FD5A9550E060E070E0C60120E0FE
:100CC00030E00E940922FF2400E010E0C601B801D4
:100CD000A70120E030E00E9409221F910F91FF90B0
:100CE000EF90DF90CF90089586E095E06CE20E944F
:100CF000EC2008951092A0038091AC018E3409F489
:100D000088C18F34F4F4863409F4D5C087347CF478
:100D1000823499F183343CF4813209F447C4863338
:100D200009F04DC419C4843409F049C475C08A342B
:100D300009F433C18C3409F447C1883409F03FC445
:100D400019C1833509F4A3C2843554F4813509F4FB
:100D5000E5C182350CF064C2803509F030C487C12A
:100D6000853509F48AC385350CF41EC3863509F42C
:100D7000A2C38A3509F023C4BCC3409142025091FA
:100D80004302609144027091450286E095E00E9422
:100D9000A5220E947406409146025091470260913C
:100DA00048027091490286E095E00E94A5220E94C7
:100DB000740640914A0250914B0260914C0270912E
:100DC0004D0286E095E00E94A5220E9474064091A3
:100DD000560250915702609158027091590286E074
:100DE00095E00E94A5220E94740640915A025091FB
:100DF0005B0260915C0270915D0286E095E00E946A
:100E0000A5220E94740640915E0250915F0260919B
:100E10006002709161027AC140916A0250916B0246
:100E200060916C0270916D0286E095E00E94A522AF
:100E30000E94740640916E0250916F0260917002A0
:100E40007091710286E095E00E94A5220E947406CE
:100E50004091720250917302609174027091750218
:100E600086E095E00E94A5220E9474064091A602A9
:100E70005091A7026091A8027091A90286E095E0C6
:100E80000E94A5220E9474064091AA025091AB02D2
:100E90006091AC027091AD0286E095E00E94A522BF
:100EA0000E9474064091AE025091AF026091B00270
:100EB0007091B1022BC140917E0250917F026091EE
:100EC00080027091810286E095E00E94A5220E9436
:100ED00074066091820270918302809184029091E5
:100EE000850220E030E048EC52E40E944F26AB013E
:100EF000BC0186E095E00E94A5220E947406409104
:100F0000860250918702609188027091890286E082
:100F100095E00E94A5220E94740640919202509191
:100F20009302609194027091950286E095E00E9490
:100F3000A5220E947406609196027091970280919A
:100F400098029091990220E030E048EC52E40E942F
:100F50004F26AB01BC0186E095E00E94A5220E94CD
:100F6000740640919A0250919B0260919C0270918C
:100F70009D02CCC06091890370918A0386E095E060
:100F80000E94F1210E94740660918B0370918C0382
:100F900086E095E00E94F921BDC04091BA025091CF
:100FA000BB026091BC027091BD0286E095E00E9498
:100FB000A5220E9474064091D7025091D8026091F8
:100FC000D9027091DA02A2C04091F2015091F3016E
:100FD0006091F4017091F50186E095E00E94A522F0
:100FE0000E9474064091F6015091F7016091F8015A
:100FF0007091F90186E095E00E94A5220E94740696
:1010000040911E0250911F026091200270912102B6
:101010007DC01092F4021092F30219C0EE0FFF1F70
:10102000EE0FFF1FE650FE4F4081518162817381B8
:1010300086E095E00E94A5220E9474068091F3024A
:101040009091F40201969093F4028093F302E09160
:10105000F302F091F402E530F10504F340910E0241
:1010600050910F0260911002709111024FC01092C6
:10107000F4021092F3022DC0EE0FFF1FEE0FFF1FC0
:10108000E05AFE4F408151816281738186E095E094
:101090000E94A5220E947406E091F302F091F402EE
:1010A000EE0FFF1FEE0FFF1FE552FD4F40815181F4
:1010B0006281738186E095E00E94A5220E947406F9
:1010C0008091F3029091F40201969093F402809340
:1010D000F302E091F302F091F402E530F10564F2DD
:1010E0004091740150917501609176017091770182
:1010F00086E095E00E94A5220E9474064091EF02CE
:101100005091F0026091F1027091F20286E095E058
:101110000E94A92288E58093AC0108951092F40200
:101120001092F30215C0EE0FFF1FED5EFC4F6081C1
:10113000718186E095E00E94F1210E947406809101
:10114000F3029091F40201969093F4028093F302DB
:10115000E091F302F091F402E330F10524F31092F0
:10116000F4021092F30215C0EE0FFF1FEF5FFC4F69
:101170006081718186E095E00E94F1210E947406F1
:101180008091F3029091F40201969093F40280937F
:10119000F302E091F302F091F402E330F10524F35D
:1011A0001092F4021092F30215C0EE0FFF1FEB57DE
:1011B000FC4F6081718186E095E00E94F1210E94E0
:1011C00074068091F3029091F40201969093F402D8
:1011D0008093F302E091F302F091F402E230F10522
:1011E00024F34091160250911702609118027091F9
:1011F000190286E095E00E94A5220E9474064091A3
:101200001A0250911B0260911C0270911D0286E02F
:1012100095E00E94A52286E095E00E940C210895A9
:1012200081E00E944120BC0186E095E00E94F1210E
:101230000E94740682E00E944120BC0186E095E095
:101240000E94F1210E94740680E00E944120BC01AE
:1012500086E095E00E94F1210E94740686E00E94DB
:101260004120BC0186E095E00E94F1210E947406B5
:1012700087E00E944120BC0186E095E00E94F121B8
:101280000E94740685E00E944120BC018AC1409101
:10129000AA035091AB036091AC037091AD0386E05B
:1012A00095E00E94C6210E9474061092F4021092EA
:1012B000F30215C0EE0FFF1FE95FFC4F60817181E3
:1012C00086E095E00E94F1210E9474068091F3026D
:1012D0009091F40201969093F4028093F302E091CE
:1012E000F302F091F402E330F10524F360914E0132
:1012F00070914F0186E095E00E94F1210E947406F2
:101300001092F4021092F30215C0EE0FFF1FE35883
:10131000FC4F6081718186E095E00E94F1210E947E
:1013200074068091F3029091F40201969093F40276
:101330008093F302E091F302F091F402E330F105BF
:1013400024F3109284031092830315C0EE0FFF1F45
:10135000E257FE4F6081718186E095E00E94F121A5
:101360000E94740680918303909184030196909368
:10137000840380938303E0918303F0918403E4303A
:10138000F10524F340919E0350E060E070E086E0B8
:1013900095E022E030E00E9409220E94740686E077
:1013A00095E068EE73E0FFC04091D7025091D802FB
:1013B0006091D9027091DA0286E095E00E94A52240
:1013C0000E9474061092F4021092F30215C0EE0F00
:1013D000FF1FE85BFE4F6081718186E095E00E940F
:1013E000F1210E9474068091F3029091F40201961B
:1013F0009093F4028093F302E091F302F091F402EF
:10140000E330F10524F31092F4021092F30215C0B8
:10141000EE0FFF1FEB57FC4F6081718186E095E076
:101420000E94F1210E9474068091F3029091F402CF
:1014300001969093F4028093F302E091F302F0910D
:10144000F402E230F10524F360917D0370917E0394
:1014500086E095E00E94F1210E94740660917F036E
:101460007091800386E095E00E94F1210E9474064D
:10147000609181037091820394C01092D60212C0D1
:10148000F0E0EE0FFF1FE653FD4F6081718186E0B3
:1014900095E00E94F1210E9474068091D6028F5F30
:1014A0008093D602E091D602E53050F36091D402E9
:1014B0007091D50276C01092D60212C0F0E0EE0F05
:1014C000FF1FE254FD4F6081718186E095E00E942C
:1014D000F1210E9474068091D6028F5F8093D6021C
:1014E000E091D602E53050F36091C8027091C902D4
:1014F00058C060914C0170914D0186E095E00E94CA
:10150000F1210E94740640919503509196036091D9
:1015100097037091980386E095E00E94A5220E94AF
:1015200074064091910350919203609193037091DE
:10153000940386E095E00E94A5220E9474064091E3
:10154000990350919A0360919B0370919C0386E0EC
:1015500095E00E94A92208951092840310928303BB
:1015600015C0EE0FFF1FEC55FE4F6081718186E0C4
:1015700095E00E94F1210E9474068091830390916E
:10158000840301969093840380938303E091830303
:10159000F0918403E330F10524F36091AA01709186
:1015A000AB0186E095E00E94F921089586E095E080
:1015B00060E071E00E94232188E58093AC010895EA
:1015C0000F931F93082F10E015C08CE494E00E9445
:1015D000F9046AEF70E080E090E00E94CC1F88EE92
:1015E00093E00E94F9046AEF70E080E090E00E94CE
:1015F000CC1F1F5F101748F31F910F910895EF92B2
:10160000FF920F931F93DF93CF93CDB7DEB7C058F0
:10161000D0400FB6F894DEBF0FBECDBF19821A823C
:101620001B821C82FE0135968CE7DF011D928A9594
:10163000E9F700E010E07E010894E11CF11C86E06F
:1016400095E00E94E220882341F46AE070E080E0A7
:1016500090E00E94CC1F1F5F0AC086E095E00E94C8
:10166000DD20F701E00FF11D80830F5F10E0802F78
:1016700090E00197BFEF8F3F9B0719F4E0E0F0E0A7
:1016800006C0FC018138910514F0E0E8F0E0EE0DB1
:10169000FF1D80818B3321F0153010F407FFCFCF71
:1016A000CE0101960E940A01C058DF4F0FB6F89490
:1016B000DEBF0FBECDBFCF91DF911F910F91FF9085
:1016C000EF9008958CE061E00E947D208EEE92E024
:1016D0000E94F61F8CE060E00E947D2068E070E0D0
:1016E00080E090E00E94CC1F08951F93CF93DF937A
:1016F000182F88EC91E00E946A03029721F588EC8C
:1017000091E0612F0E947D03EC01612F70E09C014C
:1017100040E050E08DE090E0689FF001699FF00D9F
:10172000789FF00D1124EE53FC4F218732874387B9
:10173000548781E080838CE060E00E947D208DE012
:1017400060E00E947D20CE01DF91CF911F9108952E
:101750000F931F938CE061E00E945F208DE061E0B9
:101760000E945F2008EC11E0C8010E94AF03C8018D
:1017700063E042ED54E00E9470031F910F910895C1
:101780000E94A80B20E04DE050E013C0E22FF0E0F3
:10179000EE0FFF1FE45CFE4F80819181849FF0017A
:1017A000859FF00D949FF00D1124EE53FC4FE081C6
:1017B0002F5F263058F32093D60208956F927F92C0
:1017C0008F929F92AF92BF92CF92DF92EF92FF9251
:1017D0000F931F93E0908601F0908701009188019C
:1017E00010918901A0908A01B0908B01C0908C016A
:1017F000D0908D0160918E0170918F01882777FDC7
:101800008095982F0E946F25A80197010E944F266E
:10181000A60195010E940A243B014C0120E030E022
:101820004CEF52E40E9409240E9441256093BC03BE
:101830006091900170919101882777FD8095982F94
:101840000E946F25A80197010E944F26A6019501CD
:101850000E940A2420E030E04CEF52E40E94092468
:101860000E9441256093BD036091920170919301A4
:10187000882777FD8095982F0E946F25A8019701F2
:101880000E944F26A60195010E940A2420E030E024
:101890004CEF52E40E9409240E9441256093BE034C
:1018A0006091940170919501882777FD8095982F1C
:1018B0000E946F25A80197010E944F26A60195015D
:1018C0000E940A2420E030E04CEF52E40E940924F8
:1018D0000E9441256093BF031092BA031092C10386
:1018E00085EA8093BC0006E015E0C801B401A301BD
:1018F0000E94A52224E0E22E21E0F22EC801B701C9
:101900000E94F4206091900170919101882777FDE9
:101910008095982F0E946F25209186013091870134
:1019200040918801509189010E944F2620918A019F
:1019300030918B0140918C0150918D010E940A24BD
:10194000AB01BC01C8010E94A522C801B7010E94D9
:10195000F4206091920170919301882777FD809522
:10196000982F0E946F252091860130918701409128
:101970008801509189010E944F2620918A0130915F
:101980008B0140918C0150918D010E940A24AB0182
:10199000BC01C8010E94A522C801B7010E94F42021
:1019A0006091940170919501882777FD8095982F1B
:1019B0000E946F2520918601309187014091880116
:1019C000509189010E944F2620918A0130918B010C
:1019D00040918C0150918D010E940A24AB01BC0101
:1019E000C8010E94A522C8010E940C211F910F91DD
:1019F000FF90EF90DF90CF90BF90AF909F908F902F
:101A00007F906F900895EF92FF920F931F938091B4
:101A100080010E9441202091FB023091FC02821B38
:101A2000930BAA2797FDA095BA2FBC01CD010E9468
:101A30006F257B018C01809184010E9441202091BF
:101A4000FF0230910003821B930BAA2797FDA095FC
:101A5000BA2FBC01CD010E946F259B01AC01C801CA
:101A6000B7010E947D2421EE3EE245E652E40E9449
:101A70004F2660931602709317028093180290937A
:101A80001902809182010E9441202091FD02309133
:101A9000FE02821B930BAA2797FDA095BA2FBC01CB
:101AA000CD010E946F257B018C01809184010E94F1
:101AB00041202091FF0230910003821B930BAA2743
:101AC00097FDA095BA2FBC01CD010E946F259B0107
:101AD000AC01C801B7010E947D2421EE3EE245E63B
:101AE00052E40E944F2660931A0270931B02809367
:101AF0001C0290931D02E0900D03F0900E03809164
:101B00007A010E944120E81AF90A0027F7FC0095A3
:101B1000102FC801B7010E946F2526E933E446EE75
:101B200056E40E94D42421EE3EE245E652E40E94AF
:101B30004F2660932A0270932B0280932C0290937D
:101B40002D02E0900F03F090100380917C010E9421
:101B50004120E81AF90A0027F7FC0095102FC80168
:101B6000B7010E946F2526E933E446EE56E40E9451
:101B7000D42421EE3EE245E652E40E944F266093D3
:101B80003A0270933B0280933C0290933D021F9176
:101B90000F91FF90EF900895CF92DF92EF92FF9216
:101BA0000F931F93DF93CF9300D000D0CDB7DEB754
:101BB0007A0169837A838B839C8300E010E06E0155
:101BC0000894C11CD11CB8016E0D7F1DF601E00FF9
:101BD000F11F86EC91E040810E948D020F5F1F4F44
:101BE0000430110581F70F900F900F900F90CF9157
:101BF000DF911F910F91FF90EF90DF90CF900895AC
:101C00000F931F93CF93DF931092F4021092F3027D
:101C10002BC0E091F302F091F402EE0FFF1FE058A9
:101C2000FE4F80810E9441208993999383E0CD37B4
:101C3000D80779F70091F3021091F40289E193E05B
:101C400062E370E00E94CE05000F111F05501D4F8A
:101C5000F801918380838091F3029091F4020196C0
:101C60009093F4028093F3028091F3029091F40236
:101C700002971CF4C9E1D3E0CCCF8BE392E09093C0
:101C800000038093FF026091FB027091FC028827A1
:101C900077FD8095982F0E946F2540E450E00E94C8
:101CA000CC0D6091FD027091FE02882777FD809532
:101CB000982F0E946F254CE350E00E94CC0D60915C
:101CC000FF0270910003882777FD8095982F0E946E
:101CD0006F2544E450E00E94CC0DDF91CF911F911D
:101CE0000F9108950F931F93CF93DF931092F402F7
:101CF0001092F3022BC0E091F302F091F402EE0F88
:101D0000FF1FE658FE4F80810E94412089939993DE
:101D100083E0CD37D80779F70091F3021091F402F0
:101D200089E193E062E370E00E94CE05000F111F8D
:101D3000035F1C4FF801918380838091F30290919F
:101D4000F40201969093F4028093F3028091F302DF
:101D50009091F40203971CF4C9E1D3E0CCCF6091D9
:101D60000D0370910E03882777FD8095982F0E94B0
:101D70006F2540E650E00E94CC0D60910F037091FA
:101D80001003882777FD8095982F0E946F2544E6E1
:101D900050E00E94CC0D60911103709112038827CE
:101DA00077FD8095982F0E946F2548E650E00E94AD
:101DB000CC0DDF91CF911F910F910895EF92FF927B
:101DC0000F931F93CF93DF9386E095E00E94E2206C
:101DD000882309F46CC68DE060E00E947D2086E0D7
:101DE00095E00E94DD208093AC01992787FD9095B6
:101DF000A92FB92FFC01F197E333F10508F053C681
:101E0000E25CFF4FEE0FFF1F0590F491E02D099467
:101E10000E94FF0A6093420270934302809344023F
:101E2000909345020E94FF0A609346027093470216
:101E300080934802909349020E94FF0A60934A02ED
:101E400070934B0280934C0290934D020F2EF0E062
:101E5000EF2EF0E0FF2EF0E00F2FF0E01F2FF02D1F
:101E6000E0924E02F0924F02009350021093510202
:101E7000E0925202F09253020093540210935502E2
:101E80000E94FF0A60935602709357028093580293
:101E9000909359020E94FF0A60935A0270935B026A
:101EA00080935C0290935D020E94FF0A60935E0241
:101EB00070935F028093600290936102E0926202ED
:101EC000F09263020093640210936502E09266024E
:101ED000F09267020093680210936902E4C50E94C1
:101EE000FF0A60936A0270936B0280936C02909376
:101EF0006D020E94FF0A60936E0270936F028093DE
:101F00007002909371020E94FF0A609372027093B4
:101F1000730280937402909375020F2EF0E0EF2EFF
:101F2000F0E0FF2EF0E00F2FF0E01F2FF02DE092F9
:101F30007602F09277020093780210937902E09291
:101F40007A02F0927B0200937C0210937D020E9441
:101F5000FF0A6093A6027093A7028093A802909351
:101F6000A9020E94FF0A6093AA027093AB028093B9
:101F7000AC029093AD020E94FF0A6093AE02709390
:101F8000AF028093B0029093B102E092B202F0925D
:101F9000B3020093B4021093B502E092B602F0923D
:101FA000B7020093B8021093B9027DC50E94FF0AE0
:101FB00060937E0270937F028093800290938102EF
:101FC0000E94FF0A20E030E048EC52E40E94D42452
:101FD00060938202709383028093840290938502BF
:101FE0000E94FF0A609386027093870280938802A2
:101FF000909389020F2EF0E0EF2EF0E0FF2EF0E03C
:102000000F2FF0E01F2FF02DE0928A02F0928B024A
:1020100000938C0210938D02E0928E02F0928F0258
:1020200000939002109391020E94FF0A6093920223
:102030007093930280939402909395020E94FF0AFA
:1020400020E030E048EC52E40E94D42460939602F1
:102050007093970280939802909399020E94FF0ACE
:1020600060939A0270939B0280939C0290939D02CE
:10207000E0929E02F0929F020093A0021093A102B0
:10208000E092A202F092A3020093A4021093A50290
:102090000AC50E94FF0A0E943C2570938A03609340
:1020A00089030E94FF0A0E943C2570938C03609371
:1020B0008B03F9C40E94FF0A6093BA027093BB02BB
:1020C0008093BC029093BD020E94FF0A6093D702E6
:1020D0007093D8028093D9029093DA02E4C40E94EC
:1020E000FF0A6093F2017093F3018093F4019093DF
:1020F000F5010E94FF0A6093F6017093F701809347
:10210000F8019093F9010E94FF0A60931E027093F8
:102110001F028093200290932102C5C40E94FF0AEF
:102120006093FA017093FB018093FC019093FD0191
:102130000E94FF0A6093FE017093FF0180930002EA
:10214000909301020E94FF0A6093020270930302BF
:1021500080930402909305020E94FF0A6093060296
:102160007093070280930802909309020E94FF0A6D
:1021700060930A0270930B0280930C0290930D02FD
:102180000E94FF0A60930E0270930F028093100268
:102190009093110288C40E94FF0A609360017093BB
:1021A000610180936201909363010E94FF0A609332
:1021B000DB027093DC028093DD029093DE020E94CA
:1021C000FF0A6093640170936501809366019093A8
:1021D00067010E94FF0A6093DF027093E002809320
:1021E000E1029093E2020E94FF0A609368017093FB
:1021F000690180936A0190936B010E94FF0A6093CA
:10220000E3027093E4028093E5029093E6020E9459
:10221000FF0A60936C0170936D0180936E0190933F
:102220006F010E94FF0A6093E7027093E8028093B7
:10223000E9029093EA020E94FF0A60937001709392
:10224000710180937201909373010E94FF0A609361
:10225000EB027093EC028093ED029093EE020E94E9
:10226000FF0A6093740170937501809376019093D7
:1022700077010E94FF0A6093EF027093F00280934F
:10228000F1029093F2020FC46091420270914302F6
:10229000809144029091450240E050E00E94CC0DB4
:1022A00060914602709147028091480290914902E4
:1022B00044E050E00E94CC0D60914A0270914B02C4
:1022C00080914C0290914D0248E050E00E94CC0D6C
:1022D0006091560270915702809158029091590274
:1022E0004CE750E00E94CC0D60915A0270915B0265
:1022F00080915C0290915D0240E850E00E94CC0D1C
:1023000060915E0270915F02809160029091610223
:1023100044E850E00E94CC0D60917E0270917F02F3
:1023200080918002909181024CE050E00E94CC0D9F
:102330006091820270918302809184029091850263
:1023400040E150E00E94CC0D6091860270918702BE
:10235000809188029091890244E150E00E94CC0D66
:1023600060919202709193028091940290919502F3
:1023700048E850E00E94CC0D60919602709197025F
:1023800080919802909199024CE850E00E94CC0D07
:1023900060919A0270919B0280919C0290919D02A3
:1023A00040E950E00E94CC0D60916A0270916B028E
:1023B00080916C0290916D0248E150E00E94CC0D3A
:1023C00060916E0270916F02809170029091710223
:1023D0004CE150E00E94CC0D60917202709173024A
:1023E000809174029091750240E250E00E94CC0D01
:1023F0006091A6027091A7028091A8029091A90213
:102400004CEC50E00E94CC0D6091AA027091AB029E
:102410008091AC029091AD0240ED50E00E94CC0D55
:102420006091AE027091AF028091B0029091B102C2
:1024300044ED50E00E94CC0D6091BA027091BB0255
:102440008091BC029091BD0244E250E00E94CC0D0C
:102450006091890370918A03882777FD8095982F72
:102460000E946F2548E250E00E94CC0D60918B03E2
:1024700070918C03882777FD8095982F0E946F2597
:102480004CE250E00E94CC0D6091D7027091D802CE
:102490008091D9029091DA0240E350E00E94CC0D85
:1024A0006091F2017091F3018091F4019091F50136
:1024B00044E350E00E94CC0D6091F6017091F70169
:1024C0008091F8019091F90148E350E00E94CC0D11
:1024D00060910602709107028091080290910902B2
:1024E0004CE550E00E94CC0D6091FA017091FB0127
:1024F0008091FC019091FD0140E550E00E94CC0DDF
:102500006091FE017091FF018091000290910102A3
:1025100044E550E00E94CC0D6091020270910302EC
:10252000809104029091050248E550E00E94CC0D94
:1025300060910A0270910B0280910C0290910D0241
:102540004CE450E00E94CC0D60910E0270910F029D
:10255000809110029091110244EC50E00E94CC0D49
:1025600060911E0270911F028091200290912102C1
:1025700048E450E00E94CC0D60916C0170916D01B7
:1025800080916E0190916F0144E950E00E94CC0D62
:102590006091E7027091E8028091E9029091EA026D
:1025A00048E950E00E94CC0D60916001709161019A
:1025B00080916201909163014CE950E00E94CC0D42
:1025C0006091DB027091DC028091DD029091DE026D
:1025D00040EA50E00E94CC0D609164017091650169
:1025E000809166019091670144EA50E00E94CC0D11
:1025F0006091DF027091E0028091E1029091E2022D
:1026000048EA50E00E94CC0D609168017091690128
:1026100080916A0190916B014CEA50E00E94CC0DD0
:102620006091E3027091E4028091E5029091E602EC
:1026300040EB50E00E94CC0D6091700170917101EF
:10264000809172019091730144EB50E00E94CC0D97
:102650006091EB027091EC028091ED029091EE029C
:1026600048EB50E00E94CC0D6091740170917501AF
:1026700080917601909177014CEB50E00E94CC0D57
:102680006091EF027091F0028091F1029091F2025C
:1026900040EC50E00E94CC0D609112027091130248
:1026A000809114029091150248EC50E00E94CC0DEC
:1026B000E2E5F2E080E090E020E030E040E050E051
:1026C00006C02083318342835383019674968530FC
:1026D0009105BCF39093F4028093F30260911E0283
:1026E00070911F0280912002909121020E94030D9F
:1026F000DAC10F2EF0E0EF2EF0E0FF2EF0E70F2F03
:10270000F0E41F2FF02DE0924202F092430200937A
:1027100044021093450220E030E040E050E0209376
:10272000460230934702409348025093490280E0AA
:1027300090E0A0E2B1EC80934A0290934B02A09308
:102740004C02B0934D02E0925602F0925702009371
:1027500058021093590220935A0230935B0240931F
:102760005C0250935D0280935E0290935F02A0939F
:102770006002B093610280E090E0A0E4B1E4809355
:102780006A0290936B02A0936C02B0936D02209347
:102790006E0230936F024093700250937102209347
:1027A000720230937302409374025093750280E07A
:1027B00090E0A0E0B0E480937E0290937F02A0932B
:1027C0008002B0938102209382023093830240936F
:1027D00084025093850220938602309387024093AF
:1027E0008802509389028093920290939302A0935F
:1027F0009402B093950220939602309397024093EF
:1028000098025093990220939A0230939B0240932E
:102810009C0250939D020F2EF0E0EF2EF0E0FF2E71
:10282000F0E40F2FF0E41F2FF02DE092A602F092BB
:10283000A7020093A8021093A9022093AA02309342
:10284000AB024093AC025093AD022093AE023093A2
:10285000AF024093B0025093B10280E090E0AAEF43
:10286000B4E48093BA029093BB02A093BC02B093ED
:10287000BD028DEC9CECACE4BEE38093D702909358
:10288000D802A093D902B093DA0220ED37E030935A
:102890008A032093890322E330E030938C03209352
:1028A0008B038093F2019093F301A093F401B09312
:1028B000F5018093F6019093F701A093F801B0938E
:1028C000F901E0921E02F0921F0200932002109381
:1028D00021021092D6020F2EF0E0EF2EF0E0FF2E34
:1028E000F0E80F2FFFE31F2FF02D20E030E040E055
:1028F00050E017C0E82FF0E0EE0FFF1FEE0FFF1FB4
:10290000DF01A05ABE4FED92FD920D931C931397D9
:10291000E552FD4F20833183428353838F5F809341
:10292000D6028091D602863028F320E030E040E8DD
:102930005FE320930602309307024093080250930E
:1029400009022093FA013093FB014093FC0150935C
:10295000FD012093FE013093FF014093000250934C
:10296000010280E090E0A0E0BFE380930202909338
:102970000302A0930402B093050220930A0230934D
:102980000B0240930C0250930D0220930E023093E1
:102990000F024093100250931102209312023093C1
:1029A000130240931402509315020E94620B0E947E
:1029B000720E0E94000EE2E5F2E080E090E020E07E
:1029C00030E040E050E006C02083318342835383EF
:1029D0000196749685309105BCF39093F402809330
:1029E000F30261C010929E0381E003C010929E0327
:1029F00082E080939D0357C010929E030E94FF0ABD
:102A00000E943C257093A3016093A20183E0F1CF63
:102A100010929E0310929D0388EE93E09093A30181
:102A20008093A20140C010929E0385E080939D0395
:102A3000109284031092830313C00E94FF0ACC0FEC
:102A4000DD1FCC55DE4F0E943C2579836883809141
:102A5000830390918403019690938403809383036E
:102A6000C0918303D0918403C430D10534F31BC0DB
:102A700088E58093AC010E94FF0A20E030E040E846
:102A80005FE30E94D024882321F481E08093A10396
:102A90000AC01092A10307C00E94620B0E94720E2E
:102AA00002C00E94000E8DE061E00E947D20DF9157
:102AB000CF911F910F91FF90EF900895CF92DF92E9
:102AC000EF92FF920F931F93DF93CF9300D000D02C
:102AD000CDB7DEB77C0100E010E06E010894C11CA8
:102AE000D11CB8016E0D7F1D86EC91E00E9486021C
:102AF000F601E00FF11F80830F5F1F4F04301105B7
:102B000081F729813A814B815C81B901CA010F901B
:102B10000F900F900F90CF91DF911F910F91FF9029
:102B2000EF90DF90CF900895EF92FF920F931F9355
:102B300080E090E00E945E15609342027093430231
:102B4000809344029093450284E090E00E945E15D9
:102B50006093460270934702809348029093490223
:102B600088E090E00E945E1560934A0270934B02E9
:102B700080934C0290934D020F2EF0E0EF2EF0E088
:102B8000FF2EF0E00F2FF0E01F2FF02DE0924E020D
:102B9000F0924F020093500210935102E0925202C1
:102BA000F092530200935402109355028CE790E088
:102BB0000E945E15609356027093570280935802EC
:102BC0009093590280E890E00E945E1560935A024B
:102BD00070935B0280935C0290935D0284E890E0C6
:102BE0000E945E1560935E0270935F0280936002A4
:102BF00090936102E0926202F09263020093640299
:102C000010936502E0926602F092670200936802F8
:102C10001093690288E190E00E945E1560936A0259
:102C200070936B0280936C0290936D028CE190E044
:102C30000E945E1560936E0270936F028093700223
:102C40009093710280E290E00E945E1560937202A0
:102C5000709373028093740290937502E0927602EF
:102C6000F09277020093780210937902E0927A0250
:102C7000F0927B0200937C0210937D028CE090E046
:102C80000E945E1560937E0270937F0280938002A3
:102C90009093810280E190E00E945E156093820231
:102CA00070938302809384029093850284E190E084
:102CB0000E945E156093860270938702809388025B
:102CC00090938902E0928A02F0928B0200938C0228
:102CD00010938D02E0928E02F0928F020093900288
:102CE0001093910288E890E00E945E156093920232
:102CF0007093930280939402909395028CE890E0F5
:102D00000E945E15609396027093970280939802DA
:102D10009093990280E990E00E945E1560939A0278
:102D200070939B0280939C0290939D02E0929E027E
:102D3000F0929F020093A0021093A102E092A202DF
:102D4000F092A3020093A4021093A5028CEC90E0F1
:102D50000E945E156093A6027093A7028093A8025A
:102D60009093A90280ED90E00E945E156093AA0204
:102D70007093AB028093AC029093AD0284ED90E02F
:102D80000E945E156093AE027093AF028093B00212
:102D90009093B102E092B202F092B3020093B402B7
:102DA0001093B502E092B602F092B7020093B80217
:102DB0001093B90284E990E00E945E1560936C0163
:102DC00070936D0180936E0190936F0188E990E09C
:102DD0000E945E156093E7027093E8028093E90217
:102DE0009093EA028CE990E00E945E156093600186
:102DF00070936101809362019093630180EA90E097
:102E00000E945E156093DB027093DC028093DD020A
:102E10009093DE0284EA90E00E945E156093640164
:102E200070936501809366019093670188EA90E052
:102E30000E945E156093DF027093E0028093E102CE
:102E40009093E2028CEA90E00E945E156093680124
:102E50007093690180936A0190936B0180EB90E01D
:102E60000E945E156093E3027093E4028093E50292
:102E70009093E60284EB90E00E945E1560937001EF
:102E800070937101809372019093730188EB90E0CD
:102E90000E945E156093EB027093EC028093ED024A
:102EA0009093EE028CEB90E00E945E1560937401AB
:102EB00070937501809376019093770180EC90E098
:102EC0000E945E156093EF027093F0028093F1020E
:102ED0009093F20284E290E00E945E156093BA0241
:102EE0007093BB028093BC029093BD0288E290E095
:102EF0000E945E150E943C2570938A0360938903AB
:102F00008CE290E00E945E150E943C2570938C0339
:102F100060938B0380E390E00E945E156093D7027C
:102F20007093D8028093D9029093DA0284E390E000
:102F30000E945E156093F2017093F3018093F40197
:102F40009093F50188E390E00E945E156093F6018E
:102F50007093F7018093F8019093F9018CE590E06C
:102F60000E945E1560930602709307028093080228
:102F70009093090280E590E00E945E156093FA014B
:102F80007093FB018093FC019093FD0184E590E038
:102F90000E945E156093FE017093FF018093000212
:102FA0009093010288E590E00E945E156093020212
:102FB0007093030280930402909305028CE490E0E6
:102FC0000E945E1560930A0270930B0280930C02BC
:102FD00090930D0284EC90E00E945E1560930E02C7
:102FE00070930F02809310029093110280E490E09E
:102FF0000E945E150E943C257093FC026093FB02C8
:103000008CE390E00E945E150E943C257093FE02C6
:103010006093FD0284E490E00E945E150E943C25CE
:10302000709300036093FF0280E690E00E945E15BB
:103030000E943C2570930E0360930D0384E690E09C
:103040000E945E150E943C257093100360930F034D
:1030500088E690E00E945E150E943C257093120362
:103060006093110388E490E00E945E1560931E0255
:1030700070931F02809320029093210288EC90E0CD
:103080000E945E15609312027093130280931402E3
:10309000909315021F910F91FF90EF9008952F923A
:1030A0003F924F925F926F927F928F929F92AF92D8
:1030B000BF92CF92DF92EF92FF920F931F93DF9315
:1030C000CF9300D000D0CDB7DEB70E94BE1F609373
:1030D000A6037093A7038093A8039093A90320915C
:1030E000A2033091A3034091A4035091A5037B0157
:1030F0008C01E21AF30A040B150BE092AA03F0927A
:10310000AB030093AC031093AD036093A2037093E1
:10311000A3038093A4039093A5032091AE03309161
:10312000AF034091B0035091B1032C593F4F4F4F23
:103130005F4F261737074807590708F0C3C180912A
:10314000B101813009F0BEC11092D6023AC0B0E0A0
:10315000FD01EE0FFF1FEE0FFF1FE05AFE4FC08074
:10316000D180E280F380AA0FBB1FA05DBE4F8C917F
:103170000E94750BB090D6020B2D10E0000F111FAE
:10318000A0E0B0E0BC01CD010E946D259B01AC0127
:10319000C701B6010E944F26F801EE0FFF1FE5524E
:1031A000FD4F20813181428153810E940A240E9477
:1031B0003C2502541D4FD8016D937C93B394B0927B
:1031C000D602A091D602A63010F255244BC0052D90
:1031D00010E0F801EE0FFF1FEE0FFF1FE650FE4F4D
:1031E00080809180A280B380000F111FEAEC6E2EC8
:1031F000E2E07E2E600E711EF301608171818827EE
:1032000077FD8095982F0E946F256B017C0160E00F
:1032100070E080E89FE3A50194010E9409249B01CE
:10322000AC01C701B6010E944F266B017C0102541C
:103230001D4FD8016D917C91882777FD8095982F3F
:103240000E946F25A50194010E944F269B01AC01AD
:10325000C701B6010E940A240E943C25F301718334
:1032600060835394F5E0F51508F0B1CF2090D702B4
:103270003090D8024090D9025090DA02662435C0CE
:10328000E62DF0E0EE0FFF1FDF01AC5ABE4FED90D0
:10329000FC9068E4862E61E0962E8E0E9F1EE6530B
:1032A000FD4F608171816E197F09882777FD8095B8
:1032B000982F0E946F25A20191010E944F265B0169
:1032C0006C010027F7FC0095102FC801B7010E9480
:1032D0006F259B01AC01C601B5010E940A240E9422
:1032E0003C25D4016D937C936394B2E0B61540F60F
:1032F00023E00EC0E22FF0E0EE0FFF1FDF01A65328
:10330000BD4F8D919C91E85BFE4F918380832F5F31
:10331000263080F32093D6028091C4029091C5029A
:103320008C5494400CF0A3C002E512E0F80180E058
:1033300090E020E030E040E050E006C020833183A0
:10334000428353830196749685309105BCF3909324
:10335000F4028093F3028091C2029091C3028C54D4
:10336000944054F480919E03813031F410929E0376
:1033700088EE93E00E94F9048091C2029091C3020A
:103380008C5494406CF58091BE029091BF028D5692
:10339000974034F18091C0029091C1028C549440C6
:1033A000FCF40E94620B0E94720E0E94000EE2E585
:1033B000F2E080E090E020E030E040E050E006C045
:1033C000208331834283538301967496853091051F
:1033D000BCF39093F4028093F30283E00E94E00A2E
:1033E0008091C2029091C3028D569740B4F18091B2
:1033F0009E03882391F580919F03813071F580931E
:103400009E0380E090E020E030E040E050E008C023
:10341000F801208331834283538301960C5E1F4F52
:1034200085309105ACF39093F4028093F3028CE421
:1034300094E090937901809378018091C0029091FB
:10344000C10290935D0180935C018091BE029091D6
:10345000BF0290935B0180935A018091C2029091C8
:10346000C3028D5494401CF081E080939F038091AF
:10347000C4029091C50205E08531900734F0885C64
:10348000904090937901809378018091C40290914B
:10349000C5028C54944034F48CE494E09093790108
:1034A000809378018091A6039091A703A091A8032F
:1034B000B091A9038093AE039093AF03A093B003A0
:1034C000B093B1038091B2039091B303A091B40380
:1034D000B091B5030296A11DB11D2091A6033091B4
:1034E000A7034091A8035091A90382179307A4074B
:1034F000B50708F08CC18091B301813009F087C114
:103500001092F4021092F30237C0EE0FFF1FE6583C
:10351000FE4F80810E944120E091F302F091F4027D
:10352000EE0FFF1FAF014D5E5C4FDF01A35FBC4F8D
:103530002D913C91821B930BDA018D939C93E05863
:10354000FE4F80810E9441204091F3025091F4028D
:10355000FA01EE0FFF1FDF01A550BD4F2D913C91E9
:10356000821B930BEF5FFC4F918380834F5F5F4F14
:103570005093F4024093F302E091F302F091F402CD
:10358000E330F10514F28091130390911403EE27B8
:10359000FF27E81BF90BFA83E983F0931403E09308
:1035A00013038091150390911603909581959F4F79
:1035B000909316038093150303E1602E03E0702EB1
:1035C00017E0212E13E0312EB1E08B2EB3E09B2EBD
:1035D000A5EF4A2EA2E05A2E1C821B8280C0A0902A
:1035E000F201B090F301C090F401D090F501D10147
:1035F0006D917C91882777FD8095982F0E946F258B
:103600007B018C0160E070E080E89FE3A6019501FA
:103610000E9409249B01AC01C801B7010E944F26FA
:103620007B018C01F301619171913F01882777FD46
:103630008095982F0E946F25A60195010E944F2624
:103640009B01AC01C801B7010E940A240E943C25DD
:10365000D1016D937D931D01A090F601B090F7010B
:10366000C090F801D090F901F20160817181882742
:1036700077FD8095982F0E946F257B018C0160E07B
:1036800070E080E89FE3A60195010E9409249B0158
:10369000AC01C801B7010E944F267B018C01D40107
:1036A0006D917D914D01882777FD8095982F0E941F
:1036B0006F25A60195010E944F269B01AC01C80110
:1036C000B7010E940A240E943C25F2016193719384
:1036D0002F010B811C810F5F1F4F1C830B832B81DC
:1036E0003C81233031050CF47ACF3093F4022093DF
:1036F000F3026091010370910203882777FD8095A2
:10370000982F0E946F257B018C01609105037091B9
:103710000603882777FD8095982F0E946F259B01CF
:10372000AC01C801B7010E947D248B019C0160910E
:103730001602709117028091180290911902A090C0
:10374000AD01B090AE01C090AF01D090B001498101
:103750005A81F2E2EF2EF2E0FF2E0E94DA0360932C
:1037600016027093170280931802909319026091C9
:10377000030370910403882777FD8095982F0E949A
:103780006F257B018C0160910503709106038827EA
:1037900077FD8095982F0E946F259B01AC01C80191
:1037A000B7010E947D248B019C0160911A027091E7
:1037B0001B0280911C0290911D02409115035091B3
:1037C0001603A090AD01B090AE01C090AF01D090B3
:1037D000B001E2E3EE2EE2E0FE2E0E94DA036093F7
:1037E0001A0270931B0280931C0290931D02809119
:1037F000A6039091A703A091A803B091A903809379
:10380000B2039093B303A093B403B093B503809134
:10381000B9019091BA01A091BB01B091BC0102968F
:10382000A11DB11D2091A6033091A7034091A803CB
:103830005091A90382179307A407B50708F018C28F
:103840008091B401813009F013C2609185037091B9
:1038500086032091480130914901620F731F882728
:1038600077FD8095982F0E946F257B018C016091D8
:10387000070370910803882777FD8095982F0E9491
:103880006F252091960130919701409198015091B8
:1038900099010E944F2620919A0130919B014091FD
:1038A0009C0150919D010E940A249B01AC01C8011A
:1038B000B70102E412E00E9420050E943C257093AB
:1038C0007E0360937D0360914A0170914B012091CA
:1038D000870330918803621B730B882777FD8095DF
:1038E000982F0E946F257B018C01609109037091D4
:1038F0000A03882777FD8095982F0E946F252091D5
:1039000096013091970140919801509199010E9440
:103910004F2620919A0130919B0140919C0150913A
:103920009D010E940A249B01AC01C801B70106E574
:1039300012E00E9420050E943C2570938003609352
:103940007F0360914C0170914D01882777FD809530
:10395000982F0E946F257B018C0160910B03709161
:103960000C03882777FD8095982F0E946F25209162
:1039700096013091970140919801509199010E94D0
:103980004F2620919A0130919B0140919C015091CA
:103990009D010E940A249B01AC01C801B7010AE6FF
:1039A00012E00E9420050E943C25FB0170938203D7
:1039B0006093810380919E03882309F47EC08091E7
:1039C0009F03882309F479C040914E0150914F0123
:1039D00080917F03909180039A01281B390B2E1B45
:1039E0003F0B8091780190917901281739073CF0BD
:1039F000C90137E0813D930714F080ED97E0909383
:103A00008F0180938E0120917F0330918003240FDA
:103A1000351F8091810390918203281B390B80917F
:103A2000780190917901281739073CF0C901A7E086
:103A3000213D3A0714F080ED97E090939101809337
:103A400090012091810330918203240F351F8091D2
:103A50007D0390917E03281B390B80917801909112
:103A60007901281739073CF0C901B7E0213D3B0730
:103A700014F080ED97E09093930180939201209150
:103A80007D0330917E03240F351F80918103909137
:103A90008203280F391F80917801909179012817AE
:103AA00039073CF0C901E7E0213D3E0714F080ED05
:103AB00097E0909395018093940180914E019091AD
:103AC0004F018C549440ECF41092840310928303C1
:103AD00011C0F901EE0FFF1FE257FE4F80917801F0
:103AE00090917901918380832F5F3F4F30938403BE
:103AF0002093830320918303309184032430310584
:103B000044F380919E03882309F0A0C080919D0317
:103B1000833009F1853009F44BC0813009F07CC055
:103B2000109284031092830320ED37E00CC0FC0157
:103B3000EE0FFF1FE257FE4F3183208301969093D3
:103B40008403809383038091830390918403843062
:103B500091056CF37BC0109284031092830320C004
:103B60008091A2019091A30103E0883E90071CF48C
:103B700088EE93E006C014E0813B910714F080EBDF
:103B800094E0EE0FFF1FE257FE4F918380838091F8
:103B9000830390918403019690938403809383031D
:103BA000E0918303F0918403E430F105CCF24EC040
:103BB000109284031092830324C0FD01EE0FFF1FB7
:103BC000EC55FE4F0190F081E02D23E0E83EF20736
:103BD0001CF4E8EEF3E006C034E0E13BF30714F038
:103BE000E0EBF4E0AA0FBB1FA257BE4FED93FC938E
:103BF0008091830390918403019690938403809332
:103C00008303A0918303B0918403A430B105ACF287
:103C100081E080939F031AC0109284031092830363
:103C200028EE33E00CC0FC01EE0FFF1FE257FE4F01
:103C30003183208301969093840380938303809142
:103C4000830390918403843091056CF30E94DE0B12
:103C50008091A6039091A703A091A803B091A90316
:103C60008093B9019093BA01A093BB01B093BC01BA
:103C70008091B5019091B601A091B701B091B801C2
:103C80008C599F4FAF4FBF4F2091A6033091A70390
:103C90004091A8035091A90382179307A407B50781
:103CA000C0F48091B2018130A1F40E94DE0E0E9426
:103CB0007A068091A6039091A703A091A803B091E2
:103CC000A9038093B5019093B601A093B701B09377
:103CD000B8018091B6039091B703A091B803B09159
:103CE000B9030A96A11DB11D2091A6033091A70327
:103CF0004091A8035091A90382179307A407B50721
:103D000008F057C08091A103813009F052C085E5C9
:103D100095E50E944C061092F4021092F30211C035
:103D2000EE0FFF1FED5EFC4F808191810E944C06DB
:103D30008091F3029091F40201969093F4028093A3
:103D4000F302E091F302F091F402E330F10544F361
:103D50001092F4021092F30211C0EE0FFF1FEF5FFA
:103D6000FC4F808191810E944C068091F3029091DA
:103D7000F40201969093F4028093F302E091F3022F
:103D8000F091F402E330F10544F38FEF9FE70E94D6
:103D90004C068091A6039091A703A091A803B0912F
:103DA000A9038093B6039093B703A093B803B0938D
:103DB000B9030F900F900F900F90CF91DF911F914B
:103DC0000F91FF90EF90DF90CF90BF90AF909F90BA
:103DD0008F907F906F905F904F903F902F900895BD
:103DE00086E095E040E052EC61E070E00E94E72060
:103DF00080E00E943E208DE061E00E945F208CE028
:103E000061E00E945F208CE060E00E947D2061E024
:103E100070E080E090E00E94CC1F1092B90080E238
:103E20008093B8001092C10380E090E00E94F904F2
:103E30000E9494158091B101813011F40E94C00B51
:103E40000E94620B0E94720E1092860310928503EC
:103E5000109288031092870360911E0270911F02D6
:103E600080912002909121020E94030D0E94BE1FAA
:103E70006093A2037093A3038093A4039093A5037C
:103E80008DE061E00E947D2010929F0308950E94C2
:103E900004200E94F01E0E944F18FDCF1F920F9227
:103EA0000FB60F9211242F938F939F93AF93BF93CD
:103EB0008091FA049091FB04A091FC04B091FD0460
:103EC0000196A11DB11D8093FA049093FB04A09369
:103ED000FC04B093FD048091FE049091FF04A09136
:103EE0000005B09101058050904CAF4FBF4F8093BB
:103EF000FE049093FF04A0930005B093010527C032
:103F00008091FE049091FF04A0910005B0910105FD
:103F100080589E43A040B0408093FE049093FF04DD
:103F2000A0930005B09301058091020590910305CF
:103F3000A0910405B09105050196A11DB11D8093C6
:103F4000020590930305A0930405B09305058091A5
:103F5000FE049091FF04A0910005B09101058158E5
:103F60009E43A040B04060F6BF91AF919F918F916A
:103F70002F910F900FBE0F901F9018958FB7F89448
:103F800020910205309103054091040550910505EB
:103F90008FBFB901CA010895EF92FF920F931F934B
:103FA0007B018C018FB7F894409102055091030575
:103FB00060910405709105058FBF2FB7F89480912B
:103FC000020590910305A0910405B09105052FBF4E
:103FD000841B950BA60BB70BE816F9060A071B07FF
:103FE00060F71F910F91FF90EF900895019759F09E
:103FF000FC01EE0FFF1FEE0FFF1F32978FB7F894F3
:104000003197F1F78FBF0895789484B5826084BDAD
:1040100084B5816084BD85B5826085BD85B58160CC
:1040200085BDEEE6F0E0808181608083E1E8F0E02C
:10403000808182608083808181608083E0E8F0E01D
:10404000808181608083E1EBF0E080818460808307
:10405000E0EBF0E0808181608083EAE7F0E080813E
:10406000846080838081826080838081816080839E
:104070008081806880831092C10008958093BF0181
:1040800008959091BF019295990F990F907C877038
:10409000892B80937C0080917A00806480937A00E1
:1040A00080917A0086FDFCCF2091780040917900C4
:1040B000942F80E030E0282B392BC9010895282F58
:1040C00030E0C901825C9E4FFC019491225E3E4F1C
:1040D000F9018491882381F0E82FF0E0E15FFE4F41
:1040E000E491F0E0662329F4808190958923808310
:1040F00008958081892B80830895482F50E0CA015C
:10410000825A9E4FFC012491CA01825C9E4FFC01A1
:104110009491425E5E4FFA0134913323C1F1222320
:1041200031F1213019F484B58F7704C0223021F4A5
:1041300084B58F7D84BD1BC0233021F48091800025
:104140008F7705C0243031F4809180008F7D80937B
:1041500080000DC0263021F48091B0008F7705C01B
:10416000273029F48091B0008F7D8093B000E32F39
:10417000F0E0EC5EFE4FE491F0E0662329F48081EC
:1041800090958923808308958081892B8083089569
:1041900084EC91E090930705809306051092080542
:1041A00090930A058093090581E080930B0508959B
:1041B000FC0182810E943C230895FC0182810E94BF
:1041C00062230895FC0182810E944C230895FC0122
:1041D00082810E94B4220895DC01ED91FC9101904E
:1041E000F081E02D099508950F931F93CF93DF93EE
:1041F0008C01EB0109C02196D801ED91FC91019051
:10420000F081E02DC801099568816623A1F7DF914F
:10421000CF911F910F9108950F931F938C01DC0193
:10422000ED91FC910190F081E02D6DE00995D801B0
:10423000ED91FC910190F081E02DC8016AE00995B3
:104240001F910F9108950F931F938C010E94F420EA
:10425000C8010E940C211F910F9108952F923F9247
:104260004F925F926F927F928F929F92AF92BF9286
:10427000CF92DF92EF92FF920F931F93DF93CF9332
:10428000CDB7DEB7A0970FB6F894DEBF0FBECDBF97
:104290001C016A017B01411551056105710549F455
:1042A000DC01ED91FC910190F081E02D60E3099536
:1042B00054C0882499245401422E5524662477241E
:1042C00001E010E00C0F1D1F080D191DC701B601FC
:1042D000A30192010E94C826F80160830894811C02
:1042E000911CA11CB11CC701B601A30192010E943F
:1042F000C826C901DA016C017D01C114D104E104B1
:10430000F104F1F681E0E82EF12CEC0EFD1EE80C34
:10431000F91C3E010894611C711CD501C401019770
:10432000A109B1096C01C818D90814C0F601EE0D35
:10433000FF1D60816A3010F4605D01C0695CD101CD
:10434000ED91FC910190F081E02DC1010995089457
:10435000E108F1086E147F0449F7A0960FB6F894AF
:10436000DEBF0FBECDBFCF91DF911F910F91FF90A8
:10437000EF90DF90CF90BF90AF909F908F907F9005
:104380006F905F904F903F902F9008952AE00E9489
:104390002E210895EF92FF920F931F93CF93DF93F7
:1043A000EC017A018B0177FF0FC0E881F981019060
:1043B000F081E02D6DE2099510950095F094E09460
:1043C000E11CF11C011D111DCE01B801A7012AE05D
:1043D0000E942E21DF91CF911F910F91FF90EF90BE
:1043E0000895AB01662757FD6095762F0E94CA217C
:1043F00008950F931F938C01AB01662757FD6095BD
:10440000762F0E94CA21C8010E940C211F910F9192
:104410000895DC012115310541F4ED91FC910190E5
:10442000F081E02D642F099508952A30310519F4A3
:104430000E94CA2108950E942E2108959F92AF9252
:10444000BF92CF92DF92EF92FF920F931F93CF9381
:10445000DF93EC017A018B01922ECB01BA0120E0AF
:1044600030E040E050E00E94D024882364F4E881EA
:10447000F9810190F081E02DCE016DE2099517FBE5
:10448000109517F9109520E030E040E05FE3AA2492
:104490000BC0CA01B90120E030E040E251E40E94C3
:1044A000D4249B01AC01A394A91498F3C801B701CB
:1044B0000E940A245B016C010E9441257B018C0152
:1044C000CE01B801A7010E94C621992029F0CE0192
:1044D0006EE271E00E94F420C801B7010E946D25D0
:1044E0009B01AC01C601B5010E94092420C020E057
:1044F00030E040E251E40E944F267B018C010E9493
:104500003C255B016C01CC24B7FCC094DC2CCE01B3
:10451000B601A5010E94CA21C601B5010E946F25FE
:104520009B01AC01C801B7010E9409249A9499200B
:10453000F1F6DF91CF911F910F91FF90EF90DF90F7
:10454000CF90BF90AF909F90089522E00E941E22CE
:1045500008950F931F938C010E94A522C8010E9409
:104560000C211F910F910895EF92FF920F931F93CB
:104570007A018B018823F1F5CB01BA0122E030E00A
:1045800040E050E00E94EA26205C3D4B404F5F4FE8
:10459000CA01B901A80197010E94EA26C901DA01FE
:1045A0000197A109B109292F3A2F4B2F552747FD14
:1045B0005A950196A11DB11D2093C500815080938D
:1045C000C4001092C0001092C1001092C2008091ED
:1045D000C10080618093C1008091C1008860809398
:1045E000C1008091C10080688093C10086E0809303
:1045F000C2003DC0CB01BA0122E030E040E050E013
:104600000E94EA26205C3D4B404F5F4FCA01B90132
:10461000A80197010E94EA26C901DA010197A109C0
:10462000B109292F3A2F4B2F552747FD5A9501964F
:10463000A11DB11D2093CD0081508093CC0010921C
:10464000C8001092C9001092CA008091C900806110
:104650008093C9008091C90088608093C9008091CF
:10466000C90080688093C90086E08093CA001F91CA
:104670000F91FF90EF900895882339F48091C00046
:1046800085FFFCCF6093C60008958091C80085FF28
:10469000FCCF6093CE000895E82FF0E0EE0FFF1FEF
:1046A000DF01A45FBA4F8D919C9180589F4FE05FCE
:1046B000FA4F20813181821B930B60E870E00E94E9
:1046C000B5260895CF93DF93A82FB0E0FD01EE0F3C
:1046D000FF1FEF01C05FDA4F48815981E45FFA4F55
:1046E000808191818417950719F42FEF3FEF13C054
:1046F000B695BA2FAA27B795A795A40FB51FAC5E9C
:10470000BA4F2C91CA01019660E870E00E94B5266C
:104710009983888330E0C901DF91CF9108951F927A
:104720000F920FB60F9211242F933F934F935F93E5
:104730006F937F938F939F93AF93BF93EF93FF9369
:104740004091C600E0910C05F0910D05CF01019656
:1047500060E870E00E94B5269C0180911005909160
:1047600011052817390739F0EC5EFA4F4083309372
:104770000D0520930C05FF91EF91BF91AF919F9193
:104780008F917F916F915F914F913F912F910F90FA
:104790000FBE0F901F9018951F920F920FB60F9299
:1047A00011242F933F934F935F936F937F938F9336
:1047B0009F93AF93BF93EF93FF934091CE00E0910F
:1047C0000E05F0910F05CF01019660E870E00E94A0
:1047D000B5269C0180911205909113052817390781
:1047E00039F0EC56FA4F408330930F0520930E05B5
:1047F000FF91EF91BF91AF919F918F917F916F91B9
:104800005F914F913F912F910F900FBE0F901F908E
:1048100018955058BB27AA270ED0FCC1EDD130F017
:10482000F2D120F031F49F3F11F41EF4BDC10EF41B
:10483000E095E7FBB3C1E92FFED180F3BA17620719
:1048400073078407950718F071F49EF516C20EF4ED
:10485000E0950B2EBA2FA02D0B01B90190010C0190
:10486000CA01A0011124FF27591B99F0593F50F4A8
:10487000503E68F11A16F040A22F232F342F442700
:10488000585FF3CF469537952795A795F0405395F8
:10489000C9F77EF41F16BA0B620B730B840BBAF0C8
:1048A0009150A1F0FF0FBB1F661F771F881FC2F733
:1048B0000EC0BA0F621F731F841F48F48795779547
:1048C0006795B795F7959E3F08F0B3CF9395880FFE
:1048D00008F09927EE0F9795879508958DD158F098
:1048E00080E891E009F49EEF8ED128F040E851E095
:1048F00059F45EEF09C058C1C0C1E92FE0789BD1DF
:1049000068F3092E052AC1F3261737074807590708
:1049100038F00E2E07F8E02569F0E025E0640AC0C3
:10492000EF6307F8009407FADB01B9019D01DC0190
:10493000CA01AD01EF9347D06DD10AD05F915523E5
:1049400031F02BED3FE049E450FD49EC63CF089591
:10495000DF93DD27B92FBF7740E85FE31616170610
:1049600048075B0710F4D92F93D19F938F937F93C0
:104970006F93F8D1E2EEF0E01AD14CD12F913F9134
:104980004F915F9198D1DD2349F09058A2EA2AED2A
:104990003FE049EC5FE3D0785D274DDFDF913AC11E
:1049A000D9D008F481E008950CD034C12CD140F066
:1049B00023D130F021F45F3F19F0F0C051115EC1F6
:1049C000F3C039D198F39923C9F35523B1F3951B5B
:1049D000550BBB27AA2762177307840738F09F5F20
:1049E0005F4F220F331F441FAA1FA9F333D00E2E8F
:1049F0003AF0E0E830D091505040E695001CCAF7FC
:104A000029D0FE2F27D0660F771F881FBB1F2617C0
:104A100037074807AB07B0E809F0BB0B802DBF0193
:104A2000FF2793585F4F2AF09E3F510568F0B6C0AC
:104A300025C15F3FECF3983EDCF38695779567954B
:104A4000B795F7959F5FC9F7880F911D9695879544
:104A500097F90895E1E0660F771F881FBB1F621763
:104A600073078407BA0720F0621B730B840BBA0B21
:104A7000EE1F88F7E095089504D06894B111FEC048
:104A80000895E1D088F09F5790F0B92F9927B7513A
:104A9000A0F0D1F0660F771F881F991F1AF0BA9502
:104AA000C9F712C0B13081F0E8D0B1E00895E5C097
:104AB000672F782F8827B85F39F0B93FCCF38695F8
:104AC00077956795B395D9F73EF490958095709555
:104AD00061957F4F8F4F9F4F0895E89409C097FBD2
:104AE0003EF490958095709561957F4F8F4F9F4FC5
:104AF0009923A9F0F92F96E9BB279395F695879509
:104B000077956795B795F111F8CFFAF4BB0F11F4CB
:104B100060FF1BC06F5F7F4F8F4F9F4F16C0882372
:104B200011F096E911C0772321F09EE8872F762FA8
:104B300005C0662371F096E8862F70E060E02AF0E9
:104B40009A95660F771F881FDAF7880F96958795D5
:104B500097F90895990F0008550FAA0BE0E8FEEFAA
:104B600016161706E807F907C0F012161306E40731
:104B7000F50798F0621B730B840B950B39F40A262A
:104B800061F0232B242B252B21F408950A2609F408
:104B9000A140A6958FEF811D811D089597F99F670C
:104BA00080E870E060E008959FEF80EC0895DF9367
:104BB000CF931F930F93FF92EF92DF927B018C01B3
:104BC000689405C0DA2EEF0176D0FE01E894A59135
:104BD0002591359145915591AEF3EF012CDEFE0103
:104BE0009701A801DA9479F7DF90EF90FF900F9189
:104BF0001F91CF91DF91089500240A94161617068D
:104C000018060906089500240A94121613061406BD
:104C100005060895092E0394000C11F4882352F020
:104C2000BB0F40F4BF2B11F460FF04C06F5F7F4FD8
:104C30008F4F9F4F089557FD9058440F551F59F0BF
:104C40005F3F71F04795880F97FB991F61F09F3F79
:104C500079F087950895121613061406551FF2CFA2
:104C60004695F1DF08C0161617061806991FF1CFF2
:104C700086957105610508940895E894BB27662719
:104C80007727CB0197F9089565DF08F48FEF089532
:104C90009B01AC0160E070E080E89FE385CE0BD023
:104CA000B9CFAADF28F0AFDF18F0952309F076CF4F
:104CB0007BCF1124E3CFBFDFA0F3959FD1F3950FF6
:104CC00050E0551F629FF001729FBB27F00DB11D90
:104CD000639FAA27F00DB11DAA1F649F6627B00D20
:104CE000A11D661F829F2227B00DA11D621F739F09
:104CF000B00DA11D621F839FA00D611D221F749F17
:104D00003327A00D611D231F849F600D211D822F5D
:104D1000762F6A2F11249F5750408AF0E1F08823A4
:104D20004AF0EE0FFF1FBB1F661F771F881F9150B1
:104D30005040A9F79E3F510570F030CF9FCF5F3FA5
:104D4000ECF3983EDCF3869577956795B795F795E4
:104D5000E7959F5FC1F7FE2B880F911D969587956C
:104D600097F908959B01AC019ACF97FB092E07266E
:104D70000AD077FD04D049D006D000201AF47095EF
:104D800061957F4F0895F6F7909581959F4F08950F
:104D9000A1E21A2EAA1BBB1BFD010DC0AA1FBB1F3F
:104DA000EE1FFF1FA217B307E407F50720F0A21BB1
:104DB000B30BE40BF50B661F771F881F991F1A941E
:104DC00069F760957095809590959B01AC01BD0148
:104DD000CF01089597FB092E05260ED057FD04D06C
:104DE000D7DF0AD0001C38F45095409530952195B6
:104DF0003F4F4F4F5F4F0895F6F790958095709510
:104E000061957F4F8F4F9F4F0895AA1BBB1B51E1A8
:104E100007C0AA1FBB1FA617B70710F0A61BB70B2A
:104E2000881F991F5A95A9F780959095BC01CD01CF
:104E30000895EE0FFF1F0590F491E02D0994911154
:104E400006C0803219F089508550D0F7089599270F
:104E5000882708952F923F924F925F926F927F9290
:104E60008F929F92AF92BF92CF92DF92EF92FF927A
:104E70000F931F93CF93DF93CDB7DEB7CA1BDB0B26
:104E80000FB6F894DEBF0FBECDBF09942A883988CB
:104E900048885F846E847D848C849B84AA84B984D2
:104EA000C884DF80EE80FD800C811B81AA81B981DE
:104EB000CE0FD11D0FB6F894DEBF0FBECDBFED01F2
:064EC0000895F894FFCFF5
:104EC600312E35003A004E4F545F53594E434845F4
:104ED6004400414351554952494E470052454144C9
:104EE6005900696E204661696C73616665002E0023
:104EF600040003000100020008000700040003008C
:104F06000100020008000700DC05DC05DC05E803FB
:104F1600E803E803DC05DC05DC05DC05DC05DC056F
:104F26000000803F0000803F0000803F0000803F7F
:104F36000000803F0000803FE803010002000000FF
:104F4600060007000500B6F3FD3D00000040E8033B
:104F5600E803E803E8036EA3893F0080BB44871695
:104F66003940E803E803E803E803E803586F12034F
:104F76003B01010101320000000100000064000154
:064F860000000000D8202D
:00000001FF
