:100000000C9478000C94A0000C94A0000C94A00018
:100010000C94A0000C94A0000C94A0000C94A000E0
:100020000C94A0000C94A0000C94A0000C94A000D0
:100030000C94BE000C94A0000C94A0000C94A200A0
:100040000C94A0000C94A0000C9494020C94A000BA
:100050000C9484050C94A0000C94A0000C94A000B7
:100060000C94A0000C94A0000C94A0000C94A00090
:100070000C94C1050C94A0000C94A000002124272E
:100080002A002225282B0020232629020202020210
:10009000020202040404040404040403030303032B
:1000A0000303030101010101010101010204081020
:1000B0002040800102040810204080010204081042
:1000C000204080804020100804020100000001024E
:1000D000000000000000000403070600000000000C
:1000E000000000000000000000000000B701D10384
:1000F00011241FBECFEFD0E1DEBFCDBF11E0A0E0E5
:10010000B1E0E4EDFCE002C005900D92A435B1072A
:10011000D9F712E0A4E5B1E001C01D92A939B107F9
:10012000E1F710E0C0EFD0E004C02297FE010E948A
:100130006406CC3ED107C9F70E948D020C94680674
:100140000C9400001F920F920FB60F9211248F9300
:100150009F938091560190915701029741F483E05B
:1001600090E0909357018093560110927D019F91EA
:100170008F910F900FBE0F901F9018951F920F92A6
:100180000FB60F9211242F933F938F939F93EF936A
:10019000FF93809181002091540190E080749070D1
:1001A00030E08217930709F093C0109285001092F7
:1001B000840080918600909187008057974108F4D1
:1001C00051C0809186009091870096958795909375
:1001D0006B0180936A0180915601909157010297BB
:1001E00041F490917D0180917C01981709F061C0E4
:1001F00066C08091560190915701892B49F481E0A6
:1002000090E0909357018093560110927E0157C061
:1002100080915601909157010197A9F480917E0138
:100220008F5F80937E0180917E01893008F447C002
:1002300082E090E0909357018093560180917D0178
:1002400080937C013CC080915601909157010397A7
:10025000B1F590917D0180917C01981781F582E044
:1002600090E029C080917D01883090F580918600D2
:10027000909187008C5D954028F180918600909147
:10028000870085599141F0F480917D018F5F8093C3
:100290007D01E0917D01F0E08091860090918700E2
:1002A00096958795EE0FFF1FE659FE4F9183808349
:1002B0000FC083E090E09093570180935601109215
:1002C0007D0106C08091560190915701029789F3F4
:1002D000FF91EF919F918F913F912F910F900FBEC2
:1002E0000F901F9018952091560130915701C90128
:1002F0000895862F8150883040F4E62FF0E0EE0F0D
:10030000FF1FE85AFE4F518340830895693020F55E
:100310008091560190915701039711F5E62FF0E077
:10032000EE0FFF1FE85AFE4F80819181892BC1F0AB
:100330006081718113C0809156019091570103979C
:1003400059F4F894E62FF0E0EE0FFF1FE659FE4F48
:1003500060817181789402C060E070E0CB01089503
:100360008091560190915701029729F7EACF08959D
:100370008EE060E00E94680310927D0110925701A8
:10038000109256011092800082E08093810081E2F9
:1003900080936F0021E030E04CED55E0F901EE0F65
:1003A000FF1FDF01A659BE4F11965C934E938D91AE
:1003B0009C91E85AFE4F918380832F5F3F4F2930F5
:1003C000310561F70895CF93DF9385E591E00E94B1
:1003D0007301029709F443C08BE891E060E071E09B
:1003E0000E94EB0385E591E00E947301FC01EE0F92
:1003F000FF1FEB5BFE4F608171818BE891E00E94F3
:100400001A04C0E0D0E08BE891E060E171E00E9466
:10041000EB038BE891E0BE010E94E4048BE891E0DD
:1004200063E171E00E94EB0385E591E06C2F0E948F
:100430008601BC018BE891E00E94E4048BE891E026
:1004400066E171E00E94EB032196C930D105D9F62F
:100450008BE891E069E171E00E941A0435C0C1E0C7
:10046000D0E08BE891E06AE171E00E94EB038BE859
:1004700091E0BE010E94E4048BE891E063E171E049
:100480000E94EB0385E591E06C2F0E948601BC0180
:100490008BE891E00E94E4048BE891E066E171E072
:1004A0000E94EB032196C930D105D9F68BE891E083
:1004B00069E171E00E941A048CE060E00E9486030A
:1004C0008DE060E00E94860364EF71E080E090E0E0
:1004D0000E940403DF91CF9108950F931F938BE83F
:1004E00091E040E056E960E070E00E94E6038CE0B5
:1004F00061E00E9468038DE061E00E94680305E509
:1005000011E0C8010E94B801C80163E042ED54E067
:100510000E9479011F910F9108950E942E030E945D
:100520006D020E94E301FDCF1F920F920FB60F9252
:1005300011242F938F939F93AF93BF9380917F014B
:1005400090918001A0918101B09182010196A11D3D
:10055000B11D80937F0190938001A0938101B0939E
:1005600082018091830190918401A0918501B091D5
:1005700086018050904CAF4FBF4F80938301909382
:100580008401A0938501B093860127C080918301E7
:1005900090918401A0918501B091860180589E437D
:1005A000A040B0408093830190938401A093850183
:1005B000B09386018091870190918801A091890173
:1005C000B0918A010196A11DB11D8093870190937E
:1005D0008801A0938901B0938A0180918301909151
:1005E0008401A0918501B091860181589E43A0406D
:1005F000B04060F6BF91AF919F918F912F910F9076
:100600000FBE0F901F901895EF92FF920F931F93BC
:100610007B018C018FB7F89440918701509188013C
:100620006091890170918A018FBF2FB7F8948091F2
:10063000870190918801A0918901B0918A012FBF13
:10064000841B950BA60BB70BE816F9060A071B07C8
:1006500060F71F910F91FF90EF900895789484B503
:10066000826084BD84B5816084BD85B5826085BDAE
:1006700085B5816085BDEEE6F0E080818160808394
:10068000E1E8F0E080818260808380818160808306
:10069000E0E8F0E0808181608083E1EBF0E0808140
:1006A00084608083E0EBF0E0808181608083EAE712
:1006B000F0E080818460808380818260808380819B
:1006C000816080838081806880831092C10008955A
:1006D000282F30E0C90185559F4FFC019491255783
:1006E0003F4FF9018491882381F0E82FF0E0E4582E
:1006F000FF4FE491F0E0662329F4808190958923EF
:10070000808308958081892B80830895482F50E04D
:10071000CA0185539F4FFC012491CA0185559F4F03
:10072000FC01949145575F4FFA0134913323C1F195
:10073000222331F1213019F484B58F7704C022309F
:1007400021F484B58F7D84BD1BC0233021F48091BA
:1007500080008F7705C0243031F4809180008F7D38
:10076000809380000DC0263021F48091B0008F77F7
:1007700005C0273029F48091B0008F7D8093B000B0
:10078000E32FF0E0EF57FF4FE491F0E0662329F408
:10079000808190958923808308958081892B80832F
:1007A000089581E591E090938C0180938B011092E4
:1007B0008D0190938F0180938E0181E08093900151
:1007C0000895FC0182810E9474050895FC018281D4
:1007D0000E94EC0408950F931F93CF93DF938C0135
:1007E000EB0109C02196D801ED91FC910190F081B7
:1007F000E02DC801099568816623A1F7DF91CF91AB
:100800001F910F9108950F931F938C01DC01ED91BF
:10081000FC910190F081E02D6DE00995D801ED91FA
:10082000FC910190F081E02DC8016AE009951F91CB
:100830000F9108950F931F938C010E94EB03C80141
:100840000E9403041F910F9108952F923F924F929F
:100850005F926F927F928F929F92AF92BF92CF9250
:10086000DF92EF92FF920F931F93DF93CF93CDB759
:10087000DEB7A0970FB6F894DEBF0FBECDBF1C0148
:100880006A017B01411551056105710549F4DC01DF
:10089000ED91FC910190F081E02D60E3099554C049
:1008A000882499245401422E55246624772401E09B
:1008B00010E00C0F1D1F080D191DC701B601A30183
:1008C00092010E941106F80160830894811C911C1A
:1008D000A11CB11CC701B601A30192010E9411061F
:1008E000C901DA016C017D01C114D104E104F104F4
:1008F000F1F681E0E82EF12CEC0EFD1EE80CF91C5F
:100900003E010894611C711CD501C4010197A10925
:10091000B1096C01C818D90814C0F601EE0DFF1D0D
:1009200060816A3010F4605D01C0695CD101ED91B5
:10093000FC910190F081E02DC10109950894E10836
:10094000F1086E147F0449F7A0960FB6F894DEBF45
:100950000FBECDBFCF91DF911F910F91FF90EF9010
:10096000DF90CF90BF90AF909F908F907F906F90CF
:100970005F904F903F902F900895EF92FF920F93CA
:100980001F93CF93DF93EC017A018B0177FF0FC0A8
:10099000E881F9810190F081E02D6DE209951095D3
:1009A0000095F094E094E11CF11C011D111DCE0195
:1009B000B801A7012AE00E942504DF91CF911F9181
:1009C0000F91FF90EF900895AB01662757FD60955A
:1009D000762F0E94BD040895EF92FF920F931F930C
:1009E0007A018B018823F1F5CB01BA0122E030E0D6
:1009F00040E050E00E943306205C3D4B404F5F4F8B
:100A0000CA01B901A80197010E943306C901DA01A0
:100A10000197A109B109292F3A2F4B2F552747FDDF
:100A20005A950196A11DB11D2093C5008150809358
:100A3000C4001092C0001092C1001092C2008091B8
:100A4000C10080618093C1008091C1008860809363
:100A5000C1008091C10080688093C10086E08093CE
:100A6000C2003DC0CB01BA0122E030E040E050E0DE
:100A70000E943306205C3D4B404F5F4FCA01B901D5
:100A8000A80197010E943306C901DA010197A10963
:100A9000B109292F3A2F4B2F552747FD5A9501961B
:100AA000A11DB11D2093CD0081508093CC001092E8
:100AB000C8001092C9001092CA008091C9008061DC
:100AC0008093C9008091C90088608093C90080919B
:100AD000C90080688093C90086E08093CA001F9196
:100AE0000F91FF90EF900895882339F48091C00012
:100AF00085FFFCCF6093C60008958091C80085FFF4
:100B0000FCCF6093CE0008951F920F920FB60F9204
:100B100011242F933F934F935F936F937F938F9302
:100B20009F93AF93BF93EF93FF934091C600E091E3
:100B30009101F0919201CF01019660E870E00E946E
:100B4000FE059C0180919501909196012817390727
:100B500039F0E756FE4F4083309392012093910184
:100B6000FF91EF91BF91AF919F918F917F916F9185
:100B70005F914F913F912F910F900FBE0F901F905B
:100B800018951F920F920FB60F9211242F933F9337
:100B90004F935F936F937F938F939F93AF93BF9385
:100BA000EF93FF934091CE00E0919301F091940177
:100BB000CF01019660E870E00E94FE059C018091E3
:100BC0009701909198012817390739F0E75EFD4F9A
:100BD00040833093940120939301FF91EF91BF9153
:100BE000AF919F918F917F916F915F914F913F91C5
:100BF0002F910F900FBE0F901F90189597FB092E05
:100C000007260AD077FD04D049D006D000201AF478
:100C1000709561957F4F0895F6F7909581959F4F58
:100C20000895A1E21A2EAA1BBB1BFD010DC0AA1F2D
:100C3000BB1FEE1FFF1FA217B307E407F50720F045
:100C4000A21BB30BE40BF50B661F771F881F991FC0
:100C50001A9469F760957095809590959B01AC0109
:100C6000BD01CF01089597FB092E05260ED057FD33
:100C700004D0D7DF0AD0001C38F450954095309549
:100C800021953F4F4F4F5F4F0895F6F79095809510
:100C9000709561957F4F8F4F9F4F0895AA1BBB1B87
:100CA00051E107C0AA1FBB1FA617B70710F0A61B6C
:100CB000B70B881F991F5A95A9F780959095BC018D
:100CC000CD010895EE0FFF1F0590F491E02D0994DA
:040CD000F894FFCFC6
:100CD400546865206465636F6465722069732000DD
:100CE4004378003D2000202000004368004E4F540C
:100CF4005F53594E43484544004143515549524975
:100D04004E4700524541445900696E204661696C62
:100D140073616665001D012901330139010000007A
:040D240000E10300E7
:00000001FF
