:100000000C94E0000C9408010C9408010C94080175
:100010000C9408010C9408010C9408010C9408013C
:100020000C9408010C9408010C9408010C9408012C
:100030000C94B5020C9408010C9408010C949902DC
:100040000C9408010C9408010C94D01E0C94080127
:100050000C9466230C9408010C9408010C9408017C
:100060000C9408010C9408010C9408010C940801EC
:100070000C94A3230C9408010C94080179147D14AA
:1000800083148F149A14DA14DA14DA14DA14DA14E2
:10009000DA14DA14DA14DA14DA14DA148F0EDA1441
:1000A000F60EDA145D0FDA14D00FDA14E10FDA1459
:1000B000F60FDA141510DA145210DA14DA14DA140E
:1000C000DA14DA14DA14DA14CB10DA140013DA14AE
:1000D000DA14DA14DA14DA14DA14DA14BF14D314D2
:1000E000D814084AD73B3BCE016E84BCBFFDC12F5C
:1000F0003D6C74319ABD56833DDA3D00C77F11BE19
:10010000D9E4BB4C3E916BAAAABE000000803F0020
:100110002124272A002225282B0020232629020219
:10012000020202020202040404040404040403039D
:1001300003030303030301010101010101010102A2
:1001400004081020408001020408102040800102B1
:1001500004081020408080402010080402010000A4
:100160000001020000000000000004030706000078
:100170000000000000000000000000000000494EE8
:1001800046494E4954594E414ECDCCCC3D0AD72319
:100190003C17B7D13877CC2B329595E6241FB14F59
:1001A0000A000020410000C84200401C4620BCBE9E
:1001B0004CCA1B0E5AAEC59D7400AE039E059F200F
:1001C00011241FBECFEFD0E1DEBFCDBF11E0A0E014
:1001D000B1E0E4E7FEE402C005900D92A23CB10755
:1001E000D9F716E0A2ECB1E001C01D92AA30B10728
:1001F000E1F711E0C0ECD1E004C02297FE010E94BB
:10020000F226CA3BD107C9F70E94C91E0C943827B1
:100210000C940000662777270C940E01A0E0B0E054
:10022000E4E1F1E00C940727EC015B016115710535
:1002300019F0FB0191838083F9908F2D90E00E944B
:10024000F626892BC9F7FDE2FF1621F4F990EE247A
:10025000E39405C02BE2F21609F4F990EE248E0126
:1002600001501040C8016EE771E043E050E00E9489
:100270006E02892B01F58E010E5F1F4FC80161E8E8
:1002800071E045E050E00E946E02892B19F48E0166
:10029000095F1F4FA114B10419F0F5011183008308
:1002A000E0FC04C070E090E080E814C070E090E0F2
:1002B00080E86FEF08C1C80166E871E043E050E0F4
:1002C0000E946E02892B69F4A114B10429F470E034
:1002D00090E080EC6FE7F7C02296F501D183C083F0
:1002E000F6CF8824992440E050E060E070E0EF2DE4
:1002F000E053EA30A0F5F2E0EF2A8E2D90E09C0169
:1003000028703070E2FE06C0232B79F50894811C1A
:10031000911C2BC0232B19F0089481089108DB0154
:10032000CA0112E0880F991FAA1FBB1F1A95D1F7A7
:10033000480F591F6A1F7B1F440F551F661F771FE9
:100340004E0F511D611D711D483929E9520729E9D8
:10035000620729E1720748F084E0E82A06C0EE3F10
:1003600031F4E3FC39C098E0E92AF990C0CFE533D5
:1003700011F0E53189F529912D3219F4E0E1EE2AE9
:1003800005C02B3219F081E090E003C0299182E092
:1003900090E0E22FE053EA3018F0C81BD90B1CC0E4
:1003A00020E030E0FCE020383F075CF4C901880F12
:1003B000991F880F991F280F391F220F331F2E0FE7
:1003C000311DE991E053EA3068F3E4FE03C0309553
:1003D00021953F4F820E931ECE2CDD24E1FE07C0F7
:1003E000A114B10421F02197F501D183C083CB0181
:1003F000BA010E9444257B018C01F3E0CF22DD2469
:1004000023E0C216D10421F417FB109517F91095BB
:1004100057016801C801B70120E030E040E050E03A
:100420000E94A724882309F44AC097FE0DC02DE935
:10043000E22E21E0F22E9094819491089394C0E2F0
:10044000D0E000E010E012C095EBE92E91E0F92E2B
:10045000F6CFF7012591359145915491C601B5012B
:100460000E9426265B016C018C1A9D0A8C169D0643
:1004700084F7D595C7950F5F1F4F0630110529F0FA
:100480008CEF9FEFE80EF91EF1CFC501D6017C017C
:100490008D018C2D880F8D2D881F8F3F51F0C60147
:1004A000B50120E030E040E050E00E94A72488231E
:1004B00031F482E290E090930906809308067E2D45
:1004C0009F2D802F612F272F392F482F562FB901AD
:1004D000CA01CDB7DEB7ECE00C942327FB01DC01A9
:1004E0004150504088F08D9181341CF08B350CF4D4
:1004F000805E659161341CF06B350CF4605E861B88
:10050000611171F3990B0895881BFCCFF999FECF07
:1005100072BD61BDF89A80B50895F999FECF1FBAF2
:1005200072BD61BD40BD0FB6F894FA9AF99A0FBE3C
:1005300008951F920F920FB60F9211248F939F93DD
:100540008091C5019091C601029741F483E090E04B
:100550009093C6018093C5011092EC019F918F91F9
:100560000F900FBE0F901F9018951F920F920FB60D
:100570000F9211242F933F938F939F93EF93FF93A9
:10058000809181002091C30190E08074907030E0F0
:100590008217930709F093C010928500109284008F
:1005A00080918600909187008057974108F451C050
:1005B0008091860090918700969587959093DA01B7
:1005C0008093D9018091C5019091C601029741F4B1
:1005D0009091EC018091EB01981709F061C066C021
:1005E0008091C5019091C601892B49F481E090E08A
:1005F0009093C6018093C5011092ED0157C0809180
:10060000C5019091C6010197A9F48091ED018F5F1A
:100610008093ED018091ED01893008F447C082E0BC
:1006200090E09093C6018093C5018091EC01809386
:10063000EB013CC08091C5019091C6010397B1F5D3
:100640009091EC018091EB01981781F582E090E0A8
:1006500029C08091EC01883090F5809186009091BE
:1006600087008C5D954028F18091860090918700ED
:1006700085599141F0F48091EC018F5F8093EC01FA
:10068000E091EC01F0E080918600909187009695D2
:100690008795EE0FFF1FE752FE4F918380830FC0B7
:1006A00083E090E09093C6018093C5011092EC0125
:1006B00006C08091C5019091C601029789F3FF9110
:1006C000EF919F918F913F912F910F900FBE0F90BF
:1006D0001F9018952091C5013091C601C901089558
:1006E000862F8150883040F4E62FF0E0EE0FFF1F98
:1006F000E953FE4F518340830895693020F580917E
:10070000C5019091C601039711F5E62FF0E0EE0FB9
:10071000FF1FE953FE4F80819181892BC1F06081D9
:10072000718113C08091C5019091C601039759F45E
:10073000F894E62FF0E0EE0FFF1FE752FE4F6081C6
:100740007181789402C060E070E0CB0108958091DF
:10075000C5019091C601029729F7EACF08958EE06E
:1007600060E00E9436201092EC011092C6011092B7
:10077000C5011092800082E08093810081E2809325
:100780006F0021E030E04CED55E0F901EE0FFF1F66
:10079000DF01A752BE4F11965C934E938D919C91B1
:1007A000E953FE4F918380832F5F3F4F29303105FE
:1007B00061F708954F925F926F927F928F929F920E
:1007C000AF92BF92CF92DF92EF92FF920F931F935F
:1007D000DF93CF93CDB7DEB728970FB6F894DEBF7F
:1007E0000FBECDBF69837A838B839C83CA01380196
:1007F0004901270160E074E00E948C26882777FD7C
:100800008095982F0E94462520919C0130919D0152
:1008100040919E0150919F010E9426262FE632E1D1
:1008200043E05BE30E94AB246D837E838F839887D4
:10083000C401B30121EE3EE245E652E40E942626C1
:1008400029813A814B815C810E94E0233B014C016C
:10085000E0901A02F0901B0200911C0210911D0200
:10086000A80197010E942626A80197010E9426262A
:100870009B01AC01F2016083718382839383C60183
:10088000B5010E942626F2012085318542855385D7
:100890000E94E1237B018C01F201608771878287CE
:1008A0009387C401B301A40193010E94E123209125
:1008B0001A0230911B0240911C0250911D020E94AD
:1008C00026269B01AC01C801B7010E94E1232D81BE
:1008D0003E814F8158850E94E1239B01AC01F201CA
:1008E0006483758386839783C601B5010E9426269B
:1008F00029813A814B815C810E94E12328960FB6C1
:10090000F894DEBF0FBECDBFCF91DF911F910F9145
:10091000FF90EF90DF90CF90BF90AF909F908F901F
:100920007F906F905F904F9008952F923F924F92DB
:100930005F926F927F928F929F92AF92BF92CF926F
:10094000DF92EF92FF920F931F93DF93CF9300D02C
:1009500000D000D0CDB7DEB719012A011E830D8368
:100960000E94E02369837A838B839C83F80120892A
:100970003189428953890E94E1237B018C01ED81F9
:10098000FE81608B718B828B938BA090B602B090AE
:10099000B702C090B802D090B9023501460197FA6B
:1009A000909497F89094A40193010E94A72488231F
:1009B0003CF4ED81FE81608A718A828A938A0EC03E
:1009C000C801B701A60195010E941B26181634F430
:1009D000ED81FE81A08AB18AC28AD38AC201B101A7
:1009E000ED81FE8124853585468557850E94E0236B
:1009F000ED81FE8120853185428553850E94262622
:100A00005B016C01ED81FE81248635864686578622
:100A100069817A818B819C812081318142815381DE
:100A20000E9426267B018C01ED81FE816481758107
:100A30008681978120893189428953890E9426269F
:100A40009B01AC01C801B7010E94E123A6019501F9
:100A50000E94E12326960FB6F894DEBF0FBECDBFED
:100A6000CF91DF911F910F91FF90EF90DF90CF908A
:100A7000BF90AF909F908F907F906F905F904F90BE
:100A80003F902F900895FF920F931F93CF93DF9382
:100A9000EC018B016150704028C0D901AA0FBB1F27
:100AA000AC0FBD1F4D915C911197F9013196EE0F7E
:100AB000FF1FEC0FFD1F20813181241735072CF417
:100AC000518340832D933C9390E08F5F282F30E03B
:100AD0002617370714F3913041F480E0A0E0B0E02E
:100AE00040E050E060E070E01CC091E080E0EECFBC
:100AF000EE0FFF1FEC0FFD1F20813181A217B307FE
:100B000024F4D90141E050E005C02A173B0711F455
:100B10004F5F5F4F641775071CF4922FF32EBA01D5
:100B20008F5FE82FF0E0E017F10714F3892F9F2D76
:100B3000DF91CF911F910F91FF90089560919C01DB
:100B400070919D0180919E0190919F0120E030E085
:100B500040E85AE30E9426262FE632E143E05BE3B9
:100B60000E94AB242BED3FE049EC5FE30E94262678
:100B70006093890370938A0380938B0390938C0313
:100B80000895CF92DF92EF92FF920F931F937C0113
:100B90006AEFC62E64E0D62E492F552747FD5A9599
:100BA00050E060E070E0C60120E030E00E94E0210B
:100BB000FF2400E010E0C601B801A70120E030E00A
:100BC0000E94E0211F910F91FF90EF90DF90CF9056
:100BD00008958AEF94E06CE20E94C3200895109279
:100BE0009C038091AA018E3409F488C18F34F4F4F7
:100BF000863409F4D5C087347CF4823499F1833487
:100C00003CF4813209F447C4863309F04DC419C459
:100C1000843409F049C475C08A3409F433C18C3472
:100C200009F447C1883409F03FC419C1833509F478
:100C3000A3C2843554F4813509F4E5C182350CF042
:100C400064C2803509F030C487C1853509F48AC390
:100C500085350CF41EC3863509F4A2C38A3509F024
:100C600023C4BCC340913E0250913F0260914002B8
:100C7000709141028AEF94E00E947C220E94E90573
:100C800040914202509143026091440270914502AA
:100C90008AEF94E00E947C220E94E905409146027E
:100CA0005091470260914802709149028AEF94E0A6
:100CB0000E947C220E94E905409152025091530209
:100CC00060915402709155028AEF94E00E947C2258
:100CD0000E94E905409156025091570260915802D6
:100CE000709159028AEF94E00E947C220E94E905EB
:100CF00040915A0250915B0260915C0270915D02DA
:100D00007AC14091660250916702609168027091C9
:100D100069028AEF94E00E947C220E94E9054091DA
:100D20006A0250916B0260916C0270916D028AEFC1
:100D300094E00E947C220E94E90540916E0250914D
:100D40006F0260917002709171028AEF94E00E94CC
:100D50007C220E94E9054091A2025091A302609179
:100D6000A4027091A5028AEF94E00E947C220E9466
:100D7000E9054091A6025091A7026091A8027091E6
:100D8000A9028AEF94E00E947C220E94E90540912A
:100D9000AA025091AB026091AC027091AD022BC1DE
:100DA00040917A0250917B0260917C0270917D02A9
:100DB0008AEF94E00E947C220E94E90560917E0205
:100DC00070917F02809180029091810220E030E05A
:100DD00048EC52E40E942626AB01BC018AEF94E065
:100DE0000E947C220E94E905409182025091830278
:100DF00060918402709185028AEF94E00E947C22C7
:100E00000E94E90540918E0250918F0260919002FC
:100E1000709191028AEF94E00E947C220E94E90581
:100E20006091920270919302809194029091950248
:100E300020E030E048EC52E40E942626AB01BC01E1
:100E40008AEF94E00E947C220E94E905409196027C
:100E5000509197026091980270919902CCC0609174
:100E60008503709186038AEF94E00E94C8210E9456
:100E7000E90560918703709188038AEF94E00E94EE
:100E8000D021BDC04091B6025091B7026091B80226
:100E90007091B9028AEF94E00E947C220E94E905D9
:100EA0004091D3025091D4026091D5027091D60244
:100EB000A2C04091EE015091EF016091F00170915C
:100EC000F1018AEF94E00E947C220E94E9054091A2
:100ED000F2015091F3016091F4017091F5018AEFF4
:100EE00094E00E947C220E94E90540911A025091F0
:100EF0001B0260911C0270911D027DC01092F002D5
:100F00001092EF0219C0EE0FFF1FEE0FFF1FEA5005
:100F1000FE4F40815181628173818AEF94E00E948B
:100F20007C220E94E9058091EF029091F0020196E7
:100F30009093F0028093EF02E091EF02F091F002C3
:100F4000E530F10504F340910A0250910B026091E3
:100F50000C0270910D024FC01092F0021092EF023D
:100F60002DC0EE0FFF1FEE0FFF1FE25AFE4F408114
:100F70005181628173818AEF94E00E947C220E94F9
:100F8000E905E091EF02F091F002EE0FFF1FEE0F86
:100F9000FF1FE952FD4F40815181628173818AEFC9
:100FA00094E00E947C220E94E9058091EF029091DA
:100FB000F00201969093F0028093EF02E091EF022D
:100FC000F091F002E530F10564F240917201509128
:100FD000730160917401709175018AEF94E00E9431
:100FE0007C220E94E9054091EB025091EC02609155
:100FF000ED027091EE028AEF94E00E94802288E573
:101000008093AA0108951092F0021092EF0215C089
:10101000EE0FFF1FE15FFC4F608171818AEF94E06A
:101020000E94C8210E94E9058091EF029091F00290
:1010300001969093F0028093EF02E091EF02F0911D
:10104000F002E330F10524F31092F0021092EF0267
:1010500015C0EE0FFF1FE350FD4F608171818AEFD5
:1010600094E00E94C8210E94E9058091EF029091CE
:10107000F00201969093F0028093EF02E091EF026C
:10108000F091F002E330F10524F31092F002109297
:10109000EF0215C0EE0FFF1FEF57FC4F608171810B
:1010A0008AEF94E00E94C8210E94E9058091EF0236
:1010B0009091F00201969093F0028093EF02E091FC
:1010C000EF02F091F002E230F10524F340911202B8
:1010D0005091130260911402709115028AEF94E00E
:1010E0000E947C220E94E90540911602509117024D
:1010F00060911802709119028AEF94E00E947C229C
:101100008AEF94E00E94E320089581E00E94C31FCB
:10111000BC018AEF94E00E94C8210E94E90582E0A8
:101120000E94C31FBC018AEF94E00E94C8210E9464
:10113000E90580E00E94C31FBC018AEF94E00E9491
:10114000C8210E94E90586E00E94C31FBC018AEF06
:1011500094E00E94C8210E94E90587E00E94C31F15
:10116000BC018AEF94E00E94C8210E94E90585E055
:101170000E94C31FBC018AC14091A6035091A703DE
:101180006091A8037091A9038AEF94E00E949D21C9
:101190000E94E9051092F0021092EF0215C0EE0FC6
:1011A000FF1FED5FFC4F608171818AEF94E00E9428
:1011B000C8210E94E9058091EF029091F00201960A
:1011C0009093F0028093EF02E091EF02F091F00231
:1011D000E330F10524F360914C0170914D018AEFE9
:1011E00094E00E94C8210E94E9051092F00210923A
:1011F000EF0215C0EE0FFF1FE758FC4F60817181B1
:101200008AEF94E00E94C8210E94E9058091EF02D4
:101210009091F00201969093F0028093EF02E0919A
:10122000EF02F091F002E330F10524F31092800315
:1012300010927F0315C0EE0FFF1FE457FE4F608131
:1012400071818AEF94E00E94C8210E94E905809193
:101250007F039091800301969093800380937F0396
:10126000E0917F03F0918003E430F10524F3409195
:101270009A0350E060E070E08AEF94E022E030E012
:101280000E94E0210E94E9058AEF94E068EE73E095
:10129000FFC04091D3025091D4026091D502709169
:1012A000D6028AEF94E00E947C220E94E905109207
:1012B000F0021092EF0215C0EE0FFF1FEA5BFE4F27
:1012C000608171818AEF94E00E94C8210E94E90543
:1012D0008091EF029091F00201969093F00280933A
:1012E000EF02E091EF02F091F002E330F10524F318
:1012F0001092F0021092EF0215C0EE0FFF1FEF5791
:10130000FC4F608171818AEF94E00E94C8210E94A5
:10131000E9058091EF029091F00201969093F0021E
:101320008093EF02E091EF02F091F002E230F105DC
:1013300024F36091790370917A038AEF94E00E941C
:10134000C8210E94E90560917B0370917C038AEFBC
:1013500094E00E94C8210E94E90560917D0370918C
:101360007E0394C01092D20212C0F0E0EE0FFF1F75
:10137000EA53FD4F608171818AEF94E00E94C82199
:101380000E94E9058091D2028F5F8093D202E091A2
:10139000D202E53050F36091D0027091D10276C054
:1013A0001092D20212C0F0E0EE0FFF1FE654FD4F84
:1013B000608171818AEF94E00E94C8210E94E90552
:1013C0008091D2028F5F8093D202E091D202E53009
:1013D00050F36091C4027091C50258C060914A01F7
:1013E00070914B018AEF94E00E94C8210E94E905A8
:1013F00040919103509192036091930370919403F3
:101400008AEF94E00E947C220E94E90540918D03BE
:1014100050918E0360918F03709190038AEF94E056
:101420000E947C220E94E905409195035091960309
:1014300060919703709198038AEF94E00E94802254
:1014400008951092800310927F0315C0EE0FFF1FC6
:10145000EE55FE4F608171818AEF94E00E94C821B1
:101460000E94E90580917F039091800301969093FB
:10147000800380937F03E0917F03F0918003E3304A
:10148000F10524F36091A8017091A9018AEF94E01D
:101490000E94D02108958AEF94E060E071E00E94FC
:1014A000FA2088E58093AA010895EF92FF920F93A6
:1014B0001F93DF93CF93CDB7DEB7C058D0400FB6A0
:1014C000F894DEBF0FBECDBF19821A821B821C8228
:1014D000FE0135968CE7DF011D928A95E9F700E061
:1014E00010E07E010894E11CF11C8AEF94E00E9458
:1014F000B920882341F46AE070E080E090E00E9427
:101500004E1F1F5F0AC08AEF94E00E94B420F701CB
:10151000E00FF11D80830F5F10E0802F90E00197B6
:10152000BFEF8F3F9B0719F4E0E0F0E006C0FC013D
:101530008138910514F0E0E8F0E0EE0DFF1D8081A8
:101540008B3321F0153010F407FFCFCFCE01019679
:101550000E940A01C058DF4F0FB6F894DEBF0FBEDD
:10156000CDBFCF91DF911F910F91FF90EF90089524
:101570008CE061E00E9454208EEE92E00E94781F81
:101580008CE060E00E94542068E070E080E090E031
:101590000E944E1F08951F93CF93DF93182F84EC62
:1015A00091E00E946A03029721F584EC91E0612F9B
:1015B0000E947D03EC01612F70E09C0140E050E04F
:1015C0008DE090E0689FF001699FF00D789FF00D2D
:1015D0001124EA54FC4F218732874387548781E0E6
:1015E00080838CE060E00E9454208DE060E00E94E7
:1015F0005420CE01DF91CF911F9108950F931F9337
:101600008CE061E00E9436208DE061E00E9436208F
:1016100004EC11E0C8010E94AF03C80163E042ED91
:1016200054E00E9470031F910F9108950E94FE0ADA
:1016300020E04DE050E013C0E22FF0E0EE0FFF1F7E
:10164000E65CFE4F80819181849FF001859FF00DC3
:10165000949FF00D1124EA54FC4FE0812F5F263057
:1016600058F32093D2020895EF92FF920F931F93A5
:10167000AA2797FDA095BA2FBC01CD010E9446254F
:101680007B018C012091840130918501409186017C
:10169000509187010E94262620918801309189016E
:1016A00040918A0150918B010E94E1230E941325F1
:1016B0009B01AC0183E0B9010E94E11FC801B701A1
:1016C00020918401309185014091860150918701DC
:1016D0000E942626209188013091890140918A013B
:1016E00050918B010E94E1230E9413259B01AC01C4
:1016F00089E0B9010E94E11FC801B701209184016E
:101700003091850140918601509187010E942626E3
:10171000209188013091890140918A0150918B017B
:101720000E94E1230E9413259B01AC018AE0B901CC
:101730000E94E11FC801B701209184013091850109
:1017400040918601509187010E94262620918801B0
:101750003091890140918A0150918B010E94E123CF
:101760000E9413259B01AC018BE0B9010E94E11F8F
:101770001F910F91FF90EF9008950F931F93082FE3
:1017800010E015C08CE494E00E94340B6AEF70E026
:1017900080E090E00E944E1F88EE93E00E94340BA0
:1017A0006AEF70E080E090E00E944E1F1F5F10170C
:1017B00048F31F910F91089560918C0170918D01F4
:1017C000882777FD8095982F0E94462520918401D7
:1017D0003091850140918601509187010E94262613
:1017E000209188013091890140918A0150918B01AB
:1017F0000E94E1230E9413259B01AC0183E0B90103
:101800000E94E11F60918E0170918F01882777FD02
:101810008095982F0E944625209184013091850162
:1018200040918601509187010E94262620918801CF
:101830003091890140918A0150918B010E94E123EE
:101840000E9413259B01AC0189E0B9010E94E11FB0
:101850006091900170919101882777FD8095982F74
:101860000E94462520918401309185014091860196
:10187000509187010E94262620918801309189018C
:1018800040918A0150918B010E94E1230E9413250F
:101890009B01AC018AE0B9010E94E11F60919201B5
:1018A00070919301882777FD8095982F0E94462597
:1018B00020918401309185014091860150918701EA
:1018C0000E942626209188013091890140918A0149
:1018D00050918B010E94E1230E9413259B01AC01D2
:1018E0008BE0B9010E94E11F089583E06CE770E08E
:1018F0000E94E11F89E06CE770E00E94E11F8AE02E
:101900006CE770E00E94E11F8BE06CE770E00E94E2
:10191000E11F0895EF92FF920F931F9380917E0134
:101920000E94C31F2091F7023091F802821B930B93
:10193000AA2797FDA095BA2FBC01CD010E9446258C
:101940007B018C01809182010E94C31F2091FB02C8
:101950003091FC02821B930BAA2797FDA095BA2F0A
:10196000BC01CD010E9446259B01AC01C801B70115
:101970000E94542421EE3EE245E652E40E942626CF
:1019800060931202709313028093140290931502D5
:10199000809180010E94C31F2091F9023091FA02C8
:1019A000821B930BAA2797FDA095BA2FBC01CD01EE
:1019B0000E9446257B018C01809182010E94C31FF9
:1019C0002091FB023091FC02821B930BAA2797FD0A
:1019D000A095BA2FBC01CD010E9446259B01AC0108
:1019E000C801B7010E94542421EE3EE245E652E4CC
:1019F0000E942626609316027093170280931802A5
:101A000090931902E0900903F0900A038091780105
:101A10000E94C31FE81AF90A0027F7FC0095102F4F
:101A2000C801B7010E94462526E933E446EE56E494
:101A30000E94AB2421EE3EE245E652E40E942626B7
:101A400060932602709327028093280290932902C4
:101A5000E0900B03F0900C0380917A010E94C31F69
:101A6000E81AF90A0027F7FC0095102FC801B70102
:101A70000E94462526E933E446EE56E40E94AB2454
:101A800021EE3EE245E652E40E94262660933602AD
:101A90007093370280933802909339021F910F910F
:101AA000FF90EF900895CF92DF92EF92FF920F9305
:101AB0001F93DF93CF9300D000D0CDB7DEB77A016C
:101AC00069837A838B839C8300E010E06E01089425
:101AD000C11CD11CB8016E0D7F1DF601E00FF11F76
:101AE00082EC91E040810E948D020F5F1F4F043015
:101AF000110581F70F900F900F900F90CF91DF910C
:101B00001F910F91FF90EF90DF90CF9008950F936A
:101B10001F93CF93DF931092F0021092EF022BC02D
:101B2000E091EF02F091F002EE0FFF1FE258FE4F3E
:101B300080810E94C31F8993999383E0C937D80796
:101B400079F70091EF021091F00285E193E062E3F2
:101B500070E00E944305000F111F09501D4FF8014E
:101B6000918380838091EF029091F002019690938F
:101B7000F0028093EF028091EF029091F0020297C1
:101B80001CF4C5E1D3E0CCCF8BE392E09093FC0250
:101B90008093FB026091F7027091F802882777FD2D
:101BA0008095982F0E94462540E450E00E94530DF6
:101BB0006091F9027091FA02882777FD8095982F3D
:101BC0000E9446254CE350E00E94530D6091FB02B9
:101BD0007091FC02882777FD8095982F0E944625FA
:101BE00044E450E00E94530DDF91CF911F910F917B
:101BF00008950F931F93CF93DF931092F0021092EA
:101C0000EF022BC0E091EF02F091F002EE0FFF1F08
:101C1000E858FE4F80810E94C31F8993999383E007
:101C2000C937D80779F70091EF021091F00285E1EA
:101C300093E062E370E00E944305000F111F075F0D
:101C40001C4FF801918380838091EF029091F00204
:101C500001969093F0028093EF028091EF029091B1
:101C6000F00203971CF4C5E1D3E0CCCF60910903E7
:101C700070910A03882777FD8095982F0E9446254A
:101C800040E650E00E94530D60910B0370910C03ED
:101C9000882777FD8095982F0E94462544E650E0DE
:101CA0000E94530D60910D0370910E03882777FDFC
:101CB0008095982F0E94462548E650E00E94530DDB
:101CC000DF91CF911F910F910895EF92FF920F93A3
:101CD0001F93CF93DF938AEF94E00E94B92088236B
:101CE00009F46CC68DE060E00E9454208AEF94E015
:101CF0000E94B4208093AA01992787FD9095A92F6F
:101D0000B92FFC01F197E333F10508F053C6E25C0B
:101D1000FF4FEE0FFF1F0590F491E02D09940E94F4
:101D2000550A60933E0270933F0280934002909365
:101D300041020E94550A60934202709343028093CD
:101D40004402909345020E94550A609346027093A4
:101D5000470280934802909349020F2EF0E0EF2E45
:101D6000F0E0FF2EF0E00F2FF0E01F2FF02DE092BB
:101D70004A02F0924B0200934C0210934D02E09203
:101D80004E02F0924F0200935002109351020E94B3
:101D9000550A6093520270935302809354029093B9
:101DA00055020E94550A6093560270935702809321
:101DB0005802909359020E94550A60935A027093F8
:101DC0005B0280935C0290935D02E0925E02F0926F
:101DD0005F020093600210936102E0926202F0924F
:101DE00063020093640210936502E4C50E94550AE1
:101DF0006093660270936702809368029093690211
:101E00000E94550A60936A0270936B0280936C0281
:101E100090936D020E94550A60936E0270936F0258
:101E200080937002909371020F2EF0E0EF2EF0E09D
:101E3000FF2EF0E00F2FF0E01F2FF02DE092720246
:101E4000F09273020093740210937502E09276028E
:101E5000F092770200937802109379020E94550A5B
:101E60006093A2027093A3028093A4029093A502B0
:101E70000E94550A6093A6027093A7028093A8025D
:101E80009093A9020E94550A6093AA027093AB0234
:101E90008093AC029093AD02E092AE02F092AF025A
:101EA0000093B0021093B102E092B202F092B3023A
:101EB0000093B4021093B5027DC50E94550A609349
:101EC0007A0270937B0280937C0290937D020E9441
:101ED000550A20E030E048EC52E40E94AB246093C5
:101EE0007E0270937F0280938002909381020E9411
:101EF000550A6093820270938302809384029093C8
:101F000085020F2EF0E0EF2EF0E0FF2EF0E00F2F15
:101F1000F0E01F2FF02DE0928602F09287020093EE
:101F2000880210938902E0928A02F0928B02009359
:101F30008C0210938D020E94550A60938E0270935A
:101F40008F0280939002909391020E94550A20E0A4
:101F500030E048EC52E40E94AB246093920270930C
:101F6000930280939402909395020E94550A609385
:101F70009602709397028093980290939902E09250
:101F80009A02F0929B0200939C0210939D02E092B1
:101F90009E02F0929F020093A0021093A1020AC534
:101FA0000E94550A0E94132570938603609385034F
:101FB0000E94550A0E94132570938803609387033B
:101FC000F9C40E94550A6093B6027093B7028093D9
:101FD000B8029093B9020E94550A6093D30270939D
:101FE000D4028093D5029093D602E4C40E94550A8D
:101FF0006093EE017093EF018093F0019093F101F3
:102000000E94550A6093F2017093F3018093F401EA
:102010009093F5010E94550A60931A0270931B0277
:1020200080931C0290931D02C5C40E94550A6093C0
:10203000F6017093F7018093F8019093F9010E94E3
:10204000550A6093FA017093FB018093FC01909311
:10205000FD010E94550A6093FE017093FF01809379
:102060000002909301020E94550A6093020270934D
:10207000030280930402909305020E94550A609324
:1020800006027093070280930802909309020E944F
:10209000550A60930A0270930B0280930C0290938E
:1020A0000D0288C40E94550A60935E0170935F011F
:1020B00080936001909361010E94550A6093D7025A
:1020C0007093D8028093D9029093DA020E94550A45
:1020D0006093620170936301809364019093650142
:1020E0000E94550A6093DB027093DC028093DD024C
:1020F0009093DE020E94550A609366017093670117
:1021000080936801909369010E94550A6093DF02F1
:102110007093E0028093E1029093E2020E94550ADC
:1021200060936A0170936B0180936C0190936D01D1
:102130000E94550A6093E3027093E4028093E502E3
:102140009093E6020E94550A60936E0170936F01AE
:1021500080937001909371010E94550A6093E70289
:102160007093E8028093E9029093EA020E94550A74
:102170006093720170937301809374019093750161
:102180000E94550A6093EB027093EC028093ED027B
:102190009093EE020FC460913E0270913F028091D5
:1021A00040029091410240E050E00E94530D609146
:1021B000420270914302809144029091450244E0B2
:1021C00050E00E94530D6091460270914702809149
:1021D00048029091490248E050E00E94530D6091FE
:1021E00052027091530280915402909155024CE733
:1021F00050E00E94530D60915602709157028091F9
:1022000058029091590240E850E00E94530D6091AD
:102210005A0270915B0280915C0290915D0244E8E9
:1022200050E00E94530D60917A0270917B02809180
:102230007C0290917D024CE050E00E94530D609131
:102240007E0270917F02809180029091810240E134
:1022500050E00E94530D6091820270918302809140
:1022600084029091850244E150E00E94530D6091F8
:102270008E0270918F02809190029091910248E8B5
:1022800050E00E94530D60919202709193028091F0
:102290009402909195024CE850E00E94530D609199
:1022A000960270919702809198029091990240E96C
:1022B00050E00E94530D6091660270916702809118
:1022C00068029091690248E150E00E94530D6091CC
:1022D0006A0270916B0280916C0290916D024CE1E8
:1022E00050E00E94530D60916E0270916F028091D8
:1022F00070029091710240E250E00E94530D609193
:10230000A2027091A3028091A4029091A5024CECCC
:1023100050E00E94530D6091A6027091A702809137
:10232000A8029091A90240ED50E00E94530D6091E7
:10233000AA027091AB028091AC029091AD0244ED83
:1023400050E00E94530D6091B6027091B7028091E7
:10235000B8029091B90244E250E00E94530D60919E
:10236000850370918603882777FD8095982F0E94BA
:10237000462548E250E00E94530D6091870370911A
:102380008803882777FD8095982F0E9446254CE288
:1023900050E00E94530D6091D3027091D40280915D
:1023A000D5029091D60240E350E00E94530D609117
:1023B000EE017091EF018091F0019091F10144E301
:1023C00050E00E94530D6091F2017091F3018091F1
:1023D000F4019091F50148E350E00E94530D6091A3
:1023E00002027091030280910402909105024CE573
:1023F00050E00E94530D6091F6017091F7018091B9
:10240000F8019091F90140E550E00E94530D609170
:10241000FA017091FB018091FC019091FD0144E56E
:1024200050E00E94530D6091FE017091FF01809178
:1024300000029091010248E550E00E94530D609126
:1024400006027091070280910802909109024CE403
:1024500050E00E94530D60910A0270910B0280912E
:102460000C0290910D0244EC50E00E94530D6091DB
:102470001A0270911B0280911C0290911D0248E487
:1024800050E00E94530D60916A0170916B01809140
:102490006C0190916D0144E950E00E94530D6091F0
:1024A000E3027091E4028091E5029091E60248E92E
:1024B00050E00E94530D60915E0170915F01809128
:1024C0006001909161014CE950E00E94530D6091D0
:1024D000D7027091D8028091D9029091DA0240EA35
:1024E00050E00E94530D60916201709163018091F0
:1024F00064019091650144EA50E00E94530D60919F
:10250000DB027091DC028091DD029091DE0248EAEC
:1025100050E00E94530D60916601709167018091B7
:102520006801909169014CEA50E00E94530D60915E
:10253000DF027091E0028091E1029091E20240EBB3
:1025400050E00E94530D60916E0170916F01809177
:1025500070019091710144EB50E00E94530D609125
:10256000E7027091E8028091E9029091EA0248EB5B
:1025700050E00E94530D609172017091730180913F
:102580007401909175014CEB50E00E94530D6091E5
:10259000EB027091EC028091ED029091EE0240EC22
:1025A00050E00E94530D60910E0270910F028091D5
:1025B00010029091110248EC50E00E94530DEEE49D
:1025C000F2E080E090E020E030E040E050E006C043
:1025D000208331834283538301967496853091051D
:1025E000BCF39093F0028093EF0260911A02709115
:1025F0001B0280911C0290911D020E948A0CDAC17C
:102600000F2EF0E0EF2EF0E0FF2EF0E70F2FF0E4BA
:102610001F2FF02DE0923E02F0923F020093400205
:102620001093410220E030E040E050E0209342026D
:1026300030934302409344025093450280E090E07F
:10264000A0E2B1EC8093460290934702A093480227
:10265000B0934902E0925202F09253020093540266
:10266000109355022093560230935702409358021C
:102670005093590280935A0290935B02A0935C029C
:10268000B0935D0280E090E0A0E4B1E48093660244
:1026900090936702A0936802B093690220936A0244
:1026A00030936B0240936C0250936D0220936E0244
:1026B00030936F02409370025093710280E090E07B
:1026C000A0E0B0E480937A0290937B02A0937C0216
:1026D000B0937D0220937E0230937F02409380026C
:1026E00050938102209382023093830240938402AC
:1026F0005093850280938E0290938F02A093900254
:10270000B0939102209392023093930240939402EB
:10271000509395022093960230939702409398022B
:10272000509399020F2EF0E0EF2EF0E0FF2EF0E430
:102730000F2FF0E41F2FF02DE092A202F092A302DF
:102740000093A4021093A5022093A6023093A7023F
:102750004093A8025093A9022093AA023093AB029F
:102760004093AC025093AD0280E090E0AAEFB4E455
:102770008093B6029093B702A093B802B093B902C7
:102780008DEC9CECACE4BEE38093D3029093D40236
:10279000A093D502B093D60220ED37E030938603A4
:1027A0002093850322E330E030938803209387034E
:1027B0008093EE019093EF01A093F001B093F101AB
:1027C0008093F2019093F301A093F401B093F5018B
:1027D000E0921A02F0921B0200931C0210931D0259
:1027E0001092D2020F2EF0E0EF2EF0E0FF2EF0E874
:1027F0000F2FFFE31F2FF02D20E030E040E050E0EE
:1028000017C0E82FF0E0EE0FFF1FEE0FFF1FDF01F4
:10281000A25ABE4FED92FD920D931C931397E9526D
:10282000FD4F20833183428353838F5F8093D20295
:102830008091D202863028F320E030E040E85FE368
:102840002093020230930302409304025093050246
:102850002093F6013093F7014093F8015093F9016A
:102860002093FA013093FB014093FC015093FD014A
:1028700080E090E0A0E0BFE38093FE019093FF0131
:10288000A0930002B0930102209306023093070246
:10289000409308025093090220930A0230930B02DE
:1028A00040930C0250930D0220930E0230930F02BE
:1028B00040931002509311020E94B80A0E94F90D31
:1028C0000E94870DEEE4F2E080E090E020E030E04E
:1028D00040E050E006C02083318342835383019659
:1028E000749685309105BCF39093F0028093EF02CB
:1028F00061C010929A0381E003C010929A0382E0B3
:102900008093990357C010929A030E94550A0E941F
:1029100013257093A1016093A00183E0F1CF109281
:102920009A031092990388EE93E09093A10180930B
:10293000A00140C010929A0385E080939903109201
:10294000800310927F0313C00E94550ACC0FDD1F35
:10295000CE55DE4F0E9413257983688380917F03D3
:102960009091800301969093800380937F03C091A0
:102970007F03D0918003C430D10534F31BC088E5B8
:102980008093AA010E94550A20E030E040E85FE30E
:102990000E94A724882321F481E080939D030AC02C
:1029A00010929D0307C00E94B80A0E94F90D02C050
:1029B0000E94870D8DE061E00E945420DF91CF914D
:1029C0001F910F91FF90EF900895CF92DF92EF92B9
:1029D000FF920F931F93DF93CF9300D000D0CDB71A
:1029E000DEB77C0100E010E06E010894C11CD11C30
:1029F000B8016E0D7F1D82EC91E00E948602F60107
:102A0000E00FF11F80830F5F1F4F0430110581F726
:102A100029813A814B815C81B901CA010F900F90E5
:102A20000F900F90CF91DF911F910F91FF90EF903A
:102A3000DF90CF900895EF92FF920F931F9380E065
:102A400090E00E94E51460933E0270933F028093F1
:102A500040029093410284E090E00E94E51460936C
:102A6000420270934302809344029093450288E0AF
:102A700090E00E94E51460934602709347028093B1
:102A80004802909349020F2EF0E0EF2EF0E0FF2E67
:102A9000F0E00F2FF0E01F2FF02DE0924A02F092AD
:102AA0004B0200934C0210934D02E0924E02F092C2
:102AB0004F0200935002109351028CE790E00E9465
:102AC000E5146093520270935302809354029093E2
:102AD000550280E890E00E94E514609356027093DE
:102AE0005702809358029093590284E890E00E9424
:102AF000E51460935A0270935B0280935C0290939A
:102B00005D02E0925E02F0925F0200936002109319
:102B10006102E0926202F0926302009364021093F9
:102B2000650288E190E00E94E5146093660270936C
:102B3000670280936802909369028CE190E00E94A2
:102B4000E51460936A0270936B0280936C02909319
:102B50006D0280E290E00E94E51460936E02709333
:102B60006F028093700290937102E0927202F09271
:102B700073020093740210937502E0927602F09251
:102B8000770200937802109379028CE090E00E9423
:102B9000E51460937A0270937B0280937C02909399
:102BA0007D0280E190E00E94E51460937E027093C4
:102BB0007F02809380029093810284E190E00E94E2
:102BC000E514609382027093830280938402909351
:102BD0008502E0928602F0928702009388021093A9
:102BE0008902E0928A02F0928B0200938C02109389
:102BF0008D0288E890E00E94E51460938E02709345
:102C00008F0280939002909391028CE890E00E9452
:102C1000E5146093920270939302809394029093D0
:102C2000950280E990E00E94E5146093960270930B
:102C300097028093980290939902E0929A02F09200
:102C40009B0200939C0210939D02E0929E02F092E0
:102C50009F020093A0021093A1028CEC90E00E94CE
:102C6000E5146093A2027093A3028093A402909350
:102C7000A50280ED90E00E94E5146093A602709397
:102C8000A7028093A8029093A90284ED90E00E948D
:102C9000E5146093AA027093AB028093AC02909308
:102CA000AD02E092AE02F092AF020093B002109338
:102CB000B102E092B202F092B3020093B402109318
:102CC000B50284E990E00E94E51460936A01709374
:102CD0006B0180936C0190936D0188E990E00E94F4
:102CE000E5146093E3027093E4028093E50290930D
:102CF000E6028CE990E00E94E51460935E01709317
:102D00005F01809360019093610180EA90E00E94EE
:102D1000E5146093D7027093D8028093D902909300
:102D2000DA0284EA90E00E94E514609362017093F5
:102D30006301809364019093650188EA90E00E94AA
:102D4000E5146093DB027093DC028093DD029093C4
:102D5000DE028CEA90E00E94E514609366017093B5
:102D60006701809368019093690180EB90E00E9475
:102D7000E5146093DF027093E0028093E102909388
:102D8000E20284EB90E00E94E51460936E01709380
:102D90006F01809370019093710188EB90E00E9425
:102DA000E5146093E7027093E8028093E902909340
:102DB000EA028CEB90E00E94E5146093720170933C
:102DC0007301809374019093750180EC90E00E94F0
:102DD000E5146093EB027093EC028093ED02909304
:102DE000EE0284E290E00E94E5146093B6027093D4
:102DF000B7028093B8029093B90288E290E00E94F3
:102E0000E5140E94132570938603609385038CE27A
:102E100090E00E94E5140E9413257093880360934C
:102E2000870380E390E00E94E5146093D3027093DF
:102E3000D4028093D5029093D60284E390E00E945E
:102E4000E5146093EE017093EF018093F00190938D
:102E5000F10188E390E00E94E5146093F201709321
:102E6000F3018093F4019093F5018CE590E00E94CA
:102E7000E51460930202709303028093040290931E
:102E8000050280E590E00E94E5146093F6017093DE
:102E9000F7018093F8019093F90184E590E00E9496
:102EA000E5146093FA017093FB018093FC01909309
:102EB000FD0188E590E00E94E5146093FE017093A7
:102EC000FF0180930002909301028CE490E00E9445
:102ED000E5146093060270930702809308029093B2
:102EE000090284EC90E00E94E51460930A0270935A
:102EF0000B0280930C0290930D0280E490E00E94FC
:102F0000E5140E9413257093F8026093F7028CE396
:102F100090E00E94E5140E9413257093FA026093DA
:102F2000F90284E490E00E94E5140E941325709356
:102F3000FC026093FB0280E690E00E94E5140E9490
:102F4000132570930A036093090384E690E00E94BE
:102F5000E5140E94132570930C0360930B0388E61D
:102F600090E00E94E5140E94132570930E03609375
:102F70000D0388E490E00E94E51460931A027093B8
:102F80001B0280931C0290931D0288EC90E00E942B
:102F9000E51460930E0270930F02809310029093D9
:102FA00011021F910F91FF90EF9008952F923F9281
:102FB0004F925F926F927F928F929F92AF92BF9249
:102FC000CF92DF92EF92FF920F931F93DF93CF93F5
:102FD00000D000D0CDB7DEB70E94401F6093A2039F
:102FE0007093A3038093A4039093A50320919E0361
:102FF00030919F034091A0035091A1037B018C016C
:10300000E21AF30A040B150BE092A603F092A70351
:103010000093A8031093A90360939E0370939F03EA
:103020008093A0039093A1032091AA033091AB0356
:103030004091AC035091AD032C593F4F4F4F5F4F20
:10304000261737074807590708F0C3C18091AF0119
:10305000813009F0BEC11092D2023AC0B0E0FD0149
:10306000EE0FFF1FEE0FFF1FE25AFE4FC080D18010
:10307000E280F380AA0FBB1FA25DBE4F8C910E941D
:10308000CB0AB090D2020B2D10E0000F111FA0E070
:10309000B0E0BC01CD010E9444259B01AC01C701F9
:1030A000B6010E942626F801EE0FFF1FE952FD4FE0
:1030B00020813181428153810E94E1230E941325A6
:1030C00006541D4FD8016D937C93B394B092D202F5
:1030D000A091D202A63010F255244BC0052D10E06D
:1030E000F801EE0FFF1FEE0FFF1FEA50FE4F80802A
:1030F0009180A280B380000F111FE6EC6E2EE2E0FB
:103100007E2E600E711EF30160817181882777FD2C
:103110008095982F0E9446256B017C0160E070E04D
:1031200080E89FE3A50194010E94E0239B01AC018C
:10313000C701B6010E9426266B017C0106541D4F73
:10314000D8016D917C91882777FD8095982F0E94FA
:103150004625A50194010E9426269B01AC01C701CA
:10316000B6010E94E1230E941325F301718360835D
:103170005394F5E0F51508F0B1CF2090D3023090CC
:10318000D4024090D5025090D602662435C0E62D78
:10319000F0E0EE0FFF1FDF01AE5ABE4FED90FC9046
:1031A00066E4862E61E0962E8E0E9F1EEA53FD4F3A
:1031B000608171816E197F09882777FD8095982F2E
:1031C0000E944625A20191010E9426265B016C0106
:1031D0000027F7FC0095102FC801B7010E94462573
:1031E0009B01AC01C601B5010E94E1230E94132599
:1031F000D4016D937C936394B2E0B61540F623E05E
:103200000EC0E22FF0E0EE0FFF1FDF01AA53BD4F0B
:103210008D919C91EA5BFE4F918380832F5F2630D6
:1032200080F32093D2028091C0029091C1028C540D
:1032300094400CF0A3C00EE412E0F80180E090E0AE
:1032400020E030E040E050E006C02083318342833C
:1032500053830196749685309105BCF39093F002E8
:103260008093EF028091BE029091BF028C549440F3
:1032700054F480919A03813031F410929A0388EECD
:1032800093E00E94340B8091BE029091BF028C5457
:1032900094406CF58091BA029091BB028D56974094
:1032A00034F18091BC029091BD028C549440FCF4A6
:1032B0000E94B80A0E94F90D0E94870DEEE4F2E028
:1032C00080E090E020E030E040E050E006C0208365
:1032D0003183428353830196749685309105BCF304
:1032E0009093F0028093EF0283E00E94BD0B8091E7
:1032F000BE029091BF028D569740B4F180919A031F
:10330000882391F580919B03813071F580939A0316
:1033100080E090E020E030E040E050E008C0F801BC
:10332000208331834283538301960C5E1F4F853087
:103330009105ACF39093F0028093EF028CE494E05B
:1033400090937701809376018091BC029091BD02A9
:1033500090935B0180935A018091BA029091BB02D5
:1033600090935901809358018091BE029091BF02C1
:103370008D5494401CF081E080939B038091C002A7
:103380009091C10205E08531900734F0885C90404F
:1033900090937701809376018091C0029091C10251
:1033A0008C54944034F48CE494E0909377018093AF
:1033B00076018091A2039091A303A091A403B09100
:1033C000A5038093AA039093AB03A093AC03B0939F
:1033D000AD038091AE039091AF03A091B003B09183
:1033E000B1030296A11DB11D2091A2033091A30348
:1033F0004091A4035091A50382179307A407B50732
:1034000008F08CC18091B101813009F087C1109220
:10341000F0021092EF0237C0EE0FFF1FE858FE4F88
:1034200080810E94C31FE091EF02F091F002EE0F45
:10343000FF1FAF01415F5C4FDF01A75FBC4F2D91C4
:103440003C91821B930BDA018D939C93E258FE4FC3
:1034500080810E94C31F4091EF025091F002FA0157
:10346000EE0FFF1FDF01A950BD4F2D913C91821B34
:10347000930BE350FD4F918380834F5F5F4F5093D9
:10348000F0024093EF02E091EF02F091F002E3309E
:10349000F10514F280910F0390911003EE27FF279E
:1034A000E81BF90BFA83E983F0931003E0930F0311
:1034B0008091110390911203909581959F4F909365
:1034C0001203809311030FE0602E03E0702E13E0CF
:1034D000212E13E0312EBDEF8B2EB2E09B2EA1EFFB
:1034E0004A2EA2E05A2E1C821B8280C0A090EE01C0
:1034F000B090EF01C090F001D090F101D1016D9139
:103500007C91882777FD8095982F0E9446257B0126
:103510008C0160E070E080E89FE3A60195010E94C5
:10352000E0239B01AC01C801B7010E9426267B0164
:103530008C01F301619171913F01882777FD80959E
:10354000982F0E944625A60195010E9426269B01E0
:10355000AC01C801B7010E94E1230E941325D101EB
:103560006D937D931D01A090F201B090F301C09086
:10357000F401D090F501F20160817181882777FD17
:103580008095982F0E9446257B018C0160E070E0B9
:1035900080E89FE3A60195010E94E0239B01AC0116
:1035A000C801B7010E9426267B018C01D4016D91D0
:1035B0007D914D01882777FD8095982F0E944625A3
:1035C000A60195010E9426269B01AC01C801B70106
:1035D0000E94E1230E941325F201619371932F0150
:1035E0000B811C810F5F1F4F1C830B832B813C8140
:1035F000233031050CF47ACF3093F0022093EF02A0
:103600006091FD027091FE02882777FD8095982FCA
:103610000E9446257B018C01609101037091020399
:10362000882777FD8095982F0E9446259B01AC0145
:10363000C801B7010E9454248B019C0160911202C1
:10364000709113028091140290911502A090AB0129
:10365000B090AC01C090AD01D090AE0149815A81CB
:10366000FEE1EF2EF2E0FF2E0E94DA0360931202D9
:103670007093130280931402909315026091FF02DD
:1036800070910003882777FD8095982F0E9446252A
:103690007B018C016091010370910203882777FD03
:1036A0008095982F0E9446259B01AC01C801B70167
:1036B0000E9454248B019C016091160270911702A4
:1036C00080911802909119024091110350911203B8
:1036D000A090AB01B090AC01C090AD01D090AE0114
:1036E000EEE2EE2EE2E0FE2E0E94DA036093160276
:1036F0007093170280931802909319028091A2038D
:103700009091A303A091A403B091A5038093AE036D
:103710009093AF03A093B003B093B1038091B7012E
:103720009091B801A091B901B091BA010296A11D82
:10373000B11D2091A2033091A3034091A4035091A5
:10374000A50382179307A407B50708F018C2809154
:10375000B201813009F013C260918103709182033C
:103760002091460130914701620F731F882777FD32
:103770008095982F0E9446257B018C016091030360
:1037800070910403882777FD8095982F0E94462525
:1037900020919401309195014091960150919701AB
:1037A0000E942626209198013091990140919A011A
:1037B00050919B010E94E1239B01AC01C801B7011C
:1037C0000EE312E00E9495040E94132570937A0381
:1037D00060937903609148017091490120918303BE
:1037E00030918403621B730B882777FD8095982F97
:1037F0000E9446257B018C016091050370910603B0
:10380000882777FD8095982F0E9446252091940166
:103810003091950140919601509197010E94262682
:10382000209198013091990140919A0150919B010A
:103830000E94E1239B01AC01C801B70102E512E03F
:103840000E9495040E94132570937C0360937B0370
:1038500060914A0170914B01882777FD8095982FE0
:103860000E9446257B018C0160910703709108033B
:10387000882777FD8095982F0E94462520919401F6
:103880003091950140919601509197010E94262612
:10389000209198013091990140919A0150919B019A
:1038A0000E94E1239B01AC01C801B70106E612E0CA
:1038B0000E9495040E941325FB0170937E03609380
:1038C0007D0380919A03882309F47EC080919B0335
:1038D000882309F479C040914C0150914D018091A9
:1038E0007B0390917C039A01281B390B2E1B3F0B05
:1038F0008091760190917701281739073CF0C90132
:1039000037E0813D930714F080ED97E090938D01AF
:1039100080938C0120917B0330917C03240F351F11
:1039200080917D0390917E03281B390B8091760155
:1039300090917701281739073CF0C901A7E0213D94
:103940003A0714F080ED97E090938F0180938E01F9
:1039500020917D0330917E03240F351F80917903E0
:1039600090917A03281B390B809176019091770111
:10397000281739073CF0C901B7E0213D3B0714F097
:1039800080ED97E0909391018093900120917903CD
:1039900030917A03240F351F80917D0390917E032F
:1039A000280F391F809176019091770128173907E8
:1039B0003CF0C901E7E0213D3E0714F080ED97E0BF
:1039C000909393018093920180914C0190914D01CD
:1039D0008C549440ECF41092800310927F0311C039
:1039E000F901EE0FFF1FE457FE4F80917601909191
:1039F0007701918380832F5F3F4F30938003209323
:103A00007F0320917F03309180032430310544F3FC
:103A100080919A03882309F0A0C080919903833094
:103A200009F1853009F44BC0813009F07CC0109257
:103A3000800310927F0320ED37E00CC0FC01EE0FF5
:103A4000FF1FE457FE4F318320830196909380033C
:103A500080937F0380917F03909180038430910550
:103A60006CF37BC01092800310927F0320C0809182
:103A7000A0019091A10103E0883E90071CF488EE1C
:103A800093E006C014E0813B910714F080EB94E0D2
:103A9000EE0FFF1FE457FE4F9183808380917F03D9
:103AA0009091800301969093800380937F03E0912F
:103AB0007F03F0918003E430F105CCF24EC0109208
:103AC000800310927F0324C0FD01EE0FFF1FEE550F
:103AD000FE4F0190F081E02D23E0E83EF2071CF458
:103AE000E8EEF3E006C034E0E13BF30714F0E0EB6E
:103AF000F4E0AA0FBB1FA457BE4FED93FC93809137
:103B00007F039091800301969093800380937F03BD
:103B1000A0917F03B0918003A430B105ACF281E0A5
:103B200080939B031AC01092800310927F0328EEAB
:103B300033E00CC0FC01EE0FFF1FE457FE4F318352
:103B4000208301969093800380937F0380917F036D
:103B500090918003843091056CF30E94DC0B80917E
:103B6000A2039091A303A091A403B091A503809315
:103B7000B7019093B801A093B901B093BA018091B5
:103B8000B3019091B401A091B501B091B6018C59E7
:103B90009F4FAF4FBF4F2091A2033091A30340919D
:103BA000A4035091A50382179307A407B507C0F497
:103BB0008091B0018130A1F40E94650E0E94EF0552
:103BC0008091A2039091A303A091A403B091A503B7
:103BD0008093B3019093B401A093B501B093B60163
:103BE0008091B2039091B303A091B403B091B50357
:103BF0000A96A11DB11D2091A2033091A30340910B
:103C0000A4035091A50382179307A407B50708F0F2
:103C100057C080919D03813009F052C085E595E53C
:103C20000E94C1051092F0021092EF0211C0EE0F37
:103C3000FF1FE15FFC4F808191810E94C10580914F
:103C4000EF029091F00201969093F0028093EF02C0
:103C5000E091EF02F091F002E330F10544F31092AD
:103C6000F0021092EF0211C0EE0FFF1FE350FD4F64
:103C7000808191810E94C1058091EF029091F002B4
:103C800001969093F0028093EF02E091EF02F091A1
:103C9000F002E330F10544F38FEF9FE70E94C10586
:103CA0008091A2039091A303A091A403B091A503D6
:103CB0008093B2039093B303A093B403B093B5037E
:103CC0000F900F900F900F90CF91DF911F910F9158
:103CD000FF90EF90DF90CF90BF90AF909F908F902C
:103CE0007F906F905F904F903F902F9008958AEF54
:103CF00094E040E052EC61E070E00E94BE2080E081
:103D00000E94C01F8DE061E00E9436208CE061E0DF
:103D10000E9436208CE060E00E94542061E070E058
:103D200080E090E00E944E1F0E94750C88EE93E0A8
:103D30000E94340B0E941B158091AF01813011F459
:103D40000E94160B0E94B80A0E94F90D109282037D
:103D500010928103109284031092830360911A02DF
:103D600070911B0280911C0290911D020E948A0C8E
:103D70000E94401F60939E0370939F038093A00353
:103D80009093A1038DE061E00E94542010929B0368
:103D900008950E94861F0E94771E0E94D617FDCFAD
:103DA0001F920F920FB60F9211242F938F939F9310
:103DB000AF93BF938091EE049091EF04A091F00433
:103DC000B091F1040196A11DB11D8093EE04909372
:103DD000EF04A093F004B093F1048091F204909169
:103DE000F304A091F404B091F5048050904CAF4FCF
:103DF000BF4F8093F2049093F304A093F404B09324
:103E0000F50427C08091F2049091F304A091F4048A
:103E1000B091F50480589E43A040B0408093F204D6
:103E20009093F304A093F404B093F5048091F60406
:103E30009091F704A091F804B091F9040196A11DA6
:103E4000B11D8093F6049093F704A093F804B09307
:103E5000F9048091F2049091F304A091F404B091DC
:103E6000F50481589E43A040B04060F6BF91AF91E9
:103E70009F918F912F910F900FBE0F901F901895CB
:103E80008FB7F8942091F6043091F7044091F8042C
:103E90005091F9048FBFB901CA010895EF92FF92C2
:103EA0000F931F937B018C018FB7F8944091F60418
:103EB0005091F7046091F8047091F9048FBF2FB707
:103EC000F8948091F6049091F704A091F804B091D1
:103ED000F9042FBF841B950BA60BB70BE816F90648
:103EE0000A071B0760F71F910F91FF90EF9008954D
:103EF000019759F0FC01EE0FFF1FEE0FFF1F3297E5
:103F00008FB7F8943197F1F78FBF0895789484B5FF
:103F1000826084BD84B5816084BD85B5826085BDC5
:103F200085B5816085BDEEE6F0E0808181608083AB
:103F3000E1E8F0E08081826080838081816080831D
:103F4000E0E8F0E0808181608083E1EBF0E0808157
:103F500084608083E0EBF0E0808181608083EAE729
:103F6000F0E08081846080838081826080838081B2
:103F7000816080838081806880831092C100089571
:103F80008093BB0108959091BB019295990F990F71
:103F9000907C8770892B80937C0080917A0080646C
:103FA00080937A0080917A0086FDFCCF2091780082
:103FB00040917900942F80E030E0282B392BC90103
:103FC00008951F93CF93DF93182FEB0161E00E94B8
:103FD0003620E12FF0E0E25AFE4F8491833051F415
:103FE00080918000806880938000D0938900C09386
:103FF000880038C0843051F48091800080628093C2
:104000008000D0938B00C0938A002CC0813029F4AB
:1040100084B5806884BDC7BD25C0823029F484B5CD
:10402000806284BDC8BD1EC0863041F48091B0005E
:1040300080688093B000C093B30014C0873041F40F
:104040008091B00080628093B000C093B4000AC039
:10405000C038D1051CF4812F60E002C0812F61E0DF
:104060000E945420DF91CF911F910895282F30E0B6
:10407000C901825C9E4FFC019491225E3E4FF90182
:104080008491882381F0E82FF0E0E15FFE4FE49116
:10409000F0E0662329F48081909589238083089538
:1040A0008081892B80830895482F50E0CA01825A6D
:1040B0009E4FFC012491CA01825C9E4FFC019491A9
:1040C000425E5E4FFA0134913323C1F1222331F174
:1040D000213019F484B58F7704C0223021F484B5DF
:1040E0008F7D84BD1BC0233021F4809180008F77A9
:1040F00005C0243031F4809180008F7D8093800052
:104100000DC0263021F48091B0008F7705C0273094
:1041100029F48091B0008F7D8093B000E32FF0E010
:10412000EC5EFE4FE491F0E0662329F480819095E7
:104130008923808308958081892B8083089580EC72
:1041400091E09093FB048093FA041092FC04909306
:10415000FE048093FD0481E08093FF040895FC0138
:1041600082810E9413230895FC0182810E943923D9
:104170000895FC0182810E9423230895FC0182811D
:104180000E948B220895DC01ED91FC910190F08159
:10419000E02D099508950F931F93CF93DF938C0122
:1041A000EB0109C02196D801ED91FC910190F081BD
:1041B000E02DC801099568816623A1F7DF91CF91B1
:1041C0001F910F9108950F931F938C01DC01ED91C6
:1041D000FC910190F081E02D6DE00995D801ED9101
:1041E000FC910190F081E02DC8016AE009951F91D2
:1041F0000F9108950F931F938C010E94CB20C8014B
:104200000E94E3201F910F9108952F923F924F92A9
:104210005F926F927F928F929F92AF92BF92CF9256
:10422000DF92EF92FF920F931F93DF93CF93CDB75F
:10423000DEB7A0970FB6F894DEBF0FBECDBF1C014E
:104240006A017B01411551056105710549F4DC01E5
:10425000ED91FC910190F081E02D60E3099554C04F
:10426000882499245401422E55246624772401E0A1
:1042700010E00C0F1D1F080D191DC701B601A30189
:1042800092010E949F26F80160830894811C911C72
:10429000A11CB11CC701B601A30192010E949F2677
:1042A000C901DA016C017D01C114D104E104F104FA
:1042B000F1F681E0E82EF12CEC0EFD1EE80CF91C65
:1042C0003E010894611C711CD501C4010197A1092C
:1042D000B1096C01C818D90814C0F601EE0DFF1D14
:1042E00060816A3010F4605D01C0695CD101ED91BC
:1042F000FC910190F081E02DC10109950894E1083D
:10430000F1086E147F0449F7A0960FB6F894DEBF4B
:104310000FBECDBFCF91DF911F910F91FF90EF9016
:10432000DF90CF90BF90AF909F908F907F906F90D5
:104330005F904F903F902F9008952AE00E940521B2
:104340000895EF92FF920F931F93CF93DF93EC01A9
:104350007A018B0177FF0FC0E881F9810190F0812C
:10436000E02D6DE2099510950095F094E094E11C24
:10437000F11C011D111DCE01B801A7012AE00E9408
:104380000521DF91CF911F910F91FF90EF9008953C
:10439000AB01662757FD6095762F0E94A1210895F5
:1043A0000F931F938C01AB01662757FD6095762F05
:1043B0000E94A121C8010E94E3201F910F9108953E
:1043C000DC012115310541F4ED91FC910190F08162
:1043D000E02D642F099508952A30310519F40E94C3
:1043E000A12108950E94052108959F92AF92BF9246
:1043F000CF92DF92EF92FF920F931F93CF93DF93B1
:10440000EC017A018B01922ECB01BA0120E030E061
:1044100040E050E00E94A724882364F4E881F981F9
:104420000190F081E02DCE016DE2099517FB10950A
:1044300017F9109520E030E040E05FE3AA240BC0BC
:10444000CA01B90120E030E040E251E40E94AB240F
:104450009B01AC01A394A91498F3C801B7010E9471
:10446000E1235B016C010E9418257B018C01CE01C8
:10447000B801A7010E949D21992029F0CE016CE28C
:1044800071E00E94CB20C801B7010E9444259B0126
:10449000AC01C601B5010E94E02320C020E030E05D
:1044A00040E251E40E9426267B018C010E941325E4
:1044B0005B016C01CC24B7FCC094DC2CCE01B601AE
:1044C000A5010E94A121C601B5010E9446259B01BC
:1044D000AC01C801B7010E94E0239A949920F1F63B
:1044E000DF91CF911F910F91FF90EF90DF90CF90D0
:1044F000BF90AF909F90089522E00E94F52108950B
:104500000F931F938C010E947C22C8010E94E3201C
:104510001F910F910895EF92FF920F931F937A01CD
:104520008B018823F1F5CB01BA0122E030E040E0B5
:1045300050E00E94C126205C3D4B404F5F4FCA01B6
:10454000B901A80197010E94C126C901DA010197AA
:10455000A109B109292F3A2F4B2F552747FD5A950D
:104560000196A11DB11D2093C50081508093C40008
:104570001092C0001092C1001092C2008091C10040
:1045800080618093C1008091C10088608093C100E8
:104590008091C10080688093C10086E08093C20052
:1045A0003DC0CB01BA0122E030E040E050E00E9483
:1045B000C126205C3D4B404F5F4FCA01B901A801A5
:1045C00097010E94C126C901DA010197A109B10929
:1045D000292F3A2F4B2F552747FD5A950196A11D9C
:1045E000B11D2093CD0081508093CC001092C80063
:1045F0001092C9001092CA008091C9008061809316
:10460000C9008091C90088608093C9008091C90069
:1046100080688093C90086E08093CA001F910F9143
:10462000FF90EF900895882339F48091C00085FFB2
:10463000FCCF6093C60008958091C80085FFFCCF31
:104640006093CE000895E82FF0E0EE0FFF1FDF012A
:10465000A050BB4F8D919C9180589F4FEC5FFA4FBB
:1046600020813181821B930B60E870E00E948C26D0
:104670000895CF93DF93A82FB0E0FD01EE0FFF1F49
:10468000EF01CC5FDA4F48815981E050FB4F8081C8
:1046900091818417950719F42FEF3FEF13C0B6955A
:1046A000BA2FAA27B795A795A40FB51FA85FBA4F31
:1046B0002C91CA01019660E870E00E948C269983D3
:1046C000888330E0C901DF91CF9108951F920F9246
:1046D0000FB60F9211242F933F934F935F936F93D5
:1046E0007F938F939F93AF93BF93EF93FF934091EB
:1046F000C600E0910005F0910105CF01019660E848
:1047000070E00E948C269C01809104059091050523
:104710002817390739F0E85FFA4F408330930105D5
:1047200020930005FF91EF91BF91AF919F918F91E1
:104730007F916F915F914F913F912F910F900FBE9D
:104740000F901F9018951F920F920FB60F92112481
:104750002F933F934F935F936F937F938F939F9389
:10476000AF93BF93EF93FF934091CE00E09102058A
:10477000F0910305CF01019660E870E00E948C265D
:104780009C0180910605909107052817390739F09B
:10479000E857FA4F40833093030520930205FF91B9
:1047A000EF91BF91AF919F918F917F916F915F91A9
:1047B0004F913F912F910F900FBE0F901F90189522
:1047C0005058BB27AA270ED0FCC1EDD130F0F2D152
:1047D00020F031F49F3F11F41EF4BDC10EF4E095BA
:1047E000E7FBB3C1E92FFED180F3BA176207730765
:1047F0008407950718F071F49EF516C20EF4E09543
:104800000B2EBA2FA02D0B01B90190010C01CA018A
:10481000A0011124FF27591B99F0593F50F4503E35
:1048200068F11A16F040A22F232F342F4427585F27
:10483000F3CF469537952795A795F0405395C9F73F
:104840007EF41F16BA0B620B730B840BBAF09150F7
:10485000A1F0FF0FBB1F661F771F881FC2F70EC096
:10486000BA0F621F731F841F48F487957795679569
:10487000B795F7959E3F08F0B3CF9395880F08F052
:104880009927EE0F9795879508958DD158F080E878
:1048900091E009F49EEF8ED128F040E851E059F400
:1048A0005EEF09C058C1C0C1E92FE0789BD168F321
:1048B000092E052AC1F3261737074807590738F08C
:1048C0000E2E07F8E02569F0E025E0640AC0EF63EA
:1048D00007F8009407FADB01B9019D01DC01CA0168
:1048E000AD01EF9347D06DD10AD05F91552331F0E0
:1048F0002BED3FE049E450FD49EC63CF0895DF9391
:10490000DD27B92FBF7740E85FE316161706480783
:104910005B0710F4D92F93D19F938F937F936F935D
:10492000F8D1E2EEF0E01AD14CD12F913F914F91A6
:104930005F9198D1DD2349F09058A2EA2AED3FE03B
:1049400049EC5FE3D0785D274DDFDF913AC1D9D0E4
:1049500008F481E008950CD034C12CD140F023D16B
:1049600030F021F45F3F19F0F0C051115EC1F3C087
:1049700039D198F39923C9F35523B1F3951B550BFE
:10498000BB27AA2762177307840738F09F5F5F4F22
:10499000220F331F441FAA1FA9F333D00E2E3AF063
:1049A000E0E830D091505040E695001CCAF729D07D
:1049B000FE2F27D0660F771F881FBB1F26173707CC
:1049C0004807AB07B0E809F0BB0B802DBF01FF27FC
:1049D00093585F4F2AF09E3F510568F0B6C025C13D
:1049E0005F3FECF3983EDCF3869577956795B79536
:1049F000F7959F5FC9F7880F911D9695879597F951
:104A00000895E1E0660F771F881FBB1F62177307C9
:104A10008407BA0720F0621B730B840BBA0BEE1FDE
:104A200088F7E095089504D06894B111FEC0089508
:104A3000E1D088F09F5790F0B92F9927B751A0F097
:104A4000D1F0660F771F881F991F1AF0BA95C9F722
:104A500012C0B13081F0E8D0B1E00895E5C0672F11
:104A6000782F8827B85F39F0B93FCCF386957795D2
:104A70006795B395D9F73EF49095809570956195BB
:104A80007F4F8F4F9F4F0895E89409C097FB3EF4E6
:104A900090958095709561957F4F8F4F9F4F99238B
:104AA000A9F0F92F96E9BB279395F6958795779509
:104AB0006795B795F111F8CFFAF4BB0F11F460FFC9
:104AC0001BC06F5F7F4F8F4F9F4F16C0882311F021
:104AD00096E911C0772321F09EE8872F762F05C035
:104AE000662371F096E8862F70E060E02AF09A95D0
:104AF000660F771F881FDAF7880F9695879597F9C5
:104B00000895990F0008550FAA0BE0E8FEEF16165E
:104B10001706E807F907C0F012161306E407F507B1
:104B200098F0621B730B840B950B39F40A2661F025
:104B3000232B242B252B21F408950A2609F4A140C8
:104B4000A6958FEF811D811D089597F99F6780E8D5
:104B500070E060E008959FEF80EC0895DF93CF93BD
:104B60001F930F93FF92EF92DF927B018C01689469
:104B700005C0DA2EEF0176D0FE01E894A5912591CB
:104B8000359145915591AEF3EF012CDEFE01970171
:104B9000A801DA9479F7DF90EF90FF900F911F91C1
:104BA000CF91DF91089500240A941616170618066F
:104BB0000906089500240A94121613061406050621
:104BC0000895092E0394000C11F4882352F0BB0FB2
:104BD00040F4BF2B11F460FF04C06F5F7F4F8F4F15
:104BE0009F4F089557FD9058440F551F59F05F3F50
:104BF00071F04795880F97FB991F61F09F3F79F0FF
:104C000087950895121613061406551FF2CF469580
:104C1000F1DF08C0161617061806991FF1CF869502
:104C20007105610508940895E894BB2766277727E6
:104C3000CB0197F9089565DF08F48FEF08959B0184
:104C4000AC0160E070E080E89FE385CE0BD0B9CF87
:104C5000AADF28F0AFDF18F0952309F076CF7BCFDD
:104C60001124E3CFBFDFA0F3959FD1F3950F50E060
:104C7000551F629FF001729FBB27F00DB11D639F0E
:104C8000AA27F00DB11DAA1F649F6627B00DA11DB4
:104C9000661F829F2227B00DA11D621F739FB00D5A
:104CA000A11D621F839FA00D611D221F749F3327CA
:104CB000A00D611D231F849F600D211D822F762F63
:104CC0006A2F11249F5750408AF0E1F088234AF060
:104CD000EE0FFF1FBB1F661F771F881F91505040AC
:104CE000A9F79E3F510570F030CF9FCF5F3FECF3A7
:104CF000983EDCF3869577956795B795F795E79598
:104D00009F5FC1F7FE2B880F911D9695879597F9A8
:104D100008959B01AC019ACF97FB092E07260AD074
:104D200077FD04D049D006D000201AF47095619523
:104D30007F4F0895F6F7909581959F4F0895A1E2D2
:104D40001A2EAA1BBB1BFD010DC0AA1FBB1FEE1F05
:104D5000FF1FA217B307E407F50720F0A21BB30B50
:104D6000E40BF50B661F771F881F991F1A9469F7CC
:104D700060957095809590959B01AC01BD01CF0128
:104D8000089597FB092E05260ED057FD04D0D7DFD6
:104D90000AD0001C38F450954095309521953F4F2E
:104DA0004F4F5F4F0895F6F79095809570956195F8
:104DB0007F4F8F4F9F4F0895AA1BBB1B51E107C028
:104DC000AA1FBB1FA617B70710F0A61BB70B881F9B
:104DD000991F5A95A9F780959095BC01CD0108952A
:104DE000EE0FFF1F0590F491E02D0994911106C07C
:104DF000803219F089508550D0F708959927882777
:104E000008952F923F924F925F926F927F928F926E
:104E10009F92AF92BF92CF92DF92EF92FF920F9349
:104E20001F93CF93DF93CDB7DEB7CA1BDB0B0FB653
:104E3000F894DEBF0FBECDBF09942A883988488810
:104E40005F846E847D848C849B84AA84B984C884A6
:104E5000DF80EE80FD800C811B81AA81B981CE0F9D
:104E6000D11D0FB6F894DEBF0FBECDBFED01089582
:044E7000F894FFCFE4
:104E7400312E35004E4F545F53594E43484544003C
:104E8400414351554952494E470052454144590006
:104E9400696E204661696C73616665002E000400CA
:104EA40003000100020008000700040003000100E1
:104EB400020008000700DC05DC05DC05E803E80364
:104EC400E803DC05DC05DC05DC05DC05DC050000AD
:104ED400803F0000803F0000803F0000803F0000D2
:104EE400803F0000803FE80301000200000006004C
:104EF40007000500B6F3FD3D00000040E803E803A9
:104F0400E803E8036EA3893F0080BB448716394059
:104F1400E803E803E803E803E803586F12033B01DE
:104F24000101013200000001000000010000000046
:024F3400AF20AC
:00000001FF
