:100000000C947A010C94A5010C94A5010C94A50103
:100010000C94A5010C94A5010C94A5010C94A501C8
:100020000C94A5010C94B80E0C94A5010C948F0EA1
:100030000C94A5010C94A5010C94A5010C94A501A8
:100040000C94A5010C9481040C94A5010C94A501B9
:100050000C94A5010C94A5010C94A5010C942C25DD
:100060000C94A5010C946C280C94A5010C94A5018A
:100070000C94A5010C94A5010C94A5010C94A50168
:100080000C9453040C94A5010C94A5010C94A501A7
:100090000C94AD280C94A5010C94A5010C94A50119
:1000A0000C94A5010C94A5010C9425040C94A501B5
:1000B0000C94A5010C94A5010C94A5010C94F703D4
:1000C0000C94A5010C94A5010C94A5010C94EE28A8
:1000D0000C94A5010C94A5010C942F290C94A50156
:1000E0000C94A50126182A1830183C1847188718B0
:1000F0008718871887188718871887188718871808
:10010000871887183C128718A31287180A138718B4
:100110007D1387188E138718A3138718C2138718A7
:10012000FF13871887188718871887188718871864
:1001300078148718AD1687188718871887188718B6
:10014000871887186C1880188518084AD73B3BCE4B
:10015000016E84BCBFFDC12F3D6C74319ABD5683C6
:100160003DDA3D00C77F11BED9E4BB4C3E916BAA7E
:10017000AABE000000803F05A84CCDB2D44EB938CD
:1001800036A9020C50B9918688083CA6AAAA2ABEB4
:10019000000000803F00002100240027002A002DDD
:1001A000003000330001010000040107010A0100D2
:1001B000002200250028002B002E00310034000210
:1001C000010000050108010B0100002000230026AA
:1001D0000029002C002F003200000100000301065E
:1001E00001090105050505070508080808020202BE
:1001F000020A0A08080404040401010101010101C2
:10020000010303030303030303040707070C0C0C98
:100210000C0C0C0C0C020202020606060606060670
:10022000060B0B0B0B0B0B0B0B010210202008080D
:100230001020401020408002010201080402010148
:100240000204081020408080402010080402018031
:100250000402018040201008040201080402010188
:100260000204081020408001020408102040800091
:1002700000090A02080B0C0D070603040100000028
:10028000000000000000000000000000000000006E
:100290000000000000000000000000100F0E000031
:1002A000000000000000000000000000000000004E
:1002B0000000000000494E46494E4954594E414EF7
:1002C000CDCCCC3D0AD7233C17B7D13877CC2B32D5
:1002D0009595E6241FB14F0A000020410000C84256
:1002E00000401C4620BCBE4CCA1B0E5AAEC59D74B5
:1002F000760D1A2A11241FBECFEFD1E2DEBFCDBF8B
:1003000012E0A0E0B2E0ECE7F1E600E00BBF02C0D3
:1003100007900D92A83AB107D9F71BBE18E0A8EADA
:10032000B2E001C01D92A33EB107E1F712E0C4EFB5
:10033000D2E004C02297FE010E947630C03FD10770
:10034000C9F70E9425250C94BC300C940000662748
:1003500077270C94AB01A0E0B0E0E1EBF1E00C9466
:100360008B30EC015B016115710519F0FB01918384
:100370008083F9908F2D90E00E947A30892BC9F705
:10038000FDE2FF1621F4F990EE24E39405C02BE280
:10039000F21609F4F990EE248E0101501040C801C4
:1003A00065EB72E043E050E00E940B03892B01F5FE
:1003B0008E010E5F1F4FC80168EB72E045E050E010
:1003C0000E940B03892B19F48E01095F1F4FA114A2
:1003D000B10419F0F50111830083E0FC04C070E062
:1003E00090E080E814C070E090E080E86FEF08C112
:1003F000C8016DEB72E043E050E00E940B03892BD3
:1004000069F4A114B10429F470E090E080EC6FE786
:10041000F7C02296F501D183C083F6CF88249924B2
:1004200040E050E060E070E0EF2DE053EA30A0F5EE
:10043000F2E0EF2A8E2D90E09C0128703070E2FEF1
:1004400006C0232B79F50894811C911C2BC0232B0B
:1004500019F0089481089108DB01CA0112E0880FA5
:10046000991FAA1FBB1F1A95D1F7480F591F6A1F62
:100470007B1F440F551F661F771F4E0F511D611DB7
:10048000711D483929E9520729E9620729E17207F4
:1004900048F084E0E82A06C0EE3F31F4E3FC39C0BE
:1004A00098E0E92AF990C0CFE53311F0E53189F5FC
:1004B00029912D3219F4E0E1EE2A05C02B3219F012
:1004C00081E090E003C0299182E090E0E22FE053C8
:1004D000EA3018F0C81BD90B1CC020E030E0FCE06B
:1004E00020383F075CF4C901880F991F880F991FB6
:1004F000280F391F220F331F2E0F311DE991E053B2
:10050000EA3068F3E4FE03C0309521953F4F820E38
:10051000931ECE2CDD24E1FE07C0A114B10421F00E
:100520002197F501D183C083CB01BA010E94402EEF
:100530007B018C01F3E0CF22DD2423E0C216D1043D
:1005400021F417FB109517F9109557016801C801A0
:10055000B70120E030E040E050E00E94A02D882369
:1005600009F44AC097FE0DC024EDE22E22E0F22EDF
:100570009094819491089394C0E2D0E000E010E060
:1005800012C09CEEE92E92E0F92EF6CFF7012591EC
:10059000359145915491C601B5010E94642F5B01CC
:1005A0006C018C1A9D0A8C169D0684F7D595C7950B
:1005B0000F5F1F4F0630110529F08CEF9FEFE80EFB
:1005C000F91EF1CFC501D6017C018D018C2D880F5C
:1005D0008D2D881F8F3F51F0C601B50120E030E01E
:1005E00040E050E00E94A02D882331F482E290E0A8
:1005F0009093E2088093E1087E2D9F2D802F612F3C
:10060000272F392F482F562FB901CA01CDB7DEB792
:10061000ECE00C94A730FB01DC014150504088F025
:100620008D9181341CF08B350CF4805E65916134C2
:100630001CF06B350CF4605E861B611171F3990B35
:100640000895881BFCCFF999FECF72BD61BDF89A61
:1006500080B50895F999FECF1FBA72BD61BD40BD46
:100660000FB6F894FA9AF99A0FBE0895EF92FF9296
:100670000F931F93CF93DF938B017A01EC01DC0181
:10068000A65CBC4F8C9187FF04C0FB0111821082D5
:1006900037C0AE01440F551F4C0F5D1F440F551F4F
:1006A000440F551F2C91332727FD3095240F351FFC
:1006B0008091A90290E02817390714F58C919927A9
:1006C00087FD9095840F951FFC01EE0FFF1FE80F2B
:1006D000F91FE655FD4F808186FF12C08C91992746
:1006E00087FD9095840F951FFC01EE0FFF1FE80F0B
:1006F000F91FE655FD4F80818F7360E00E945527FA
:10070000DE01A65CBC4F8C918F5F8C93AE01440FD1
:10071000551F4C0F5D1F440F551F440F551F2C9143
:10072000332727FD3095240F351F8091A90290E0D3
:10073000281739070CF04DC08C918C300CF049C053
:10074000F801208131818C91992787FD9095840F44
:10075000951FFC01EE0FFF1FE80FF91FE655FD4F37
:1007600081819281280F391FF701318320838C9179
:10077000992787FD9095840F951FFC01EE0FFF1FB1
:10078000E80FF91FE655FD4F808186FF29C08C9147
:10079000992787FD9095840F951FFC01EE0FFF1F91
:1007A000E80FF91FE655FD4F80818F7361E00E94CD
:1007B000552716C080E49CE904C0F801808191812E
:1007C0000496F70191838083C65CDC4F8FEF8883AA
:1007D00007C0F8018081918184549C4958F3EDCF82
:1007E000DF91CF911F910F91FF90EF9008951F928D
:1007F0000F920FB60F920BB60F9211242F933F93C7
:100800004F935F936F937F938F939F93AF93BF9318
:10081000EF93FF9380E090E064E271E048E251E002
:100820000E943603FF91EF91BF91AF919F918F91FD
:100830007F916F915F914F913F912F910F900BBEE0
:100840000F900FBE0F901F9018951F920F920FB62A
:100850000F920BB60F9211242F933F934F935F93F8
:100860006F937F938F939F93AF93BF93EF93FF9378
:1008700083E090E064EA70E048EA50E00E943603CA
:10088000FF91EF91BF91AF919F918F917F916F9168
:100890005F914F913F912F910F900BBE0F900FBE24
:1008A0000F901F9018951F920F920FB60F920BB6D4
:1008B0000F9211242F933F934F935F936F937F93E6
:1008C0008F939F93AF93BF93EF93FF9382E090E05A
:1008D00064E970E048E950E00E943603FF91EF912F
:1008E000BF91AF919F918F917F916F915F914F9148
:1008F0003F912F910F900BBE0F900FBE0F901F9046
:1009000018951F920F920FB60F920BB60F921124EB
:100910002F933F934F935F936F937F938F939F9307
:10092000AF93BF93EF93FF9381E090E064E870E0B2
:1009300048E850E00E943603FF91EF91BF91AF91DC
:100940009F918F917F916F915F914F913F912F91E7
:100950000F900BBE0F900FBE0F901F901895FC01CB
:1009600010828FEF81831382128282E2848386E970
:100970008583178216820895EF92FF920F931F933B
:10098000CF93DF93EC019B0177FF03C020E030E0C1
:1009900005C0653B710514F024EB30E02983EC8041
:1009A0006D8170E06E197109882777FD8095982F09
:1009B000982F872F762F662730E040E050E00E9486
:1009C000F12F24EB30E040E050E00E944530FF245E
:1009D00000E010E0102F0F2DFE2CEE24E20EF31E8F
:1009E000041F151FC801B70120E430E040E050E0CB
:1009F0000E9445303B832A83DF91CF911F910F9155
:100A0000FF90EF9008955F926F927F928F929F92E6
:100A1000AF92BF92CF92DF92EF92FF920F931F930C
:100A2000DF93CF93CDB7DEB76DB67EB6ADB65EB60B
:100A30000E9474252091400330914103409142036C
:100A400050914303621773078407950750F02C5E9B
:100A50003F4F4F4F5F4F621773078407950708F4A6
:100A6000AFC060934003709341038093420390931F
:100A70004303E0913E03F0913F03BB2408C0828111
:100A80009381892B09F0B3940680F781E02D30978C
:100A9000B1F7BB2009F494C08B2D90E0880F991F0B
:100AA0002DB73EB7281B390B0FB6F8943EBF0FBECB
:100AB0002DBFCDB6DEB60894C11CD11CA0913E035B
:100AC000B0913F0320E013C012968D919C91139733
:100AD000892B49F0E22FF0E0EE0FFF1FEC0DFD1D1A
:100AE000B183A0832F5F16960D90BC91A02D109717
:100AF00059F72CC0812F90E07C01EE0CFF1CEC0C10
:100B0000FD1CD7016D917C91FC013197EE0FFF1F09
:100B1000EC0DFD1D40815181DB0112962D913C9120
:100B20001397DA0112968D919C9113972817390724
:100B300030F4D7014D935C937183608301E01F5FB4
:100B40001B15C0F2002311F410E011C011E000E009
:100B5000F7CFE12FF0E0EE0FFF1FEC0DFD1D019030
:100B6000F081E02D808161E00E9455271F5F1B15F9
:100B700080F3F6B4EE2400E010E08F2C99241EC020
:100B8000EE2DF0E0EE0FFF1FEC0DFD1D0190F0814A
:100B9000E02D22813381280D391D86B58F1510F483
:100BA00000501F4FF82EC8018F0D911D28173907CF
:100BB000A0F7808160E00E945527E394EB1400F3D6
:100BC0008A2D952D9C010FB6F8943EBF0FBE2DBF08
:100BD0000FB6F8947EBE0FBE6DBECF91DF911F9110
:100BE0000F91FF90EF90DF90CF90BF90AF909F90CC
:100BF0008F907F906F905F9008950F931F938C015B
:100C0000FC0160838FEF81831382128280913E0307
:100C100090913F039783868310933F0300933E0395
:100C2000808160E00E945527F801808161E00E9488
:100C3000352781E01F910F9108954F925F926F9237
:100C40007F928F929F92AF92BF92CF92DF92EF925C
:100C5000FF920F931F93DF93CF93CDB7DEB7289703
:100C60000FB6F894DEBF0FBECDBF69837A838B8346
:100C70009C83CA0138014901270160E074E00E94A9
:100C80001030882777FD8095982F0E94422E209162
:100C900078023091790240917A0250917B020E9451
:100CA000642F2FE632E143E05BE30E94A72D6D83C2
:100CB0007E838F839887C401B30121EE3EE245E62F
:100CC00052E40E94642F29813A814B815C810E9409
:100CD000D92C3B014C01E0907003F090710300911E
:100CE000720310917303A80197010E94642FA80159
:100CF00097010E94642F9B01AC01F2016083718314
:100D000082839383C601B5010E94642FF20120857E
:100D10003185428553850E94DA2C7B018C01F201DA
:100D20006087718782879387C401B301A40193010F
:100D30000E94DA2C2091700330917103409172036C
:100D4000509173030E94642F9B01AC01C801B7014D
:100D50000E94DA2C2D813E814F8158850E94DA2C29
:100D60009B01AC01F2016483758386839783C6017E
:100D7000B5010E94642F29813A814B815C810E94D8
:100D8000DA2C28960FB6F894DEBF0FBECDBFCF91F8
:100D9000DF911F910F91FF90EF90DF90CF90BF9068
:100DA000AF909F908F907F906F905F904F9008953D
:100DB0002F923F924F925F926F927F928F929F926B
:100DC000AF92BF92CF92DF92EF92FF920F931F9359
:100DD000DF93CF9300D000D000D0CDB7DEB719019C
:100DE0002A011E830D830E94D92C69837A838B8309
:100DF0009C83F80120893189428953890E94DA2C29
:100E00007B018C01ED81FE81608B718B828B938BDA
:100E1000A0900C04B0900D04C0900E04D0900F046C
:100E20003501460197FA909497F89094A4019301A4
:100E30000E94A02D88233CF4ED81FE81608A718A96
:100E4000828A938A0EC0C801B701A60195010E944B
:100E5000592F181634F4ED81FE81A08AB18AC28A16
:100E6000D38AC201B101ED81FE8124853585468595
:100E700057850E94D92CED81FE81208531854285E0
:100E800053850E94642F5B016C01ED81FE812486F5
:100E900035864686578669817A818B819C8120813F
:100EA0003181428153810E94642F7B018C01ED814D
:100EB000FE8164817581868197812089318942898B
:100EC00053890E94642F9B01AC01C801B7010E94A5
:100ED000DA2CA60195010E94DA2C26960FB6F8941A
:100EE000DEBF0FBECDBFCF91DF911F910F91FF905D
:100EF000EF90DF90CF90BF90AF909F908F907F90BA
:100F00006F905F904F903F902F900895FF920F93B6
:100F10001F93CF93DF93EC018B016150704028C089
:100F2000D901AA0FBB1FAC0FBD1F4D915C9111974A
:100F3000F9013196EE0FFF1FEC0FFD1F208131816B
:100F4000241735072CF4518340832D933C9390E074
:100F50008F5F282F30E02617370714F3913041F4C4
:100F600080E0A0E0B0E040E050E060E070E01CC055
:100F700091E080E0EECFEE0FFF1FEC0FFD1F208110
:100F80003181A217B30724F4D90141E050E005C034
:100F90002A173B0711F44F5F5F4F641775071CF466
:100FA000922FF32EBA018F5FE82FF0E0E017F107E0
:100FB00014F3892F9F2DDF91CF911F910F91FF90F7
:100FC0000895CF92DF92EF92FF920F931F937C01CF
:100FD00065E9C62E68E0D62E492F552747FD5A955C
:100FE00050E060E070E0C60120E030E00E942E2C6E
:100FF000FF2400E010E0C601B801A70120E030E0C6
:101000000E942E2C1F910F91FF90EF90DF90CF90B8
:10101000089585E998E06CE20E94212B08951092D2
:101020001805809186028E3409F488C18F34F4F457
:10103000863409F4D5C087347CF4823499F1833442
:101040003CF4813209F447C4863309F04DC419C415
:10105000843409F049C475C08A3409F433C18C342E
:1010600009F447C1883409F03FC419C1833509F434
:10107000A3C2843554F4813509F4E5C182350CF0FE
:1010800064C2803509F030C487C1853509F48AC34C
:1010900085350CF41EC3863509F4A2C38A3509F0E0
:1010A00023C4BCC34091940350919503609196036F
:1010B0007091970385E998E00E94CA2C0E94090864
:1010C000409198035091990360919A0370919B030A
:1010D00085E998E00E94CA2C0E94090840919C036F
:1010E00050919D0360919E0370919F0385E998E064
:1010F0000E94CA2C0E9409084091A8035091A9039C
:101100006091AA037091AB0385E998E00E94CA2C14
:101110000E9409084091AC035091AD036091AE0369
:101120007091AF0385E998E00E94CA2C0E940908DB
:101130004091B0035091B1036091B2037091B30339
:101140007AC14091BC035091BD036091BE03709180
:10115000BF0385E998E00E94CA2C0E9409084091CB
:10116000C0035091C1036091C2037091C30385E92C
:1011700098E00E94CA2C0E9409084091C403509133
:10118000C5036091C6037091C70385E998E00E948A
:10119000CA2C0E9409084091F8035091F90360910C
:1011A000FA037091FB0385E998E00E94CA2C0E9423
:1011B00009084091FC035091FD036091FE0370917A
:1011C000FF0385E998E00E94CA2C0E94090840911B
:1011D00000045091010460910204709103042BC13A
:1011E0004091D0035091D1036091D2037091D30309
:1011F00085E998E00E94CA2C0E9409086091D403F6
:101200007091D5038091D6039091D70320E030E010
:1012100048EC52E40E94642FAB01BC0185E998E0E0
:101220000E94CA2C0E9409084091D8035091D9030A
:101230006091DA037091DB0385E998E00E94CA2C83
:101240000E9409084091E4035091E5036091E60390
:101250007091E70385E998E00E94CA2C0E94090872
:101260006091E8037091E9038091EA039091EB03A8
:1012700020E030E048EC52E40E94642FAB01BC0156
:1012800085E998E00E94CA2C0E9409084091EC036D
:101290005091ED036091EE037091EF03CCC060912B
:1012A000DB047091DC0485E998E00E94162C0E9412
:1012B00009086091DD047091DE0485E998E00E94E0
:1012C0001E2CBDC040910C0450910D0460910E0481
:1012D00070910F0485E998E00E94CA2C0E940908C9
:1012E0004091290450912A0460912B0470912C04A0
:1012F000A2C0409144035091450360914603709110
:10130000470385E998E00E94CA2C0E940908409191
:1013100048035091490360914A0370914B0385E95A
:1013200098E00E94CA2C0E940908409170035091D5
:10133000710360917203709173037DC01092460433
:101340001092450419C0EE0FFF1FEE0FFF1FE45B64
:10135000FC4F408151816281738185E998E00E9450
:10136000CA2C0E9409088091450490914604019678
:101370009093460480934504E0914504F09146041F
:10138000E530F10504F340916003509161036091F1
:101390006203709163034FC010924604109245049B
:1013A0002DC0EE0FFF1FEE0FFF1FE65CFD4F4081CB
:1013B00051816281738185E998E00E94CA2C0E9464
:1013C0000908E0914504F0914604EE0FFF1FEE0F6F
:1013D000FF1FE35DFB4F408151816281738185E98D
:1013E00098E00E94CA2C0E940908809145049091BF
:1013F000460401969093460480934504E091450489
:10140000F0914604E530F10564F240914E025091AE
:101410004F02609150027091510285E998E00E945C
:10142000CA2C0E94090840914104509142046091E5
:1014300043047091440485E998E00E94CE2C88E52D
:10144000809386020895109246041092450415C0B8
:10145000EE0FFF1FEB59FB4F6081718185E998E02A
:101460000E94162C0E940908809145049091460420
:1014700001969093460480934504E0914504F091D1
:101480004604E330F10524F310924604109245041B
:1014900015C0EE0FFF1FED5AFB4F6081718185E98A
:1014A00098E00E94162C0E940908809145049091B2
:1014B000460401969093460480934504E0914504C8
:1014C000F0914604E330F10524F3109246041092A3
:1014D000450415C0EE0FFF1FE952FB4F608171817B
:1014E00085E998E00E94162C0E9409088091450425
:1014F0009091460401969093460480934504E091B0
:101500004504F0914604E230F10524F3409168036C
:101510005091690360916A0370916B0385E998E0CB
:101520000E94CA2C0E94090840916C0350916D03DF
:1015300060916E0370916F0385E998E00E94CA2C58
:1015400085E998E00E94312B089585E00E944926A4
:10155000BC0185E998E00E94162C0E94090884E0ED
:101560000E944926BC0185E998E00E94162C0E9441
:10157000090888E00E944926BC0185E998E00E949C
:10158000162C0E94090881E00E944926BC0185E9C9
:1015900098E00E94162C0E94090880E00E944926CB
:1015A000BC0185E998E00E94162C0E94090882E09F
:1015B0000E944926BC018AC140912305509124050F
:1015C000609125057091260585E998E00E94EB2B36
:1015D0000E940908109246041092450415C0EE0FAF
:1015E000FF1FE75AFB4F6081718185E998E00E94F7
:1015F000162C0E940908809145049091460401969A
:101600009093460480934504E0914504F09146048C
:10161000E330F10524F3609128027091290285E9F5
:1016200098E00E94162C0E9409081092460410921D
:10163000450415C0EE0FFF1FE153FB4F6081718120
:1016400085E998E00E94162C0E94090880914504C3
:101650009091460401969093460480934504E0914E
:101660004504F0914604E330F10524F31092D604CA
:101670001092D50415C0EE0FFF1FE859FD4F608191
:10168000718185E998E00E94162C0E9409088091DA
:10169000D5049091D60401969093D6048093D504F6
:1016A000E091D504F091D604E430F10524F34091A3
:1016B000160550E060E070E085E998E022E030E057
:1016C0000E942E2C0E94090885E998E068EE73E0DC
:1016D000FFC04091290450912A0460912B0470911D
:1016E0002C0485E998E00E94CA2C0E9409081092F7
:1016F00046041092450415C0EE0FFF1FEE5DFD4F2E
:101700006081718185E998E00E94162C0E94090889
:1017100080914504909146040196909346048093ED
:101720004504E0914504F0914604E330F10524F3CB
:10173000109246041092450415C0EE0FFF1FE952A7
:10174000FB4F6081718185E998E00E94162C0E9410
:1017500009088091450490914604019690934604AF
:1017600080934504E0914504F0914604E230F10590
:1017700024F36091CF047091D00485E998E00E9431
:10178000162C0E9409086091D1047091D20485E959
:1017900098E00E94162C0E9409086091D304709171
:1017A000D40494C01092280412C0F0E0EE0FFF1F82
:1017B000E45EFB4F6081718185E998E00E94162C00
:1017C0000E940908809128048F5F80932804E0918B
:1017D0002804E53050F3609126047091270476C008
:1017E0001092280412C0F0E0EE0FFF1FE05FFB4FE5
:1017F0006081718185E998E00E94162C0E94090899
:10180000809128048F5F80932804E0912804E530BC
:1018100050F360911A0470911B0458C06091260225
:101820007091270285E998E00E94162C0E94090811
:101830004091E7045091E8046091E9047091EA0452
:1018400085E998E00E94CA2C0E9409084091E304AF
:101850005091E4046091E5047091E60485E998E014
:101860000E94CA2C0E9409084091EB045091EC049C
:101870006091ED047091EE0485E998E00E94CE2C11
:1018800008951092D6041092D50415C0EE0FFF1FD4
:10189000E258FD4F6081718185E998E00E94162C25
:1018A0000E9409088091D5049091D60401969093E6
:1018B000D6048093D504E091D504F091D604E330AA
:1018C000F10524F3609184027091850285E998E026
:1018D0000E941E2C089585E998E060E072E00E9465
:1018E000482B88E5809386020895EF92FF920F932C
:1018F0001F93DF93CF93CDB7DEB7C058D0400FB65C
:10190000F894DEBF0FBECDBF19821A821B821C82E3
:10191000FE0135968CE7DF011D928A95E9F700E01C
:1019200010E07E010894E11CF11C85E998E00E941A
:10193000CB29882341F46AE070E080E090E00E94C7
:10194000AD251F5F0AC085E998E00E94DF29F701F5
:10195000E00FF11D80830F5F10E0802F90E0019772
:10196000BFEF8F3F9B0719F4E0E0F0E006C0FC01F9
:101970008138910514F0E0E8F0E0EE0DFF1D808164
:101980008B3321F0153010F407FFCFCFCE01019635
:101990000E94A701C058DF4F0FB6F894DEBF0FBEFC
:1019A000CDBFCF91DF911F910F91FF90EF900895E0
:1019B00086E161E00E94552787E161E00E9455279A
:1019C0008EEE92E00E94D72586E160E00E945527C6
:1019D00087E160E00E94552768E070E080E090E0D9
:1019E0000E94AD25089586E161E00E94352787E1D8
:1019F00061E00E94352786E160E00E94552787E17B
:101A000060E00E94552761E070E080E090E00E9475
:101A1000AD2508958AE060E00E9435278BE060E004
:101A20000E9435278CE060E00E94352783E460E067
:101A30000E94352784E460E00E94352785E460E059
:101A40000E943527EBE6F0E0808180678083E8E63E
:101A5000F0E0808181608083ADE6B0E08C91806EA3
:101A60008C9380818460808308950E940A0D20E019
:101A70004DE050E013C0E22FF0E0EE0FFF1FEC5EF0
:101A8000FD4F80819181849FF001859FF00D949F8F
:101A9000F00D1124E85CFA4FE0812F5F263058F3F7
:101AA00020932804089580E360E00E94352781E3B5
:101AB00061E00E94352781E360E00E945527089588
:101AC00084E361E00E94352783E361E00E943527CB
:101AD00082E360E00E94352785E361E00E943527BC
:101AE0001CBC80E58CBD8DB58EB5089560917802E3
:101AF0007091790280917A0290917B0220E030E02F
:101B000040E85AE30E94642F2FE632E143E05BE3B2
:101B10000E94A72D2BED3FE049EC5FE30E94642F6C
:101B20006093DF047093E0048093E1049093E204F7
:101B30008FEE94E00E94AF0487EF94E00E94AF0420
:101B400087E395E00E94600D08952F923F924F9297
:101B50005F926F927F928F929F92AF92BF92CF923D
:101B6000DF92EF92FF920F931F93DF93CF93CDB746
:101B7000DEB728970FB6F894DEBF0FBECDBF082F93
:101B8000A82EBB24C501880F991F87539E4FFC01C7
:101B9000A591B4918C91F501E059F94F1081182766
:101BA0008083002319F00B3049F403C080916B004F
:101BB00002C080916D00182309F498C00E9482250C
:101BC0006B017C0160E070E041E0242E312C612E3D
:101BD000772495012059394F38872F833DE0432ED4
:101BE000512C20E2822E21ED922E2FEFA22E2FEFEC
:101BF000B22E462FC101062E02C0880F991F0A94EB
:101C0000E2F7282F30E0C90186219721892B09F4BA
:101C100067C00B3009F4405FAF81B8858C9190E0CC
:101C200028233923842F90E0232B39F1849DF00160
:101C3000859DF00D949DF00D1124E85CFA4F85818F
:101C40009681A781B085C182D282E382F482A50108
:101C50009401281B390B4A0B5B0BDA01C9018C0D6F
:101C60009D1DAE1DBF1D815E9E42A040B04018F478
:101C700041E0408335C0808133C0849DD001859D83
:101C8000B00D949DB00D1124A85CBA4FBE83AD83F6
:101C900011968D919D910D90BC91A02DA70196015B
:101CA000281B390B4A0B5B0BED81FE81C582D68266
:101CB000E782F086DA01C901865B9340A040B0401C
:101CC00086569440A040B04058F4AD81BE818C91BE
:101CD000813031F4FD012187328743875487108298
:101CE0006F5F7F4F6830710509F083CF28960FB67C
:101CF000F894DEBF0FBECDBFCF91DF911F910F9142
:101D0000FF90EF90DF90CF90BF90AF909F908F901B
:101D10007F906F905F904F903F902F9008951F920B
:101D20000F920FB60F920BB60F9211242F933F9381
:101D30004F935F936F937F938F939F93AF93BF93D3
:101D4000EF93FF938BE00E94A50DFF91EF91BF9160
:101D5000AF919F918F917F916F915F914F913F9143
:101D60002F910F900BBE0F900FBE0F901F901895E4
:101D70001F920F920FB60F920BB60F9211242F9352
:101D80003F934F935F936F937F938F939F93AF9303
:101D9000BF93EF93FF9382E00E94A50DFF91EF9117
:101DA000BF91AF919F918F917F916F915F914F9173
:101DB0003F912F910F900BBE0F900FBE0F901F9071
:101DC0001895EF92FF920F931F93AA2797FDA09566
:101DD000BA2FBC01CD010E94422E7B018C012091C3
:101DE00060023091610240916202509163020E9450
:101DF000642F2091640230916502409166025091F7
:101E000067020E94DA2C0E940F2E9B01AC0186E033
:101E1000B9010E947926C801B70120916002309172
:101E2000610240916202509163020E94642F2091EE
:101E300064023091650240916602509167020E94EF
:101E4000DA2C0E940F2E9B01AC0189E0B9010E949F
:101E50007926C801B701209160023091610240915A
:101E60006202509163020E94642F209164023091BB
:101E7000650240916602509167020E94DA2C0E942E
:101E80000F2E9B01AC0187E0B9010E947926C801A1
:101E9000B70120916002309161024091620250913D
:101EA00063020E94642F2091640230916502409188
:101EB0006602509167020E94DA2C0E940F2E9B014D
:101EC000AC0188E0B9010E9479261F910F91FF9023
:101ED000EF9008950F931F93082F10E015C08CE426
:101EE00094E00E94E10E6AEF70E080E090E00E94D2
:101EF000AD2588EE93E00E94E10E6AEF70E080E08D
:101F000090E00E94AD251F5F101748F31F910F91BD
:101F100008956091680270916902882777FD809525
:101F2000982F0E94422E20916002309161024091D0
:101F30006202509163020E94642F209164023091EA
:101F4000650240916602509167020E94DA2C0E945D
:101F50000F2E9B01AC0186E0B9010E9479266091A9
:101F60006A0270916B02882777FD8095982F0E94F6
:101F7000422E2091600230916102409162025091A4
:101F800063020E94642F20916402309165024091A7
:101F90006602509167020E94DA2C0E940F2E9B016C
:101FA000AC0189E0B9010E94792660916C027091C0
:101FB0006D02882777FD8095982F0E94422E2091F0
:101FC00060023091610240916202509163020E946E
:101FD000642F209164023091650240916602509115
:101FE00067020E94DA2C0E940F2E9B01AC0187E051
:101FF000B9010E94792660916E0270916F02882764
:1020000077FD8095982F0E94422E2091600230919A
:10201000610240916202509163020E94642F2091FC
:1020200064023091650240916602509167020E94FD
:10203000DA2C0E940F2E9B01AC0188E0B9010E94AE
:102040007926089586E06CE770E00E94792689E0A1
:102050006CE770E00E94792687E06CE770E00E94F0
:10206000792688E06CE770E00E9479260895EF9267
:10207000FF920F931F9380915A020E94492620914C
:102080004D0430914E04821B930BAA2797FDA09517
:10209000BA2FBC01CD010E94422E7B018C018091A0
:1020A0005E020E9449262091510430915204821B05
:1020B000930BAA2797FDA095BA2FBC01CD010E94D2
:1020C000422E9B01AC01C801B7010E944D2D21EEAB
:1020D0003EE245E652E40E94642F609368037093E9
:1020E000690380936A0390936B0380915C020E9462
:1020F000492620914F0430915004821B930BAA274C
:1021000097FDA095BA2FBC01CD010E94422E7B0104
:102110008C0180915E020E944926209151043091E9
:102120005204821B930BAA2797FDA095BA2FBC01DE
:10213000CD010E94422E9B01AC01C801B7010E9453
:102140004D2D21EE3EE245E652E40E94642F60935D
:102150006C0370936D0380936E0390936F03E09014
:102160005F04F0906004809154020E944926E81AAE
:10217000F90A0027F7FC0095102FC801B7010E944B
:10218000422E26E933E446EE56E40E94A72D21EEC6
:102190003EE245E652E40E94642F60937C03709314
:1021A0007D0380937E0390937F03E0906104F09021
:1021B0006204809156020E944926E81AF90A002713
:1021C000F7FC0095102FC801B7010E94422E26E9A6
:1021D00033E446EE56E40E94A72D21EE3EE245E6AA
:1021E00052E40E94642F60938C0370938D0380935C
:1021F0008E0390938F031F910F91FF90EF9008959E
:10220000CF92DF92EF92FF920F931F93DF93CF93C2
:1022100000D000D0CDB7DEB77A0169837A838B8393
:102220009C8300E010E06E010894C11CD11CB80131
:102230006E0D7F1DF601E00FF11F88EA92E04081EC
:102240000E942A030F5F1F4F0430110581F70F9082
:102250000F900F900F90CF91DF911F910F91FF90F2
:10226000EF90DF90CF9008950F931F93CF93DF935C
:1022700010924604109245042BC0E0914504F09161
:102280004604EE0FFF1FE65AFD4F80810E9449264B
:102290008993999384E0CF3CD80779F7009145045E
:1022A000109146048BE694E062E370E00E9486079A
:1022B000000F111F035B1B4FF801918380838091F6
:1022C00045049091460401969093460480934504FA
:1022D000809145049091460402971CF4CBE6D4E02B
:1022E000CCCF8BE392E090935204809351046091A1
:1022F0004D0470914E04882777FD8095982F0E9499
:10230000422E40E450E00E94001160914F04709111
:102310005004882777FD8095982F0E94422E4CE329
:1023200050E00E940011609151047091520488277E
:1023300077FD8095982F0E94422E44E450E00E9441
:102340000011DF91CF911F910F9108950F931F936B
:10235000CF93DF9310924604109245042BC0E09176
:102360004504F0914604EE0FFF1FEC5AFD4F8081AB
:102370000E9449268993999384E0CF3CD80779F746
:1023800000914504109146048BE694E062E370E00E
:102390000E948607000F111F015A1B4FF8019183FD
:1023A0008083809145049091460401969093460461
:1023B00080934504809145049091460403971CF452
:1023C000CBE6D4E0CCCF60915F04709160048827A5
:1023D00077FD8095982F0E94422E40E650E00E94A3
:1023E00000116091610470916204882777FD8095E7
:1023F000982F0E94422E44E650E00E940011609106
:10240000630470916404882777FD8095982F0E945B
:10241000422E48E650E00E940011DF91CF911F91BB
:102420000F910895EF92FF920F931F93CF93DF9335
:1024300085E998E00E94CB29882309F46CC68FE1D6
:1024400060E00E94552785E998E00E94DF2980938B
:102450008602992787FD9095A92FB92FFC01F19746
:10246000E333F10508F053C6EE58FF4FEE0FFF1FA0
:102470000590F491E02D09940E94750C60939403EB
:102480007093950380939603909397030E94750C25
:10249000609398037093990380939A0390939B039E
:1024A0000E94750C60939C0370939D0380939E0320
:1024B00090939F030F2EF0E0EF2EF0E0FF2EF0E060
:1024C0000F2FF0E01F2FF02DE092A003F092A10358
:1024D0000093A2031093A303E092A403F092A50338
:1024E0000093A6031093A7030E94750C6093A803A2
:1024F0007093A9038093AA039093AB030E94750C79
:102500006093AC037093AD038093AE039093AF03DD
:102510000E94750C6093B0037093B1038093B20373
:102520009093B303E092B403F092B5030093B60323
:102530001093B703E092B803F092B9030093BA0383
:102540001093BB03E4C50E94750C6093BC037093A9
:10255000BD038093BE039093BF030E94750C6093EC
:10256000C0037093C1038093C2039093C3030E947E
:10257000750C6093C4037093C5038093C603909356
:10258000C7030F2EF0E0EF2EF0E0FF2EF0E00F2F4C
:10259000F0E01F2FF02DE092C803F092C9030093E2
:1025A000CA031093CB03E092CC03F092CD030093C7
:1025B000CE031093CF030E94750C6093F8037093C1
:1025C000F9038093FA039093FB030E94750C6093C8
:1025D000FC037093FD038093FE039093FF030E941E
:1025E000750C60930004709301048093020490932F
:1025F0000304E0920404F09205040093060410938F
:102600000704E0920804F092090400930A0410936E
:102610000B047DC50E94750C6093D0037093D103A9
:102620008093D2039093D3030E94750C20E030E096
:1026300048EC52E40E94A72D6093D4037093D50315
:102640008093D6039093D7030E94750C6093D803B0
:102650007093D9038093DA039093DB030F2EF0E09D
:10266000EF2EF0E0FF2EF0E00F2FF0E01F2FF02D07
:10267000E092DC03F092DD030093DE031093DF03AE
:10268000E092E003F092E1030093E2031093E3038E
:102690000E94750C6093E4037093E5038093E60356
:1026A0009093E7030E94750C20E030E048EC52E480
:1026B0000E94A72D6093E8037093E9038093EA03D7
:1026C0009093EB030E94750C6093EC037093ED0301
:1026D0008093EE039093EF03E092F003F092F10306
:1026E0000093F2031093F303E092F403F092F503E6
:1026F0000093F6031093F7030AC50E94750C0E941D
:102700000F2E7093DC046093DB040E94750C0E9412
:102710000F2E7093DE046093DD04F9C40E94750CE3
:1027200060930C0470930D0480930E0490930F0437
:102730000E94750C6093290470932A0480932B04E3
:1027400090932C04E4C40E94750C6093440370932E
:10275000450380934603909347030E94750C609352
:1027600048037093490380934A0390934B030E945C
:10277000750C609370037093710380937203909350
:102780007303C5C40E94750C60934C0370934D0392
:1027900080934E0390934F030E94750C60935003F7
:1027A0007093510380935203909353030E94750CCE
:1027B000609354037093550380935603909357038B
:1027C0000E94750C609358037093590380935A03C9
:1027D00090935B030E94750C60935C0370935D03A0
:1027E00080935E0390935F030E94750C6093600377
:1027F00070936103809362039093630388C40E9483
:10280000750C60933A0270933B0280933C02909364
:102810003D020E94750C60932D0470932E048093EA
:102820002F04909330040E94750C60933E027093C5
:102830003F0280934002909341020E94750C609386
:1028400031047093320480933304909334040E94D3
:10285000750C6093420270934302809344029093FC
:1028600045020E94750C6093350470933604809382
:102870003704909338040E94750C6093460270935D
:10288000470280934802909349020E94750C60931E
:10289000390470933A0480933B0490933C040E9463
:1028A000750C60934A0270934B0280934C02909394
:1028B0004D020E94750C60933D0470933E0480931A
:1028C0003F04909340040E94750C60934E027093F5
:1028D0004F0280935002909351020E94750C6093B6
:1028E00041047093420480934304909344040FC4C2
:1028F0006091940370919503809196039091970352
:1029000040E050E00E94001160919803709199039B
:1029100080919A0390919B0344E050E00E94001143
:1029200060919C0370919D0380919E0390919F0301
:1029300048E050E00E9400116091A8037091A90343
:102940008091AA039091AB034CE750E00E940011E4
:102950006091AC037091AD038091AE039091AF0391
:1029600040E850E00E9400116091B0037091B10303
:102970008091B2039091B30344E850E00E940011AB
:102980006091D0037091D1038091D2039091D303D1
:102990004CE050E00E9400116091D4037091D50387
:1029A0008091D6039091D70340E150E00E9400113E
:1029B0006091D8037091D9038091DA039091DB0381
:1029C00044E150E00E9400116091E4037091E5033E
:1029D0008091E6039091E70348E850E00E940011DF
:1029E0006091E8037091E9038091EA039091EB0311
:1029F0004CE850E00E9400116091EC037091ED03EF
:102A00008091EE039091EF0340E950E00E940011A5
:102A10006091BC037091BD038091BE039091BF0390
:102A200048E150E00E9400116091C0037091C10321
:102A30008091C2039091C3034CE150E00E940011C9
:102A40006091C4037091C5038091C6039091C70340
:102A500040E250E00E9400116091F8037091F90388
:102A60008091FA039091FB034CEC50E00E9400111E
:102A70006091FC037091FD038091FE039091FF0330
:102A800040ED50E00E94001160910004709101043B
:102A9000809102049091030444ED50E00E940011E3
:102AA00060910C0470910D0480910E0490910F04BC
:102AB00044E250E00E9400116091DB047091DC045C
:102AC000882777FD8095982F0E94422E48E250E09B
:102AD0000E9400116091DD047091DE04882777FD6B
:102AE0008095982F0E94422E4CE250E00E940011E7
:102AF0006091290470912A0480912B0490912C04F8
:102B000040E350E00E94001160914403709145033E
:102B1000809146039091470344E350E00E940011E6
:102B2000609148037091490380914A0390914B034F
:102B300048E350E00E9400116091580370915903DE
:102B400080915A0390915B034CE550E00E94001184
:102B500060914C0370914D0380914E0390914F030F
:102B600040E550E00E9400116091500370915103C4
:102B7000809152039091530344E550E00E9400116C
:102B800060915403709155038091560390915703BF
:102B900048E550E00E94001160915C0370915D0374
:102BA00080915E0390915F034CE450E00E9400111D
:102BB000609160037091610380916203909163035F
:102BC00044EC50E00E940011609170037091710319
:102BD000809172039091730348E450E00E940011C9
:102BE000609146027091470280914802909149029B
:102BF00044E950E00E9400116091390470913A0458
:102C000080913B0490913C0448E950E00E940011FF
:102C100060913A0270913B0280913C0290913D029A
:102C20004CE950E00E94001160912D0470912E0437
:102C300080912F049091300440EA50E00E940011EE
:102C400060913E0270913F0280914002909141025A
:102C500044EA50E00E940011609131047091320406
:102C6000809133049091340448EA50E00E940011AE
:102C7000609142027091430280914402909145021A
:102C80004CEA50E00E9400116091350470913604C6
:102C9000809137049091380440EB50E00E9400117D
:102CA00060914A0270914B0280914C0290914D02CA
:102CB00044EB50E00E94001160913D0470913E048D
:102CC00080913F049091400448EB50E00E94001135
:102CD00060914E0270914F0280915002909151028A
:102CE0004CEB50E00E94001160914104709142044D
:102CF000809143049091440440EC50E00E94001104
:102D000060916403709165038091660390916703FD
:102D100048EC50E00E940011E4EAF3E080E090E02B
:102D200020E030E040E050E006C020833183428361
:102D300053830196749685309105BCF390934604B5
:102D400080934504609170037091710380917203C8
:102D5000909173030E943710DAC10F2EF0E0EF2E2E
:102D6000F0E0FF2EF0E70F2FF0E41F2FF02DE092A0
:102D70009403F0929503009396031093970320E039
:102D800030E040E050E02093980330939903409363
:102D90009A0350939B0380E090E0A0E2B1EC809313
:102DA0009C0390939D03A0939E03B0939F03E09296
:102DB000A803F092A9030093AA031093AB032093F6
:102DC000AC033093AD034093AE035093AF038093B5
:102DD000B0039093B103A093B203B093B30380E028
:102DE00090E0A0E4B1E48093BC039093BD03A09372
:102DF000BE03B093BF032093C0033093C10340933D
:102E0000C2035093C3032093C4033093C50340937C
:102E1000C6035093C70380E090E0A0E0B0E4809345
:102E2000D0039093D103A093D203B093D303209304
:102E3000D4033093D5034093D6035093D703209304
:102E4000D8033093D9034093DA035093DB03809384
:102E5000E4039093E503A093E603B093E703209384
:102E6000E8033093E9034093EA035093EB03209384
:102E7000EC033093ED034093EE035093EF030F2EDA
:102E8000F0E0EF2EF0E0FF2EF0E40F2FF0E41F2F24
:102E9000F02DE092F803F092F9030093FA031093F7
:102EA000FB032093FC033093FD034093FE035093F8
:102EB000FF032093000430930104409302045093D5
:102EC000030480E090E0AAEFB4E480930C049093B4
:102ED0000D04A0930E04B0930F048DEC9CECACE4B5
:102EE000BEE38093290490932A04A0932B04B0930B
:102EF0002C0420ED37E03093DC042093DB0422E344
:102F000030E03093DE042093DD04809344039093FB
:102F10004503A0934603B0934703809348039093DF
:102F20004903A0934A03B0934B03E0927003F092DD
:102F300071030093720310937303109228040F2EF1
:102F4000F0E0EF2EF0E0FF2EF0E80F2FFFE31F2F51
:102F5000F02D20E030E040E050E017C0E82FF0E036
:102F6000EE0FFF1FEE0FFF1FDF01A65CBD4FED92BE
:102F7000FD920D931C931397E35DFB4F20833183E8
:102F8000428353838F5F8093280480912804863086
:102F900028F320E030E040E85FE3209358033093CB
:102FA000590340935A0350935B0320934C0330938F
:102FB0004D0340934E0350934F032093500330939F
:102FC0005103409352035093530380E090E0A0E0FC
:102FD000BFE38093540390935503A0935603B0939B
:102FE000570320935C0330935D0340935E0350933B
:102FF0005F03209360033093610340936203509317
:1030000063032093640330936503409366035093F6
:1030100067030E94D80C0E94A6110E943411E4EAB2
:10302000F3E080E090E020E030E040E050E006C0D7
:1030300020833183428353830196749685309105B2
:10304000BCF3909346048093450461C0109216052A
:1030500081E003C01092160582E08093FF0457C000
:10306000109216050E94750C0E940F2E70937D021F
:1030700060937C0283E0F1CF109216051092FF045A
:1030800088EE93E090937D0280937C0240C0109282
:10309000160585E08093FF041092D6041092D504A3
:1030A00013C00E94750CCC0FDD1FC258DD4F0E946B
:1030B0000F2E798368838091D5049091D604019670
:1030C0009093D6048093D504C091D504D091D604B2
:1030D000C430D10534F31BC088E5809386020E947A
:1030E000750C20E030E040E85FE30E94A02D8823CB
:1030F00021F481E080931A050AC010921A0507C0D6
:103100000E94D80C0E94A61102C00E9434118FE1C7
:1031100061E00E945527DF91CF911F910F91FF90A1
:10312000EF900895CF92DF92EF92FF920F931F934B
:10313000DF93CF9300D000D0CDB7DEB77C0100E0A5
:1031400010E06E010894C11CD11CB8016E0D7F1DEA
:1031500088EA92E00E942303F601E00FF11F8083CA
:103160000F5F1F4F0430110581F729813A814B8190
:103170005C81B901CA010F900F900F900F90CF9111
:10318000DF911F910F91FF90EF90DF90CF90089506
:10319000EF92FF920F931F9380E090E00E949218AD
:1031A0006093940370939503809396039093970391
:1031B00084E090E00E9492186093980370939903C2
:1031C00080939A0390939B0388E090E00E9492186A
:1031D00060939C0370939D0380939E0390939F0341
:1031E0000F2EF0E0EF2EF0E0FF2EF0E00F2FF0E0DA
:1031F0001F2FF02DE092A003F092A1030093A203F1
:103200001093A303E092A403F092A5030093A603F6
:103210001093A7038CE790E00E9492186093A80394
:103220007093A9038093AA039093AB0380E890E086
:103230000E9492186093AC037093AD038093AE0329
:103240009093AF0384E890E00E9492186093B003DB
:103250007093B1038093B2039093B303E092B403ED
:10326000F092B5030093B6031093B703E092B8034E
:10327000F092B9030093BA031093BB0388E190E086
:103280000E9492186093BC037093BD038093BE03A9
:103290009093BF038CE190E00E9492186093C0036A
:1032A0007093C1038093C2039093C30380E290E0C4
:1032B0000E9492186093C4037093C5038093C60361
:1032C0009093C703E092C803F092C9030093CA0326
:1032D0001093CB03E092CC03F092CD030093CE0386
:1032E0001093CF038CE090E00E9492186093D0037B
:1032F0007093D1038093D2039093D30380E190E045
:103300000E9492186093D4037093D5038093D603E0
:103310009093D70384E190E00E9492186093D803C1
:103320007093D9038093DA039093DB03E092DC037C
:10333000F092DD030093DE031093DF03E092E003DD
:10334000F092E1030093E2031093E30388E890E036
:103350000E9492186093E4037093E5038093E60360
:103360009093E7038CE890E00E9492186093E80342
:103370007093E9038093EA039093EB0380E990E074
:103380000E9492186093EC037093ED038093EE0318
:103390009093EF03E092F003F092F1030093F203B5
:1033A0001093F303E092F403F092F5030093F60315
:1033B0001093F7038CEC90E00E9492186093F8034E
:1033C0007093F9038093FA039093FB0380ED90E0F0
:1033D0000E9492186093FC037093FD038093FE0398
:1033E0009093FF0384ED90E00E9492186093000494
:1033F000709301048093020490930304E092040408
:10340000F09205040093060410930704E092080468
:10341000F092090400930A0410930B0484E990E0ED
:103420000E9492186093460270934702809348026C
:103430009093490288E990E00E94921860933904C1
:1034400070933A0480933B0490933C048CE990E0A1
:103450000E94921860933A0270933B0280933C0260
:1034600090933D0280EA90E00E94921860932D04B0
:1034700070932E0480932F049093300484EA90E09C
:103480000E94921860933E0270933F028093400224
:103490009093410288EA90E00E9492186093310470
:1034A0007093320480933304909334048CEA90E058
:1034B0000E949218609342027093430280934402E8
:1034C0009093450280EB90E00E949218609335043F
:1034D00070933604809337049093380484EB90E023
:1034E0000E94921860934A0270934B0280934C02A0
:1034F00090934D0288EB90E00E94921860933D04F7
:1035000070933E0480933F04909340048CEB90E0D2
:103510000E94921860934E0270934F028093500263
:103520009093510280EC90E00E94921860934104C5
:1035300070934204809343049093440484E290E0A7
:103540000E94921860930C0470930D0480930E04F3
:1035500090930F0488E290E00E9492180E940F2E30
:103560007093DC046093DB048CE290E00E9492187C
:103570000E940F2E7093DE046093DD0480E390E0E0
:103580000E9492186093290470932A0480932B045C
:1035900090932C0484E390E00E949218609344037B
:1035A00070934503809346039093470388E390E02C
:1035B0000E949218609348037093490380934A03D2
:1035C00090934B038CE590E00E949218609358030F
:1035D0007093590380935A0390935B0380E590E0C6
:1035E0000E94921860934C0370934D0380934E0396
:1035F00090934F0384E590E00E94921860935003EB
:1036000070935103809352039093530388E590E0A5
:103610000E9492186093540370935503809356034D
:10362000909357038CE490E00E94921860935C039F
:1036300070935D0380935E0390935F0384EC90E04E
:103640000E949218609360037093610380936203F9
:103650009093630380E490E00E9492180E940F2EE2
:1036600070934E0460934D048CE390E00E94921896
:103670000E940F2E7093500460934F0484E490E0F6
:103680000E9492180E940F2E70935204609351046E
:1036900080E690E00E9492180E940F2E70936004C2
:1036A00060935F0484E690E00E9492180E940F2EBF
:1036B000709362046093610488E690E00E9492181F
:1036C0000E940F2E709364046093630488E490E07A
:1036D0000E94921860937003709371038093720339
:1036E0009093730388EC90E00E94921860936403B7
:1036F0007093650380936603909367031F910F9106
:10370000FF90EF9008951F93182F81E361E00E94CE
:10371000552761E070E080E090E00E94AD2581E3F4
:1037200060E00E945527113059F0113018F0123026
:1037300099F40CC081E68EBD0DB407FEFDCF0BC021
:1037400082E68EBD0DB407FEFDCF05C083E68EBDBB
:103750000DB407FEFDCF8EB580E30E94E027892BD4
:10376000D9F38FEF8EBD0DB407FEFDCF3EB58FEFC1
:103770008EBD0DB407FEFDCF2EB5932F80E030E057
:10378000282B392BC9011F9108952F923F924F92F8
:103790005F926F927F928F929F92AF92BF92CF92E1
:1037A000DF92EF92FF920F931F93DF93CF93CDB7EA
:1037B000DEB762970FB6F894DEBF0FBECDBF0E9492
:1037C000822560931F0570932005809321059093B7
:1037D000220520911B0530911C0540911D0550913B
:1037E0001E057B018C01E21AF30A040B150BE09213
:1037F0002305F09224050093250510932605609378
:103800001B0570931C0580931D0590931E05209148
:103810002705309128054091290550912A05205609
:1038200039474E4F5F4F261737074807590708F0AB
:10383000CBC180918B02813009F0C6C1BB242DE041
:10384000822E912C42C00B2D10E02FB7F8947801F6
:10385000EE0CFF1CF701EA5FFD4F808190E0889D30
:10386000F001899DF00D989DF00D1124E85CFA4F50
:1038700061857285838594852FBF20E134E0E20E57
:10388000F31E000F111F000F111FBAE3CB2EB2E081
:10389000DB2EC00ED11E80E090E00E94402EF6018B
:1038A00020813181428153810E94642F035D1B4F2F
:1038B000F80120813181428153810E94DA2C0E94DB
:1038C0000F2EF70171836083B394F5E0FB1508F0C8
:1038D000BACF22244BC0022D10E0F801EE0FFF1FDB
:1038E000EE0FFF1FE45BFC4F80809180A280B380CD
:1038F000000F111FECE16E2EE4E07E2E600E711EB3
:10390000F30160817181882777FD8095982F0E944F
:10391000422E6B017C0160E070E080E89FE3A5012E
:1039200094010E94D92C9B01AC01C701B6010E94F1
:10393000642F6B017C01005F1B4FF8016081718176
:10394000882777FD8095982F0E94422EA50194012B
:103950000E94642F9B01AC01C701B6010E94DA2CC2
:103960000E940F2EF301718360832394F5E0F2151A
:1039700008F0B1CF66243BC0E62DF0E0EE0FFF1F4C
:10398000DF01A25DBD4FED90FC9062E2862E62E009
:10399000962E8E0E9F1EE45EFB4F608171816E1924
:1039A0007F09882777FD8095982F0E94422E2091CD
:1039B000290430912A0440912B0450912C040E9438
:1039C000642F5B016C010027F7FC0095102FC801E4
:1039D000B7010E94422E9B01AC01C601B5010E94B5
:1039E000DA2C0E940F2EF401718360836394F2E05D
:1039F000F61510F623E00EC0E22FF0E0EE0FFF1FE9
:103A0000DF01A45EBB4F8D919C91EE5DFD4F9183D4
:103A100080832F5F263080F3209328048091160442
:103A2000909117048C5494400CF0A3C004EA13E066
:103A3000F80180E090E020E030E040E050E006C097
:103A40002083318342835383019674968530910598
:103A5000BCF39093460480934504809114049091A4
:103A600015048C54944054F480911605813031F43F
:103A70001092160588EE93E00E94E10E80911404E6
:103A8000909115048C5494406CF5809110049091A1
:103A900011048D56974034F18091120490911304D3
:103AA0008C549440FCF40E94D80C0E94A6110E94F1
:103AB0003411E4EAF3E080E090E020E030E040E020
:103AC00050E006C02083318342835383019674966D
:103AD00085309105BCF3909346048093450483E0C0
:103AE0000E946A0F80911404909115048D5697409E
:103AF000B4F180911605882391F5809117058130E6
:103B000071F58093160580E090E020E030E040E021
:103B100050E008C0F801208331834283538301962B
:103B20000C5E1F4F85309105ACF390934604809353
:103B300045048CE494E09093530280935202809168
:103B4000120490911304909337028093360280916F
:103B50001004909111049093350280933402809167
:103B60001404909115048D5494401CF081E08093CE
:103B70001705809116049091170405E08531900790
:103B800034F0885C9040909353028093520280916D
:103B90001604909117048C54944034F48CE494E00F
:103BA000909353028093520280911F0590912005BB
:103BB000A0912105B09122058093270590932805B7
:103BC000A0932905B0932A0580912B0590912C058F
:103BD000A0912D05B0912E058053984FAF4FBF4F48
:103BE00020911F053091200540912105509122051B
:103BF00082179307A407B50708F075C180918D025D
:103C0000813009F070C1109246041092450437C00B
:103C1000000F111FF801E15AFB4FE080F180F8011D
:103C2000EC5AFD4F80810E9449260B591B4FE81A20
:103C3000F90AF801F182E082E0914504F09146042E
:103C4000EE0FFF1FE65AFD4F80810E9449264091EA
:103C5000450450914604FA01EE0FFF1FDF01A35BFC
:103C6000BB4F2D913C91821B930BED5AFB4F9183DF
:103C700080834F5F5F4F509346044093450400910B
:103C80004504109146040330110514F205E6202E78
:103C900004E0302E19E5612E14E0712EB3E54B2EB1
:103CA000B4E05B2EA7E48A2EA4E09A2E1A8A198A21
:103CB00080C0A0904403B0904503C0904603D090CC
:103CC0004703F30160817181882777FD8095982FE4
:103CD0000E94422E7B018C0160E070E080E89FE34F
:103CE000A60195010E94D92C9B01AC01C801B70126
:103CF0000E94642F7B018C01F101619171911F0180
:103D0000882777FD8095982F0E94422EA601950165
:103D10000E94642F9B01AC01C801B7010E94DA2CFC
:103D20000E940F2EF301619371933F01A09048030D
:103D3000B0904903C0904A03D0904B03F4016081D6
:103D40007181882777FD8095982F0E94422E7B01F4
:103D50008C0160E070E080E89FE3A60195010E947D
:103D6000D92C9B01AC01C801B7010E94642F7B01D3
:103D70008C01F201619171912F01882777FD809567
:103D8000982F0E94422EA60195010E94642F9B014C
:103D9000AC01C801B7010E94DA2C0E940F2EF40179
:103DA000619371934F0109891A890F5F1F4F1A8B15
:103DB000098B29893A89233031050CF47ACF309365
:103DC000460420934504609153047091540488275D
:103DD00077FD8095982F0E94422E7B018C01609187
:103DE000570470915804882777FD8095982F0E947A
:103DF000422E9B01AC01C801B7010E944D2D8B01E1
:103E00009C01609168037091690380916A039091AD
:103E10006B034091650450916604A0908702B090B6
:103E20008802C0908902D0908A02F4E7EF2EF3E076
:103E3000FF2E0E941D0660936803709369038093B0
:103E40006A0390936B036091550470915604882720
:103E500077FD8095982F0E94422E7B018C01609106
:103E6000570470915804882777FD8095982F0E94F9
:103E7000422E9B01AC01C801B7010E944D2D8B0160
:103E80009C0160916C0370916D0380916E03909121
:103E90006F034091670450916804A0908702B0902E
:103EA0008802C0908902D0908A02E4E8EE2EE3E016
:103EB000FE2E0E941D0660936C0370936D03809329
:103EC0006E0390936F0380911F0590912005A09140
:103ED0002105B091220580932B0590932C05A0938A
:103EE0002D05B0932E058091940290919502A0919A
:103EF0009602B09197028053984FAF4FBF4F2091D9
:103F00001F0530912005409121055091220582170F
:103F10009307A407B50708F03BC280918E02813059
:103F200009F036C26091D7047091D8042091220222
:103F300030912302620F731F882777FD8095982F99
:103F40000E94422E7B018C016091590470915A04A9
:103F5000882777FD8095982F0E94422E209170022D
:103F60003091710240917202509173020E94642F4D
:103F7000209174023091750240917602509177023F
:103F80000E94DA2C9B01AC01C801B70104E913E0DF
:103F90000E94D8060E940F2E7093D0046093CF0425
:103FA00060912402709125022091D9043091DA04A5
:103FB000621B730B882777FD8095982F0E94422EF5
:103FC0007B018C0160915B0470915C04882777FD14
:103FD0008095982F0E94422E20917002309171029C
:103FE00040917202509173020E94642F20917402DA
:103FF0003091750240917602509177020E94DA2C3E
:104000009B01AC01C801B70108EA13E00E94D80681
:104010000E940F2E7093D2046093D1046091260207
:1040200070912702882777FD8095982F0E94422E55
:104030007B018C0160915D0470915E04882777FD9F
:104040008095982F0E94422E20917002309171022B
:1040500040917202509173020E94642F2091740269
:104060003091750240917602509177020E94DA2CCD
:104070009B01AC01C801B7010CEB13E00E94D8060C
:104080000E940F2EAB017093D4046093D3048091EF
:104090001605882309F4A1C080911705882309F427
:1040A0009CC02091CF043091D0048091280290913F
:1040B0002902280F391F8091D1049091D204281B26
:1040C000390B241B350B8091520290915302281713
:1040D00039073CF0C90137E0813D930714F080EDCA
:1040E00097E09093690280936802209128023091B2
:1040F00029028091D1049091D204281B390B809120
:10410000CF049091D004281B390B8091D304909157
:10411000D404280F391F809152029091530228171E
:1041200039073CF0C901E7E0213D3E0714F080ED7E
:1041300097E090936D0280936C022091D1043091AE
:10414000D2048091280290912902280F391F809172
:10415000CF049091D004280F391F8091D3049091FF
:10416000D404280F391F80915202909153022817CE
:1041700039073CF0C901F7E0213D3F0714F080ED1D
:1041800097E090936F0280936E022091D10430915A
:10419000D2048091280290912902280F391F809122
:1041A000D3049091D404281B390B8091CF049091B3
:1041B000D004281B390B809152029091530228178A
:1041C00039073CF0C90107E0213D300714F080EDCC
:1041D00097E090936B0280936A02809128029091FD
:1041E00029028C549440ECF41092D6041092D50419
:1041F00011C0F901EE0FFF1FE859FD4F80915202E7
:1042000090915302918380832F5F3F4F3093D60468
:104210002093D5042091D5043091D6042430310563
:1042200044F380911605882309F0A0C08091FF0413
:10423000833009F1853009F44BC0813009F07CC02E
:104240001092D6041092D50420ED37E00CC0FC018A
:10425000EE0FFF1FE859FD4F3183208301969093A5
:10426000D6048093D5048091D5049091D6048430EF
:1042700091056CF37BC01092D6041092D50420C037
:1042800080917C0290917D0223E0883E92071CF48D
:1042900088EE93E006C034E0813B930714F080EB96
:1042A00094E0EE0FFF1FE859FD4F918380838091CA
:1042B000D5049091D60401969093D6048093D504AA
:1042C000E091D504F091D604E430F105CCF24EC073
:1042D0001092D6041092D50424C0FD01EE0FFF1FEA
:1042E000E258FD4F0190F081E02D83E0E83EF807B1
:1042F0001CF4E8EEF3E006C094E0E13BF90714F0AB
:10430000E0EBF4E0AA0FBB1FA859BD4FED93FC935F
:104310008091D5049091D60401969093D604809311
:10432000D504A091D504B091D604A430B105ACF267
:1043300081E0809317051AC01092D6041092D5041C
:1043400028EE33E00CC0FC01EE0FFF1FE859FD4FD3
:104350003183208301969093D6048093D504809175
:10436000D5049091D604843091056CF30E94890F96
:1043700080911F0590912005A0912105B091220503
:104380008093940290939502A0939602B093970223
:104390008091900290919102A0919202B09193022B
:1043A00080569947AE4FBF4F20911F053091200591
:1043B000409121055091220582179307A407B50764
:1043C000C0F480918C028130A1F40E9412120E94EC
:1043D0000F0880911F0590912005A0912105B091B3
:1043E00022058093900290939102A0939202B09341
:1043F000930280912F0590913005A0913105B091E5
:104400003205805E914BAF4FBF4F20911F05309119
:104410002005409121055091220582179307A4079A
:10442000B50708F04EC080918F02813009F049C075
:10443000609168037091690380916A0390916B03A6
:104440000E940F2E9B01AC01265A3F4F8FEE94E045
:10445000B9010E94BC0460916C0370916D0380915E
:104460006E0390916F030E940F2E9B01AC01265AA0
:104470003F4F87EF94E0B9010E94BC04609168034C
:104480007091690380916A0390916B030E940F2ED3
:104490009B01AC01265A3F4F85E998E0B9010E9483
:1044A0001E2C80911F0590912005A0912105B091AF
:1044B000220580932F0590933005A0933105B0938A
:1044C00032050E9403058091330590913405A09137
:1044D0003505B0913605805F984DAF4FBF4F2091A5
:1044E0001F0530912005409121055091220582172A
:1044F0009307A407B50708F057C080911A058130CB
:1045000009F052C085E595E50E94E1071092460446
:104510001092450411C0EE0FFF1FEB59FB4F808135
:1045200091810E94E1078091450490914604019693
:104530009093460480934504E0914504F09146042D
:10454000E330F10544F3109246041092450411C083
:10455000EE0FFF1FED5AFB4F808191810E94E10712
:10456000809145049091460401969093460480936F
:104570004504E0914504F0914604E330F10544F32D
:104580008FEF9FE70E94E10780911F059091200522
:10459000A0912105B09122058093330590933405B5
:1045A000A0933505B09336058091980290919902B9
:1045B000A0919A02B0919B0280569947AE4FBF4F8F
:1045C00020911F0530912005409121055091220531
:1045D00082179307A407B50708F0C3C18091190596
:1045E000813009F0BEC180E00E94831B90930105D9
:1045F0008093000581E00E94831B909303058093C4
:10460000020582E00E94831B3C0190930505809384
:104610000405609168037091690380916A03909129
:104620006B0325E33AEF4EE85CE30E94642F5B01E5
:104630006C016093060570930705809308059093BD
:10464000090560916C0370916D0380916E039091E8
:104650006F0325E33AEF4EE85CE30E94642F7B0191
:104660008C01CB01D80180930A0590930B05A09390
:104670000C05B0930D05B701C8010E94A42D1B01C4
:104680002C01C601B5010E94C72F69877A878B87E5
:104690009C87B701C8010E94C72F6D837E838F83DB
:1046A0009887C601B5010E94A42D69837A838B8304
:1046B0009C836091000570910105882777FD8095A6
:1046C000982F0E94422EA20191010E94642F7B012B
:1046D0008C016091020570910305882777FD809514
:1046E000982F0E94422E6D877E878F87988B298511
:1046F0003A854B855C850E94642F2D813E814F81D8
:1047000058850E94642F9B01AC01C801B7010E942B
:10471000DA2C7B018C01882477FC8094982CC401CE
:10472000B3010E94422E1B012C0129813A814B8149
:104730005C810E94642F2D813E814F8158850E94AB
:10474000642F9B01AC01C801B7010E94D92C3B0129
:104750004C0160930E0570930F05809310059093A4
:104760001105C601B5010E94A42D7B018C01C60173
:10477000B5010E94C72F5B016C016D857E858F8519
:104780009889A80197010E94642F7B018C01C201C6
:10479000B101A60195010E94642F9B01AC01C801E3
:1047A000B7010E94DA2C6093120570931305809371
:1047B000140590931505A40193010E94A72D0E9452
:1047C000782D5B016C0121EE3EE245E652E40E9449
:1047D000642F7B018C0120E030E040E050E00E943B
:1047E000592F181654F0C601B50121EE3EE245E6F8
:1047F00052EC0E94642F7B018C01E092E304F09262
:10480000E4040093E5041093E60460910E057091B2
:104810000F05809110059091110520E030E040E0F7
:1048200050E00E94592F882304F160911205709185
:104830001305809114059091150520E030E040E0CB
:1048400050E00E94592F882384F060E070E084E3F8
:1048500093E4A80197010E94D92C6093E30470931C
:10486000E4048093E5049093E60460910E05709152
:104870000F05809110059091110520E030E040E097
:1048800050E00E94592F882334F1609112057091F5
:104890001305809114059091150520E030E040E06B
:1048A00050E00E94A02D8823B4F46091E30470913D
:1048B000E4048091E5049091E60420E030E044E3D4
:1048C00053E40E94DA2C6093E3047093E404809331
:1048D000E5049093E60460910E0570910F058091B8
:1048E00010059091110520E030E040E050E00E947A
:1048F000A02D882334F560911205709113058091E5
:1049000014059091150520E030E040E050E00E9451
:10491000A02D8823B4F460E070E084EB93E4209150
:10492000E3043091E4044091E5045091E6040E94D0
:10493000D92C6093E3047093E4048093E50490938E
:10494000E60480911F0590912005A0912105B0916A
:1049500022058093980290939902A0939A02B093B3
:104960009B0262960FB6F894DEBF0FBECDBFCF910B
:10497000DF911F910F91FF90EF90DF90CF90BF904C
:10498000AF909F908F907F906F905F904F903F90EF
:104990002F90089585E998E040E052EC61E070E0E6
:1049A0000E94702980E00E9446268FE161E00E940B
:1049B00035278BE00E9449260E94221088EE93E062
:1049C0000E94E10E0E94C81880911905813011F4EF
:1049D0000E94530D80918B02813011F40E94350D9D
:1049E0000E94F30C0E94D80C0E94A6111092D804C9
:1049F0001092D7041092DA041092D9048FEE94E04A
:104A000060E270E00E94FD0587EF94E061E270E0F3
:104A10000E94FD0560917003709171038091720393
:104A2000909173030E9437100E94742560931B05B8
:104A300070931C0580931D0590931E058FE161E026
:104A40000E9455271092170508950E94E5250E949F
:104A5000CA240E94C51BFDCF1F920F920FB60F9262
:104A600011242F933F938F939F93AF93BF93809184
:104A7000800690918106A0918206B09183063091C4
:104A800084060196A11DB11D232F2D5F2D3720F027
:104A90002D570196A11DB11D209384068093800699
:104AA00090938106A0938206B093830680917C0642
:104AB00090917D06A0917E06B0917F060196A11D82
:104AC000B11D80937C0690937D06A0937E06B093E3
:104AD0007F06BF91AF919F918F913F912F910F9042
:104AE0000FBE0F901F9018958FB7F89420918006F5
:104AF0003091810640918206509183068FBFB901A3
:104B0000CA0108956FB7F89486B590E0A0E0B0E0D0
:104B1000A89B08C00097A105B10521F480E091E0B1
:104B2000A0E0B0E020917C0630917D0640917E06A9
:104B300050917F066FBF542F432F322F2227280F0B
:104B4000391F4A1F5B1F82E0220F331F441F551F6E
:104B50008A95D1F7B901CA010895EF92FF920F9398
:104B60001F937B018C018FB7F89440918006509180
:104B7000810660918206709183068FBF2FB7F894EB
:104B80008091800690918106A0918206B091830663
:104B90002FBF841B950BA60BB70BE816F9060A0767
:104BA0001B0760F71F910F91FF90EF9008950197F9
:104BB00059F0FC01EE0FFF1FEE0FFF1F32978FB76A
:104BC000F8943197F1F78FBF0895789484B5826097
:104BD00084BD84B5816084BD85B5826085BD85B5A1
:104BE000816085BDEEE6F0E0808181608083E1E850
:104BF000F0E0808182608083808181608083E0E852
:104C0000F0E0808181608083E1EBF0E0808184606E
:104C10008083E0EBF0E0808181608083E1E9F0E077
:104C2000808182608083808181608083E1EAF0E01E
:104C3000808182608083808181608083E1E2F1E015
:104C4000808182608083808181608083E0E9F0E000
:104C5000808181608083E0EAF0E0808181608083F0
:104C6000E0E2F1E0808181608083EAE7F0E080812A
:104C70008460808380818260808380818160808382
:104C80008081806880831092C100089580939C0287
:104C90000895382F377020919C022295220F220F01
:104CA000207C232B20937C0020917B008695869589
:104CB000869590E08170907033E0880F991F3A9547
:104CC000E1F7277F282B20937B0080917A00806476
:104CD00080937A0080917A0086FDFCCF2091780045
:104CE00040917900942F80E030E0282B392BC901C6
:104CF00008951F93CF93DF93182FEB0161E00E947B
:104D00003527E12FF0E0E159FD4F8491833051F4D4
:104D100080918000806880938000D0938900C09348
:104D200088009FC0843051F480918000806280931D
:104D30008000D0938B00C0938A0093C0813041F4EF
:104D4000209709F487C084B5806884BDC7BD89C039
:104D5000823041F4209709F47DC084B5806284BD1F
:104D6000C8BD7FC0863041F48091B00080688093D8
:104D7000B000C093B30075C0873041F48091B0009B
:104D800080628093B000C093B4006BC0883051F44F
:104D900080919000806880939000D0939900C09398
:104DA00098005FC0893051F48091900080628093B8
:104DB0009000D0939B00C0939A0053C08A3051F466
:104DC00080919000886080939000D0939D00C09364
:104DD0009C0047C08B3051F48091A0008068809384
:104DE000A000D093A900C093A8003BC084918C3050
:104DF00051F48091A00080628093A000D093AB001A
:104E0000C093AA002EC08D3051F48091A00088601C
:104E10008093A000D093AD00C093AC0022C08E3030
:104E200051F480912001806880932001D093290162
:104E3000C093280116C08F3051F480912001806208
:104E400080932001D0932B01C0932A010AC0C0385F
:104E5000D1051CF4812F60E002C0812F61E00E9427
:104E60005527DF91CF911F910895282F30E0C90178
:104E7000875D9D4FFC0194912D513E4FF901849126
:104E8000882391F0E82FF0E0EE0FFF1FEB56FE4F66
:104E9000A591B491662329F48C91909589238C93E4
:104EA00008958C91892B8C930895482F50E0CA0166
:104EB00081599D4FFC012491CA01875D9D4FFC01E2
:104EC00094914D515E4FFA013491332309F477C028
:104ED000222309F462C0233021F4809180008F776F
:104EE00005C0243031F4809180008F7D8093800054
:104EF00054C0213019F484B58F7704C0223021F4D6
:104F000084B58F7D84BD49C0263021F48091B000E6
:104F10008F7705C0273031F48091B0008F7D80936A
:104F2000B0003BC0283021F4809190008F7705C0FD
:104F3000293031F4809190008F7D809390002DC0B6
:104F40002A3021F480919000877FF7CF2B3021F415
:104F50008091A0008F770BC02C3021F48091A000AD
:104F60008F7D05C02D3031F48091A000877F809324
:104F7000A00013C02E3021F4809120018F770BC048
:104F80002F3021F4809120018F7D05C0203129F43C
:104F900080912001877F80932001E32FF0E0EE0FC6
:104FA000FF1FE155FE4FA591B491662329F48C9122
:104FB000909589238C9308958C91892B8C930895D7
:104FC000682F70E0CB0181599D4FFC012491CB01EA
:104FD000875D9D4FFC0144916D517E4FFB01949183
:104FE000992319F420E030E075C0222309F462C04F
:104FF000233021F4809180008F7705C0243031F474
:10500000809180008F7D8093800054C0213019F4FE
:1050100084B58F7704C0223021F484B58F7D84BDA0
:1050200049C0263021F48091B0008F7705C0273029
:1050300031F48091B0008F7D8093B0003BC0283068
:1050400021F4809190008F7705C0293031F4809150
:1050500090008F7D809390002DC02A3021F48091A4
:105060009000877FF7CF2B3021F48091A0008F77BD
:105070000BC02C3021F48091A0008F7D05C02D3015
:1050800031F48091A000877F8093A00013C02E3060
:1050900021F4809120018F770BC02F3021F4809173
:1050A00020018F7D05C0203129F480912001877F68
:1050B00080932001892F90E0880F991F87539E4F7E
:1050C000FC01A591B4918C9120E030E0842311F093
:1050D00021E030E0C90108951F920F920FB60F92A0
:1050E0000BB60F9211242F933F934F935F936F93BF
:1050F0007F938F939F93AF93BF93EF93FF934091D1
:10510000C600E0910507F0910607CF01019660E81F
:1051100070E00E9410309C01809107079091080771
:105120002817390739F0EB57F94F408330930607BA
:1051300020930507FF91EF91BF91AF919F918F91C0
:105140007F916F915F914F913F912F910F900BBE87
:105150000F900FBE0F901F9018951F920F920FB6D1
:105160000F920BB60F9211242F933F934F935F939F
:105170006F937F938F939F93AF93BF93EF93FF931F
:105180004091CE00E0918907F0918A07CF01019606
:1051900060E870E00E9410309C0180918B07909134
:1051A0008C072817390739F0E75FF84F40833093B1
:1051B0008A0720938907FF91EF91BF91AF919F914B
:1051C0008F917F916F915F914F913F912F910F90B0
:1051D0000BBE0F900FBE0F901F9018951F920F924D
:1051E0000FB60F920BB60F9211242F933F934F934C
:1051F0005F936F937F938F939F93AF93BF93EF933F
:10520000FF934091D600E0910D08F0910E08CF0178
:10521000019660E870E00E9410309C0180910F08B8
:10522000909110082817390739F0E357F84F408359
:1052300030930E0820930D08FF91EF91BF91AF912D
:105240009F918F917F916F915F914F913F912F919E
:105250000F900BBE0F900FBE0F901F9018951F92CE
:105260000F920FB60F920BB60F9211242F933F930C
:105270004F935F936F937F938F939F93AF93BF935E
:10528000EF93FF9340913601E0919108F0919208DD
:10529000CF01019660E870E00E9410309C0180917F
:1052A0009308909194082817390739F0EF5EF74F6B
:1052B00040833093920820939108FF91EF91BF9122
:1052C000AF919F918F917F916F915F914F913F919E
:1052D0002F910F900BBE0F900FBE0F901F9018953F
:1052E0000F931F938C019A01AB01DC011896ED918D
:1052F000FC911997108260E874E88EE190E00E94BA
:1053000045302150304040405040CA01B90122E0B0
:1053100030E040E050E00E944530D8011496ED9115
:10532000FC91159730831696ED91FC911797208389
:105330001A96ED91FC911B97208141E050E0CA0143
:105340001E960C901E9702C0880F991F0A94E2F7D0
:10535000282B20831A96ED91FC911B972081CA017E
:105360001F960C901F9702C0880F991F0A94E2F7AE
:10537000282B20831A96ED91FC911B9780815096E3
:105380000C9002C0440F551F0A94E2F7842B8083CF
:105390001F910F910895DC011296ED91FC911397E6
:1053A000E058FF4F8191919180589F4F208131812A
:1053B000821B930B60E870E00E9410300895CF9339
:1053C000DF93DC011296ED91FC911397EF01CE571C
:1053D000DF4F48815981E058FF4F80819181E0582B
:1053E000F0408417950719F42FEF3FEF0CC0E40F3E
:1053F000F51F2081CA01019660E870E00E9410301C
:105400009983888330E0C901DF91CF910895FC0131
:10541000A085B18521898C9190E0022E02C09595DE
:1054200087950A94E2F780FFF6CF0484F585E02D96
:105430006083089521EA32E030939608209395081E
:1054400085E896E0909398088093970885EC90E023
:1054500090939A088093990884EC90E090939C082C
:1054600080939B0880EC90E090939E0880939D0829
:1054700081EC90E09093A00880939F0886EC90E0E8
:105480009093A2088093A108E4E0E093A30873E05E
:105490007093A40867E06093A50855E05093A608B0
:1054A00041E04093A7083093A9082093A80889E019
:1054B00097E09093AB088093AA088DEC90E09093CE
:1054C000AD088093AC088CEC90E09093AF0880938B
:1054D000AE0888EC90E09093B1088093B00889EC16
:1054E00090E09093B3088093B2088EEC90E0909394
:1054F000B5088093B408E093B6087093B70860933A
:10550000B8085093B9084093BA083093BC08209368
:10551000BB088DE897E09093BE088093BD0885EDA9
:1055200090E09093C0088093BF0884ED90E0909342
:10553000C2088093C10880ED90E09093C4088093E6
:10554000C30881ED90E09093C6088093C50886ED6E
:1055500090E09093C8088093C708E093C9087093BF
:10556000CA086093CB085093CC084093CD08309381
:10557000CF082093CE0881E198E09093D1088093E2
:10558000D00885E391E09093D3088093D20884E318
:1055900091E09093D5088093D40880E391E09093B4
:1055A000D7088093D60881E391E09093D90880933F
:1055B000D80886E391E09093DB088093DA08E093C3
:1055C000DC087093DD086093DE085093DF08409399
:1055D000E00808950F931F93CF93DF938C01EB01A5
:1055E00009C02196D801ED91FC910190F081E02D48
:1055F000C801099568816623A1F7DF91CF911F91BA
:105600000F910895EF92FF920F931F93CF93DF9323
:105610008C017B01EA010CC0D7016D917D01D8019D
:10562000ED91FC910190F081E02DC8010995219741
:10563000209791F7DF91CF911F910F91FF90EF90FD
:105640000895DC01ED91FC910190F081E02D099528
:105650000895DC01ED91FC910280F381E02D099524
:1056600008950F931F938C01DC01ED91FC91019043
:10567000F081E02D6DE00995D801ED91FC9101904C
:10568000F081E02DC8016AE009951F910F910895FE
:105690000F931F938C010E94292BC8010E94312B6C
:1056A0001F910F9108952F923F924F925F926F92A8
:1056B0007F928F929F92AF92BF92CF92DF92EF92A2
:1056C000FF920F931F93DF93CF93CDB7DEB7A097D1
:1056D0000FB6F894DEBF0FBECDBF1C016A017B017F
:1056E000411551056105710549F4DC01ED91FC910D
:1056F0000190F081E02D60E3099554C0882499243D
:105700005401422E55246624772401E010E00C0F4A
:105710001D1F080D191DC701B601A30192010E94AA
:105720002330F80160830894811C911CA11CB11CDA
:10573000C701B601A30192010E942330C901DA0119
:105740006C017D01C114D104E104F104F1F681E0A2
:10575000E82EF12CEC0EFD1EE80CF91C3E0108941D
:10576000611C711CD501C4010197A109B1096C012B
:10577000C818D90814C0F601EE0DFF1D60816A300B
:1057800010F4605D01C0695CD101ED91FC91019064
:10579000F081E02DC10109950894E108F1086E142B
:1057A0007F0449F7A0960FB6F894DEBF0FBECDBFB9
:1057B000CF91DF911F910F91FF90EF90DF90CF90ED
:1057C000BF90AF909F908F907F906F905F904F9021
:1057D0003F902F9008952AE00E94532B0895EF9256
:1057E000FF920F931F93CF93DF93EC017A018B010C
:1057F00077FF0FC0E881F9810190F081E02D6DE223
:10580000099510950095F094E094E11CF11C011DA0
:10581000111DCE01B801A7012AE00E94532BDF9190
:10582000CF911F910F91FF90EF900895AB016627E4
:1058300057FD6095762F0E94EF2B08950F931F93CD
:105840008C01AB01662757FD6095762F0E94EF2BE8
:10585000C8010E94312B1F910F910895DC01211581
:10586000310541F4ED91FC910190F081E02D642F20
:10587000099508952A30310519F40E94EF2B0895F7
:105880000E94532B08959F92AF92BF92CF92DF92C6
:10589000EF92FF920F931F93CF93DF93EC017A0166
:1058A0008B01922ECB01BA0120E030E040E050E0C5
:1058B0000E94A02D882364F4E881F9810190F08191
:1058C000E02DCE016DE2099517FB109517F91095A3
:1058D00020E030E040E05FE3AA240BC0CA01B90138
:1058E00020E030E040E251E40E94A72D9B01AC0192
:1058F000A394A91498F3C801B7010E94DA2C5B01A4
:105900006C010E94142E7B018C01CE01B801A7010D
:105910000E94EB2B992029F0CE0164E072E00E94F6
:10592000292BC801B7010E94402E9B01AC01C60182
:10593000B5010E94D92C20C020E030E040E251E4C3
:105940000E94642F7B018C010E940F2E5B016C0171
:10595000CC24B7FCC094DC2CCE01B601A5010E947A
:10596000EF2BC601B5010E94422E9B01AC01C8017C
:10597000B7010E94D92C9A949920F1F6DF91CF912A
:105980001F910F91FF90EF90DF90CF90BF90AF905D
:105990009F90089522E00E94432C08950F931F9337
:1059A0008C010E94CA2CC8010E94312B1F910F91BB
:1059B00008955058BB27AA270ED030C2F0D130F03E
:1059C000F5D120F031F49F3F11F41EF4C0C10EF464
:1059D000E095E7FBB6C1E92F43D280F3BA1762071F
:1059E00073078407950718F071F49EF55BC20EF4F7
:1059F000E0950B2EBA2FA02D0B01B90190010C01DF
:105A0000CA01A0011124FF27591B99F0593F50F4F6
:105A1000503E68F11A16F040A22F232F342F44274E
:105A2000585FF3CF469537952795A795F040539546
:105A3000C9F77EF41F16BA0B620B730B840BBAF016
:105A40009150A1F0FF0FBB1F661F771F881FC2F781
:105A50000EC0BA0F621F731F841F48F48795779595
:105A60006795B795F7959E3F08F0B3CF9395880F4C
:105A700008F09927EE0F97958795089590D158F0E3
:105A800080E891E009F49EEF91D128F040E851E0E0
:105A900059F45EEF09C05BC105C2E92FE078E0D19F
:105AA00068F3092E052AC1F3261737074807590757
:105AB00038F00E2E07F8E02569F0E025E0640AC012
:105AC000EF6307F8009407FADB01B9019D01DC01DF
:105AD000CA01AD01EF934AD0A1D10AD05F915523FD
