:100000000C942A010C9455010C9455010C94550143
:100010000C9455010C9455010C9455010C94550108
:100020000C9455010C9455010C9455010C945501F8
:100030000C9455010C9455010C9455010C945501E8
:100040000C9455010C9455010C9455010C945501D8
:100050000C9455010C9455010C9455010C94E70433
:100060000C9455010C942F070C9455010C945501D8
:100070000C9455010C9455010C9455010C945501A8
:100080000C9455010C9455010C9455010C94550198
:100090000C9470070C9455010C9455010C94550167
:1000A0000C9455010C9455010C9455010C94550178
:1000B0000C9455010C9455010C9455010C94550168
:1000C0000C9455010C9455010C9455010C94B107F6
:1000D0000C9455010C9455010C94F2070C945501A5
:1000E0000C945501084AD73B3BCE016E84BCBFFD42
:1000F000C12F3D6C74319ABD56833DDA3D00C77FF8
:1001000011BED9E4BB4C3E916BAAAABE0000008090
:100110003F05A84CCDB2D44EB93836A9020C50B91F
:10012000918688083CA6AAAA2ABE000000803F004B
:10013000002100240027002A002D00300033000198
:10014000010000040107010A010000220025002827
:10015000002B002E003100340002010000050108D0
:10016000010B01000020002300260029002C002F95
:100170000032000001000003010601090105050528
:1001800005070508080808020202020A0A0808040E
:10019000040404010101010101010103030303033C
:1001A000030303040707070C0C0C0C0C0C0C0C02CB
:1001B00002020206060606060606060B0B0B0B0BD2
:1001C0000B0B0B01021020200808102040102040CB
:1001D000800201020108040201010204081020400B
:1001E0008080402010080402018004020180402029
:1001F0001008040201080402010102040810204052
:100200008001020408102040800000090A02080B47
:100210000C0D0706030401000000000000000000B0
:1002200000000000000000000000000000000000CE
:100230000000000000100F0E000000000000000091
:1002400000000000000000000000000000000000AE
:10025000CD01A10811241FBECFEFD1E2DEBFCDBF7B
:1002600012E0A0E0B2E0E2E7FDE100E00BBF02C077
:1002700007900D92AA33B107D9F71BBE14E0AAE389
:10028000B2E001C01D92AE3CB107E1F712E0C4E557
:10029000D2E004C02297FE010E94B30EC035D10700
:1002A000C9F70E94E0040C94B70E0C9400000F9361
:1002B0001F93062F182F110F110F8FE260E00E947D
:1002C000180612601EBD0DB407FEFDCF8EB50EBD23
:1002D0000DB407FEFDCF8EB58FE261E00E941806D7
:1002E0001F910F9108950F931F93182F110F110F46
:1002F0008FE260E00E9418061C7F1EBD0DB407FE51
:10030000FDCF8EB51EBC0DB407FEFDCF1EB51EBCC5
:100310000DB407FEFDCF0EB58FE261E00E94180616
:10032000712F60E010E0602B712B882777FD80959E
:10033000982F0E949E0C1F910F9108951F93182FC4
:10034000110F110F8FE260E00E9418061EBD0DB460
:1003500007FEFDCF8EB51EBC0DB407FEFDCF1EB54A
:100360008FE261E00E941806812F1F91089584E3B7
:1003700061E00E94F80583E361E00E94F80582E3F2
:1003800060E00E94F80585E361E00E94F8051CBC6E
:1003900080E58CBD8DB58EB508958AE392E00E940C
:1003A000B701089582E894E040E052EC61E070E02B
:1003B0000E9433088DE061E00E94F8058DE061E065
:1003C0000E94180680E360E00E94F80585E361E082
:1003D0000E94F80581E361E00E94F8058EE260E08A
:1003E0000E94F8058FE261E00E94F80585E361E074
:1003F0000E94180681E360E00E9418068FE261E027
:100400000E94180668EE73E080E090E00E942F05DD
:1004100082E06DE20E94570181E063E00E94570193
:1004200083E062E00E94570168EE73E080E090E0B4
:100430000E942F0583E069E00E94570108951F93F1
:10044000182F81E361E00E94180683E090E00E948B
:10045000590581E360E00E941806113059F011300F
:1004600018F0123099F40CC081E68EBD0DB407FE71
:10047000FDCF0BC082E68EBD0DB407FEFDCF05C0DB
:1004800083E68EBD0DB407FEFDCF8EB580E30E94DE
:10049000A306892BD9F38FEF8EBD0DB407FEFDCFD8
:1004A0003EB58FEF8EBD0DB407FEFDCF2EB5932F59
:1004B00080E030E0282B392BC9011F9108952F923D
:1004C0003F924F925F926F927F928F929F92AF92E4
:1004D000BF92CF92DF92EF92FF920F931F93DF9321
:1004E000CF93CDB7DEB72C970FB6F894DEBF0FBE13
:1004F000CDBF8EE20E94A306019709F05BC081E2A6
:100500000E9473010E946B0C882777FD8095982FBD
:100510000E949E0C2DEC3CEC4CE45DE30E94C00D6F
:100520000E946B0C70935C0260935B028FE10E94EF
:100530009E01992787FD9095A92FB92F87709070FC
:10054000A070B0708093610290936202A0936302E6
:10055000B093640280E20E9473010E94700C9B01C0
:10056000AC0160935D0270935E0280935F02909392
:1005700060026091610270916202809163029091C9
:100580006402CB0177276627622B732B842B952B74
:100590000E949C0C20E030E040E85EE30E94C00D29
:1005A0000E94700C609365027093660280936702EC
:1005B0009093680282E894E060E072E00E94A809EB
:1005C00040916502509166026091670270916802E5
:1005D00082E894E02AE030E00E948A0A82E894E00F
:1005E0006BE072E00E94A80982E894E062E172E0A8
:1005F0000E94A80940915B0250915C02662757FD5A
:100600006095762F82E894E02AE030E00E948A0A22
:1006100082E894E06BE072E00E94A80985E360E064
:100620000E94180680E00E941F0290933C02809373
:100630003B0281E00E941F0290933E0280933D02A4
:1006400082E00E941F029093400280933F0285E364
:1006500061E00E94180680E00E94C80503E611E0F0
:100660009801281B390B309342022093410281E00C
:100670000E94C805081B190B109344020093430203
:1006800082E00E94C8058356914090934602809371
:100690004502AA2797FDA095BA2FBC01CD010E9463
:1006A0009E0C7B018C01609141027091420288276F
:1006B00077FD8095982F0E949E0CA80197010E94BB
:1006C000A90B5B016C0160934B0270934C02809309
:1006D0004D0290934E02609143027091440288272C
:1006E00077FD8095982F0E949E0CA80197010E948B
:1006F000A90B7B018C0160934F0270935002809391
:100700005102909352020E94000C1B012C01609137
:100710003D0270913E02882777FD8095982F0E94B8
:100720009E0C69877A878B879C87C601B5010E94DA
:10073000230E6D837E838F839887C801B7010E9443
:10074000230E3B014C0160913F02709140028827CB
:1007500077FD8095982F0E949E0C69837A838B8306
:100760009C83C601B5010E94000C5B016C01609185
:100770003B0270913C02882777FD8095982F0E945C
:100780009E0CA20191010E94C00D7B018C01698524
:100790007A858B859C852D813E814F8158850E946D
:1007A000C00DA40193010E94C00D9B01AC01C801C2
:1007B000B7010E94360B7B018C0169817A818B81A4
:1007C0009C81A60195010E94C00DA40193010E9485
:1007D000C00D9B01AC01C801B7010E94350B1B0184
:1007E0002C016093530270935402809355029093AE
:1007F000560269857A858B859C85A60195010E94A4
:10080000C00D7B018C0169817A818B819C812D8156
:100810003E814F8158850E94C00D9B01AC01C801EB
:10082000B7010E94360B3B014C0160935702709355
:1008300058028093590290935A02A20191010E949A
:10084000030C0E94D40B5B016C0121EE3EE245E6F5
:1008500052E40E94C00D7B018C0120E030E040E0BA
:1008600050E00E94B50D181654F0C601B50121EEF6
:100870003EE245E652EC0E94C00D7B018C01E09205
:100880004702F09248020093490210934A02C201C3
:10089000B10120E030E040E050E00E94B50D882337
:1008A000D4F1C401B30120E030E040E050E00E9408
:1008B000B50D882384F060E070E084E393E4A80140
:1008C00097010E94350B6093470270934802809312
:1008D000490290934A02C401B30120E030E040E0B5
:1008E00050E00E94FC0B8823B4F4609147027091A1
:1008F00048028091490290914A0220E030E044E3AE
:1009000053E40E94360B6093470270934802809331
:10091000490290934A02C201B10120E030E040E078
:1009200050E00E94FC0B882304F5C401B30120E0D1
:1009300030E040E050E00E94FC0B8823B4F460E01B
:1009400070E084EB93E4209147023091480240919B
:10095000490250914A020E94350B609347027093FE
:1009600048028093490290934A0282E894E062E24E
:1009700072E00E94A809409147025091480260919C
:10098000490270914A0282E894E00E942A0B2C9658
:100990000FB6F894DEBF0FBECDBFCF91DF911F9190
:1009A0000F91FF90EF90DF90CF90BF90AF909F900E
:1009B0008F907F906F905F904F903F902F90089511
:1009C0000E9467050E94D2010E945F02FDCF1F9224
:1009D0000F920FB60F9211242F933F938F939F93F3
:1009E000AF93BF9380916D0290916E02A0916F02C0
:1009F000B0917002309171020196A11DB11D232F9B
:100A00002D5F2D3720F02D570196A11DB11D20938C
:100A1000710280936D0290936E02A0936F02B09367
:100A200070028091690290916A02A0916B02B0916C
:100A30006C020196A11DB11D8093690290936A0218
:100A4000A0936B02B0936C02BF91AF919F918F9175
:100A50003F912F910F900FBE0F901F901895EF921E
:100A6000FF920F931F937B018C018FB7F8944091F5
:100A70006D0250916E0260916F02709170028FBF93
:100A80002FB7F89480916D0290916E02A0916F0241
:100A9000B09170022FBF841B950BA60BB70BE81605
:100AA000F9060A071B0760F71F910F91FF90EF905F
:100AB0000895019759F0FC01EE0FFF1FEE0FFF1F85
:100AC00032978FB7F8943197F1F78FBF08957894E4
:100AD00084B5826084BD84B5816084BD85B5826043
:100AE00085BD85B5816085BDEEE6F0E080818160E1
:100AF0008083E1E8F0E08081826080838081816092
:100B00008083E0E8F0E0808181608083E1EBF0E0C9
:100B1000808184608083E0EBF0E08081816080836D
:100B2000E1E9F0E080818260808380818160808360
:100B3000E1EAF0E08081826080838081816080834F
:100B4000E1E2F1E080818260808380818160808346
:100B5000E0E9F0E0808181608083E0EAF0E080817C
:100B600081608083E0E2F1E0808181608083EAE758
:100B7000F0E08081846080838081826080838081D6
:100B8000816080838081806880831092C100089595
:100B9000382F377020912F022295220F220F207CB0
:100BA000232B20937C0020917B008695869586954B
:100BB00090E08170907033E0880F991F3A95E1F7CB
:100BC000277F282B20937B0080917A00806480937C
:100BD0007A0080917A0086FDFCCF209178004091C8
:100BE0007900942F80E030E0282B392BC90108953B
:100BF000282F30E0C9018D539E4FFC01949123585A
:100C00003E4FF9018491882391F0E82FF0E0EE0F38
:100C1000FF1FE15DFE4FA591B491662329F48C91ED
:100C2000909589238C9308958C91892B8C930895AA
:100C3000482F50E0CA01875F9D4FFC012491CA01F3
:100C40008D539E4FFC01949143585E4FFA013491AD
:100C5000332309F477C0222309F462C0233021F43E
:100C6000809180008F7705C0243031F4809180001E
:100C70008F7D8093800054C0213019F484B58F7724
:100C800004C0223021F484B58F7D84BD49C0263054
:100C900021F48091B0008F7705C0273031F4809126
:100CA000B0008F7D8093B0003BC0283021F480914C
:100CB00090008F7705C0293031F4809190008F7DAE
:100CC000809390002DC02A3021F480919000877F7E
:100CD000F7CF2B3021F48091A0008F770BC02C3000
:100CE00021F48091A0008F7D05C02D3031F48091DA
:100CF000A000877F8093A00013C02E3021F4809144
:100D000020018F770BC02F3021F4809120018F7D3F
:100D100005C0203129F480912001877F8093200134
:100D2000E32FF0E0EE0FFF1FE75BFE4FA591B491BC
:100D3000662329F48C91909589238C9308958C9146
:100D4000892B8C930895682F70E0CB01875F9D4FAE
:100D5000FC012491CB018D539E4FFC0144916358BB
:100D60007E4FFB019491992319F420E030E075C087
:100D7000222309F462C0233021F4809180008F7710
:100D800005C0243031F4809180008F7D80938000F5
:100D900054C0213019F484B58F7704C0223021F477
:100DA00084B58F7D84BD49C0263021F48091B00088
:100DB0008F7705C0273031F48091B0008F7D80930C
:100DC000B0003BC0283021F4809190008F7705C09F
:100DD000293031F4809190008F7D809390002DC058
:100DE0002A3021F480919000877FF7CF2B3021F4B7
:100DF0008091A0008F770BC02C3021F48091A0004F
:100E00008F7D05C02D3031F48091A000877F8093C5
:100E1000A00013C02E3021F4809120018F770BC0E9
:100E20002F3021F4809120018F7D05C0203129F4DD
:100E300080912001877F80932001892F90E0880F87
:100E4000991F8D599E4FFC01A591B4918C9120E082
:100E500030E0842311F021E030E0C90108951F92B1
:100E60000F920FB60F920BB60F9211242F933F9350
:100E70004F935F936F937F938F939F93AF93BF93A2
:100E8000EF93FF934091C600E091F202F091F302DC
:100E9000CF01019660E870E00E944D0E9C018091A8
:100EA000F4029091F5022817390739F0EE58FD4FFA
:100EB00040833093F3022093F202FF91EF91BF91B0
:100EC000AF919F918F917F916F915F914F913F91E2
:100ED0002F910F900BBE0F900FBE0F901F90189583
:100EE0001F920F920FB60F920BB60F9211242F93F1
:100EF0003F934F935F936F937F938F939F93AF93A2
:100F0000BF93EF93FF934091CE00E0917603F09171
:100F10007703CF01019660E870E00E944D0E9C01BE
:100F200080917803909179032817390739F0EA50B6
:100F3000FD4F40833093770320937603FF91EF9129
:100F4000BF91AF919F918F917F916F915F914F91E1
:100F50003F912F910F900BBE0F900FBE0F901F90DF
:100F600018951F920F920FB60F920BB60F92112485
:100F70002F933F934F935F936F937F938F939F93A1
:100F8000AF93BF93EF93FF934091D600E091FA03A4
:100F9000F091FB03CF01019660E870E00E944D0ED6
:100FA0009C018091FC039091FD032817390739F0CB
:100FB000E658FC4F40833093FB032093FA03FF91E4
:100FC000EF91BF91AF919F918F917F916F915F91C1
:100FD0004F913F912F910F900BBE0F900FBE0F902E
:100FE0001F9018951F920F920FB60F920BB60F928B
:100FF00011242F933F934F935F936F937F938F931E
:101000009F93AF93BF93EF93FF9340913601E0918D
:101010007E04F0917F04CF01019660E870E00E94A9
:101020004D0E9C018091800490918104281739070E
:1010300039F0E250FC4F408330937F0420937E04CC
:10104000FF91EF91BF91AF919F918F917F916F91A0
:101050005F914F913F912F910F900BBE0F900FBE5C
:101060000F901F9018950F931F938C019A01AB015D
:10107000DC011896ED91FC911997108260E874E8F4
:101080008EE190E00E94820E21503040404050405E
:10109000CA01B90122E030E040E050E00E94820E37
:1010A000D8011496ED91FC91159730831696ED9129
:1010B000FC91179720831A96ED91FC911B97208144
:1010C00041E050E0CA011E960C901E9702C0880FA6
:1010D000991F0A94E2F7282B20831A96ED91FC9130
:1010E0001B972081CA011F960C901F9702C0880F82
:1010F000991F0A94E2F7282B20831A96ED91FC9110
:101100001B97808150960C9002C0440F551F0A9483
:10111000E2F7842B80831F910F910895FC01A08535
:10112000B18521898C9190E0022E02C0959587951A
:101130000A94E2F780FFF6CF0484F585E02D608302
:10114000089524E332E0309383042093820482E7FD
:1011500092E0909385048093840485EC90E09093D2
:1011600087048093860484EC90E0909389048093B4
:10117000880480EC90E090938B0480938A0481EC47
:1011800090E090938D0480938C0486EC90E0909393
:101190008F0480938E04E4E0E093900473E07093F6
:1011A000910467E06093920455E05093930441E00A
:1011B00040939404309396042093950486EF92E034
:1011C00090939804809397048DEC90E090939A0408
:1011D000809399048CEC90E090939C0480939B0402
:1011E00088EC90E090939E0480939D0489EC90E0BD
:1011F0009093A00480939F048EEC90E09093A204BF
:101200008093A104E093A3047093A4046093A504C5
:101210005093A6044093A7043093A9042093A804F4
:101220008AE793E09093AB048093AA0485ED90E065
:101230009093AD048093AC0484ED90E09093AF0460
:101240008093AE0480ED90E09093B1048093B0045D
:1012500081ED90E09093B3048093B20486ED90E02A
:101260009093B5048093B404E093B6047093B704EC
:101270006093B8045093B9044093BA043093BC040B
:101280002093BB048EEF93E09093BE048093BD0443
:1012900085E391E09093C0048093BF0484E391E0E0
:1012A0009093C2048093C10480E391E09093C404BE
:1012B0008093C30481E391E09093C6048093C504B6
:1012C00086E391E09093C8048093C704E093C90437
:1012D0007093CA046093CB045093CC044093CD0424
:1012E00008950F931F93CF93DF938C01EB0109C0F7
:1012F0002196D801ED91FC910190F081E02DC8017B
:10130000099568816623A1F7DF91CF911F910F9115
:101310000895EF92FF920F931F93CF93DF938C0169
:101320007B01EA010CC0D7016D917D01D801ED91DF
:10133000FC910190F081E02DC8010995219720973B
:1013400091F7DF91CF911F910F91FF90EF9008954A
:10135000DC01ED91FC910280F381E02D0995089567
:101360000F931F938C01DC01ED91FC910190F081B2
:10137000E02D6DE00995D801ED91FC910190F0818F
:10138000E02DC8016AE009951F910F9108952F92F1
:101390003F924F925F926F927F928F929F92AF9205
:1013A000BF92CF92DF92EF92FF920F931F93DF9342
:1013B000CF93CDB7DEB7A0970FB6F894DEBF0FBEC0
:1013C000CDBF1C016A017B01411551056105710505
:1013D00049F4DC01ED91FC910190F081E02D60E396
:1013E000099554C0882499245401422E552466241A
:1013F000772401E010E00C0F1D1F080D191DC70117
:10140000B601A30192010E94600EF8016083089466
:10141000811C911CA11CB11CC701B601A301920142
:101420000E94600EC901DA016C017D01C114D10472
:10143000E104F104F1F681E0E82EF12CEC0EFD1E42
:10144000E80CF91C3E010894611C711CD501C40113
:101450000197A109B1096C01C818D90814C0F60197
:10146000EE0DFF1D60816A3010F4605D01C0695CA3
:10147000D101ED91FC910190F081E02DC101099520
:101480000894E108F1086E147F0449F7A0960FB69E
:10149000F894DEBF0FBECDBFCF91DF911F910F91AA
:1014A000FF90EF90DF90CF90BF90AF909F908F9084
:1014B0007F906F905F904F903F902F9008952AE01B
:1014C0000E94C7090895EF92FF920F931F93CF9345
:1014D000DF93EC017A018B0177FF0FC0E881F9817E
:1014E0000190F081E02D6DE2099510950095F09442
:1014F000E094E11CF11C011D111DCE01B801A701F2
:101500002AE00E94C709DF91CF911F910F91FF90B0
:10151000EF900895DC012115310541F4ED91FC9126
:101520000190F081E02D642F099508952A3031054E
:1015300019F40E94630A08950E94C70908959F92B2
:10154000AF92BF92CF92DF92EF92FF920F931F93D1
:10155000CF93DF93EC017A018B01922ECB01BA017C
:1015600020E030E040E050E00E94FC0B882364F46F
:10157000E881F9810190F081E02DCE016DE20995BD
:1015800017FB109517F9109520E030E040E05FE37D
:10159000AA240BC0CA01B90120E030E040E251E4C6
:1015A0000E94030C9B01AC01A394A91498F3C801F9
:1015B000B7010E94360B5B016C010E94700C7B012D
:1015C0008C01CE01B801A7010E945F0A992029F081
:1015D000CE016DE272E00E94A809C801B7010E9425
:1015E0009C0C9B01AC01C601B5010E94350B20C0CB
:1015F00020E030E040E251E40E94C00D7B018C010C
:101600000E946B0C5B016C01CC24B7FCC094DC2CF9
:10161000CE01B601A5010E94630AC601B5010E9470
:101620009E0C9B01AC01C801B7010E94350B9A9436
:101630009920F1F6DF91CF911F910F91FF90EF90DC
:10164000DF90CF90BF90AF909F90089522E00E94CE
:101650009F0A08950F931F938C010E94260BC801C7
:101660000E94B0091F910F9108955058BB27AA27D7
:101670000ED030C2F0D130F0F5D120F031F49F3FE0
:1016800011F41EF4C0C10EF4E095E7FBB6C1E92FDA
:1016900043D280F3BA17620773078407950718F0DF
:1016A00071F49EF55BC20EF4E0950B2EBA2FA02DBF
:1016B0000B01B90190010C01CA01A0011124FF27FF
:1016C000591B99F0593F50F4503E68F11A16F040FA
:1016D000A22F232F342F4427585FF3CF46953795F9
:1016E0002795A795F0405395C9F77EF41F16BA0BBE
:1016F000620B730B840BBAF09150A1F0FF0FBB1F6C
:10170000661F771F881FC2F70EC0BA0F621F731FB4
:10171000841F48F4879577956795B795F7959E3F11
:1017200008F0B3CF9395880F08F09927EE0F97959F
:101730008795089590D158F080E891E009F49EEFE4
:1017400091D128F040E851E059F45EEF09C05BC147
:1017500005C2E92FE078E0D168F3092E052AC1F32C
:10176000261737074807590738F00E2E07F8E025E7
:1017700069F0E025E0640AC0EF6307F8009407FA17
:10178000DB01B9019D01DC01CA01AD01EF934AD033
:10179000A1D10AD05F91552331F02BED3FE049E410
:1017A00050FD49EC63CF0895DF93DD27B92FBF7754
:1017B00040E85FE31616170648075B0710F4D92FB9
:1017C000D8D19F938F937F936F9343D2E4EEF0E051
:1017D0001DD180D12F913F914F915F91DDD1DD23BC
:1017E00049F09058A2EA2AED3FE049EC5FE3D07857
:1017F0005D274DDFDF916EC1DCD008F481E00895F4
:1018000039D1E39578C10CD065C12CD140F023D1FA
:1018100030F021F45F3F19F0F0C05111A0C1F3C0C6
:101820007BD198F39923C9F35523B1F3951B550B3D
:10183000BB27AA2762177307840738F09F5F5F4FA3
:10184000220F331F441FAA1FA9F333D00E2E3AF0E4
:10185000E0E830D091505040E695001CCAF729D0FE
:10186000FE2F27D0660F771F881FBB1F261737074D
:101870004807AB07B0E809F0BB0B802DBF01FF277D
:1018800093585F4F2AF09E3F510568F0B6C067C17C
:101890005F3FECF3983EDCF3869577956795B795B7
:1018A000F7959F5FC9F7880F911D9695879597F9D2
:1018B0000895E1E0660F771F881FBB1F621773074B
:1018C0008407BA0720F0621B730B840BBA0BEE1F60
:1018D00088F7E095089504D06894B11140C1089547
:1018E00023D188F09F5790F0B92F9927B751A0F0D6
:1018F000D1F0660F771F881F991F1AF0BA95C9F7A4
:1019000012C0B13081F02AD1B1E0089527C1672F0C
:10191000782F8827B85F39F0B93FCCF38695779553
:101920006795B395D9F73EF490958095709561953C
:101930007F4F8F4F9F4F0895E89409C097FB3EF467
:1019400090958095709561957F4F8F4F9F4F99230C
:10195000A9F0F92F96E9BB279395F695879577958A
:101960006795B795F111F8CFFAF4BB0F11F460FF4A
:101970001BC06F5F7F4F8F4F9F4F16C0882311F0A2
:1019800096E911C0772321F09EE8872F762F05C0B6
:10199000662371F096E8862F70E060E02AF09A9551
:1019A000660F771F881FDAF7880F9695879597F946
:1019B0000895990F0008550FAA0BE0E8FEEF1616E0
:1019C0001706E807F907C0F012161306E407F50733
:1019D00098F0621B730B840B950B39F40A2661F0A7
:1019E000232B242B252B21F408950A2609F4A1404A
:1019F000A6958FEF811D811D089597F99F6780E857
:101A000070E060E008959FEF80EC0895DF93CF933E
:101A10001F930F93FF92EF92DF927B018C016894EA
:101A200005C0DA2EEF01B8D0FE01E894A59125910A
:101A3000359145915591AEF3EF0129DEFE019701F5
:101A4000A801DA9479F7DF90EF90FF900F911F9142
:101A5000CF91DF91089500240A94161617061806F0
:101A60000906089500240A941216130614060506A2
:101A70000895C9CF59D0E8F3E894EFEFBB273FE0D2
:101A800048EC5FE76B3D73078407950708F1FF2774
:101A90009F57B25A6A4D7F40894CF04032F4BE5590
:101AA0006542704F8643FF4F0894EE1F915030F00F
:101AB000BB0F661F771F881FFF1FEBCF9EE7882392
:101AC00032F0BB0F661F771F881F9A95C1F7939559
:101AD000E095C2C0092E0394000C11F4882352F043
:101AE000BB0F40F4BF2B11F460FF04C06F5F7F4F4A
:101AF0008F4F9F4F0895EF93E0FF06C0A2EA2AEDB3
:101B00003FE049EC5FEBC3DDE5DF0F90039401FCA0
:101B10009058E1E1F1E0B0C057FD9058440F551FD7
:101B200059F05F3F71F04795880F97FB991F61F05F
:101B30009F3F79F087950895121613061406551FD6
:101B4000F2CF4695F1DF08C0161617061806991F42
:101B5000F1CF86957105610508940895E894BB2737
:101B600066277727CB0197F9089523DF08F48FEFD5
:101B700008959B01AC0160E070E080E89FE343CEF4
:101B80000BD0A8CF68DF28F06DDF18F0952309F09F
:101B900034CF39CF1124E3CFBFDFA0F3959FD1F32A
:101BA000950F50E0551F629FF001729FBB27F00D0B
:101BB000B11D639FAA27F00DB11DAA1F649F662760
:101BC000B00DA11D661F829F2227B00DA11D621FAF
:101BD000739FB00DA11D621F839FA00D611D221F69
:101BE000749F3327A00D611D231F849F600D211D4D
:101BF000822F762F6A2F11249F5750408AF0E1F0F0
:101C000088234AF0EE0FFF1FBB1F661F771F881F38
:101C100091505040A9F79E3F510570F0EECE9FCFF6
:101C20005F3FECF3983EDCF3869577956795B79523
:101C3000F795E7959F5FC1F7FE2B880F911D96954D
:101C4000879597F908959F9315DF0F9007FCEE5F36
:101C500052CF9B01AC0194CF9F3F49F0915028F4A3
:101C6000869577956795B7959F5F80389F4F880FCA
:101C70009695879597F908959F938F937F936F9388
:101C8000FF93EF939B01AC017BDFEF91FF91BEDEF1
:101C90002F913F914F915F9173CF97FB092E0726AC
:101CA0000AD077FD04D049D006D000201AF47095F0
:101CB00061957F4F0895F6F7909581959F4F089510
:101CC000A1E21A2EAA1BBB1BFD010DC0AA1FBB1F40
:101CD000EE1FFF1FA217B307E407F50720F0A21BB2
:101CE000B30BE40BF50B661F771F881F991F1A941F
:101CF00069F760957095809590959B01AC01BD0149
:101D0000CF01089597FB092E05260ED057FD04D06C
:101D1000D7DF0AD0001C38F45095409530952195B6
:101D20003F4F4F4F5F4F0895F6F790958095709510
:101D300061957F4F8F4F9F4F0895AA1BBB1B51E1A9
:101D400007C0AA1FBB1FA617B70710F0A61BB70B2B
:101D5000881F991F5A95A9F780959095BC01CD01D0
:101D60000895EE0FFF1F0590F491E02D0994F8946B
:021D7000FFCFA3
:101D72005072657373757265205B005D20202020B0
:101D8200200054656D706572617475726520432020
:101D92005B0048656164696E67203D20002E00018A
:0A1DA200000000008E087109890995
:00000001FF
