:100000000C9462000C948A000C948A000C94610297
:100010000C943C020C9417020C948A000C948A00F5
:100020000C948A000C948A000C948A000C948A0028
:100030000C948A000C948A000C948A000C948A0018
:100040000C9455040C948A000C9486020C948A003B
:100050000C948A000C948A000C948A000C948A00F8
:100060000C948A000C948A000000000024002700F1
:100070002A0000000000250028002B0000000000DE
:1000800023002600290004040404040404040202DA
:100090000202020203030303030301020408102007
:1000A0004080010204081020010204081020000012
:1000B0000007000201000003040600000000000029
:1000C00000003F0311241FBECFEFD8E0DEBFCDBF3D
:1000D00011E0A0E0B1E0E8E8FBE002C005900D927D
:1000E000A832B107D9F712E0A8E2B1E001C01D9231
:1000F000A63FB107E1F710E0C4ECD0E004C02297BE
:10010000FE010E94BE05C23CD107C9F70E949201C0
:100110000C94C2050C9400000E94C5046093280151
:100120007093290180932A0190932B0120912C0137
:1001300030912D0140912E0150912F012C5E3F4FA7
:100140004F4F5F4F261737074807590708F093C0EE
:10015000109230014DC0F0E0EE0FFF1FEB5EFE4F3E
:100160008081682F70E0CB01880F991F860F971F41
:10017000880F991F880F991FFC01EB5CFE4F2081AF
:10018000318142815381FC01EF5CFE4F808191817E
:10019000A281B381281B390BC901875B93408B5423
:1001A000944038F4C901A0E0B0E080879187A2872D
:1001B000B387FB01EE0FFF1FE60FF71FEE0FFF1FC8
:1001C000EE0FFF1FEF5CFE4F208531854285538582
:1001D00088ED92E0B9010E94410488ED92E060E070
:1001E00071E00E947603809130018F5F809330012F
:1001F000E0913001E53008F4AECF80911F01682F07
:1002000070E0CB01880F991F860F971F880F991FE9
:10021000880F991FFC01EB5CFE4F208131814281E8
:100220005381FC01EF5CFE4F80819181A281B381FB
:10023000281B390BC901875B93408B54944038F4D9
:10024000C901A0E0B0E080879187A287B387FB0156
:10025000EE0FFF1FE60FF71FEE0FFF1FEE0FFF1F42
:10026000EF5CFE4F208531854285538588ED92E015
:10027000B9010E9447040895CF93DF9388ED92E07F
:1002800040E052EC61E070E00E94C3021092300145
:10029000C1E0D0E035C060E00E943805E091300157
:1002A000F0E0EE0FFF1FE75FFE4FE0812E2F30E002
:1002B000C90186569F4FFC0194912A573F4FF9017F
:1002C00024912223C1F0225030E0F901EE0FFF1FEC
:1002D000ED5FFE4F0190F081E02D8081892B8083BE
:1002E00080916800AE0102C0440F551F2A95E2F7C5
:1002F000842B80936800809130018F5F8093300160
:1003000080913001863008F4C6CF0E94C504609306
:100310002C0170932D0180932E0190932F01DF917A
:10032000CF9108950E94FE040E943C010E948C001F
:10033000FDCF8F929F92AF92BF92CF92DF92EF92BA
:10034000FF920F931F93CF93DF93C82FD0E0CE017E
:10035000880F991F80589F4FFC01A591B4918C91F3
:100360008E010F5A1D4FF801F080F8268083FE01A0
:10037000EE0FFF1FED5FFE4F0190F081E02D8081B9
:10038000F82209F447C00E94D3045B016C01CE013E
:10039000880F880F880FE82EA0E0B0E021E0822EC1
:1003A000912C6F2D70E0E801C4010A2E02C0880F65
:1003B000991F0A94E2F7482F50E0CA018623972339
:1003C000892B21F12E2D2A0F888190E04823592373
:1003D00030E0452B61F0F901EE0FFF1FE20FF31F34
:1003E000EE0FFF1FEE0FFF1FEF5CFE4F0BC0F9017A
:1003F000EE0FFF1FE20FF31FEE0FFF1FEE0FFF1FA9
:10040000EB5CFE4FA082B182C282D3821196A830EB
:10041000B10551F6DF91CF911F910F91FF90EF90B1
:10042000DF90CF90BF90AF909F908F9008951F92D4
:100430000F920FB60F9211242F933F934F935F9318
:100440006F937F938F939F93AF93BF93EF93FF939C
:1004500082E00E949901FF91EF91BF91AF919F912E
:100460008F917F916F915F914F913F912F910F905D
:100470000FBE0F901F9018951F920F920FB60F92FC
:1004800011242F933F934F935F936F937F938F9399
:100490009F93AF93BF93EF93FF9381E00E949901E5
:1004A000FF91EF91BF91AF919F918F917F916F914C
:1004B0005F914F913F912F910F900FBE0F901F9022
:1004C00018951F920F920FB60F9211242F933F93FE
:1004D0004F935F936F937F938F939F93AF93BF934C
:1004E000EF93FF9380E00E949901FF91EF91BF91FC
:1004F000AF919F918F917F916F915F914F913F91BC
:100500002F910F900FBE0F901F9018951F920F9272
:100510000FB60F9211242F933F934F935F936F93D6
:100520007F938F939F93AF93BF93EF93FF934091EC
:10053000C600E091D402F091D502CF01019660E8A7
:1005400070E00E9458059C018091D6029091D702DC
:100550002817390739F0EC5AFD4F40833093D50204
:100560002093D402FF91EF91BF91AF919F918F9112
:100570007F916F915F914F913F912F910F900FBE9F
:100580000F901F901895AF92BF92CF92DF92EF928B
:10059000FF920F931F93CF93DF936C017A018B012E
:1005A000DC011496AD90BC901597CB01BA0122E006
:1005B00030E040E050E00E948D05205C3D4B404F14
:1005C0005F4FCA01B901A80197010E948D05C901B9
:1005D000DA010197A109B109292F3A2F4B2F55278D
:1005E00047FD5A950196A11DB11DE5012883E6013D
:1005F000EE81FF8181508083EA85FB85208141E087
:1006000050E0CA010E8402C0880F991F0A94E2F7D5
:10061000282B2083EA85FB852081CA010F8402C034
:10062000880F991F0A94E2F7282B2083EA85FB851F
:100630008081088802C0440F551F0A94E2F7842B7A
:100640008083DF91CF911F910F91FF90EF90DF900A
:10065000CF90BF90AF900895FC01A085B18521890E
:100660008C9190E0022E02C0959587950A94E2F74E
:1006700080FFF6CF0484F585E02D6083089585E240
:1006800091E09093D9028093D80284E592E0909310
:10069000DB028093DA0285EC90E09093DD02809398
:1006A000DC0284EC90E09093DF028093DE0280EC29
:1006B00090E09093E1028093E00281EC90E09093CF
:1006C000E3028093E20286EC90E09093E50280934F
:1006D000E40284E08093E60283E08093E70287E00F
:1006E0008093E80285E08093E90208950F931F93B9
:1006F000CF93DF938C01EB0109C02196D801ED91D6
:10070000FC910190F081E02DC80109956881662374
:10071000A1F7DF91CF911F910F9108950F931F9330
:100720008C01DC01ED91FC910190F081E02D6DE0F8
:100730000995D801ED91FC910190F081E02DC8015F
:100740006AE009951F910F9108952F923F924F9261
:100750005F926F927F928F929F92AF92BF92CF9251
:10076000DF92EF92FF920F931F93DF93CF93CDB75A
:10077000DEB7A0970FB6F894DEBF0FBECDBF1C0149
:100780006A017B01411551056105710549F4DC01E0
:10079000ED91FC910190F081E02D60E3099554C04A
:1007A000882499245401422E55246624772401E09C
:1007B00010E00C0F1D1F080D191DC701B601A30184
:1007C00092010E946B05F80160830894811C911CC2
:1007D000A11CB11CC701B601A30192010E946B05C7
:1007E000C901DA016C017D01C114D104E104F104F5
:1007F000F1F681E0E82EF12CEC0EFD1EE80CF91C60
:100800003E010894611C711CD501C4010197A10926
:10081000B1096C01C818D90814C0F601EE0DFF1D0E
:1008200060816A3010F4605D01C0695CD101ED91B6
:10083000FC910190F081E02DC10109950894E10837
:10084000F1086E147F0449F7A0960FB6F894DEBF46
:100850000FBECDBFCF91DF911F910F91FF90EF9011
:10086000DF90CF90BF90AF909F908F907F906F90D0
:100870005F904F903F902F9008952AE00E94A5032B
:100880000895AB0160E070E00E943D0408950F936D
:100890001F938C01AB0160E070E00E943D04C80131
:1008A0000E948E031F910F9108951F920F920FB611
:1008B0000F9211242F938F939F93AF93BF938091A7
:1008C000EA029091EB02A091EC02B091ED02019648
:1008D000A11DB11D8093EA029093EB02A093EC025C
:1008E000B093ED028091EE029091EF02A091F002A0
:1008F000B091F1028050904CAF4FBF4F8093EE0209
:100900009093EF02A093F002B093F10227C0809180
:10091000EE029091EF02A091F002B091F1028058A6
:100920009E43A040B0408093EE029093EF02A093CC
:10093000F002B093F1028091F2029091F302A09143
:10094000F402B091F5020196A11DB11D8093F2024F
:100950009093F302A093F402B093F5028091EE021B
:100960009091EF02A091F002B091F10281589E4364
:10097000A040B04060F6BF91AF919F918F912F91B1
:100980000F900FBE0F901F9018958FB7F89420917D
:10099000F2023091F3024091F4025091F5028FBFC0
:1009A000B901CA0108956FB7F89486B590E0A0E048
:1009B000B0E0A89B08C00097A105B10521F480E034
:1009C00091E0A0E0B0E02091EA023091EB0240918A
:1009D000EC025091ED026FBF542F432F322F22278C
:1009E000280F391F4A1F5B1F82E0220F331F441F4D
:1009F000551F8A95D1F7B901CA010895789484B535
:100A0000826084BD84B5816084BD85B5826085BD0A
:100A100085B5816085BDEEE6F0E0808181608083F0
:100A2000E1E8F0E080818260808380818160808362
:100A3000E0E8F0E0808181608083E1EBF0E080819C
:100A400084608083E0EBF0E0808181608083EAE76E
:100A5000F0E08081846080838081826080838081F7
:100A6000816080838081806880831092C1000895B6
:100A7000282F30E0C90186569F4FFC0194912A57D8
:100A80003F4FF9018491882391F0E82FF0E0EE0FB9
:100A9000FF1FE859FF4FA591B491662329F48C916B
:100AA000909589238C9308958C91892B8C9308952C
:100AB00097FB092E07260AD077FD04D049D006D02F
:100AC00000201AF4709561957F4F0895F6F7909580
:100AD00081959F4F0895A1E21A2EAA1BBB1BFD0111
:100AE0000DC0AA1FBB1FEE1FFF1FA217B307E4070D
:100AF000F50720F0A21BB30BE40BF50B661F771F65
:100B0000881F991F1A9469F7609570958095909544
:100B10009B01AC01BD01CF01089597FB092E05266D
:100B20000ED057FD04D0D7DF0AD0001C38F4509502
:100B30004095309521953F4F4F4F5F4F0895F6F701
:100B400090958095709561957F4F8F4F9F4F089539
:100B5000AA1BBB1B51E107C0AA1FBB1FA617B707E3
:100B600010F0A61BB70B881F991F5A95A9F78095FF
:100B70009095BC01CD010895EE0FFF1F0590F491F3
:080B8000E02D0994F894FFCF69
:100B88002C20006B006C006D0002000500060004BC
:100B980000070008001200150016001400170000D6
:080BA80000000000002C030016
:00000001FF
