:100000000C9403010C942E010C942E010C942E01DF
:100010000C942E010C942E010C942E010C942E01A4
:100020000C942E010C942E010C942E010C942E0194
:100030000C942E010C942E010C942E010C942E0184
:100040000C942E010C942E010C942E010C942E0174
:100050000C942E010C942E010C942E010C947E0213
:100060000C942E010C9488040C942E010C942E01F7
:100070000C942E010C942E010C942E010C942E0144
:100080000C942E010C942E010C942E010C942E0134
:100090000C94C9040C942E010C942E010C942E0186
:1000A0000C942E010C942E010C942E010C942E0114
:1000B0000C942E010C942E010C942E010C942E0104
:1000C0000C942E010C942E010C942E010C940A0514
:1000D0000C942E010C942E010C944B050C942E01C3
:1000E0000C942E0100002100240027002A002D007E
:1000F0003000330001010000040107010A01000083
:100100002200250028002B002E00310034000201BF
:100110000000050108010B0100002000230026005B
:1001200029002C002F00320000010000030106010D
:10013000090105050505070508080808020202026D
:100140000A0A080804040404010101010101010173
:100150000303030303030303040707070C0C0C0C3E
:100160000C0C0C0C02020202060606060606060627
:100170000B0B0B0B0B0B0B0B0102102020080810B4
:100180002040102040800201020108040201010207
:1001900004081020408080402010080402018004E0
:1001A000020180402010080402010804020101023B
:1001B0000408102040800102040810204080000044
:1001C000090A02080B0C0D070603040100000000D9
:1001D000000000000000000000000000000000001F
:1001E00000000000000000000000100F0E000000E2
:1001F00000000000000000000000000000000000FF
:1002000000000000FA0511241FBECFEFD1E2DEBFCF
:10021000CDBF12E0A0E0B2E0EAE1F3E100E00BBF05
:1002200002C007900D92AC34B107D9F71BBE14E0A1
:10023000ACE4B2E001C01D92AF3BB107E1F712E0C0
:10024000C6E0D2E004C02297FE010E948709C430B4
:10025000D107C9F70E9477020C948B090C94000017
:100260000F931F93062F182F110F110F12608FE29B
:1002700060E00E9471031EBD0DB407FEFDCF8EB578
:100280000EBD0DB407FEFDCF8EB58FE261E00E947A
:1002900071031F910F9108950F931F93182F110F42
:1002A000110F8FE260E00E9471031EBD0DB407FEC6
:1002B000FDCF8EB51EBC0DB407FEFDCF1EB51EBC16
:1002C0000DB407FEFDCF0EB58FE261E00E94710311
:1002D000712F60E010E0602B712B882777FD8095EF
:1002E000982F0E9432081F910F9108951F93182F85
:1002F0008FE260E00E947103110F110F1EBD0DB45B
:1003000007FEFDCF8EB51EBC0DB407FEFDCF1EB59A
:100310008FE261E00E947103812F1F91089581E2B5
:100320000E944C010E94FF07882777FD8095982F37
:100330000E9432082DEC3CEC4CE45DE30E94BE08C8
:100340000E94FF0770934D0260934C028FE10E9460
:100350007601992787FD9095A92FB92F8770907006
:10036000A070B0708093520290935302A0935402F5
:10037000B093550280E20E944C010E9404089B0148
:10038000AC0160934E0270934F02809350029093A1
:1003900051026091520270915302809154029091E7
:1003A0005502CB0177276627622B732B842B952B65
:1003B0000E94300820E030E040E85EE30E94BE0882
:1003C0000E9404086093560270935702809358026B
:1003D0009093590283E794E060E072E00E94010785
:1003E0004091560250915702609158027091590203
:1003F00083E794E02AE030E00E94EA0783E794E094
:100400006BE072E00E94200783E794E06DE072E009
:100410000E94010740914C0250914D02662757FD02
:100420006095762F83E794E02AE030E00E94EA07A7
:1004300083E794E06BE072E00E9420078EE20E9466
:10044000FC03892BD9F308950F931F9383E361E095
:100450000E94510382E360E00E94510384E361E063
:100460000E94510385E361E00E9451038EE260E047
:100470000E9451038FE261E00E94510385E361E035
:100480000E9471038FE261E00E94710383E58CBDDD
:100490008DB58EB503E714E0C80140E052EC61E091
:1004A00070E00E948C0564EF71E080E090E00E94B3
:1004B000C602C80166E172E00E94200782E06DE298
:1004C0000E94300181E063E00E94300183E062E03D
:1004D0000E94300168EE73E080E090E00E94C60266
:1004E00083E069E00E9430011F910F9108950E94FE
:1004F000F0020E9424020E948F01FDCF1F920F92F2
:100500000FB60F9211242F933F938F939F93AF9326
:10051000BF9380915E0290915F02A0916002B091C2
:100520006102309162020196A11DB11D232F2D5F42
:100530002D3720F02D570196A11DB11D2093620289
:1005400080935E0290935F02A0936002B093610279
:1005500080915A0290915B02A0915C02B0915D0281
:100560000196A11DB11D80935A0290935B02A09346
:100570005C02B0935D02BF91AF919F918F913F91CB
:100580002F910F900FBE0F901F901895EF92FF9232
:100590000F931F937B018C018FB7F89440915E02FB
:1005A00050915F0260916002709161028FBF2FB71E
:1005B000F89480915E0290915F02A0916002B091E8
:1005C00061022FBF841B950BA60BB70BE816F9062B
:1005D0000A071B0760F71F910F91FF90EF90089596
:1005E000789484B5826084BD84B5816084BD85B50E
:1005F000826085BD85B5816085BDEEE6F0E08081D5
:1006000081608083E1E8F0E0808182608083808186
:1006100081608083E0E8F0E0808181608083E1EBAD
:10062000F0E0808184608083E0EBF0E08081816095
:100630008083E1E9F0E08081826080838081816055
:100640008083E1EAF0E08081826080838081816044
:100650008083E1E2F1E0808182608083808181603B
:100660008083E0E9F0E0808181608083E0EAF0E06F
:10067000808181608083E0E2F1E08081816080831D
:10068000EAE7F0E0808184608083808182608083FB
:100690008081816080838081806880831092C10026
:1006A0000895282F30E0C90188589E4FFC0194918D
:1006B0002E5C3E4FF9018491882391F0E82FF0E001
:1006C000EE0FFF1FEC51FF4FA591B491662329F463
:1006D0008C91909589238C9308958C91892B8C9380
:1006E0000895482F50E0CA0182549E4FFC01249186
:1006F000CA0188589E4FFC0194914E5C5E4FFA01EE
:100700003491332309F477C0222309F462C02330E3
:1007100021F4809180008F7705C0243031F48091DE
:1007200080008F7D8093800054C0213019F484B5FF
:100730008F7704C0223021F484B58F7D84BD49C0F9
:10074000263021F48091B0008F7705C0273031F436
:100750008091B0008F7D8093B0003BC0283021F4A1
:10076000809190008F7705C0293031F480919000FE
:100770008F7D809390002DC02A3021F480919000CD
:10078000877FF7CF2B3021F48091A0008F770BC0AB
:100790002C3021F48091A0008F7D05C02D3031F4E4
:1007A0008091A000877F8093A00013C02E3021F499
:1007B000809120018F770BC02F3021F48091200190
:1007C0008F7D05C0203129F480912001877F80939F
:1007D0002001E32FF0E0EE0FFF1FE250FF4FA59145
:1007E000B491662329F48C91909589238C93089574
:1007F0008C91892B8C930895682F70E0CB018254E3
:100800009E4FFC012491CB0188589E4FFC014491DE
:100810006E5C7E4FFB019491992319F420E030E047
:1008200075C0222309F462C0233021F48091800036
:100830008F7705C0243031F4809180008F7D8093C4
:10084000800054C0213019F484B58F7704C0223061
:1008500021F484B58F7D84BD49C0263021F4809178
:10086000B0008F7705C0273031F48091B0008F7DC4
:100870008093B0003BC0283021F4809190008F77A6
:1008800005C0293031F4809190008F7D80939000D5
:100890002DC02A3021F480919000877FF7CF2B3034
:1008A00021F48091A0008F770BC02C3021F480912F
:1008B000A0008F7D05C02D3031F48091A000877F8E
:1008C0008093A00013C02E3021F4809120018F77F7
:1008D0000BC02F3021F4809120018F7D05C0203185
:1008E00029F480912001877F80932001892F90E057
:1008F000880F991F885E9E4FFC01A591B4918C9141
:1009000020E030E0842311F021E030E0C9010895B7
:100910001F920F920FB60F920BB60F9211242F93C6
:100920003F934F935F936F937F938F939F93AF9377
:10093000BF93EF93FF934091C600E091E302F091E3
:10094000E402CF01019660E870E00E9421099C0159
:100950008091E5029091E6022817390739F0ED59A8
:10096000FD4F40833093E4022093E302FF91EF9127
:10097000BF91AF919F918F917F916F915F914F91B7
:100980003F912F910F900BBE0F900FBE0F901F90B5
:1009900018951F920F920FB60F920BB60F9211245B
:1009A0002F933F934F935F936F937F938F939F9377
:1009B000AF93BF93EF93FF934091CE00E091670315
:1009C000F0916803CF01019660E870E00E94210970
:1009D0009C018091690390916A032817390739F0C7
:1009E000E951FD4F40833093680320936703FF91E3
:1009F000EF91BF91AF919F918F917F916F915F9197
:100A00004F913F912F910F900BBE0F900FBE0F9003
:100A10001F9018951F920F920FB60F920BB60F9260
:100A200011242F933F934F935F936F937F938F93F3
:100A30009F93AF93BF93EF93FF934091D600E091C4
:100A4000EB03F091EC03CF01019660E870E00E94A7
:100A500021099C018091ED039091EE03281739073D
:100A600039F0E559FC4F40833093EC032093EB03BE
:100A7000FF91EF91BF91AF919F918F917F916F9176
:100A80005F914F913F912F910F900BBE0F900FBE32
:100A90000F901F9018951F920F920FB60F920BB6E2
:100AA0000F9211242F933F934F935F936F937F93F4
:100AB0008F939F93AF93BF93EF93FF934091360132
:100AC000E0916F04F0917004CF01019660E870E04E
:100AD0000E9421099C018091710490917204281751
:100AE000390739F0E151FC4F408330937004209373
:100AF0006F04FF91EF91BF91AF919F918F917F9183
:100B00006F915F914F913F912F910F900BBE0F907E
:100B10000FBE0F901F9018950F931F938C019A0191
:100B2000AB01DC011896ED91FC911997108260E8F9
:100B300074E88EE190E00E94560921503040404018
:100B40005040CA01B90122E030E040E050E00E948C
:100B50005609D8011496ED91FC911597308316969D
:100B6000ED91FC91179720831A96ED91FC911B97BC
:100B7000208141E050E0CA011E960C901E9702C0F1
:100B8000880F991F0A94E2F7282B20831A96ED917B
:100B9000FC911B972081CA011F960C901F9702C0E1
:100BA000880F991F0A94E2F7282B20831A96ED915B
:100BB000FC911B97808150960C9002C0440F551FEA
:100BC0000A94E2F7842B80831F910F910895FC0112
:100BD000A085B18521898C9190E0022E02C0959567
:100BE00087950A94E2F780FFF6CF0484F585E02D1F
:100BF0006083089526E432E03093740420937304F4
:100C000083E692E0909376048093750485EC90E0FF
:100C1000909378048093770484EC90E090937A0426
:100C20008093790480EC90E090937C0480937B0423
:100C300081EC90E090937E0480937D0486EC90E0BC
:100C40009093800480937F04E4E0E093810473E058
:100C50007093820467E06093830455E050938404AA
:100C600041E040938504309387042093860487EE07
:100C700092E090938904809388048DEC90E09093A7
:100C80008B0480938A048CEC90E090938D04809385
:100C90008C0488EC90E090938F0480938E0489EC10
:100CA00090E090939104809390048EEC90E0909368
:100CB000930480939204E09394047093950460935A
:100CC0009604509397044093980430939A04209389
:100CD00099048BE693E090939C0480939B0485EDAC
:100CE00090E090939E0480939D0484ED90E0909317
:100CF000A00480939F0480ED90E09093A2048093E1
:100D0000A10481ED90E09093A4048093A30486ED68
:100D100090E09093A6048093A504E093A7047093B9
:100D2000A8046093A9045093AA044093AB043093A1
:100D3000AD042093AC048FEE93E09093AF048093C6
:100D4000AE0485E391E09093B1048093B00484E312
:100D500091E09093B3048093B20480E391E0909388
:100D6000B5048093B40481E391E09093B704809339
:100D7000B60486E391E09093B9048093B804E093BD
:100D8000BA047093BB046093BC045093BD044093B9
:100D9000BE0408950F931F93CF93DF938C01EB0153
:100DA00009C02196D801ED91FC910190F081E02DD0
:100DB000C801099568816623A1F7DF91CF911F9142
:100DC0000F910895EF92FF920F931F93CF93DF93AC
:100DD0008C017B01EA010CC0D7016D917D01D80126
:100DE000ED91FC910190F081E02DC80109952197CA
:100DF000209791F7DF91CF911F910F91FF90EF9086
:100E00000895DC01ED91FC910280F381E02D0995BC
:100E100008950F931F938C01DC01ED91FC910190DB
:100E2000F081E02D6DE00995D801ED91FC910190E4
:100E3000F081E02DC8016AE009951F910F91089596
:100E40000F931F938C010E940107C8010E9409079C
:100E50001F910F9108952F923F924F925F926F9240
:100E60007F928F929F92AF92BF92CF92DF92EF923A
:100E7000FF920F931F93DF93CF93CDB7DEB7A09769
:100E80000FB6F894DEBF0FBECDBF1C016A017B0117
:100E9000411551056105710549F4DC01ED91FC91A5
:100EA0000190F081E02D60E3099554C088249924D5
:100EB0005401422E55246624772401E010E00C0FE3
:100EC0001D1F080D191DC701B601A30192010E9443
:100ED0003409F80160830894811C911CA11CB11C89
:100EE000C701B601A30192010E943409C901DA01C8
:100EF0006C017D01C114D104E104F104F1F681E03B
:100F0000E82EF12CEC0EFD1EE80CF91C3E010894B5
:100F1000611C711CD501C4010197A109B1096C01C3
:100F2000C818D90814C0F601EE0DFF1D60816A30A3
:100F300010F4605D01C0695CD101ED91FC910190FC
:100F4000F081E02DC10109950894E108F1086E14C3
:100F50007F0449F7A0960FB6F894DEBF0FBECDBF51
:100F6000CF91DF911F910F91FF90EF90DF90CF9085
:100F7000BF90AF909F908F907F906F905F904F90B9
:100F80003F902F900895EF92FF920F931F93CF936E
:100F9000DF93EC017A018B0177FF0FC0E881F981C3
:100FA0000190F081E02D6DE2099510950095F09487
:100FB000E094E11CF11C011D111DCE01B801A70137
:100FC0002AE00E942B07DF91CF911F910F91FF9094
:100FD000EF900895DC012115310541F4ED91FC916C
:100FE0000190F081E02D642F099508952A30310594
:100FF00019F40E94C30708950E942B07089504D096
:101000006894B111B5C0089598D088F09F5790F0BA
:10101000B92F9927B751A0F0D1F0660F771F881F1D
:10102000991F1AF0BA95C9F712C0B13081F09FD05C
:10103000B1E008959CC0672F782F8827B85F39F0FA
:10104000B93FCCF3869577956795B395D9F73EF47C
:1010500090958095709561957F4F8F4F9F4F089524
:10106000E89409C097FB3EF4909580957095619542
:101070007F4F8F4F9F4F9923A9F0F92F96E9BB27F8
:101080009395F695879577956795B795F111F8CF74
:10109000FAF4BB0F11F460FF1BC06F5F7F4F8F4FDF
:1010A0009F4F16C0882311F096E911C0772321F0D5
:1010B0009EE8872F762F05C0662371F096E8862F6D
:1010C00070E060E02AF09A95660F771F881FDAF7C4
:1010D000880F9695879597F9089597F99F6780E807
:1010E00070E060E008959FEF80EC089500240A947A
:1010F0001616170618060906089500240A941216F3
:101100001306140605060895092E0394000C11F425
:10111000882352F0BB0F40F4BF2B11F460FF04C0D2
:101120006F5F7F4F8F4F9F4F089557FD9058440F2B
:10113000551F59F05F3F71F04795880F97FB991F36
:1011400061F09F3F79F087950895121613061406F3
:10115000551FF2CF4695F1DF08C016161706180680
:10116000991FF1CF86957105610508940895E8945B
:10117000BB2766277727CB0197F908950BD0C4CFFB
:10118000B5DF28F0BADF18F0952309F0A6CFABCF72
:101190001124EECFCADFA0F3959FD1F3950F50E055
:1011A000551F629FF001729FBB27F00DB11D639F19
:1011B000AA27F00DB11DAA1F649F6627B00DA11DBF
:1011C000661F829F2227B00DA11D621F739FB00D65
:1011D000A11D621F839FA00D611D221F749F3327D5
:1011E000A00D611D231F849F600D211D822F762F6E
:1011F0006A2F11249F5750408AF0E1F088234AF06B
:10120000EE0FFF1FBB1F661F771F881F91505040B6
:10121000A9F79E3F510570F060CFAACF5F3FECF376
:10122000983EDCF3869577956795B795F795E795A2
:101230009F5FC1F7FE2B880F911D9695879597F9B3
:10124000089597FB092E07260AD077FD04D049D0D0
:1012500006D000201AF4709561957F4F0895F6F737
:10126000909581959F4F0895A1E21A2EAA1BBB1B52
:10127000FD010DC0AA1FBB1FEE1FFF1FA217B30762
:10128000E407F50720F0A21BB30BE40BF50B661F78
:10129000771F881F991F1A9469F76095709580953C
:1012A00090959B01AC01BD01CF01089597FB092EDC
:1012B00005260ED057FD04D0D7DF0AD0001C38F425
:1012C00050954095309521953F4F4F4F5F4F089572
:1012D000F6F790958095709561957F4F8F4F9F4F52
:1012E0000895AA1BBB1B51E107C0AA1FBB1FA6176D
:1012F000B70710F0A61BB70B881F991F5A95A9F7BF
:1013000080959095BC01CD010895EE0FFF1F0590CB
:0A131000F491E02D0994F894FFCF4A
:10131A005052455353555245205B005D0054454D8C
:10132A00502043205B00496E697469616C697A6573
:10133A00204869676820537065656420436F6E733F
:10134A0074616E742052656164696E67204D6F64C2
:0C135A00650000000000E705CA06E2067E
:00000001FF
