:100000000C9477000C949F000C949F000C949F001C
:100010000C949F000C949F000C949F000C949F00E4
:100020000C949F000C949F000C949F000C94A100D2
:100030000C949F000C949F000C949F000C949F00C4
:100040000C949F000C949F000C9466020C949F00EB
:100050000C949F000C949F000C949F000C949F00A4
:100060000C949F000C949F000C949F000C949F0094
:100070000C949F000C949F000C949F000021242757
:100080002A002225282B0020232629020202020210
:10009000020202040404040404040403030303032B
:1000A0000303030101010101010101010204081020
:1000B0002040800102040810204080010204081042
:1000C000204080804020100804020100000001024E
:1000D000000000000000000403070600000000000C
:1000E000000000000000000000000000FA011124E0
:1000F0001FBECFEFD0E1DEBFCDBF11E0A0E0B1E089
:10010000E6E5F7E002C005900D92A030B107D9F7FF
:1001100011E0A0E0B1E001C01D92A138B107E1F704
:1001200010E0CEEED0E004C02297FE010E94A503AD
:10013000CC3ED107C9F70E945F020C94A9030C942E
:1001400000001F920F920FB60F9211242F933F932E
:100150008F939F93AF93BF93EF93FF938091300161
:10016000909131014A969093310180933001209112
:10017000300130913101E0912801F0912901808115
:1001800091812817390750F15F9A1092310110922E
:100190003001A0912C01B0912D018D919C9111976E
:1001A00020813181821B930B11969C938E9381E069
:1001B000E031F80769F060F080E091E09093290168
:1001C0008093280184E498E411969C938E9305C053
:1001D0003296F0932901E09328015F9880913201D3
:1001E000909133014A96909333018093320120918C
:1001F000320130913301E0912A01F0912B0180818D
:1002000091812817390750F1289A109233011092E2
:100210003201A0912E01B0912F018D919C911197E7
:1002200020813181821B930B11969C938E9381E0E8
:10023000E432F80769F060F084E191E090932B01DB
:1002400080932A0184E498E411969C938E9305C0D0
:100250003296F0932B01E0932A01289880EB80934B
:10026000B200FF91EF91BF91AF919F918F913F911C
:100270002F910F900FBE0F901F901895DB01AA0FC2
:10028000BB1FFD01EC5AFE4F808191814817590731
:10029000F8F0FD01EC5CFE4F808191818417950799
:1002A000B8F06930710530F4A050BF4F11965C93DF
:1002B0004E930BC0FB013997E730F10548F4EE0F80
:1002C000FF1FEC5EFE4F5183408320E030E002C010
:1002D00021E030E0C9010895603171051CF021E092
:1002E00030E00EC0FB01EE0FFF1FDF01AC5CBE4F24
:1002F0002D933C93EC5AFE4F5183408320E030E035
:10030000C901089586E161E00E94580389E061E037
:100310000E94580310923101109230011092330163
:100320001092320180E091E090932901809328019E
:1003300024E131E030932B0120932A0142969093DF
:100340002D0180932C012E5E3F4F30932F0120937F
:100350002E0184E498E4909313018093120190930A
:1003600027018093260181E08093B1008093700083
:1003700080EB8093B20086E160E00E94580389E040
:1003800060E00E94580308950F931F93CF93DF936B
:1003900024E331E0C4E5D1E080E090E04CED55E0AD
:1003A00000ED17E068EE73E0FC01EE0FFF1FDF01C8
:1003B000A050BF4F11965C934E93EC5EFE4F51835D
:1003C0004083F901019311939F01699379930196F9
:1003D0008A30910549F786E161E00E943A0389E09D
:1003E00061E00E943A03579A209ADF91CF911F91C2
:1003F0000F91089584E791E00E94C40108950F933E
:100400001F93CF93DF9308EE13E019C084E791E0C8
:10041000BE01A8010E943E012196C031D105B1F76D
:1004200061E070E080E090E00E94D6020F5F1F4F15
:1004300087E0003D180719F400ED17E019C0C0E08F
:10044000D0E0E4CF84E791E0BE01A8010E943E0124
:100450002196C031D105B1F761E070E080E090E015
:100460000E94D6020150104083E0073E180719F0A1
:10047000C0E0D0E0E7CFDF91CF911F910F910895B9
:10048000CF93DF93C0E0D0E084E791E0BE0148EE77
:1004900053E020ED37E00E946C0184E791E0BE015B
:1004A0004CED55E00E943E012196C031D10561F727
:1004B00084E791E00E948201DF91CF9108950E942C
:1004C00000030E9440020E94FF01FDCF1F920F9285
:1004D0000FB60F9211242F938F939F93AF93BF93D7
:1004E0008091750190917601A0917701B09178018A
:1004F0000196A11DB11D8093750190937601A09383
:100500007701B09378018091790190917A01A0915F
:100510007B01B0917C018050904CAF4FBF4F8093D6
:10052000790190937A01A0937B01B0937C0127C05D
:100530008091790190917A01A0917B01B0917C0129
:1005400080589E43A040B0408093790190937A01F7
:10055000A0937B01B0937C0180917D0190917E01FD
:10056000A0917F01B09180010196A11DB11D8093E2
:100570007D0190937E01A0937F01B09380018091D3
:10058000790190917A01A0917B01B0917C01815811
:100590009E43A040B04060F6BF91AF919F918F9174
:1005A0002F910F900FBE0F901F901895EF92FF9212
:1005B0000F931F937B018C018FB7F89440917D01BD
:1005C00050917E0160917F01709180018FBF2FB7A4
:1005D000F89480917D0190917E01A0917F01B0916E
:1005E00080012FBF841B950BA60BB70BE816F906ED
:1005F0000A071B0760F71F910F91FF90EF90089576
:10060000789484B5826084BD84B5816084BD85B5ED
:10061000826085BD85B5816085BDEEE6F0E08081B4
:1006200081608083E1E8F0E0808182608083808166
:1006300081608083E0E8F0E0808181608083E1EB8D
:10064000F0E0808184608083E0EBF0E08081816075
:100650008083EAE7F0E0808184608083808182602B
:100660008083808181608083808180688083109214
:10067000C1000895282F30E0C90185559F4FFC0126
:10068000949125573F4FF9018491882381F0E82FF9
:10069000F0E0E458FF4FE491F0E0662329F4808114
:1006A00090958923808308958081892B8083089584
:1006B000482F50E0CA0185539F4FFC012491CA0185
:1006C00085559F4FFC01949145575F4FFA01349136
:1006D0003323C1F1222331F1213019F484B58F770E
:1006E00004C0223021F484B58F7D84BD1BC023302B
:1006F00021F4809180008F7705C0243031F48091FF
:1007000080008F7D809380000DC0263021F4809181
:10071000B0008F7705C0273029F48091B0008F7D1D
:100720008093B000E32FF0E0EF57FF4FE491F0E04B
:10073000662329F4808190958923808308958081A0
:10074000892B80830895EE0FFF1F0590F491E02D13
:060750000994F894FFCFAC
:00000001FF
