:100000000C9463000C948B000C948B000C94F405FE
:100010000C94CF050C94AA050C948B000C948B00C7
:100020000C948B000C948B000C948B000C948B0024
:100030000C948B000C948B000C948B000C948B0014
:100040000C9486060C948B000C94CA070C948B00BD
:100050000C948B000C948B000C948B000C948B00F4
:100060000C9499020C948B000000000024002700DF
:100070002A0000000000250028002B0000000000DE
:1000800023002600290004040404040404040202DA
:100090000202020203030303030301020408102007
:1000A0004080010204081020010204081020000012
:1000B0000007000201000003040600000000000029
:1000C0000000ED01750811241FBECFEFD8E0DEBFA0
:1000D000CDBF11E0A0E0B1E0E4EAF2E102C005909A
:1000E0000D92A034B107D9F713E0A0E4B1E001C04C
:1000F0001D92A435B107E1F710E0C6ECD0E004C0D2
:100100002297FE010E944C09C23CD107C9F70E9408
:100110007F060C9450090C9400000F931F93CF930B
:10012000DF93689F8001699F100D789F100D112447
:10013000C8010E94A900EC01009729F060E070E07E
:10014000A8010E94AB01CE01DF91CF911F910F91C9
:100150000895CF93DF93BC018230910510F462E0E3
:1001600070E0A0915203B0915303ED01E0E0F0E0A4
:1001700040E050E021C0888199818617970769F493
:100180008A819B81309719F09383828304C0909376
:10019000530380935203FE0134C06817790738F483
:1001A0004115510519F08417950708F4AC01FE01BB
:1001B0008A819B819C01E9012097E9F6411551054F
:1001C000A9F1CA01861B970B049708F4BA01E0E075
:1001D000F0E02AC08D919C91119784179507F9F44E
:1001E0006417750781F412968D919C91139730973F
:1001F00019F09383828304C0909353038093520336
:10020000FD0132964CC0CA01861B970BFD01E80F19
:10021000F91F6193719302978D939C9340C0FD01E8
:10022000828193819C01D9011097A1F6809150039E
:1002300090915103892B41F4809102019091030127
:100240009093510380935003409104015091050114
:100250004115510541F44DB75EB780910001909171
:100260000101481B590B2091500330915103CA01E1
:10027000821B930B8617970780F0AB014E5F5F4F91
:100280008417950750F0420F531F5093510340932A
:100290005003F9016193719302C0E0E0F0E0CF01F7
:1002A000DF91CF910895CF93DF93009709F450C069
:1002B000EC0122971B821A82A0915203B091530342
:1002C000109709F140E050E0AC17BD0708F1BB837F
:1002D000AA83FE0121913191E20FF31FAE17BF07F0
:1002E00079F48D919C911197280F391F2E5F3F4F04
:1002F0003983288312968D919C9113979B838A83CF
:100300004115510571F4D0935303C093520320C09B
:1003100012968D919C911397AD01009711F0DC011D
:10032000D3CFFA01D383C28321913191E20FF31F1E
:10033000CE17DF0769F488819981280F391F2E5F56
:100340003F4FFA01318320838A819B81938382838B
:10035000DF91CF910895DC0101C06D934150504071
:10036000E0F708959C0180914B0190914C01892BFD
:1003700011F190914201809143019817E0F090E0D3
:100380000BC0E0914001F0914101EA0FFB1FA20F69
:10039000B31F8C9180839F5FA92FB0E0A617B7078A
:1003A00084F31092420160934301E0914B01F0917C
:1003B0004C01CB0109950895E0914901F0914A0162
:1003C000309729F01092460110924701099508953F
:1003D00070934A016093490108950895DF93CF9384
:1003E0000F92CDB7DEB76983809148018823A9F0C9
:1003F000809147018032B0F480914601E091440140
:10040000F0914501E80FF11D6083809146018F5FF7
:10041000809346018093470105C0CE01019661E0BB
:100420000E9472020F90CF91DF910895EF92FF9298
:100430000F931F93CF93DF937C01042F809148018A
:10044000882359F0EB0110E005C0C70169910E94B3
:10045000EE011F5F1017C8F304C0CB01642F0E9488
:100460007202DF91CF911F910F91FF90EF9008954D
:1004700080E290E061E070E00E948D008093400196
:1004800090934101109242011092430180E290E06A
:1004900061E070E00E948D008093440190934501DB
:1004A00010924601109247010E941B0408950F9379
:1004B0001F938C01862F0E946E028CED91E00E94AA
:1004C000940282EB91E00E948F02C8010E943802E0
:1004D0001F910F9108950E9457020895880F8093ED
:1004E000BA000895482F613210F081E0089580919C
:1004F0004E01843011F082E0089560935B01A09179
:100500005801B0915901842F9C01F90102C08191D9
:100510008D938E2F841B8617D0F380E008959093DF
:10052000530180935201089590935101809350019B
:1005300008951F920F920FB60F9211242F933F939D
:100540004F935F936F937F938F939F93AF93BF93DB
:10055000EF93FF938091B90090E0887F9070803690
:10056000910509F4E2C081369105CCF588329105F8
:1005700009F47BC089329105B4F48031910509F406
:100580006FC0813191053CF4009709F438C1089798
:1005900009F040C165C08831910509F466C08097B3
:1005A00009F038C17FC08034910509F4A3C08134BB
:1005B000910544F48033910509F47FC0C89709F090
:1005C00029C186C08035910509F486C0883591051A
:1005D00009F495C08834910509F01CC19EC0883982
:1005E000910509F404C189399105ECF48837910526
:1005F00009F49BC0893791054CF48836910509F4BC
:1006000094C08037910509F005C18FC088389105E5
:1006100009F4EDC08039910509F48DC08038910549
:1006200009F0F8C088C0803B910509F4B2C0813B55
:1006300091054CF4803A910509F491C0883A9105EE
:1006400009F0E8C0A6C0803C910509F4D4C0883CFC
:10065000910509F4D0C0883B910509F0DBC0B1C019
:1006600080914F018093BB00C0C090915601809152
:100670005701981778F490915601E0915401F09148
:100680005501E90FF11D80818093BB009F5F90931E
:100690005601ABC085ED8093BC008091BC0084FD09
:1006A000FCCFB6C080E280935F0185ED8093BC00F3
:1006B0008091BC0084FDFCCFABC080E380935F01E0
:1006C00085ED8093BC008091BC0084FDFCCFA0C070
:1006D00088E380935F018FC0809156019091BB00A9
:1006E000E0915401F0915501E80FF11D90838F5F67
:1006F00080935601909156018091570174C080916A
:1007000056019091BB00E0915401F0915501E80F22
:10071000F11D90838F5F8093560185ED8093BC001F
:100720008091BC0084FDFCCF73C083E080934E01B8
:1007300010925E015AC080915E01803208F057C06D
:1007400080915E019091BB00E0915C01F0915D01B0
:10075000E80FF11D90838F5F80935E0146C080910A
:100760005E01803248F480915E01E0915C01F0917D
:100770005D01E80FF11D108260915E01E091520170
:10078000F091530180915C0190915D0170E00995B9
:1007900032C084E080934E0110925A0110925B01A6
:1007A000E0915001F0915101099580915B018823FE
:1007B00041F481E080935B01E0915801F09159018F
:1007C000108290915A01E0915801F0915901E90F7E
:1007D000F11D80818093BB009F5F90935A0190919F
:1007E0005A0180915B01981710F485EC01C085E8EF
:1007F0008093BC000FC085EC8093BC0009C01092B0
:100800005F0185ED8093BC008091BC0084FDFCCF2E
:1008100010924E01FF91EF91BF91AF919F918F91F7
:100820007F916F915F914F913F912F910F900FBEEC
:100830000F901F90189510924E01449A459AE9EB3B
:10084000F0E080818E7F808380818D7F808388E44B
:100850008093B80085E48093BC0080E290E061E082
:1008600070E00E948D00809354019093550180E2C6
:1008700090E061E070E00E948D00809358019093B9
:10088000590180E290E061E070E00E948D00809369
:100890005C0190935D01089582E060E00E945D0735
:1008A00083E060E00E945D0784E060E00E945D07F5
:1008B00085E060E00E945D0786E060E00E945D07E1
:1008C00087E060E00E945D0788E060E00E945D07CD
:1008D00089E060E00E945D078AE060E00E945D07B9
:1008E0008BE060E00E945D071092600161E070E0C3
:1008F0004DE050E042C0F0E0EE0FFF1FE65EFE4F1D
:10090000E0812E2F30E0C90186569F4FFC01949163
:100910002A573F4FF90124912223C1F0225030E0A1
:10092000F901EE0FFF1FE25DFE4F0190F081E02D17
:100930008081892B808380916800FB0102C0EE0FCB
:10094000FF1F2A95E2F78E2B8093680020916001AB
:10095000E22FF0E0EE0FFF1FE65EFE4F80819181F7
:10096000849FF001859FF00D949FF00D1124EB58AA
:10097000FE4FE0812F5F20936001E0916001EA303B
:1009800008F4B9CF08952F923F924F925F926F92E1
:100990007F928F929F92AF92BF92CF92DF92EF920F
:1009A000FF920F931F93DF93CF93CDB7DEB72C97B2
:1009B0000FB6F894DEBF0FBECDBF882E9924C401B8
:1009C000880F991F80589F4FFC01A591B4918C917D
:1009D000840103551D4FD801BC90B8268C93F401B7
:1009E000EE0FFF1FE25DFE4F0190F081E02D808150
:1009F000B82209F496C00E94CE066B017C01382C07
:100A0000330C330C330C60E070E091E0492E512C34
:100A10006B2C77241C870B870DE010E080E2882E7A
:100A200081ED982E8FEFA82E8FEFB82E22242394DD
:100A3000C201062E02C0880F991F0A94E2F7482FC0
:100A400050E0CA0186219721892B09F464C0232D27
:100A5000260FEB85FC85808190E04823592330E008
:100A6000452B31F1209FF001219FF00D309FF00DBB
:100A70001124EB58FE4F85819681A781B085C182F4
:100A8000D282E382F482A5019401281B390B4A0B20
:100A90005B0BDA01C9018C0D9D1DAE1DBF1D815E72
:100AA0009E42A040B04010F4208235C0808133C007
:100AB000209FA001219F500D309F500D11244B58B5
:100AC0005E4F5A874987FA0181819281A381B4815F
:100AD000A7019601281B390B4A0B5B0B2D833E8324
:100AE0004F835887C582D682E782F086265B3340E3
:100AF00040405040265634404040504060F4808191
:100B0000813049F42D813E814F815885218732877C
:100B10004387548710826F5F7F4F6830710509F0FB
:100B200087CF2C960FB6F894DEBF0FBECDBFCF9106
:100B3000DF911F910F91FF90EF90DF90CF90BF90CA
:100B4000AF909F908F907F906F905F904F903F906D
:100B50002F9008951F920F920FB60F9211242F938A
:100B60003F934F935F936F937F938F939F93AF9335
:100B7000BF93EF93FF9382E00E94C304FF91EF9134
:100B8000BF91AF919F918F917F916F915F914F91A5
:100B90003F912F910F900FBE0F901F9018951F92AD
:100BA0000F920FB60F9211242F933F934F935F93A1
:100BB0006F937F938F939F93AF93BF93EF93FF9325
:100BC00081E00E94C304FF91EF91BF91AF919F918B
:100BD0008F917F916F915F914F913F912F910F90E6
:100BE0000FBE0F901F9018951F920F920FB60F9285
:100BF00011242F933F934F935F936F937F938F9322
:100C00009F93AF93BF93EF93FF9380E00E94C30441
:100C1000FF91EF91BF91AF919F918F917F916F91D4
:100C20005F914F913F912F910F900FBE0F901F90AA
:100C3000189550E06DE070E01FC0252F30E04FB7F1
:100C4000F894220F331FF901EA5FFE4F808190E094
:100C5000869FF001879FF00D969FF00D1124EB58B1
:100C6000FE4F81859285A385B4854FBF2F593E4F96
:100C7000F901918380835F5F5A30F8F250936001ED
:100C80008DE491E061E671E044E10E94160208956E
:100C900080913401813011F460E001C061E0609323
:100CA00034018DE00E947D0764E670E080E090E012
:100CB0000E94F90608950F931F938DE393E040E09F
:100CC00052EC61E070E00E9407088DE061E00E9454
:100CD0005D078DE0609134010E947D070E944C0405
:100CE0000DE411E0C8016DE170E00E946B02C801E3
:100CF00069E176E00E94E8011F910F9108950E943A
:100D000023070E945B060E944806FDCF1F920F92A8
:100D10000FB60F9211242F933F938F939F93AF930E
:100D2000BF938091B4029091B502A091B602B091A8
:100D3000B7023091B8020196A11DB11D232F2D5F7E
:100D40002D3720F02D570196A11DB11D2093B8021B
:100D50008093B4029093B502A093B602B093B70209
:100D60008091B0029091B102A091B202B091B30211
:100D70000196A11DB11D8093B0029093B102A09382
:100D8000B202B093B302BF91AF919F918F913F9107
:100D90002F910F900FBE0F901F9018956FB7F8947A
:100DA00086B590E0A0E0B0E0A89B08C00097A10540
:100DB000B10521F480E091E0A0E0B0E02091B00224
:100DC0003091B1024091B2025091B3026FBF542FE3
:100DD000432F322F2227280F391F4A1F5B1F82E023
:100DE000220F331F441F551F8A95D1F7B901CA013D
:100DF0000895EF92FF920F931F937B018C018FB7A1
:100E0000F8944091B4025091B5026091B60270918D
:100E1000B7028FBF2FB7F8948091B4029091B502BA
:100E2000A091B602B091B7022FBF841B950BA60B01
:100E3000B70BE816F9060A071B0760F71F910F9119
:100E4000FF90EF900895789484B5826084BD84B556
:100E5000816084BD85B5826085BD85B5816085BDB5
:100E6000EEE6F0E0808181608083E1E8F0E080815F
:100E700082608083808181608083E0E8F0E080810F
:100E800081608083E1EBF0E0808184608083E0EB2F
:100E9000F0E0808181608083EAE7F0E08081846017
:100EA0008083808182608083808181608083808173
:100EB000806880831092C1000895282F30E0C90116
:100EC00086569F4FFC0194912A573F4FF901849118
:100ED000882391F0E82FF0E0EE0FFF1FE859FF4F55
:100EE000A591B491662329F48C91909589238C93D4
:100EF00008958C91892B8C930895482F50E0CA0156
:100F000082559F4FFC012491CA0186569F4FFC01D8
:100F100094914A575F4FFA0134913323D1F1222340
:100F200031F1233021F4809180008F7705C0243087
:100F300031F4809180008F7D8093800018C0213033
:100F400019F484B58F7704C0223021F484B58F7DE5
:100F500084BD0DC0263021F48091B0008F7705C08C
:100F6000273029F48091B0008F7D8093B000E32F6B
:100F7000F0E0EE0FFF1FEE58FF4FA591B4916623EE
:100F800029F48C91909589238C9308958C91892BC9
:100F90008C9308951F920F920FB60F9211242F93E6
:100FA0003F934F935F936F937F938F939F93AF93F1
:100FB000BF93EF93FF934091C600E0913903F09106
:100FC0003A03CF01019660E870E00E94E6089C01B8
:100FD00080913B0390913C032817390739F0E7547F
:100FE000FD4F408330933A0320933903FF91EF91F3
:100FF000BF91AF919F918F917F916F915F914F9131
:101000003F912F910F900FBE0F901F9018950F9347
:101010001F938C019A01AB01DC011896ED91FC91B4
:101020001997108260E874E88EE190E00E941B0935
:101030002150304040405040CA01B90122E030E028
:1010400040E050E00E941B09D8011496ED91FC91FC
:10105000159730831696ED91FC91179720831A9679
:10106000ED91FC911B97208141E050E0CA011E9652
:101070000C901E9702C0880F991F0A94E2F7282B44
:1010800020831A96ED91FC911B972081CA011F962F
:101090000C901F9702C0880F991F0A94E2F7282B23
:1010A00020831A96ED91FC911B97808150960C90AD
:1010B00002C0440F551F0A94E2F7842B80831F91CE
:1010C0000F910895FC01A085B18521898C9190E054
:1010D000022E02C0959587950A94E2F780FFF6CF1D
:1010E0000484F585E02D6083089589E391E0909371
:1010F0003E0380933D0389EB92E0909340038093FD
:101100003F0385EC90E0909342038093410384EC8D
:1011100090E0909344038093430380EC90E090939D
:1011200046038093450381EC90E0909348038093BD
:10113000470386EC90E090934A038093490384E050
:1011400080934B0383E080934C0387E080934D03AF
:1011500085E080934E0381E080934F0308950F93C1
:101160001F93CF93DF938C01EB0109C02196D80127
:10117000ED91FC910190F081E02DC8010995688105
:101180006623A1F7DF91CF911F910F910895EF9200
:10119000FF920F931F93CF93DF938C017B01EA01A2
:1011A0000CC0D7016D917D01D801ED91FC910190AA
:1011B000F081E02DC80109952197209791F7DF91E3
:1011C000CF911F910F91FF90EF90089597FB092EFB
:1011D00007260AD077FD04D049D006D000201AF4A3
:1011E000709561957F4F0895F6F7909581959F4F83
:1011F0000895A1E21A2EAA1BBB1BFD010DC0AA1F58
:10120000BB1FEE1FFF1FA217B307E407F50720F06F
:10121000A21BB30BE40BF50B661F771F881F991FEA
:101220001A9469F760957095809590959B01AC0133
:10123000BD01CF01089597FB092E05260ED057FD5D
:1012400004D0D7DF0AD0001C38F450954095309573
:1012500021953F4F4F4F5F4F0895F6F7909580953A
:10126000709561957F4F8F4F9F4F0895AA1BBB1BB1
:1012700051E107C0AA1FBB1FA617B70710F0A61B96
:10128000B70B881F991F5A95A9F780959095BC01B7
:10129000CD010895EE0FFF1F0590F491E02D099404
:0412A000F894FFCFF0
:1012A400200054030000120013001400150016005F
:1012B4001700000001000200030002000300040004
:1012C400050006000700080009000A000B006B0077
:1012D4006C006D0001000000006208AF08C7080040
:00000001FF
